{
	"data": {
		"bytecode": {
			"linkReferences": {},
			"object": "60806040526009600a62000014919062000f4a565b6335a4e90062000025919062000f9b565b6000196200003491906200102b565b60001962000043919062001063565b600c55604051806060016040528061019061ffff1681526020016101f461ffff168152602001600061ffff16815250600d60008201518160000160006101000a81548161ffff021916908361ffff16021790555060208201518160000160026101000a81548161ffff021916908361ffff16021790555060408201518160000160046101000a81548161ffff021916908361ffff16021790555050506040518060e00160405280605a61ffff16815260200160b461ffff16815260200160b461ffff168152602001605a61ffff16815260200160b461ffff16815260200160b461ffff16815260200161032a61ffff16815250600e60008201518160000160006101000a81548161ffff021916908361ffff16021790555060208201518160000160026101000a81548161ffff021916908361ffff16021790555060408201518160000160046101000a81548161ffff021916908361ffff16021790555060608201518160000160066101000a81548161ffff021916908361ffff16021790555060808201518160000160086101000a81548161ffff021916908361ffff16021790555060a082015181600001600a6101000a81548161ffff021916908361ffff16021790555060c082015181600001600c6101000a81548161ffff021916908361ffff1602179055505050604051806080016040528073fa9558299af1cc79d2b5a4cbf2fdb688a2f9895073ffffffffffffffffffffffffffffffffffffffff16815260200173f7064147826279bccd2bf34ffdba59a240aaeaae73ffffffffffffffffffffffffffffffffffffffff16815260200173927ce8dd4a3fc717af61624c7b959710f8b8c79173ffffffffffffffffffffffffffffffffffffffff168152602001732c81d3f1881f34e3aa442c23e2e1142c5293575a73ffffffffffffffffffffffffffffffffffffffff16815250601160008201518160000160006101000a81548173ffffffffffffffffffffffffffffffffffffffff021916908373ffffffffffffffffffffffffffffffffffffffff16021790555060208201518160010160006101000a81548173ffffffffffffffffffffffffffffffffffffffff021916908373ffffffffffffffffffffffffffffffffffffffff16021790555060408201518160020160006101000a81548173ffffffffffffffffffffffffffffffffffffffff021916908373ffffffffffffffffffffffffffffffffffffffff16021790555060608201518160030160006101000a81548173ffffffffffffffffffffffffffffffffffffffff021916908373ffffffffffffffffffffffffffffffffffffffff16021790555050506000601560016101000a81548160ff021916908315150217905550600a601955606460026009600a6200044c919062000f4a565b6335a4e9006200045d919062000f9b565b62000469919062000f9b565b6200047591906200109e565b601a55606460026009600a6200048c919062000f4a565b6335a4e9006200049d919062000f9b565b620004a9919062000f9b565b620004b591906200109e565b601b556000601c60006101000a81548160ff0219169083151502179055506000601c60016101000a81548160ff02191690831515021790555033601c60026101000a81548173ffffffffffffffffffffffffffffffffffffffff021916908373ffffffffffffffffffffffffffffffffffffffff160217905550600c54600080601c60029054906101000a900473ffffffffffffffffffffffffffffffffffffffff1673ffffffffffffffffffffffffffffffffffffffff1673ffffffffffffffffffffffffffffffffffffffff16815260200190815260200160002081905550601c60029054906101000a900473ffffffffffffffffffffffffffffffffffffffff1673ffffffffffffffffffffffffffffffffffffffff16600073ffffffffffffffffffffffffffffffffffffffff167fddf252ad1be2c89b69c2b068fc378daa952ba7f163c4a11628f55a4df523b3ef6009600a62000618919062000f4a565b6335a4e90062000629919062000f9b565b604051620006389190620010e7565b60405180910390a360894603620006a45773a5e0829caced8ffdd4de3c43696c57f7d7a678ff600f60016101000a81548173ffffffffffffffffffffffffffffffffffffffff021916908373ffffffffffffffffffffffffffffffffffffffff16021790555062000967565b6201388146036200070a5773a5e0829caced8ffdd4de3c43696c57f7d7a678ff600f60016101000a81548173ffffffffffffffffffffffffffffffffffffffff021916908373ffffffffffffffffffffffffffffffffffffffff16021790555062000966565b603846036200076e577310ed43c718714eb63d5aa57b78b54704e256024e600f60016101000a81548173ffffffffffffffffffffffffffffffffffffffff021916908373ffffffffffffffffffffffffffffffffffffffff16021790555062000965565b60614603620007d25773d99d1c33f9fc3444f8101754abc46c52416550d1600f60016101000a81548173ffffffffffffffffffffffffffffffffffffffff021916908373ffffffffffffffffffffffffffffffffffffffff16021790555062000964565b6001461480620007e25750600346145b80620007ee5750600446145b80620007fa5750600546145b156200085b57737a250d5630b4cf539739df2c5dacb4c659f2488d600f60016101000a81548173ffffffffffffffffffffffffffffffffffffffff021916908373ffffffffffffffffffffffffffffffffffffffff16021790555062000963565b61a86a4603620008c0577360ae616a2155ee3d9a68541ba4544862310933d4600f60016101000a81548173ffffffffffffffffffffffffffffffffffffffff021916908373ffffffffffffffffffffffffffffffffffffffff16021790555062000962565b60fa4603620009245773f491e7b69e4244ad4002bc14e878a34207e38c29600f60016101000a81548173ffffffffffffffffffffffffffffffffffffffff021916908373ffffffffffffffffffffffffffffffffffffffff16021790555062000961565b6040517f08c379a0000000000000000000000000000000000000000000000000000000008152600401620009589062001165565b60405180910390fd5b5b5b5b5b5b5b620009de601c60029054906101000a900473ffffffffffffffffffffffffffffffffffffffff16600f60019054906101000a900473ffffffffffffffffffffffffffffffffffffffff167fffffffffffffffffffffffffffffffffffffffffffffffffffffffffffffffff62000bdf60201b60201c565b62000a3330600f60019054906101000a900473ffffffffffffffffffffffffffffffffffffffff167fffffffffffffffffffffffffffffffffffffffffffffffffffffffffffffffff62000bdf60201b60201c565b600160066000601c60029054906101000a900473ffffffffffffffffffffffffffffffffffffffff1673ffffffffffffffffffffffffffffffffffffffff1673ffffffffffffffffffffffffffffffffffffffff16815260200190815260200160002060006101000a81548160ff0219169083151502179055506001600660003073ffffffffffffffffffffffffffffffffffffffff1673ffffffffffffffffffffffffffffffffffffffff16815260200190815260200160002060006101000a81548160ff02191690831515021790555060016006600061dead73ffffffffffffffffffffffffffffffffffffffff1673ffffffffffffffffffffffffffffffffffffffff16815260200190815260200160002060006101000a81548160ff021916908315150217905550600160046000601c60029054906101000a900473ffffffffffffffffffffffffffffffffffffffff1673ffffffffffffffffffffffffffffffffffffffff1673ffffffffffffffffffffffffffffffffffffffff16815260200190815260200160002060006101000a81548160ff021916908315150217905550620011f9565b600073ffffffffffffffffffffffffffffffffffffffff168373ffffffffffffffffffffffffffffffffffffffff160362000c51576040517f08c379a000000000000000000000000000000000000000000000000000000000815260040162000c4890620011d7565b60405180910390fd5b600073ffffffffffffffffffffffffffffffffffffffff168273ffffffffffffffffffffffffffffffffffffffff160362000cc3576040517f08c379a000000000000000000000000000000000000000000000000000000000815260040162000cba90620011d7565b60405180910390fd5b80600360008573ffffffffffffffffffffffffffffffffffffffff1673ffffffffffffffffffffffffffffffffffffffff16815260200190815260200160002060008473ffffffffffffffffffffffffffffffffffffffff1673ffffffffffffffffffffffffffffffffffffffff168152602001908152602001600020819055508173ffffffffffffffffffffffffffffffffffffffff168373ffffffffffffffffffffffffffffffffffffffff167f8c5be1e5ebec7d5bd14f71427d1e84f3dd0314c0f7b2291e5b200ac8c7c3b9258360405162000da39190620010e7565b60405180910390a3505050565b7f4e487b7100000000000000000000000000000000000000000000000000000000600052601160045260246000fd5b60008160011c9050919050565b6000808291508390505b600185111562000e3e5780860481111562000e165762000e1562000db0565b5b600185161562000e265780820291505b808102905062000e368562000ddf565b945062000df6565b94509492505050565b60008262000e59576001905062000f2c565b8162000e69576000905062000f2c565b816001811462000e82576002811462000e8d5762000ec3565b600191505062000f2c565b60ff84111562000ea25762000ea162000db0565b5b8360020a91508482111562000ebc5762000ebb62000db0565b5b5062000f2c565b5060208310610133831016604e8410600b841016171562000efd5782820a90508381111562000ef75762000ef662000db0565b5b62000f2c565b62000f0c848484600162000dec565b9250905081840481111562000f265762000f2562000db0565b5b81810290505b9392505050565b6000819050919050565b600060ff82169050919050565b600062000f578262000f33565b915062000f648362000f3d565b925062000f937fffffffffffffffffffffffffffffffffffffffffffffffffffffffffffffffff848462000e47565b905092915050565b600062000fa88262000f33565b915062000fb58362000f33565b9250817fffffffffffffffffffffffffffffffffffffffffffffffffffffffffffffffff048311821515161562000ff15762000ff062000db0565b5b828202905092915050565b7f4e487b7100000000000000000000000000000000000000000000000000000000600052601260045260246000fd5b6000620010388262000f33565b9150620010458362000f33565b92508262001058576200105762000ffc565b5b828206905092915050565b6000620010708262000f33565b91506200107d8362000f33565b92508282101562001093576200109262000db0565b5b828203905092915050565b6000620010ab8262000f33565b9150620010b88362000f33565b925082620010cb57620010ca62000ffc565b5b828204905092915050565b620010e18162000f33565b82525050565b6000602082019050620010fe6000830184620010d6565b92915050565b600082825260208201905092915050565b7f556e737570706f72746564206e6574776f726b00000000000000000000000000600082015250565b60006200114d60138362001104565b91506200115a8262001115565b602082019050919050565b6000602082019050818103600083015262001180816200113e565b9050919050565b7f45524332303a205a65726f204164647265737300000000000000000000000000600082015250565b6000620011bf60138362001104565b9150620011cc8262001187565b602082019050919050565b60006020820190508181036000830152620011f281620011b0565b9050919050565b61937980620012096000396000f3fe6080604052600436106104145760003560e01c8063590ffdce1161021e578063b7df8b3611610123578063ee5f4dd3116100ab578063f94aa1b41161007a578063f94aa1b414611092578063fb78680d146110c0578063fdb78c0e146110e9578063fe575a8714611114578063feadde9c146111515761041b565b8063ee5f4dd314610fc6578063eec2744e14611003578063f72f863b1461102c578063f8c1844d146110555761041b565b8063d69153c9116100f2578063d69153c914610ea9578063dd62ed3e14610ed2578063e0bf7fd114610f0f578063e1aeb58f14610f4c578063e550573d14610f895761041b565b8063b7df8b3614610dfb578063bfc2fc3514610e26578063cbc8709814610e4f578063cf84770614610e785761041b565b8063893d20e8116101a657806395d89b411161017557806395d89b4114610d00578063a9059cbb14610d2b578063aef0ebeb14610d68578063b1b08f7114610da5578063b3d514fb14610dd05761041b565b8063893d20e814610c6a5780638a63bd9b14610c955780638a8c523c14610cc05780639515ff2a14610cd75761041b565b806370a08231116101ed57806370a0823114610b8757806378648edf14610bc45780637d459db314610bdb57806380c581d114610c1857806383672f3e14610c415761041b565b8063590ffdce14610ab95780635cce86cd14610ae257806366fca98014610b1f5780636ebd007814610b5c5761041b565b8063285777511161032457806343c788bb116102ac5780634bbb93eb1161027b5780634bbb93eb146109c25780634e718e48146109ff5780634fb2e45d14610a285780634fbee19314610a5157806350a8e01614610a8e5761041b565b806343c788bb1461090657806343cc8c2a1461092f578063452ed4f11461096c5780634ada218b146109975761041b565b80632e8fa821116102f35780632e8fa82114610835578063313ce5671461086057806332cde6641461088b57806336fddb04146108b45780633f3cf56c146108dd5761041b565b806328577751146107775780632b112e49146107a25780632b28fc7a146107cd5780632d838119146107f85761041b565b8063095ea7b3116103a757806318fc02d11161037657806318fc02d11461065a5780631c5ae3b8146106975780631cdd3be3146106d457806323b872dd14610711578063260039571461074e5761041b565b8063095ea7b31461058a5780630dcbcf1c146105c75780630fa604e41461060457806318160ddd1461062f5761041b565b8063069d955f116103e3578063069d955f146104dc57806306fdde03146105095780630758d9241461053457806307dd79e01461055f5761041b565b8063024c2ddd1461042057806303fd2a451461045d5780630445b6671461048857806305bbedb6146104b35761041b565b3661041b57005b600080fd5b34801561042c57600080fd5b50610447600480360381019061044291906171ad565b61117a565b6040516104549190617206565b60405180910390f35b34801561046957600080fd5b5061047261119f565b60405161047f9190617230565b60405180910390f35b34801561049457600080fd5b5061049d6111a5565b6040516104aa9190617206565b60405180910390f35b3480156104bf57600080fd5b506104da60048036038101906104d591906173dc565b6111ab565b005b3480156104e857600080fd5b506104f16112d8565b60405161050093929190617455565b60405180910390f35b34801561051557600080fd5b5061051e61131a565b60405161052b9190617514565b60405180910390f35b34801561054057600080fd5b50610549611357565b6040516105569190617595565b60405180910390f35b34801561056b57600080fd5b5061057461137d565b60405161058191906175bf565b60405180910390f35b34801561059657600080fd5b506105b160048036038101906105ac9190617606565b611390565b6040516105be91906175bf565b60405180910390f35b3480156105d357600080fd5b506105ee60048036038101906105e99190617646565b6113a7565b6040516105fb91906175bf565b60405180910390f35b34801561061057600080fd5b506106196113fd565b6040516106269190617206565b60405180910390f35b34801561063b57600080fd5b5061064461141f565b6040516106519190617206565b60405180910390f35b34801561066657600080fd5b50610681600480360381019061067c9190617646565b611443565b60405161068e9190617206565b60405180910390f35b3480156106a357600080fd5b506106be60048036038101906106b99190617646565b61145b565b6040516106cb91906175bf565b60405180910390f35b3480156106e057600080fd5b506106fb60048036038101906106f69190617646565b61147b565b60405161070891906175bf565b60405180910390f35b34801561071d57600080fd5b5061073860048036038101906107339190617673565b61149b565b60405161074591906175bf565b60405180910390f35b34801561075a57600080fd5b50610775600480360381019061077091906176c6565b6115e8565b005b34801561078357600080fd5b5061078c61178b565b6040516107999190617206565b60405180910390f35b3480156107ae57600080fd5b506107b7611791565b6040516107c49190617206565b60405180910390f35b3480156107d957600080fd5b506107e26117de565b6040516107ef9190617206565b60405180910390f35b34801561080457600080fd5b5061081f600480360381019061081a9190617706565b6117e4565b60405161082c9190617206565b60405180910390f35b34801561084157600080fd5b5061084a61184b565b6040516108579190617206565b60405180910390f35b34801561086c57600080fd5b50610875611851565b604051610882919061774f565b60405180910390f35b34801561089757600080fd5b506108b260048036038101906108ad9190617796565b61185a565b005b3480156108c057600080fd5b506108db60048036038101906108d691906177e9565b611a47565b005b3480156108e957600080fd5b5061090460048036038101906108ff91906176c6565b611b6b565b005b34801561091257600080fd5b5061092d600480360381019061092891906178ec565b611d1b565b005b34801561093b57600080fd5b5061095660048036038101906109519190617646565b611efd565b60405161096391906175bf565b60405180910390f35b34801561097857600080fd5b50610981611f1d565b60405161098e9190617230565b60405180910390f35b3480156109a357600080fd5b506109ac611f43565b6040516109b991906175bf565b60405180910390f35b3480156109ce57600080fd5b506109e960048036038101906109e49190617706565b611f56565b6040516109f69190617206565b60405180910390f35b348015610a0b57600080fd5b50610a266004803603810190610a219190617706565b611fa2565b005b348015610a3457600080fd5b50610a4f6004803603810190610a4a9190617646565b6120b7565b005b348015610a5d57600080fd5b50610a786004803603810190610a739190617646565b612380565b604051610a8591906175bf565b60405180910390f35b348015610a9a57600080fd5b50610aa36123d6565b604051610ab091906175bf565b60405180910390f35b348015610ac557600080fd5b50610ae06004803603810190610adb91906177e9565b6123e9565b005b348015610aee57600080fd5b50610b096004803603810190610b049190617646565b61250d565b604051610b1691906175bf565b60405180910390f35b348015610b2b57600080fd5b50610b466004803603810190610b419190617646565b612563565b604051610b5391906175bf565b60405180910390f35b348015610b6857600080fd5b50610b71612583565b604051610b7e9190617206565b60405180910390f35b348015610b9357600080fd5b50610bae6004803603810190610ba99190617646565b6125a5565b604051610bbb9190617206565b60405180910390f35b348015610bd057600080fd5b50610bd961268f565b005b348015610be757600080fd5b50610c026004803603810190610bfd9190617646565b612768565b604051610c0f91906175bf565b60405180910390f35b348015610c2457600080fd5b50610c3f6004803603810190610c3a91906177e9565b6127be565b005b348015610c4d57600080fd5b50610c686004803603810190610c6391906179a2565b612946565b005b348015610c7657600080fd5b50610c7f612c44565b604051610c8c9190617230565b60405180910390f35b348015610ca157600080fd5b50610caa612c6e565b604051610cb791906175bf565b60405180910390f35b348015610ccc57600080fd5b50610cd5612d54565b005b348015610ce357600080fd5b50610cfe6004803603810190610cf991906177e9565b612f60565b005b348015610d0c57600080fd5b50610d15613862565b604051610d229190617514565b60405180910390f35b348015610d3757600080fd5b50610d526004803603810190610d4d9190617606565b61389f565b604051610d5f91906175bf565b60405180910390f35b348015610d7457600080fd5b50610d8f6004803603810190610d8a9190617646565b6138b7565b604051610d9c91906175bf565b60405180910390f35b348015610db157600080fd5b50610dba6138d7565b604051610dc79190617206565b60405180910390f35b348015610ddc57600080fd5b50610de56138dd565b604051610df29190617206565b60405180910390f35b348015610e0757600080fd5b50610e106138e3565b604051610e1d91906175bf565b60405180910390f35b348015610e3257600080fd5b50610e4d6004803603810190610e489190617a09565b6138f6565b005b348015610e5b57600080fd5b50610e766004803603810190610e719190617646565b6139f5565b005b348015610e8457600080fd5b50610e8d613c59565b604051610ea09796959493929190617a49565b60405180910390f35b348015610eb557600080fd5b50610ed06004803603810190610ecb9190617ab8565b613ceb565b005b348015610ede57600080fd5b50610ef96004803603810190610ef491906171ad565b613f83565b604051610f069190617206565b60405180910390f35b348015610f1b57600080fd5b50610f366004803603810190610f319190617646565b61400a565b604051610f4391906175bf565b60405180910390f35b348015610f5857600080fd5b50610f736004803603810190610f6e9190617646565b61402a565b604051610f809190617206565b60405180910390f35b348015610f9557600080fd5b50610fb06004803603810190610fab9190617646565b614042565b604051610fbd91906175bf565b60405180910390f35b348015610fd257600080fd5b50610fed6004803603810190610fe89190617646565b614062565b604051610ffa91906175bf565b60405180910390f35b34801561100f57600080fd5b5061102a600480360381019061102591906177e9565b614082565b005b34801561103857600080fd5b50611053600480360381019061104e9190617646565b6141a6565b005b34801561106157600080fd5b5061107c60048036038101906110779190617706565b614712565b6040516110899190617230565b60405180910390f35b34801561109e57600080fd5b506110a7614751565b6040516110b79493929190617b54565b60405180910390f35b3480156110cc57600080fd5b506110e760048036038101906110e29190617b99565b6147ef565b005b3480156110f557600080fd5b506110fe614ae1565b60405161110b91906175bf565b60405180910390f35b34801561112057600080fd5b5061113b60048036038101906111369190617646565b614af4565b60405161114891906175bf565b60405180910390f35b34801561115d57600080fd5b50611178600480360381019061117391906177e9565b614b4a565b005b6003602052816000526040600020602052806000526040600020600091509150505481565b61dead81565b60165481565b3373ffffffffffffffffffffffffffffffffffffffff16601c60029054906101000a900473ffffffffffffffffffffffffffffffffffffffff1673ffffffffffffffffffffffffffffffffffffffff161461123b576040517f08c379a000000000000000000000000000000000000000000000000000000000815260040161123290617c4c565b60405180910390fd5b60005b82518161ffff1610156112d3578160096000858461ffff168151811061126757611266617c6c565b5b602002602001015173ffffffffffffffffffffffffffffffffffffffff1673ffffffffffffffffffffffffffffffffffffffff16815260200190815260200160002060006101000a81548160ff02191690831515021790555080806112cb90617cca565b91505061123e565b505050565b600d8060000160009054906101000a900461ffff16908060000160029054906101000a900461ffff16908060000160049054906101000a900461ffff16905083565b60606040518060400160405280600e81526020017f4e696e6a612057617272696f7273000000000000000000000000000000000000815250905090565b600f60019054906101000a900473ffffffffffffffffffffffffffffffffffffffff1681565b600f60009054906101000a900460ff1681565b600061139d338484614c6e565b6001905092915050565b6000600560008373ffffffffffffffffffffffffffffffffffffffff1673ffffffffffffffffffffffffffffffffffffffff16815260200190815260200160002060009054906101000a900460ff169050919050565b60006009600a61140d9190617e27565b601b5461141a9190617ea1565b905090565b60006009600a61142f9190617e27565b6335a4e90061143e9190617ed2565b905090565b60006020528060005260406000206000915090505481565b60046020528060005260406000206000915054906101000a900460ff1681565b60096020528060005260406000206000915054906101000a900460ff1681565b60007fffffffffffffffffffffffffffffffffffffffffffffffffffffffffffffffff600360008673ffffffffffffffffffffffffffffffffffffffff1673ffffffffffffffffffffffffffffffffffffffff16815260200190815260200160002060003373ffffffffffffffffffffffffffffffffffffffff1673ffffffffffffffffffffffffffffffffffffffff16815260200190815260200160002054146115d45781600360008673ffffffffffffffffffffffffffffffffffffffff1673ffffffffffffffffffffffffffffffffffffffff16815260200190815260200160002060003373ffffffffffffffffffffffffffffffffffffffff1673ffffffffffffffffffffffffffffffffffffffff16815260200190815260200160002060008282546115cc9190617f2c565b925050819055505b6115df848484614e37565b90509392505050565b3373ffffffffffffffffffffffffffffffffffffffff16601c60029054906101000a900473ffffffffffffffffffffffffffffffffffffffff1673ffffffffffffffffffffffffffffffffffffffff1614611678576040517f08c379a000000000000000000000000000000000000000000000000000000000815260040161166f90617c4c565b60405180910390fd5b60646009600a6116889190617e27565b6335a4e9006116979190617ed2565b6116a19190617ea1565b81836009600a6116b19190617e27565b6335a4e9006116c09190617ed2565b6116ca9190617ed2565b6116d49190617ea1565b1015611715576040517f08c379a000000000000000000000000000000000000000000000000000000000815260040161170c90617fd2565b60405180910390fd5b80826009600a6117259190617e27565b6335a4e9006117349190617ed2565b61173e9190617ed2565b6117489190617ea1565b601b819055507f0c3b2f2aaf09ec1e96e6b7c99869f672447bfc8f29d707dfb338ad84f967b796828260405161177f929190617ff2565b60405180910390a15050565b60195481565b600061179d60006125a5565b6117a861dead6125a5565b6117b2919061801b565b6009600a6117c09190617e27565b6335a4e9006117cf9190617ed2565b6117d99190617f2c565b905090565b6107d081565b6000600c5482111561182b576040517f08c379a0000000000000000000000000000000000000000000000000000000008152600401611822906180e3565b60405180910390fd5b600061183561558a565b905080836118439190617ea1565b915050919050565b60175481565b60006009905090565b3373ffffffffffffffffffffffffffffffffffffffff16601c60029054906101000a900473ffffffffffffffffffffffffffffffffffffffff1673ffffffffffffffffffffffffffffffffffffffff16146118ea576040517f08c379a00000000000000000000000000000000000000000000000000000000081526004016118e190617c4c565b60405180910390fd5b600f60009054906101000a900460ff161561193a576040517f08c379a00000000000000000000000000000000000000000000000000000000081526004016119319061814f565b60405180910390fd5b6107d08361ffff161115801561195657506107d08261ffff1611155b801561196857506107d08161ffff1611155b6119a7576040517f08c379a000000000000000000000000000000000000000000000000000000000815260040161199e906181bb565b60405180910390fd5b82600d60000160006101000a81548161ffff021916908361ffff16021790555081600d60000160026101000a81548161ffff021916908361ffff16021790555080600d60000160046101000a81548161ffff021916908361ffff1602179055507f540dec552b2a7a44d3d6174e189be8d0b3e89bc5c82bc74c93a3b251afd123db838383604051611a3a93929190617455565b60405180910390a1505050565b3373ffffffffffffffffffffffffffffffffffffffff16601c60029054906101000a900473ffffffffffffffffffffffffffffffffffffffff1673ffffffffffffffffffffffffffffffffffffffff1614611ad7576040517f08c379a0000000000000000000000000000000000000000000000000000000008152600401611ace90617c4c565b60405180910390fd5b80600860008473ffffffffffffffffffffffffffffffffffffffff1673ffffffffffffffffffffffffffffffffffffffff16815260200190815260200160002060006101000a81548160ff0219169083151502179055507f74392251b09500cc108c71712e5e7e0392be9075a74a24f1494551cfa8e068708282604051611b5f9291906181db565b60405180910390a15050565b3373ffffffffffffffffffffffffffffffffffffffff16601c60029054906101000a900473ffffffffffffffffffffffffffffffffffffffff1673ffffffffffffffffffffffffffffffffffffffff1614611bfb576040517f08c379a0000000000000000000000000000000000000000000000000000000008152600401611bf290617c4c565b60405180910390fd5b6103e860056009600a611c0e9190617e27565b6335a4e900611c1d9190617ed2565b611c279190617ed2565b611c319190617ea1565b81836009600a611c419190617e27565b6335a4e900611c509190617ed2565b611c5a9190617ed2565b611c649190617ea1565b1015611ca5576040517f08c379a0000000000000000000000000000000000000000000000000000000008152600401611c9c90618276565b60405180910390fd5b80826009600a611cb59190617e27565b6335a4e900611cc49190617ed2565b611cce9190617ed2565b611cd89190617ea1565b601a819055507f9ccb61b09a9577f71565477d66091edf28d6ed480a8dd1aae2194e19865e881d8282604051611d0f929190617ff2565b60405180910390a15050565b3373ffffffffffffffffffffffffffffffffffffffff16601c60029054906101000a900473ffffffffffffffffffffffffffffffffffffffff1673ffffffffffffffffffffffffffffffffffffffff1614611dab576040517f08c379a0000000000000000000000000000000000000000000000000000000008152600401611da290617c4c565b60405180910390fd5b8051825114611def576040517f08c379a0000000000000000000000000000000000000000000000000000000008152600401611de6906182e2565b60405180910390fd5b60005b82518161ffff161015611ef8576009600a611e0d9190617e27565b828261ffff1681518110611e2457611e23617c6c565b5b6020026020010151611e369190617ed2565b611e3f336125a5565b1015611e80576040517f08c379a0000000000000000000000000000000000000000000000000000000008152600401611e779061834e565b60405180910390fd5b611ee433848361ffff1681518110611e9b57611e9a617c6c565b5b60200260200101516009600a611eb19190617e27565b858561ffff1681518110611ec857611ec7617c6c565b5b6020026020010151611eda9190617ed2565b600080600161590f565b508080611ef090617cca565b915050611df2565b505050565b60026020528060005260406000206000915054906101000a900460ff1681565b601060009054906101000a900473ffffffffffffffffffffffffffffffffffffffff1681565b601c60009054906101000a900460ff1681565b600061271082611f87601060009054906101000a900473ffffffffffffffffffffffffffffffffffffffff166125a5565b611f919190617ed2565b611f9b9190617ea1565b9050919050565b3373ffffffffffffffffffffffffffffffffffffffff16601c60029054906101000a900473ffffffffffffffffffffffffffffffffffffffff1673ffffffffffffffffffffffffffffffffffffffff1614612032576040517f08c379a000000000000000000000000000000000000000000000000000000000815260040161202990617c4c565b60405180910390fd5b6096811115612076576040517f08c379a000000000000000000000000000000000000000000000000000000000815260040161206d906183ba565b60405180910390fd5b806019819055507f1fb435878e213d939617ba034d16d5ffa73262162ea68685de8a5908c60de732816040516120ac9190617206565b60405180910390a150565b3373ffffffffffffffffffffffffffffffffffffffff16601c60029054906101000a900473ffffffffffffffffffffffffffffffffffffffff1673ffffffffffffffffffffffffffffffffffffffff1614612147576040517f08c379a000000000000000000000000000000000000000000000000000000000815260040161213e90617c4c565b60405180910390fd5b600073ffffffffffffffffffffffffffffffffffffffff168173ffffffffffffffffffffffffffffffffffffffff16141580156121b2575061dead73ffffffffffffffffffffffffffffffffffffffff168173ffffffffffffffffffffffffffffffffffffffff1614155b6121f1576040517f08c379a00000000000000000000000000000000000000000000000000000000081526004016121e89061844c565b60405180910390fd5b61221e601c60029054906101000a900473ffffffffffffffffffffffffffffffffffffffff1660006123e9565b6122298160016123e9565b6000612256601c60029054906101000a900473ffffffffffffffffffffffffffffffffffffffff166125a5565b11156122ba576122b8601c60029054906101000a900473ffffffffffffffffffffffffffffffffffffffff16826122ae601c60029054906101000a900473ffffffffffffffffffffffffffffffffffffffff166125a5565b600080600161590f565b505b6000601c60029054906101000a900473ffffffffffffffffffffffffffffffffffffffff16905081601c60026101000a81548173ffffffffffffffffffffffffffffffffffffffff021916908373ffffffffffffffffffffffffffffffffffffffff1602179055508173ffffffffffffffffffffffffffffffffffffffff168173ffffffffffffffffffffffffffffffffffffffff167f8be0079c531659141344cd1fd0a4f28419497f9722a3daafe3b4186f6b6457e060405160405180910390a35050565b6000600660008373ffffffffffffffffffffffffffffffffffffffff1673ffffffffffffffffffffffffffffffffffffffff16815260200190815260200160002060009054906101000a900460ff169050919050565b601c60019054906101000a900460ff1681565b3373ffffffffffffffffffffffffffffffffffffffff16601c60029054906101000a900473ffffffffffffffffffffffffffffffffffffffff1673ffffffffffffffffffffffffffffffffffffffff1614612479576040517f08c379a000000000000000000000000000000000000000000000000000000000815260040161247090617c4c565b60405180910390fd5b80600660008473ffffffffffffffffffffffffffffffffffffffff1673ffffffffffffffffffffffffffffffffffffffff16815260200190815260200160002060006101000a81548160ff0219169083151502179055507f3499bfcf9673677ba552f3fe2ea274ec7e6246da31c3c87e115b45a9b0db2efb82826040516125019291906181db565b60405180910390a15050565b6000600860008373ffffffffffffffffffffffffffffffffffffffff1673ffffffffffffffffffffffffffffffffffffffff16815260200190815260200160002060009054906101000a900460ff169050919050565b600b6020528060005260406000206000915054906101000a900460ff1681565b60006009600a6125939190617e27565b601a546125a09190617ea1565b905090565b6000600760008373ffffffffffffffffffffffffffffffffffffffff1673ffffffffffffffffffffffffffffffffffffffff16815260200190815260200160002060009054906101000a900460ff161561264057600160008373ffffffffffffffffffffffffffffffffffffffff1673ffffffffffffffffffffffffffffffffffffffff16815260200190815260200160002054905061268a565b6126876000808473ffffffffffffffffffffffffffffffffffffffff1673ffffffffffffffffffffffffffffffffffffffff168152602001908152602001600020546117e4565b90505b919050565b3373ffffffffffffffffffffffffffffffffffffffff16601c60029054906101000a900473ffffffffffffffffffffffffffffffffffffffff1673ffffffffffffffffffffffffffffffffffffffff161461271f576040517f08c379a000000000000000000000000000000000000000000000000000000000815260040161271690617c4c565b60405180910390fd5b6001600f60006101000a81548160ff0219169083151502179055507f86896658840680f8fbffc78d43d4cf530f280c75f9a50359942bb186230e6f4e60405160405180910390a1565b6000600760008373ffffffffffffffffffffffffffffffffffffffff1673ffffffffffffffffffffffffffffffffffffffff16815260200190815260200160002060009054906101000a900460ff169050919050565b3373ffffffffffffffffffffffffffffffffffffffff16601c60029054906101000a900473ffffffffffffffffffffffffffffffffffffffff1673ffffffffffffffffffffffffffffffffffffffff161461284e576040517f08c379a000000000000000000000000000000000000000000000000000000000815260040161284590617c4c565b60405180910390fd5b806128b0576000600260008473ffffffffffffffffffffffffffffffffffffffff1673ffffffffffffffffffffffffffffffffffffffff16815260200190815260200160002060006101000a81548160ff021916908315150217905550612909565b6001600260008473ffffffffffffffffffffffffffffffffffffffff1673ffffffffffffffffffffffffffffffffffffffff16815260200190815260200160002060006101000a81548160ff0219169083151502179055505b7f1831fb11bb171110fc94ffb34002ea962c4d071403b9eb6f07d92f59f37a685a828260405161293a9291906181db565b60405180910390a15050565b3373ffffffffffffffffffffffffffffffffffffffff16601c60029054906101000a900473ffffffffffffffffffffffffffffffffffffffff1673ffffffffffffffffffffffffffffffffffffffff16146129d6576040517f08c379a00000000000000000000000000000000000000000000000000000000081526004016129cd90617c4c565b60405180910390fd5b600073ffffffffffffffffffffffffffffffffffffffff168473ffffffffffffffffffffffffffffffffffffffff1614158015612a405750600073ffffffffffffffffffffffffffffffffffffffff168273ffffffffffffffffffffffffffffffffffffffff1614155b8015612a795750600073ffffffffffffffffffffffffffffffffffffffff168373ffffffffffffffffffffffffffffffffffffffff1614155b8015612ab25750600073ffffffffffffffffffffffffffffffffffffffff168173ffffffffffffffffffffffffffffffffffffffff1614155b612af1576040517f08c379a0000000000000000000000000000000000000000000000000000000008152600401612ae8906184b8565b60405180910390fd5b83601160000160006101000a81548173ffffffffffffffffffffffffffffffffffffffff021916908373ffffffffffffffffffffffffffffffffffffffff16021790555081601160010160006101000a81548173ffffffffffffffffffffffffffffffffffffffff021916908373ffffffffffffffffffffffffffffffffffffffff16021790555082601160020160006101000a81548173ffffffffffffffffffffffffffffffffffffffff021916908373ffffffffffffffffffffffffffffffffffffffff16021790555080601160030160006101000a81548173ffffffffffffffffffffffffffffffffffffffff021916908373ffffffffffffffffffffffffffffffffffffffff1602179055507f52b47f1ba26c2ee426fbf018dd47e477fc9dfbca9f4f4bd6448e8cb42cca80d984848484604051612c3694939291906184f9565b60405180910390a150505050565b6000601c60029054906101000a900473ffffffffffffffffffffffffffffffffffffffff16905090565b60003373ffffffffffffffffffffffffffffffffffffffff16601c60029054906101000a900473ffffffffffffffffffffffffffffffffffffffff1673ffffffffffffffffffffffffffffffffffffffff1614612d00576040517f08c379a0000000000000000000000000000000000000000000000000000000008152600401612cf790617c4c565b60405180910390fd5b612d4d30600f60019054906101000a900473ffffffffffffffffffffffffffffffffffffffff167fffffffffffffffffffffffffffffffffffffffffffffffffffffffffffffffff614c6e565b6001905090565b3373ffffffffffffffffffffffffffffffffffffffff16601c60029054906101000a900473ffffffffffffffffffffffffffffffffffffffff1673ffffffffffffffffffffffffffffffffffffffff1614612de4576040517f08c379a0000000000000000000000000000000000000000000000000000000008152600401612ddb90617c4c565b60405180910390fd5b601c60009054906101000a900460ff1615612e34576040517f08c379a0000000000000000000000000000000000000000000000000000000008152600401612e2b9061858a565b60405180910390fd5b601c60019054906101000a900460ff16612e83576040517f08c379a0000000000000000000000000000000000000000000000000000000008152600401612e7a906185f6565b60405180910390fd5b6001601c60006101000a81548160ff021916908315150217905550612710600a612ece601060009054906101000a900473ffffffffffffffffffffffffffffffffffffffff166125a5565b612ed89190617ed2565b612ee29190617ea1565b601681905550612710601e612f18601060009054906101000a900473ffffffffffffffffffffffffffffffffffffffff166125a5565b612f229190617ed2565b612f2c9190617ea1565b6017819055507f799663458a5ef2936f7fa0c99b3336c69c25890f82974f04e811e5bb359186c760405160405180910390a1565b3373ffffffffffffffffffffffffffffffffffffffff16601c60029054906101000a900473ffffffffffffffffffffffffffffffffffffffff1673ffffffffffffffffffffffffffffffffffffffff1614612ff0576040517f08c379a0000000000000000000000000000000000000000000000000000000008152600401612fe790617c4c565b60405180910390fd5b801561322f57600760008373ffffffffffffffffffffffffffffffffffffffff1673ffffffffffffffffffffffffffffffffffffffff16815260200190815260200160002060009054906101000a900460ff1661385e5760008060008473ffffffffffffffffffffffffffffffffffffffff1673ffffffffffffffffffffffffffffffffffffffff168152602001908152602001600020541115613119576130d56000808473ffffffffffffffffffffffffffffffffffffffff1673ffffffffffffffffffffffffffffffffffffffff168152602001908152602001600020546117e4565b600160008473ffffffffffffffffffffffffffffffffffffffff1673ffffffffffffffffffffffffffffffffffffffff168152602001908152602001600020819055505b6001600760008473ffffffffffffffffffffffffffffffffffffffff1673ffffffffffffffffffffffffffffffffffffffff16815260200190815260200160002060006101000a81548160ff021916908315150217905550601060009054906101000a900473ffffffffffffffffffffffffffffffffffffffff1673ffffffffffffffffffffffffffffffffffffffff168273ffffffffffffffffffffffffffffffffffffffff161461322a57600a829080600181540180825580915050600190039060005260206000200160009091909190916101000a81548173ffffffffffffffffffffffffffffffffffffffff021916908373ffffffffffffffffffffffffffffffffffffffff1602179055505b61385d565b8061385c57600760008373ffffffffffffffffffffffffffffffffffffffff1673ffffffffffffffffffffffffffffffffffffffff16815260200190815260200160002060009054906101000a900460ff161561385e57601060009054906101000a900473ffffffffffffffffffffffffffffffffffffffff1673ffffffffffffffffffffffffffffffffffffffff168273ffffffffffffffffffffffffffffffffffffffff1603613411576132e361558a565b600160008473ffffffffffffffffffffffffffffffffffffffff1673ffffffffffffffffffffffffffffffffffffffff1681526020019081526020016000205461332d9190617ed2565b6000808473ffffffffffffffffffffffffffffffffffffffff1673ffffffffffffffffffffffffffffffffffffffff168152602001908152602001600020819055506000600160008473ffffffffffffffffffffffffffffffffffffffff1673ffffffffffffffffffffffffffffffffffffffff168152602001908152602001600020819055506000600760008473ffffffffffffffffffffffffffffffffffffffff1673ffffffffffffffffffffffffffffffffffffffff16815260200190815260200160002060006101000a81548160ff02191690831515021790555061385b565b6001600a805490500361359b5761342661558a565b600160008473ffffffffffffffffffffffffffffffffffffffff1673ffffffffffffffffffffffffffffffffffffffff168152602001908152602001600020546134709190617ed2565b6000808473ffffffffffffffffffffffffffffffffffffffff1673ffffffffffffffffffffffffffffffffffffffff168152602001908152602001600020819055506000600160008473ffffffffffffffffffffffffffffffffffffffff1673ffffffffffffffffffffffffffffffffffffffff168152602001908152602001600020819055506000600760008473ffffffffffffffffffffffffffffffffffffffff1673ffffffffffffffffffffffffffffffffffffffff16815260200190815260200160002060006101000a81548160ff021916908315150217905550600a80548061356157613560618616565b5b6001900381819060005260206000200160006101000a81549073ffffffffffffffffffffffffffffffffffffffff0219169055905561385a565b60005b600a80549050811015613858578273ffffffffffffffffffffffffffffffffffffffff16600a82815481106135d6576135d5617c6c565b5b9060005260206000200160009054906101000a900473ffffffffffffffffffffffffffffffffffffffff1673ffffffffffffffffffffffffffffffffffffffff160361384557600a6001600a805490506136309190617f2c565b8154811061364157613640617c6c565b5b9060005260206000200160009054906101000a900473ffffffffffffffffffffffffffffffffffffffff16600a82815481106136805761367f617c6c565b5b9060005260206000200160006101000a81548173ffffffffffffffffffffffffffffffffffffffff021916908373ffffffffffffffffffffffffffffffffffffffff1602179055506136d061558a565b600160008573ffffffffffffffffffffffffffffffffffffffff1673ffffffffffffffffffffffffffffffffffffffff1681526020019081526020016000205461371a9190617ed2565b6000808573ffffffffffffffffffffffffffffffffffffffff1673ffffffffffffffffffffffffffffffffffffffff168152602001908152602001600020819055506000600160008573ffffffffffffffffffffffffffffffffffffffff1673ffffffffffffffffffffffffffffffffffffffff168152602001908152602001600020819055506000600760008573ffffffffffffffffffffffffffffffffffffffff1673ffffffffffffffffffffffffffffffffffffffff16815260200190815260200160002060006101000a81548160ff021916908315150217905550600a80548061380b5761380a618616565b5b6001900381819060005260206000200160006101000a81549073ffffffffffffffffffffffffffffffffffffffff02191690559055613858565b808061385090618645565b91505061359e565b505b5b5b5b5b5050565b60606040518060400160405280600381526020017f4e57540000000000000000000000000000000000000000000000000000000000815250905090565b60006138ac338484614e37565b506001905092915050565b60056020528060005260406000206000915054906101000a900460ff1681565b6107d081565b6107d081565b601860009054906101000a900460ff1681565b3373ffffffffffffffffffffffffffffffffffffffff16601c60029054906101000a900473ffffffffffffffffffffffffffffffffffffffff1673ffffffffffffffffffffffffffffffffffffffff1614613986576040517f08c379a000000000000000000000000000000000000000000000000000000000815260040161397d90617c4c565b60405180910390fd5b81601560016101000a81548160ff02191690831515021790555080601860006101000a81548160ff0219169083151502179055507f7b0a47d3b0234280b6c9213c5bbff44c8b6001bea7770b3950280f9141053257826040516139e991906175bf565b60405180910390a15050565b3373ffffffffffffffffffffffffffffffffffffffff16601c60029054906101000a900473ffffffffffffffffffffffffffffffffffffffff1673ffffffffffffffffffffffffffffffffffffffff1614613a85576040517f08c379a0000000000000000000000000000000000000000000000000000000008152600401613a7c90617c4c565b60405180910390fd5b3073ffffffffffffffffffffffffffffffffffffffff168173ffffffffffffffffffffffffffffffffffffffff1614158015613b0f57508073ffffffffffffffffffffffffffffffffffffffff16601060009054906101000a900473ffffffffffffffffffffffffffffffffffffffff1673ffffffffffffffffffffffffffffffffffffffff1614155b613b4e576040517f08c379a0000000000000000000000000000000000000000000000000000000008152600401613b45906186d9565b60405180910390fd5b6001600460008373ffffffffffffffffffffffffffffffffffffffff1673ffffffffffffffffffffffffffffffffffffffff16815260200190815260200160002060006101000a81548160ff0219169083151502179055506001600b60008373ffffffffffffffffffffffffffffffffffffffff1673ffffffffffffffffffffffffffffffffffffffff16815260200190815260200160002060006101000a81548160ff021916908315150217905550613c098160016123e9565b613c14816001612f60565b613c1f816001611a47565b7fe70b6f23b1273e9e23cd301fc51379d114c8259414a72b85a2c6a09aef10bd8581604051613c4e9190617230565b60405180910390a150565b600e8060000160009054906101000a900461ffff16908060000160029054906101000a900461ffff16908060000160049054906101000a900461ffff16908060000160069054906101000a900461ffff16908060000160089054906101000a900461ffff169080600001600a9054906101000a900461ffff169080600001600c9054906101000a900461ffff16905087565b3373ffffffffffffffffffffffffffffffffffffffff16601c60029054906101000a900473ffffffffffffffffffffffffffffffffffffffff1673ffffffffffffffffffffffffffffffffffffffff1614613d7b576040517f08c379a0000000000000000000000000000000000000000000000000000000008152600401613d7290617c4c565b60405180910390fd5b85600e60000160006101000a81548161ffff021916908361ffff16021790555084600e60000160026101000a81548161ffff021916908361ffff16021790555081600e60000160046101000a81548161ffff021916908361ffff16021790555083600e60000160086101000a81548161ffff021916908361ffff16021790555082600e60000160066101000a81548161ffff021916908361ffff16021790555080600e600001600a6101000a81548161ffff021916908361ffff1602179055508083858488613e4a91906186f9565b613e5491906186f9565b613e5e91906186f9565b613e6891906186f9565b600e600001600c6101000a81548161ffff021916908361ffff1602179055506000600d60000160029054906101000a900461ffff16600d60000160009054906101000a900461ffff16613ebb91906186f9565b61ffff16905080600e60000160009054906101000a900461ffff16600e600001600c9054906101000a900461ffff16613ef491906186f9565b61ffff161115613f39576040517f08c379a0000000000000000000000000000000000000000000000000000000008152600401613f30906187a3565b60405180910390fd5b7fe9ce8f967079e549abb66abe8acf518beb61f0ba67ee5dd49b82b1189e3afb82878787878787604051613f72969594939291906187c3565b60405180910390a150505050505050565b6000600360008473ffffffffffffffffffffffffffffffffffffffff1673ffffffffffffffffffffffffffffffffffffffff16815260200190815260200160002060008373ffffffffffffffffffffffffffffffffffffffff1673ffffffffffffffffffffffffffffffffffffffff16815260200190815260200160002054905092915050565b60066020528060005260406000206000915054906101000a900460ff1681565b60016020528060005260406000206000915090505481565b60086020528060005260406000206000915054906101000a900460ff1681565b60076020528060005260406000206000915054906101000a900460ff1681565b3373ffffffffffffffffffffffffffffffffffffffff16601c60029054906101000a900473ffffffffffffffffffffffffffffffffffffffff1673ffffffffffffffffffffffffffffffffffffffff1614614112576040517f08c379a000000000000000000000000000000000000000000000000000000000815260040161410990617c4c565b60405180910390fd5b80600960008473ffffffffffffffffffffffffffffffffffffffff1673ffffffffffffffffffffffffffffffffffffffff16815260200190815260200160002060006101000a81548160ff0219169083151502179055507f921341769c2075d1ae425396063d5ab65ff5006c4bc0bd0821e50ce51fb60123828260405161419a9291906181db565b60405180910390a15050565b3373ffffffffffffffffffffffffffffffffffffffff16601c60029054906101000a900473ffffffffffffffffffffffffffffffffffffffff1673ffffffffffffffffffffffffffffffffffffffff1614614236576040517f08c379a000000000000000000000000000000000000000000000000000000000815260040161422d90617c4c565b60405180910390fd5b600081905060008173ffffffffffffffffffffffffffffffffffffffff1663c45a01556040518163ffffffff1660e01b8152600401602060405180830381865afa158015614288573d6000803e3d6000fd5b505050506040513d601f19601f820116820180604052508101906142ac9190618839565b73ffffffffffffffffffffffffffffffffffffffff1663e6a43905308473ffffffffffffffffffffffffffffffffffffffff1663ad5c46486040518163ffffffff1660e01b8152600401602060405180830381865afa158015614313573d6000803e3d6000fd5b505050506040513d601f19601f820116820180604052508101906143379190618839565b6040518363ffffffff1660e01b8152600401614354929190618866565b602060405180830381865afa158015614371573d6000803e3d6000fd5b505050506040513d601f19601f820116820180604052508101906143959190618839565b9050600073ffffffffffffffffffffffffffffffffffffffff168173ffffffffffffffffffffffffffffffffffffffff160361456a578173ffffffffffffffffffffffffffffffffffffffff1663c45a01556040518163ffffffff1660e01b8152600401602060405180830381865afa158015614416573d6000803e3d6000fd5b505050506040513d601f19601f8201168201806040525081019061443a9190618839565b73ffffffffffffffffffffffffffffffffffffffff1663c9c65396308473ffffffffffffffffffffffffffffffffffffffff1663ad5c46486040518163ffffffff1660e01b8152600401602060405180830381865afa1580156144a1573d6000803e3d6000fd5b505050506040513d601f19601f820116820180604052508101906144c59190618839565b6040518363ffffffff1660e01b81526004016144e2929190618866565b6020604051808303816000875af1158015614501573d6000803e3d6000fd5b505050506040513d601f19601f820116820180604052508101906145259190618839565b601060006101000a81548173ffffffffffffffffffffffffffffffffffffffff021916908373ffffffffffffffffffffffffffffffffffffffff1602179055506145ac565b80601060006101000a81548173ffffffffffffffffffffffffffffffffffffffff021916908373ffffffffffffffffffffffffffffffffffffffff1602179055505b81600f60016101000a81548173ffffffffffffffffffffffffffffffffffffffff021916908373ffffffffffffffffffffffffffffffffffffffff160217905550600160026000601060009054906101000a900473ffffffffffffffffffffffffffffffffffffffff1673ffffffffffffffffffffffffffffffffffffffff1673ffffffffffffffffffffffffffffffffffffffff16815260200190815260200160002060006101000a81548160ff0219169083151502179055506146b430600f60019054906101000a900473ffffffffffffffffffffffffffffffffffffffff167fffffffffffffffffffffffffffffffffffffffffffffffffffffffffffffffff614c6e565b7f0b7d876ae8d87054bd191d9a2294c7bc50817a9efd22cb0376d4b14838eb271c600f60019054906101000a900473ffffffffffffffffffffffffffffffffffffffff166040516147059190617230565b60405180910390a1505050565b600a818154811061472257600080fd5b906000526020600020016000915054906101000a900473ffffffffffffffffffffffffffffffffffffffff1681565b60118060000160009054906101000a900473ffffffffffffffffffffffffffffffffffffffff16908060010160009054906101000a900473ffffffffffffffffffffffffffffffffffffffff16908060020160009054906101000a900473ffffffffffffffffffffffffffffffffffffffff16908060030160009054906101000a900473ffffffffffffffffffffffffffffffffffffffff16905084565b3373ffffffffffffffffffffffffffffffffffffffff16601c60029054906101000a900473ffffffffffffffffffffffffffffffffffffffff1673ffffffffffffffffffffffffffffffffffffffff161461487f576040517f08c379a000000000000000000000000000000000000000000000000000000000815260040161487690617c4c565b60405180910390fd5b82846009600a61488f9190617e27565b6335a4e90061489e9190617ed2565b6148a89190617ed2565b6148b29190617ea1565b60168190555080826009600a6148c89190617e27565b6335a4e9006148d79190617ed2565b6148e19190617ed2565b6148eb9190617ea1565b6017819055506017546016541115614938576040517f08c379a000000000000000000000000000000000000000000000000000000000815260040161492f90618901565b60405180910390fd5b6127106096614968601060009054906101000a900473ffffffffffffffffffffffffffffffffffffffff166125a5565b6149729190617ed2565b61497c9190617ea1565b60175411156149c0576040517f08c379a00000000000000000000000000000000000000000000000000000000081526004016149b790618993565b60405180910390fd5b620f42406009600a6149d29190617e27565b6335a4e9006149e19190617ed2565b6149eb9190617ea1565b6017541015614a2f576040517f08c379a0000000000000000000000000000000000000000000000000000000008152600401614a2690618a25565b60405180910390fd5b620f42406009600a614a419190617e27565b6335a4e900614a509190617ed2565b614a5a9190617ea1565b6016541015614a9e576040517f08c379a0000000000000000000000000000000000000000000000000000000008152600401614a9590618a25565b60405180910390fd5b7f8e5592317b89f85ad3e0fb9f24e6d1d9acb7d73a47ed48f41cfff9a96e702cd184848484604051614ad39493929190618a45565b60405180910390a150505050565b601560019054906101000a900460ff1681565b6000600960008373ffffffffffffffffffffffffffffffffffffffff1673ffffffffffffffffffffffffffffffffffffffff16815260200190815260200160002060009054906101000a900460ff169050919050565b3373ffffffffffffffffffffffffffffffffffffffff16601c60029054906101000a900473ffffffffffffffffffffffffffffffffffffffff1673ffffffffffffffffffffffffffffffffffffffff1614614bda576040517f08c379a0000000000000000000000000000000000000000000000000000000008152600401614bd190617c4c565b60405180910390fd5b80600560008473ffffffffffffffffffffffffffffffffffffffff1673ffffffffffffffffffffffffffffffffffffffff16815260200190815260200160002060006101000a81548160ff0219169083151502179055507f7f5ce2a14ac5d831e88d6e5cc41dcecd553ffd745e8558d7934978d386856f708282604051614c629291906181db565b60405180910390a15050565b600073ffffffffffffffffffffffffffffffffffffffff168373ffffffffffffffffffffffffffffffffffffffff1603614cdd576040517f08c379a0000000000000000000000000000000000000000000000000000000008152600401614cd490618ad6565b60405180910390fd5b600073ffffffffffffffffffffffffffffffffffffffff168273ffffffffffffffffffffffffffffffffffffffff1603614d4c576040517f08c379a0000000000000000000000000000000000000000000000000000000008152600401614d4390618ad6565b60405180910390fd5b80600360008573ffffffffffffffffffffffffffffffffffffffff1673ffffffffffffffffffffffffffffffffffffffff16815260200190815260200160002060008473ffffffffffffffffffffffffffffffffffffffff1673ffffffffffffffffffffffffffffffffffffffff168152602001908152602001600020819055508173ffffffffffffffffffffffffffffffffffffffff168373ffffffffffffffffffffffffffffffffffffffff167f8c5be1e5ebec7d5bd14f71427d1e84f3dd0314c0f7b2291e5b200ac8c7c3b92583604051614e2a9190617206565b60405180910390a3505050565b60008073ffffffffffffffffffffffffffffffffffffffff168473ffffffffffffffffffffffffffffffffffffffff1603614ea7576040517f08c379a0000000000000000000000000000000000000000000000000000000008152600401614e9e90618b68565b60405180910390fd5b600073ffffffffffffffffffffffffffffffffffffffff168373ffffffffffffffffffffffffffffffffffffffff1603614f16576040517f08c379a0000000000000000000000000000000000000000000000000000000008152600401614f0d90618bfa565b60405180910390fd5b60001515600960008673ffffffffffffffffffffffffffffffffffffffff1673ffffffffffffffffffffffffffffffffffffffff16815260200190815260200160002060009054906101000a900460ff16151514614fa9576040517f08c379a0000000000000000000000000000000000000000000000000000000008152600401614fa090618c8c565b60405180910390fd5b60001515600960008573ffffffffffffffffffffffffffffffffffffffff1673ffffffffffffffffffffffffffffffffffffffff16815260200190815260200160002060009054906101000a900460ff1615151461503c576040517f08c379a000000000000000000000000000000000000000000000000000000000815260040161503390618d1e565b60405180910390fd5b6000821161507f576040517f08c379a000000000000000000000000000000000000000000000000000000000815260040161507690618db0565b60405180910390fd5b6000806000600260008873ffffffffffffffffffffffffffffffffffffffff1673ffffffffffffffffffffffffffffffffffffffff16815260200190815260200160002060009054906101000a900460ff16156150df5760019250615140565b600260008773ffffffffffffffffffffffffffffffffffffffff1673ffffffffffffffffffffffffffffffffffffffff16815260200190815260200160002060009054906101000a900460ff161561513a576001915061513f565b600190505b5b61514a8787615ea3565b1561540157601c60009054906101000a900460ff1661519e576040517f08c379a000000000000000000000000000000000000000000000000000000000815260040161519590618e1c565b60405180910390fd5b82806151a75750815b1561529c57600860008873ffffffffffffffffffffffffffffffffffffffff1673ffffffffffffffffffffffffffffffffffffffff16815260200190815260200160002060009054906101000a900460ff161580156152505750600860008773ffffffffffffffffffffffffffffffffffffffff1673ffffffffffffffffffffffffffffffffffffffff16815260200190815260200160002060009054906101000a900460ff16155b1561529b57601a5485111561529a576040517f08c379a000000000000000000000000000000000000000000000000000000000815260040161529190618eae565b60405180910390fd5b5b5b600f60019054906101000a900473ffffffffffffffffffffffffffffffffffffffff1673ffffffffffffffffffffffffffffffffffffffff168673ffffffffffffffffffffffffffffffffffffffff16141580156152f8575081155b1561540057600860008773ffffffffffffffffffffffffffffffffffffffff1673ffffffffffffffffffffffffffffffffffffffff16815260200190815260200160002060009054906101000a900460ff161580156153a15750600b60008873ffffffffffffffffffffffffffffffffffffffff1673ffffffffffffffffffffffffffffffffffffffff16815260200190815260200160002060009054906101000a900460ff16155b156153ff57601b54856153b3886125a5565b6153bd919061801b565b11156153fe576040517f08c379a00000000000000000000000000000000000000000000000000000000081526004016153f590618f40565b60405180910390fd5b5b5b5b811561557057601560009054906101000a900460ff1661556f57601560019054906101000a900460ff1680156154815750600b60008773ffffffffffffffffffffffffffffffffffffffff1673ffffffffffffffffffffffffffffffffffffffff16815260200190815260200160002060009054906101000a900460ff16155b80156154d75750600b60008873ffffffffffffffffffffffffffffffffffffffff1673ffffffffffffffffffffffffffffffffffffffff16815260200190815260200160002060009054906101000a900460ff16155b1561556e5760006154e7306125a5565b9050601654811061556c5760006017549050601860009054906101000a900460ff16156155565761271060195461553f601060009054906101000a900473ffffffffffffffffffffffffffffffffffffffff166125a5565b6155499190617ed2565b6155539190617ea1565b90505b808210615561578091505b61556a8261610a565b505b505b5b5b61557e87878786868661590f565b93505050509392505050565b600080600c54905060006009600a6155a29190617e27565b6335a4e9006155b19190617ed2565b90506000829050600082905060076000601060009054906101000a900473ffffffffffffffffffffffffffffffffffffffff1673ffffffffffffffffffffffffffffffffffffffff1673ffffffffffffffffffffffffffffffffffffffff16815260200190815260200160002060009054906101000a900460ff1615615746576000806000601060009054906101000a900473ffffffffffffffffffffffffffffffffffffffff1673ffffffffffffffffffffffffffffffffffffffff1673ffffffffffffffffffffffffffffffffffffffff168152602001908152602001600020549050600060016000601060009054906101000a900473ffffffffffffffffffffffffffffffffffffffff1673ffffffffffffffffffffffffffffffffffffffff1673ffffffffffffffffffffffffffffffffffffffff1681526020019081526020016000205490508382118061570957508281115b1561572757848661571a9190617ea1565b965050505050505061590c565b81846157339190617f2c565b935080836157419190617f2c565b925050505b6000600a8054905011156158cf5760005b600a805490508160ff1610156158cd576000806000600a8460ff168154811061578357615782617c6c565b5b9060005260206000200160009054906101000a900473ffffffffffffffffffffffffffffffffffffffff1673ffffffffffffffffffffffffffffffffffffffff1673ffffffffffffffffffffffffffffffffffffffff168152602001908152602001600020549050600060016000600a8560ff168154811061580857615807617c6c565b5b9060005260206000200160009054906101000a900473ffffffffffffffffffffffffffffffffffffffff1673ffffffffffffffffffffffffffffffffffffffff1673ffffffffffffffffffffffffffffffffffffffff1681526020019081526020016000205490508482118061587d57508381115b1561589c57858761588e9190617ea1565b97505050505050505061590c565b81856158a89190617f2c565b945080846158b69190617f2c565b9350505080806158c590618f60565b915050615757565b505b82846158db9190617ea1565b8210156158f95782846158ee9190617ea1565b94505050505061590c565b80826159059190617ea1565b9450505050505b90565b60008060019050600660008973ffffffffffffffffffffffffffffffffffffffff1673ffffffffffffffffffffffffffffffffffffffff16815260200190815260200160002060009054906101000a900460ff16806159b75750600660008873ffffffffffffffffffffffffffffffffffffffff1673ffffffffffffffffffffffffffffffffffffffff16815260200190815260200160002060009054906101000a900460ff165b156159c157600090505b60006159d08988848989616ad5565b905080608001516000808b73ffffffffffffffffffffffffffffffffffffffff1673ffffffffffffffffffffffffffffffffffffffff16815260200190815260200160002054615a209190617f2c565b6000808b73ffffffffffffffffffffffffffffffffffffffff1673ffffffffffffffffffffffffffffffffffffffff1681526020019081526020016000208190555080606001516000808a73ffffffffffffffffffffffffffffffffffffffff1673ffffffffffffffffffffffffffffffffffffffff16815260200190815260200160002054615ab0919061801b565b6000808a73ffffffffffffffffffffffffffffffffffffffff1673ffffffffffffffffffffffffffffffffffffffff16815260200190815260200160002081905550600760008a73ffffffffffffffffffffffffffffffffffffffff1673ffffffffffffffffffffffffffffffffffffffff16815260200190815260200160002060009054906101000a900460ff1615615bd35786600160008b73ffffffffffffffffffffffffffffffffffffffff1673ffffffffffffffffffffffffffffffffffffffff16815260200190815260200160002054615b8f9190617f2c565b600160008b73ffffffffffffffffffffffffffffffffffffffff1673ffffffffffffffffffffffffffffffffffffffff168152602001908152602001600020819055505b600760008973ffffffffffffffffffffffffffffffffffffffff1673ffffffffffffffffffffffffffffffffffffffff16815260200190815260200160002060009054906101000a900460ff1615615cb8578060000151600160008a73ffffffffffffffffffffffffffffffffffffffff1673ffffffffffffffffffffffffffffffffffffffff16815260200190815260200160002054615c74919061801b565b600160008a73ffffffffffffffffffffffffffffffffffffffff1673ffffffffffffffffffffffffffffffffffffffff168152602001908152602001600020819055505b60008160a001511180615ccf575060008160200151115b15615cf2578060a00151600c6000828254615cea9190617f2c565b925050819055505b8773ffffffffffffffffffffffffffffffffffffffff168973ffffffffffffffffffffffffffffffffffffffff167fddf252ad1be2c89b69c2b068fc378daa952ba7f163c4a11628f55a4df523b3ef8360000151604051615d539190617206565b60405180910390a3601c60019054906101000a900460ff16615e9357615d798989616f22565b601c60019054906101000a900460ff16158015615d9c5750615d9b8989615ea3565b5b8015615df25750600560008a73ffffffffffffffffffffffffffffffffffffffff1673ffffffffffffffffffffffffffffffffffffffff16815260200190815260200160002060009054906101000a900460ff16155b8015615e485750600560008973ffffffffffffffffffffffffffffffffffffffff1673ffffffffffffffffffffffffffffffffffffffff16815260200190815260200160002060009054906101000a900460ff16155b8015615e52575083155b15615e92576040517f08c379a0000000000000000000000000000000000000000000000000000000008152600401615e8990618ffb565b60405180910390fd5b5b6001925050509695505050505050565b6000601c60029054906101000a900473ffffffffffffffffffffffffffffffffffffffff1673ffffffffffffffffffffffffffffffffffffffff168373ffffffffffffffffffffffffffffffffffffffff1614158015615f515750601c60029054906101000a900473ffffffffffffffffffffffffffffffffffffffff1673ffffffffffffffffffffffffffffffffffffffff168273ffffffffffffffffffffffffffffffffffffffff1614155b8015615fab5750601c60029054906101000a900473ffffffffffffffffffffffffffffffffffffffff1673ffffffffffffffffffffffffffffffffffffffff163273ffffffffffffffffffffffffffffffffffffffff1614155b80156160015750600460008373ffffffffffffffffffffffffffffffffffffffff1673ffffffffffffffffffffffffffffffffffffffff16815260200190815260200160002060009054906101000a900460ff16155b80156160575750600460008473ffffffffffffffffffffffffffffffffffffffff1673ffffffffffffffffffffffffffffffffffffffff16815260200190815260200160002060009054906101000a900460ff16155b8015616091575061dead73ffffffffffffffffffffffffffffffffffffffff168273ffffffffffffffffffffffffffffffffffffffff1614155b80156160ca5750600073ffffffffffffffffffffffffffffffffffffffff168273ffffffffffffffffffffffffffffffffffffffff1614155b801561610257503073ffffffffffffffffffffffffffffffffffffffff168373ffffffffffffffffffffffffffffffffffffffff1614155b905092915050565b6001601560006101000a81548160ff0219169083151502179055506000600e6040518060e00160405290816000820160009054906101000a900461ffff1661ffff1661ffff1681526020016000820160029054906101000a900461ffff1661ffff1661ffff1681526020016000820160049054906101000a900461ffff1661ffff1661ffff1681526020016000820160069054906101000a900461ffff1661ffff1661ffff1681526020016000820160089054906101000a900461ffff1661ffff1661ffff16815260200160008201600a9054906101000a900461ffff1661ffff1661ffff16815260200160008201600c9054906101000a900461ffff1661ffff1661ffff1681525050905060008160c0015161ffff160361622c5750616ab7565b7fffffffffffffffffffffffffffffffffffffffffffffffffffffffffffffffff600360003073ffffffffffffffffffffffffffffffffffffffff1673ffffffffffffffffffffffffffffffffffffffff1681526020019081526020016000206000600f60019054906101000a900473ffffffffffffffffffffffffffffffffffffffff1673ffffffffffffffffffffffffffffffffffffffff1673ffffffffffffffffffffffffffffffffffffffff16815260200190815260200160002054146163b5577fffffffffffffffffffffffffffffffffffffffffffffffffffffffffffffffff600360003073ffffffffffffffffffffffffffffffffffffffff1673ffffffffffffffffffffffffffffffffffffffff1681526020019081526020016000206000600f60019054906101000a900473ffffffffffffffffffffffffffffffffffffffff1673ffffffffffffffffffffffffffffffffffffffff1673ffffffffffffffffffffffffffffffffffffffff168152602001908152602001600020819055505b600060028260c0015161ffff16836020015161ffff16856163d69190617ed2565b6163e09190617ea1565b6163ea9190617ea1565b9050600081846163fa9190617f2c565b90506000600267ffffffffffffffff81111561641957616418617261565b5b6040519080825280602002602001820160405280156164475781602001602082028036833780820191505090505b509050308160008151811061645f5761645e617c6c565b5b602002602001019073ffffffffffffffffffffffffffffffffffffffff16908173ffffffffffffffffffffffffffffffffffffffff1681525050600f60019054906101000a900473ffffffffffffffffffffffffffffffffffffffff1673ffffffffffffffffffffffffffffffffffffffff1663ad5c46486040518163ffffffff1660e01b8152600401602060405180830381865afa158015616506573d6000803e3d6000fd5b505050506040513d601f19601f8201168201806040525081019061652a9190618839565b8160018151811061653e5761653d617c6c565b5b602002602001019073ffffffffffffffffffffffffffffffffffffffff16908173ffffffffffffffffffffffffffffffffffffffff1681525050600f60019054906101000a900473ffffffffffffffffffffffffffffffffffffffff1673ffffffffffffffffffffffffffffffffffffffff1663791ac9478360008430426040518663ffffffff1660e01b81526004016165dc959493929190619114565b600060405180830381600087803b1580156165f657600080fd5b505af1925050508015616607575060015b6166145750505050616ab7565b600047905060008385836166289190617ed2565b6166329190617ea1565b9050600085111561672e57600f60019054906101000a900473ffffffffffffffffffffffffffffffffffffffff1673ffffffffffffffffffffffffffffffffffffffff1663f305d71982308860008061dead426040518863ffffffff1660e01b81526004016166a69695949392919061916e565b60606040518083038185885af1935050505080156166e257506040513d601f19601f820116820180604052508101906166df91906191e4565b60015b6166f157505050505050616ab7565b5050507f424db2872186fa7e7afa7a5e902ed3b49a2ef19c2f5431e672462495dd6b45068186604051616725929190617ff2565b60405180910390a15b808261673a9190617f2c565b915085602001518660c0018181516167529190619237565b91509061ffff16908161ffff16815250506000808760c0015161ffff16886060015161ffff16856167839190617ed2565b61678d9190617ea1565b905060008860c0015161ffff16896040015161ffff16866167ae9190617ed2565b6167b89190617ea1565b905060008960c0015161ffff168a6080015161ffff16876167d99190617ed2565b6167e39190617ea1565b90506000818385896167f59190617f2c565b6167ff9190617f2c565b6168099190617f2c565b905060008b6060015161ffff1611156168b357601160010160009054906101000a900473ffffffffffffffffffffffffffffffffffffffff1673ffffffffffffffffffffffffffffffffffffffff168461d6d8906040516168699061929c565b600060405180830381858888f193505050503d80600081146168a7576040519150601f19603f3d011682016040523d82523d6000602084013e6168ac565b606091505b5050809550505b60008b6040015161ffff16111561695b57601160000160009054906101000a900473ffffffffffffffffffffffffffffffffffffffff1673ffffffffffffffffffffffffffffffffffffffff168361d6d8906040516169119061929c565b600060405180830381858888f193505050503d806000811461694f576040519150601f19603f3d011682016040523d82523d6000602084013e616954565b606091505b5050809550505b60008b6080015161ffff161115616a0357601160020160009054906101000a900473ffffffffffffffffffffffffffffffffffffffff1673ffffffffffffffffffffffffffffffffffffffff168261d6d8906040516169b99061929c565b600060405180830381858888f193505050503d80600081146169f7576040519150601f19603f3d011682016040523d82523d6000602084013e6169fc565b606091505b5050809550505b60008b60a0015161ffff161115616aab57601160030160009054906101000a900473ffffffffffffffffffffffffffffffffffffffff1673ffffffffffffffffffffffffffffffffffffffff168161d6d890604051616a619061929c565b600060405180830381858888f193505050503d8060008114616a9f576040519150601f19603f3d011682016040523d82523d6000602084013e616aa4565b606091505b5050809550505b50505050505050505050505b6000601560006101000a81548160ff02191690831515021790555050565b616add6170fe565b616ae56170fe565b6000600e6040518060e00160405290816000820160009054906101000a900461ffff1661ffff1661ffff1681526020016000820160029054906101000a900461ffff1661ffff1661ffff1681526020016000820160049054906101000a900461ffff1661ffff1661ffff1681526020016000820160069054906101000a900461ffff1661ffff1661ffff1681526020016000820160089054906101000a900461ffff1661ffff1661ffff16815260200160008201600a9054906101000a900461ffff1661ffff1661ffff16815260200160008201600c9054906101000a900461ffff1661ffff1661ffff16815250509050616bde61558a565b8260c00181815250508160c0015187616bf79190617ed2565b826080018181525050600081600001518260c00151616c1691906186f9565b61ffff16905060008103616c2957600096505b8615616d415760008615616c5657600d60000160009054906101000a900461ffff1661ffff169050616c97565b8515616c7b57600d60000160029054906101000a900461ffff1661ffff169050616c96565b600d60000160049054906101000a900461ffff1661ffff1690505b5b6000612710828b616ca89190617ed2565b616cb29190617ea1565b905082846000015161ffff1682616cc99190617ed2565b616cd39190617ea1565b856020018181525050846020015181616cec9190617f2c565b85604001818152505084604001518560200151616d09919061801b565b8a616d149190617f2c565b8560000181815250508460c001518560200151616d319190617ed2565b8560a00181815250505050616d4c565b878360000181815250505b600083604001511115616ed8578260c001518360400151616d6d9190617ed2565b6000803073ffffffffffffffffffffffffffffffffffffffff1673ffffffffffffffffffffffffffffffffffffffff1681526020019081526020016000206000828254616dba919061801b565b92505081905550600760003073ffffffffffffffffffffffffffffffffffffffff1673ffffffffffffffffffffffffffffffffffffffff16815260200190815260200160002060009054906101000a900460ff1615616e6e578260400151600160003073ffffffffffffffffffffffffffffffffffffffff1673ffffffffffffffffffffffffffffffffffffffff1681526020019081526020016000206000828254616e66919061801b565b925050819055505b3073ffffffffffffffffffffffffffffffffffffffff168973ffffffffffffffffffffffffffffffffffffffff167fddf252ad1be2c89b69c2b068fc378daa952ba7f163c4a11628f55a4df523b3ef8560400151604051616ecf9190617206565b60405180910390a35b8260c001518360400151616eec9190617ed2565b8360a00151616efb919061801b565b8360800151616f0a9190617f2c565b83606001818152505082935050505095945050505050565b601c60019054906101000a900460ff1615616f72576040517f08c379a0000000000000000000000000000000000000000000000000000000008152600401616f6990619323565b60405180910390fd5b616f7c8282615ea3565b158015616fd65750601060009054906101000a900473ffffffffffffffffffffffffffffffffffffffff1673ffffffffffffffffffffffffffffffffffffffff168173ffffffffffffffffffffffffffffffffffffffff16145b156170fa576001600460008473ffffffffffffffffffffffffffffffffffffffff1673ffffffffffffffffffffffffffffffffffffffff16815260200190815260200160002060006101000a81548160ff0219169083151502179055506001600660008473ffffffffffffffffffffffffffffffffffffffff1673ffffffffffffffffffffffffffffffffffffffff16815260200190815260200160002060006101000a81548160ff0219169083151502179055506001601c60016101000a81548160ff0219169083151502179055506001601560016101000a81548160ff0219169083151502179055507f7b0a47d3b0234280b6c9213c5bbff44c8b6001bea7770b3950280f914105325760016040516170f191906175bf565b60405180910390a15b5050565b6040518060e00160405280600081526020016000815260200160008152602001600081526020016000815260200160008152602001600081525090565b6000604051905090565b600080fd5b600080fd5b600073ffffffffffffffffffffffffffffffffffffffff82169050919050565b600061717a8261714f565b9050919050565b61718a8161716f565b811461719557600080fd5b50565b6000813590506171a781617181565b92915050565b600080604083850312156171c4576171c3617145565b5b60006171d285828601617198565b92505060206171e385828601617198565b9150509250929050565b6000819050919050565b617200816171ed565b82525050565b600060208201905061721b60008301846171f7565b92915050565b61722a8161716f565b82525050565b60006020820190506172456000830184617221565b92915050565b600080fd5b6000601f19601f8301169050919050565b7f4e487b7100000000000000000000000000000000000000000000000000000000600052604160045260246000fd5b61729982617250565b810181811067ffffffffffffffff821117156172b8576172b7617261565b5b80604052505050565b60006172cb61713b565b90506172d78282617290565b919050565b600067ffffffffffffffff8211156172f7576172f6617261565b5b602082029050602081019050919050565b600080fd5b600061732061731b846172dc565b6172c1565b9050808382526020820190506020840283018581111561734357617342617308565b5b835b8181101561736c57806173588882617198565b845260208401935050602081019050617345565b5050509392505050565b600082601f83011261738b5761738a61724b565b5b813561739b84826020860161730d565b91505092915050565b60008115159050919050565b6173b9816173a4565b81146173c457600080fd5b50565b6000813590506173d6816173b0565b92915050565b600080604083850312156173f3576173f2617145565b5b600083013567ffffffffffffffff8111156174115761741061714a565b5b61741d85828601617376565b925050602061742e858286016173c7565b9150509250929050565b600061ffff82169050919050565b61744f81617438565b82525050565b600060608201905061746a6000830186617446565b6174776020830185617446565b6174846040830184617446565b949350505050565b600081519050919050565b600082825260208201905092915050565b60005b838110156174c65780820151818401526020810190506174ab565b838111156174d5576000848401525b50505050565b60006174e68261748c565b6174f08185617497565b93506175008185602086016174a8565b61750981617250565b840191505092915050565b6000602082019050818103600083015261752e81846174db565b905092915050565b6000819050919050565b600061755b6175566175518461714f565b617536565b61714f565b9050919050565b600061756d82617540565b9050919050565b600061757f82617562565b9050919050565b61758f81617574565b82525050565b60006020820190506175aa6000830184617586565b92915050565b6175b9816173a4565b82525050565b60006020820190506175d460008301846175b0565b92915050565b6175e3816171ed565b81146175ee57600080fd5b50565b600081359050617600816175da565b92915050565b6000806040838503121561761d5761761c617145565b5b600061762b85828601617198565b925050602061763c858286016175f1565b9150509250929050565b60006020828403121561765c5761765b617145565b5b600061766a84828501617198565b91505092915050565b60008060006060848603121561768c5761768b617145565b5b600061769a86828701617198565b93505060206176ab86828701617198565b92505060406176bc868287016175f1565b9150509250925092565b600080604083850312156176dd576176dc617145565b5b60006176eb858286016175f1565b92505060206176fc858286016175f1565b9150509250929050565b60006020828403121561771c5761771b617145565b5b600061772a848285016175f1565b91505092915050565b600060ff82169050919050565b61774981617733565b82525050565b60006020820190506177646000830184617740565b92915050565b61777381617438565b811461777e57600080fd5b50565b6000813590506177908161776a565b92915050565b6000806000606084860312156177af576177ae617145565b5b60006177bd86828701617781565b93505060206177ce86828701617781565b92505060406177df86828701617781565b9150509250925092565b60008060408385031215617800576177ff617145565b5b600061780e85828601617198565b925050602061781f858286016173c7565b9150509250929050565b600067ffffffffffffffff82111561784457617843617261565b5b602082029050602081019050919050565b600061786861786384617829565b6172c1565b9050808382526020820190506020840283018581111561788b5761788a617308565b5b835b818110156178b457806178a088826175f1565b84526020840193505060208101905061788d565b5050509392505050565b600082601f8301126178d3576178d261724b565b5b81356178e3848260208601617855565b91505092915050565b6000806040838503121561790357617902617145565b5b600083013567ffffffffffffffff8111156179215761792061714a565b5b61792d85828601617376565b925050602083013567ffffffffffffffff81111561794e5761794d61714a565b5b61795a858286016178be565b9150509250929050565b600061796f8261714f565b9050919050565b61797f81617964565b811461798a57600080fd5b50565b60008135905061799c81617976565b92915050565b600080600080608085870312156179bc576179bb617145565b5b60006179ca8782880161798d565b94505060206179db8782880161798d565b93505060406179ec8782880161798d565b92505060606179fd8782880161798d565b91505092959194509250565b60008060408385031215617a2057617a1f617145565b5b6000617a2e858286016173c7565b9250506020617a3f858286016173c7565b9150509250929050565b600060e082019050617a5e600083018a617446565b617a6b6020830189617446565b617a786040830188617446565b617a856060830187617446565b617a926080830186617446565b617a9f60a0830185617446565b617aac60c0830184617446565b98975050505050505050565b60008060008060008060c08789031215617ad557617ad4617145565b5b6000617ae389828a01617781565b9650506020617af489828a01617781565b9550506040617b0589828a01617781565b9450506060617b1689828a01617781565b9350506080617b2789828a01617781565b92505060a0617b3889828a01617781565b9150509295509295509295565b617b4e81617964565b82525050565b6000608082019050617b696000830187617b45565b617b766020830186617b45565b617b836040830185617b45565b617b906060830184617b45565b95945050505050565b60008060008060808587031215617bb357617bb2617145565b5b6000617bc1878288016175f1565b9450506020617bd2878288016175f1565b9350506040617be3878288016175f1565b9250506060617bf4878288016175f1565b91505092959194509250565b7f43616c6c6572206973206e6f74206f776e65722e000000000000000000000000600082015250565b6000617c36601483617497565b9150617c4182617c00565b602082019050919050565b60006020820190508181036000830152617c6581617c29565b9050919050565b7f4e487b7100000000000000000000000000000000000000000000000000000000600052603260045260246000fd5b7f4e487b7100000000000000000000000000000000000000000000000000000000600052601160045260246000fd5b6000617cd582617438565b915061ffff8203617ce957617ce8617c9b565b5b600182019050919050565b60008160011c9050919050565b6000808291508390505b6001851115617d4b57808604811115617d2757617d26617c9b565b5b6001851615617d365780820291505b8081029050617d4485617cf4565b9450617d0b565b94509492505050565b600082617d645760019050617e20565b81617d725760009050617e20565b8160018114617d885760028114617d9257617dc1565b6001915050617e20565b60ff841115617da457617da3617c9b565b5b8360020a915084821115617dbb57617dba617c9b565b5b50617e20565b5060208310610133831016604e8410600b8410161715617df65782820a905083811115617df157617df0617c9b565b5b617e20565b617e038484846001617d01565b92509050818404811115617e1a57617e19617c9b565b5b81810290505b9392505050565b6000617e32826171ed565b9150617e3d83617733565b9250617e6a7fffffffffffffffffffffffffffffffffffffffffffffffffffffffffffffffff8484617d54565b905092915050565b7f4e487b7100000000000000000000000000000000000000000000000000000000600052601260045260246000fd5b6000617eac826171ed565b9150617eb7836171ed565b925082617ec757617ec6617e72565b5b828204905092915050565b6000617edd826171ed565b9150617ee8836171ed565b9250817fffffffffffffffffffffffffffffffffffffffffffffffffffffffffffffffff0483118215151615617f2157617f20617c9b565b5b828202905092915050565b6000617f37826171ed565b9150617f42836171ed565b925082821015617f5557617f54617c9b565b5b828203905092915050565b7f4d61782057616c6c657420616d74206d7573742062652061626f76652031252060008201527f6f6620746f74616c20737570706c792e00000000000000000000000000000000602082015250565b6000617fbc603083617497565b9150617fc782617f60565b604082019050919050565b60006020820190508181036000830152617feb81617faf565b9050919050565b600060408201905061800760008301856171f7565b61801460208301846171f7565b9392505050565b6000618026826171ed565b9150618031836171ed565b9250827fffffffffffffffffffffffffffffffffffffffffffffffffffffffffffffffff0382111561806657618065617c9b565b5b828201905092915050565b7f416d6f756e74206d757374206265206c657373207468616e20746f74616c207260008201527f65666c656374696f6e7300000000000000000000000000000000000000000000602082015250565b60006180cd602a83617497565b91506180d882618071565b604082019050919050565b600060208201905081810360008301526180fc816180c0565b9050919050565b7f546178657320617265206c6f636b65642e000000000000000000000000000000600082015250565b6000618139601183617497565b915061814482618103565b602082019050919050565b600060208201905081810360008301526181688161812c565b9050919050565b7f43616e6e6f7420657863656564206d6178696d756d732e000000000000000000600082015250565b60006181a5601783617497565b91506181b08261816f565b602082019050919050565b600060208201905081810360008301526181d481618198565b9050919050565b60006040820190506181f06000830185617221565b6181fd60208301846175b0565b9392505050565b7f4d6178205472616e73616374696f6e20616d74206d7573742062652061626f7660008201527f6520302e3525206f6620746f74616c20737570706c792e000000000000000000602082015250565b6000618260603783617497565b915061826b82618204565b604082019050919050565b6000602082019050818103600083015261828f81618253565b9050919050565b7f4c656e6774687320646f206e6f74206d617463682e0000000000000000000000600082015250565b60006182cc601583617497565b91506182d782618296565b602082019050919050565b600060208201905081810360008301526182fb816182bf565b9050919050565b7f4e6f7420656e6f75676820746f6b656e732e0000000000000000000000000000600082015250565b6000618338601283617497565b915061834382618302565b602082019050919050565b600060208201905081810360008301526183678161832b565b9050919050565b7f43616e6e6f74207365742061626f766520312e35252e00000000000000000000600082015250565b60006183a4601683617497565b91506183af8261836e565b602082019050919050565b600060208201905081810360008301526183d381618397565b9050919050565b7f43616e206e6f74207472616e73666572206f776e65727368697020746f20746860008201527f6573652061646472657373657300000000000000000000000000000000000000602082015250565b6000618436602d83617497565b9150618441826183da565b604082019050919050565b6000602082019050818103600083015261846581618429565b9050919050565b7f43616e6e6f74206265207a65726f20616464726573732e000000000000000000600082015250565b60006184a2601783617497565b91506184ad8261846c565b602082019050919050565b600060208201905081810360008301526184d181618495565b9050919050565b60006184e382617562565b9050919050565b6184f3816184d8565b82525050565b600060808201905061850e60008301876184ea565b61851b60208301866184ea565b61852860408301856184ea565b61853560608301846184ea565b95945050505050565b7f54726164696e6720616c726561647920656e61626c6564210000000000000000600082015250565b6000618574601883617497565b915061857f8261853e565b602082019050919050565b600060208201905081810360008301526185a381618567565b9050919050565b7f4c6971756964697479206d7573742062652061646465642e0000000000000000600082015250565b60006185e0601883617497565b91506185eb826185aa565b602082019050919050565b6000602082019050818103600083015261860f816185d3565b9050919050565b7f4e487b7100000000000000000000000000000000000000000000000000000000600052603160045260246000fd5b6000618650826171ed565b91507fffffffffffffffffffffffffffffffffffffffffffffffffffffffffffffffff820361868257618681617c9b565b5b600182019050919050565b7f4a75737420646f6e27742e000000000000000000000000000000000000000000600082015250565b60006186c3600b83617497565b91506186ce8261868d565b602082019050919050565b600060208201905081810360008301526186f2816186b6565b9050919050565b600061870482617438565b915061870f83617438565b92508261ffff0382111561872657618725617c9b565b5b828201905092915050565b7f43616e6e6f74206578636565642073756d206f662062757920616e642073656c60008201527f6c20666565732e00000000000000000000000000000000000000000000000000602082015250565b600061878d602783617497565b915061879882618731565b604082019050919050565b600060208201905081810360008301526187bc81618780565b9050919050565b600060c0820190506187d86000830189617446565b6187e56020830188617446565b6187f26040830187617446565b6187ff6060830186617446565b61880c6080830185617446565b61881960a0830184617446565b979650505050505050565b60008151905061883381617181565b92915050565b60006020828403121561884f5761884e617145565b5b600061885d84828501618824565b91505092915050565b600060408201905061887b6000830185617221565b6188886020830184617221565b9392505050565b7f5468726573686f6c642063616e6e6f742062652061626f766520616d6f756e7460008201527f2e00000000000000000000000000000000000000000000000000000000000000602082015250565b60006188eb602183617497565b91506188f68261888f565b604082019050919050565b6000602082019050818103600083015261891a816188de565b9050919050565b7f43616e6e6f742062652061626f766520312e3525206f662063757272656e742060008201527f50492e0000000000000000000000000000000000000000000000000000000000602082015250565b600061897d602383617497565b915061898882618921565b604082019050919050565b600060208201905081810360008301526189ac81618970565b9050919050565b7f43616e6e6f74206265206c6f776572207468616e20302e303030303125206f6660008201527f20746f74616c20737570706c792e000000000000000000000000000000000000602082015250565b6000618a0f602e83617497565b9150618a1a826189b3565b604082019050919050565b60006020820190508181036000830152618a3e81618a02565b9050919050565b6000608082019050618a5a60008301876171f7565b618a6760208301866171f7565b618a7460408301856171f7565b618a8160608301846171f7565b95945050505050565b7f45524332303a205a65726f204164647265737300000000000000000000000000600082015250565b6000618ac0601383617497565b9150618acb82618a8a565b602082019050919050565b60006020820190508181036000830152618aef81618ab3565b9050919050565b7f45524332303a207472616e736665722066726f6d20746865207a65726f20616460008201527f6472657373000000000000000000000000000000000000000000000000000000602082015250565b6000618b52602583617497565b9150618b5d82618af6565b604082019050919050565b60006020820190508181036000830152618b8181618b45565b9050919050565b7f45524332303a207472616e7366657220746f20746865207a65726f206164647260008201527f6573730000000000000000000000000000000000000000000000000000000000602082015250565b6000618be4602383617497565b9150618bef82618b88565b604082019050919050565b60006020820190508181036000830152618c1381618bd7565b9050919050565b7f45524332303a207472616e736665722066726f6d20626c61636b6c697374656460008201527f2061646472657373000000000000000000000000000000000000000000000000602082015250565b6000618c76602883617497565b9150618c8182618c1a565b604082019050919050565b60006020820190508181036000830152618ca581618c69565b9050919050565b7f45524332303a207472616e7366657220746f20626c61636b6c6973746564206160008201527f6464726573730000000000000000000000000000000000000000000000000000602082015250565b6000618d08602683617497565b9150618d1382618cac565b604082019050919050565b60006020820190508181036000830152618d3781618cfb565b9050919050565b7f5472616e7366657220616d6f756e74206d75737420626520677265617465722060008201527f7468616e207a65726f0000000000000000000000000000000000000000000000602082015250565b6000618d9a602983617497565b9150618da582618d3e565b604082019050919050565b60006020820190508181036000830152618dc981618d8d565b9050919050565b7f54726164696e67206e6f742079657420656e61626c6564210000000000000000600082015250565b6000618e06601883617497565b9150618e1182618dd0565b602082019050919050565b60006020820190508181036000830152618e3581618df9565b9050919050565b7f5472616e7366657220616d6f756e74206578636565647320746865206d61785460008201527f78416d6f756e742e000000000000000000000000000000000000000000000000602082015250565b6000618e98602883617497565b9150618ea382618e3c565b604082019050919050565b60006020820190508181036000830152618ec781618e8b565b9050919050565b7f5472616e7366657220616d6f756e74206578636565647320746865206d61785760008201527f616c6c657453697a652e00000000000000000000000000000000000000000000602082015250565b6000618f2a602a83617497565b9150618f3582618ece565b604082019050919050565b60006020820190508181036000830152618f5981618f1d565b9050919050565b6000618f6b82617733565b915060ff8203618f7e57618f7d617c9b565b5b600182019050919050565b7f5072652d6c6971756964697479207472616e736665722070726f74656374696f60008201527f6e2e000000000000000000000000000000000000000000000000000000000000602082015250565b6000618fe5602283617497565b9150618ff082618f89565b604082019050919050565b6000602082019050818103600083015261901481618fd8565b9050919050565b6000819050919050565b600061904061903b6190368461901b565b617536565b6171ed565b9050919050565b61905081619025565b82525050565b600081519050919050565b600082825260208201905092915050565b6000819050602082019050919050565b61908b8161716f565b82525050565b600061909d8383619082565b60208301905092915050565b6000602082019050919050565b60006190c182619056565b6190cb8185619061565b93506190d683619072565b8060005b838110156191075781516190ee8882619091565b97506190f9836190a9565b9250506001810190506190da565b5085935050505092915050565b600060a08201905061912960008301886171f7565b6191366020830187619047565b818103604083015261914881866190b6565b90506191576060830185617221565b61916460808301846171f7565b9695505050505050565b600060c0820190506191836000830189617221565b61919060208301886171f7565b61919d6040830187619047565b6191aa6060830186619047565b6191b76080830185617221565b6191c460a08301846171f7565b979650505050505050565b6000815190506191de816175da565b92915050565b6000806000606084860312156191fd576191fc617145565b5b600061920b868287016191cf565b935050602061921c868287016191cf565b925050604061922d868287016191cf565b9150509250925092565b600061924282617438565b915061924d83617438565b9250828210156192605761925f617c9b565b5b828203905092915050565b600081905092915050565b50565b600061928660008361926b565b915061929182619276565b600082019050919050565b60006192a782619279565b9150819050919050565b7f4c697175696469747920616c726561647920616464656420616e64206d61726b60008201527f65642e0000000000000000000000000000000000000000000000000000000000602082015250565b600061930d602383617497565b9150619318826192b1565b604082019050919050565b6000602082019050818103600083015261933c81619300565b905091905056fea26469706673582212205aaa21bfc88f0cb0310537b5fdd4bfffbdb6f3cdf4a30bf1f12e1b72dbc46c9864736f6c634300080e0033",
			"opcodes": "PUSH1 0x80 PUSH1 0x40 MSTORE PUSH1 0x9 PUSH1 0xA PUSH3 0x14 SWAP2 SWAP1 PUSH3 0xF4A JUMP JUMPDEST PUSH4 0x35A4E900 PUSH3 0x25 SWAP2 SWAP1 PUSH3 0xF9B JUMP JUMPDEST PUSH1 0x0 NOT PUSH3 0x34 SWAP2 SWAP1 PUSH3 0x102B JUMP JUMPDEST PUSH1 0x0 NOT PUSH3 0x43 SWAP2 SWAP1 PUSH3 0x1063 JUMP JUMPDEST PUSH1 0xC SSTORE PUSH1 0x40 MLOAD DUP1 PUSH1 0x60 ADD PUSH1 0x40 MSTORE DUP1 PUSH2 0x190 PUSH2 0xFFFF AND DUP2 MSTORE PUSH1 0x20 ADD PUSH2 0x1F4 PUSH2 0xFFFF AND DUP2 MSTORE PUSH1 0x20 ADD PUSH1 0x0 PUSH2 0xFFFF AND DUP2 MSTORE POP PUSH1 0xD PUSH1 0x0 DUP3 ADD MLOAD DUP2 PUSH1 0x0 ADD PUSH1 0x0 PUSH2 0x100 EXP DUP2 SLOAD DUP2 PUSH2 0xFFFF MUL NOT AND SWAP1 DUP4 PUSH2 0xFFFF AND MUL OR SWAP1 SSTORE POP PUSH1 0x20 DUP3 ADD MLOAD DUP2 PUSH1 0x0 ADD PUSH1 0x2 PUSH2 0x100 EXP DUP2 SLOAD DUP2 PUSH2 0xFFFF MUL NOT AND SWAP1 DUP4 PUSH2 0xFFFF AND MUL OR SWAP1 SSTORE POP PUSH1 0x40 DUP3 ADD MLOAD DUP2 PUSH1 0x0 ADD PUSH1 0x4 PUSH2 0x100 EXP DUP2 SLOAD DUP2 PUSH2 0xFFFF MUL NOT AND SWAP1 DUP4 PUSH2 0xFFFF AND MUL OR SWAP1 SSTORE POP POP POP PUSH1 0x40 MLOAD DUP1 PUSH1 0xE0 ADD PUSH1 0x40 MSTORE DUP1 PUSH1 0x5A PUSH2 0xFFFF AND DUP2 MSTORE PUSH1 0x20 ADD PUSH1 0xB4 PUSH2 0xFFFF AND DUP2 MSTORE PUSH1 0x20 ADD PUSH1 0xB4 PUSH2 0xFFFF AND DUP2 MSTORE PUSH1 0x20 ADD PUSH1 0x5A PUSH2 0xFFFF AND DUP2 MSTORE PUSH1 0x20 ADD PUSH1 0xB4 PUSH2 0xFFFF AND DUP2 MSTORE PUSH1 0x20 ADD PUSH1 0xB4 PUSH2 0xFFFF AND DUP2 MSTORE PUSH1 0x20 ADD PUSH2 0x32A PUSH2 0xFFFF AND DUP2 MSTORE POP PUSH1 0xE PUSH1 0x0 DUP3 ADD MLOAD DUP2 PUSH1 0x0 ADD PUSH1 0x0 PUSH2 0x100 EXP DUP2 SLOAD DUP2 PUSH2 0xFFFF MUL NOT AND SWAP1 DUP4 PUSH2 0xFFFF AND MUL OR SWAP1 SSTORE POP PUSH1 0x20 DUP3 ADD MLOAD DUP2 PUSH1 0x0 ADD PUSH1 0x2 PUSH2 0x100 EXP DUP2 SLOAD DUP2 PUSH2 0xFFFF MUL NOT AND SWAP1 DUP4 PUSH2 0xFFFF AND MUL OR SWAP1 SSTORE POP PUSH1 0x40 DUP3 ADD MLOAD DUP2 PUSH1 0x0 ADD PUSH1 0x4 PUSH2 0x100 EXP DUP2 SLOAD DUP2 PUSH2 0xFFFF MUL NOT AND SWAP1 DUP4 PUSH2 0xFFFF AND MUL OR SWAP1 SSTORE POP PUSH1 0x60 DUP3 ADD MLOAD DUP2 PUSH1 0x0 ADD PUSH1 0x6 PUSH2 0x100 EXP DUP2 SLOAD DUP2 PUSH2 0xFFFF MUL NOT AND SWAP1 DUP4 PUSH2 0xFFFF AND MUL OR SWAP1 SSTORE POP PUSH1 0x80 DUP3 ADD MLOAD DUP2 PUSH1 0x0 ADD PUSH1 0x8 PUSH2 0x100 EXP DUP2 SLOAD DUP2 PUSH2 0xFFFF MUL NOT AND SWAP1 DUP4 PUSH2 0xFFFF AND MUL OR SWAP1 SSTORE POP PUSH1 0xA0 DUP3 ADD MLOAD DUP2 PUSH1 0x0 ADD PUSH1 0xA PUSH2 0x100 EXP DUP2 SLOAD DUP2 PUSH2 0xFFFF MUL NOT AND SWAP1 DUP4 PUSH2 0xFFFF AND MUL OR SWAP1 SSTORE POP PUSH1 0xC0 DUP3 ADD MLOAD DUP2 PUSH1 0x0 ADD PUSH1 0xC PUSH2 0x100 EXP DUP2 SLOAD DUP2 PUSH2 0xFFFF MUL NOT AND SWAP1 DUP4 PUSH2 0xFFFF AND MUL OR SWAP1 SSTORE POP POP POP PUSH1 0x40 MLOAD DUP1 PUSH1 0x80 ADD PUSH1 0x40 MSTORE DUP1 PUSH20 0xFA9558299AF1CC79D2B5A4CBF2FDB688A2F98950 PUSH20 0xFFFFFFFFFFFFFFFFFFFFFFFFFFFFFFFFFFFFFFFF AND DUP2 MSTORE PUSH1 0x20 ADD PUSH20 0xF7064147826279BCCD2BF34FFDBA59A240AAEAAE PUSH20 0xFFFFFFFFFFFFFFFFFFFFFFFFFFFFFFFFFFFFFFFF AND DUP2 MSTORE PUSH1 0x20 ADD PUSH20 0x927CE8DD4A3FC717AF61624C7B959710F8B8C791 PUSH20 0xFFFFFFFFFFFFFFFFFFFFFFFFFFFFFFFFFFFFFFFF AND DUP2 MSTORE PUSH1 0x20 ADD PUSH20 0x2C81D3F1881F34E3AA442C23E2E1142C5293575A PUSH20 0xFFFFFFFFFFFFFFFFFFFFFFFFFFFFFFFFFFFFFFFF AND DUP2 MSTORE POP PUSH1 0x11 PUSH1 0x0 DUP3 ADD MLOAD DUP2 PUSH1 0x0 ADD PUSH1 0x0 PUSH2 0x100 EXP DUP2 SLOAD DUP2 PUSH20 0xFFFFFFFFFFFFFFFFFFFFFFFFFFFFFFFFFFFFFFFF MUL NOT AND SWAP1 DUP4 PUSH20 0xFFFFFFFFFFFFFFFFFFFFFFFFFFFFFFFFFFFFFFFF AND MUL OR SWAP1 SSTORE POP PUSH1 0x20 DUP3 ADD MLOAD DUP2 PUSH1 0x1 ADD PUSH1 0x0 PUSH2 0x100 EXP DUP2 SLOAD DUP2 PUSH20 0xFFFFFFFFFFFFFFFFFFFFFFFFFFFFFFFFFFFFFFFF MUL NOT AND SWAP1 DUP4 PUSH20 0xFFFFFFFFFFFFFFFFFFFFFFFFFFFFFFFFFFFFFFFF AND MUL OR SWAP1 SSTORE POP PUSH1 0x40 DUP3 ADD MLOAD DUP2 PUSH1 0x2 ADD PUSH1 0x0 PUSH2 0x100 EXP DUP2 SLOAD DUP2 PUSH20 0xFFFFFFFFFFFFFFFFFFFFFFFFFFFFFFFFFFFFFFFF MUL NOT AND SWAP1 DUP4 PUSH20 0xFFFFFFFFFFFFFFFFFFFFFFFFFFFFFFFFFFFFFFFF AND MUL OR SWAP1 SSTORE POP PUSH1 0x60 DUP3 ADD MLOAD DUP2 PUSH1 0x3 ADD PUSH1 0x0 PUSH2 0x100 EXP DUP2 SLOAD DUP2 PUSH20 0xFFFFFFFFFFFFFFFFFFFFFFFFFFFFFFFFFFFFFFFF MUL NOT AND SWAP1 DUP4 PUSH20 0xFFFFFFFFFFFFFFFFFFFFFFFFFFFFFFFFFFFFFFFF AND MUL OR SWAP1 SSTORE POP POP POP PUSH1 0x0 PUSH1 0x15 PUSH1 0x1 PUSH2 0x100 EXP DUP2 SLOAD DUP2 PUSH1 0xFF MUL NOT AND SWAP1 DUP4 ISZERO ISZERO MUL OR SWAP1 SSTORE POP PUSH1 0xA PUSH1 0x19 SSTORE PUSH1 0x64 PUSH1 0x2 PUSH1 0x9 PUSH1 0xA PUSH3 0x44C SWAP2 SWAP1 PUSH3 0xF4A JUMP JUMPDEST PUSH4 0x35A4E900 PUSH3 0x45D SWAP2 SWAP1 PUSH3 0xF9B JUMP JUMPDEST PUSH3 0x469 SWAP2 SWAP1 PUSH3 0xF9B JUMP JUMPDEST PUSH3 0x475 SWAP2 SWAP1 PUSH3 0x109E JUMP JUMPDEST PUSH1 0x1A SSTORE PUSH1 0x64 PUSH1 0x2 PUSH1 0x9 PUSH1 0xA PUSH3 0x48C SWAP2 SWAP1 PUSH3 0xF4A JUMP JUMPDEST PUSH4 0x35A4E900 PUSH3 0x49D SWAP2 SWAP1 PUSH3 0xF9B JUMP JUMPDEST PUSH3 0x4A9 SWAP2 SWAP1 PUSH3 0xF9B JUMP JUMPDEST PUSH3 0x4B5 SWAP2 SWAP1 PUSH3 0x109E JUMP JUMPDEST PUSH1 0x1B SSTORE PUSH1 0x0 PUSH1 0x1C PUSH1 0x0 PUSH2 0x100 EXP DUP2 SLOAD DUP2 PUSH1 0xFF MUL NOT AND SWAP1 DUP4 ISZERO ISZERO MUL OR SWAP1 SSTORE POP PUSH1 0x0 PUSH1 0x1C PUSH1 0x1 PUSH2 0x100 EXP DUP2 SLOAD DUP2 PUSH1 0xFF MUL NOT AND SWAP1 DUP4 ISZERO ISZERO MUL OR SWAP1 SSTORE POP CALLER PUSH1 0x1C PUSH1 0x2 PUSH2 0x100 EXP DUP2 SLOAD DUP2 PUSH20 0xFFFFFFFFFFFFFFFFFFFFFFFFFFFFFFFFFFFFFFFF MUL NOT AND SWAP1 DUP4 PUSH20 0xFFFFFFFFFFFFFFFFFFFFFFFFFFFFFFFFFFFFFFFF AND MUL OR SWAP1 SSTORE POP PUSH1 0xC SLOAD PUSH1 0x0 DUP1 PUSH1 0x1C PUSH1 0x2 SWAP1 SLOAD SWAP1 PUSH2 0x100 EXP SWAP1 DIV PUSH20 0xFFFFFFFFFFFFFFFFFFFFFFFFFFFFFFFFFFFFFFFF AND PUSH20 0xFFFFFFFFFFFFFFFFFFFFFFFFFFFFFFFFFFFFFFFF AND PUSH20 0xFFFFFFFFFFFFFFFFFFFFFFFFFFFFFFFFFFFFFFFF AND DUP2 MSTORE PUSH1 0x20 ADD SWAP1 DUP2 MSTORE PUSH1 0x20 ADD PUSH1 0x0 KECCAK256 DUP2 SWAP1 SSTORE POP PUSH1 0x1C PUSH1 0x2 SWAP1 SLOAD SWAP1 PUSH2 0x100 EXP SWAP1 DIV PUSH20 0xFFFFFFFFFFFFFFFFFFFFFFFFFFFFFFFFFFFFFFFF AND PUSH20 0xFFFFFFFFFFFFFFFFFFFFFFFFFFFFFFFFFFFFFFFF AND PUSH1 0x0 PUSH20 0xFFFFFFFFFFFFFFFFFFFFFFFFFFFFFFFFFFFFFFFF AND PUSH32 0xDDF252AD1BE2C89B69C2B068FC378DAA952BA7F163C4A11628F55A4DF523B3EF PUSH1 0x9 PUSH1 0xA PUSH3 0x618 SWAP2 SWAP1 PUSH3 0xF4A JUMP JUMPDEST PUSH4 0x35A4E900 PUSH3 0x629 SWAP2 SWAP1 PUSH3 0xF9B JUMP JUMPDEST PUSH1 0x40 MLOAD PUSH3 0x638 SWAP2 SWAP1 PUSH3 0x10E7 JUMP JUMPDEST PUSH1 0x40 MLOAD DUP1 SWAP2 SUB SWAP1 LOG3 PUSH1 0x89 CHAINID SUB PUSH3 0x6A4 JUMPI PUSH20 0xA5E0829CACED8FFDD4DE3C43696C57F7D7A678FF PUSH1 0xF PUSH1 0x1 PUSH2 0x100 EXP DUP2 SLOAD DUP2 PUSH20 0xFFFFFFFFFFFFFFFFFFFFFFFFFFFFFFFFFFFFFFFF MUL NOT AND SWAP1 DUP4 PUSH20 0xFFFFFFFFFFFFFFFFFFFFFFFFFFFFFFFFFFFFFFFF AND MUL OR SWAP1 SSTORE POP PUSH3 0x967 JUMP JUMPDEST PUSH3 0x13881 CHAINID SUB PUSH3 0x70A JUMPI PUSH20 0xA5E0829CACED8FFDD4DE3C43696C57F7D7A678FF PUSH1 0xF PUSH1 0x1 PUSH2 0x100 EXP DUP2 SLOAD DUP2 PUSH20 0xFFFFFFFFFFFFFFFFFFFFFFFFFFFFFFFFFFFFFFFF MUL NOT AND SWAP1 DUP4 PUSH20 0xFFFFFFFFFFFFFFFFFFFFFFFFFFFFFFFFFFFFFFFF AND MUL OR SWAP1 SSTORE POP PUSH3 0x966 JUMP JUMPDEST PUSH1 0x38 CHAINID SUB PUSH3 0x76E JUMPI PUSH20 0x10ED43C718714EB63D5AA57B78B54704E256024E PUSH1 0xF PUSH1 0x1 PUSH2 0x100 EXP DUP2 SLOAD DUP2 PUSH20 0xFFFFFFFFFFFFFFFFFFFFFFFFFFFFFFFFFFFFFFFF MUL NOT AND SWAP1 DUP4 PUSH20 0xFFFFFFFFFFFFFFFFFFFFFFFFFFFFFFFFFFFFFFFF AND MUL OR SWAP1 SSTORE POP PUSH3 0x965 JUMP JUMPDEST PUSH1 0x61 CHAINID SUB PUSH3 0x7D2 JUMPI PUSH20 0xD99D1C33F9FC3444F8101754ABC46C52416550D1 PUSH1 0xF PUSH1 0x1 PUSH2 0x100 EXP DUP2 SLOAD DUP2 PUSH20 0xFFFFFFFFFFFFFFFFFFFFFFFFFFFFFFFFFFFFFFFF MUL NOT AND SWAP1 DUP4 PUSH20 0xFFFFFFFFFFFFFFFFFFFFFFFFFFFFFFFFFFFFFFFF AND MUL OR SWAP1 SSTORE POP PUSH3 0x964 JUMP JUMPDEST PUSH1 0x1 CHAINID EQ DUP1 PUSH3 0x7E2 JUMPI POP PUSH1 0x3 CHAINID EQ JUMPDEST DUP1 PUSH3 0x7EE JUMPI POP PUSH1 0x4 CHAINID EQ JUMPDEST DUP1 PUSH3 0x7FA JUMPI POP PUSH1 0x5 CHAINID EQ JUMPDEST ISZERO PUSH3 0x85B JUMPI PUSH20 0x7A250D5630B4CF539739DF2C5DACB4C659F2488D PUSH1 0xF PUSH1 0x1 PUSH2 0x100 EXP DUP2 SLOAD DUP2 PUSH20 0xFFFFFFFFFFFFFFFFFFFFFFFFFFFFFFFFFFFFFFFF MUL NOT AND SWAP1 DUP4 PUSH20 0xFFFFFFFFFFFFFFFFFFFFFFFFFFFFFFFFFFFFFFFF AND MUL OR SWAP1 SSTORE POP PUSH3 0x963 JUMP JUMPDEST PUSH2 0xA86A CHAINID SUB PUSH3 0x8C0 JUMPI PUSH20 0x60AE616A2155EE3D9A68541BA4544862310933D4 PUSH1 0xF PUSH1 0x1 PUSH2 0x100 EXP DUP2 SLOAD DUP2 PUSH20 0xFFFFFFFFFFFFFFFFFFFFFFFFFFFFFFFFFFFFFFFF MUL NOT AND SWAP1 DUP4 PUSH20 0xFFFFFFFFFFFFFFFFFFFFFFFFFFFFFFFFFFFFFFFF AND MUL OR SWAP1 SSTORE POP PUSH3 0x962 JUMP JUMPDEST PUSH1 0xFA CHAINID SUB PUSH3 0x924 JUMPI PUSH20 0xF491E7B69E4244AD4002BC14E878A34207E38C29 PUSH1 0xF PUSH1 0x1 PUSH2 0x100 EXP DUP2 SLOAD DUP2 PUSH20 0xFFFFFFFFFFFFFFFFFFFFFFFFFFFFFFFFFFFFFFFF MUL NOT AND SWAP1 DUP4 PUSH20 0xFFFFFFFFFFFFFFFFFFFFFFFFFFFFFFFFFFFFFFFF AND MUL OR SWAP1 SSTORE POP PUSH3 0x961 JUMP JUMPDEST PUSH1 0x40 MLOAD PUSH32 0x8C379A000000000000000000000000000000000000000000000000000000000 DUP2 MSTORE PUSH1 0x4 ADD PUSH3 0x958 SWAP1 PUSH3 0x1165 JUMP JUMPDEST PUSH1 0x40 MLOAD DUP1 SWAP2 SUB SWAP1 REVERT JUMPDEST JUMPDEST JUMPDEST JUMPDEST JUMPDEST JUMPDEST JUMPDEST PUSH3 0x9DE PUSH1 0x1C PUSH1 0x2 SWAP1 SLOAD SWAP1 PUSH2 0x100 EXP SWAP1 DIV PUSH20 0xFFFFFFFFFFFFFFFFFFFFFFFFFFFFFFFFFFFFFFFF AND PUSH1 0xF PUSH1 0x1 SWAP1 SLOAD SWAP1 PUSH2 0x100 EXP SWAP1 DIV PUSH20 0xFFFFFFFFFFFFFFFFFFFFFFFFFFFFFFFFFFFFFFFF AND PUSH32 0xFFFFFFFFFFFFFFFFFFFFFFFFFFFFFFFFFFFFFFFFFFFFFFFFFFFFFFFFFFFFFFFF PUSH3 0xBDF PUSH1 0x20 SHL PUSH1 0x20 SHR JUMP JUMPDEST PUSH3 0xA33 ADDRESS PUSH1 0xF PUSH1 0x1 SWAP1 SLOAD SWAP1 PUSH2 0x100 EXP SWAP1 DIV PUSH20 0xFFFFFFFFFFFFFFFFFFFFFFFFFFFFFFFFFFFFFFFF AND PUSH32 0xFFFFFFFFFFFFFFFFFFFFFFFFFFFFFFFFFFFFFFFFFFFFFFFFFFFFFFFFFFFFFFFF PUSH3 0xBDF PUSH1 0x20 SHL PUSH1 0x20 SHR JUMP JUMPDEST PUSH1 0x1 PUSH1 0x6 PUSH1 0x0 PUSH1 0x1C PUSH1 0x2 SWAP1 SLOAD SWAP1 PUSH2 0x100 EXP SWAP1 DIV PUSH20 0xFFFFFFFFFFFFFFFFFFFFFFFFFFFFFFFFFFFFFFFF AND PUSH20 0xFFFFFFFFFFFFFFFFFFFFFFFFFFFFFFFFFFFFFFFF AND PUSH20 0xFFFFFFFFFFFFFFFFFFFFFFFFFFFFFFFFFFFFFFFF AND DUP2 MSTORE PUSH1 0x20 ADD SWAP1 DUP2 MSTORE PUSH1 0x20 ADD PUSH1 0x0 KECCAK256 PUSH1 0x0 PUSH2 0x100 EXP DUP2 SLOAD DUP2 PUSH1 0xFF MUL NOT AND SWAP1 DUP4 ISZERO ISZERO MUL OR SWAP1 SSTORE POP PUSH1 0x1 PUSH1 0x6 PUSH1 0x0 ADDRESS PUSH20 0xFFFFFFFFFFFFFFFFFFFFFFFFFFFFFFFFFFFFFFFF AND PUSH20 0xFFFFFFFFFFFFFFFFFFFFFFFFFFFFFFFFFFFFFFFF AND DUP2 MSTORE PUSH1 0x20 ADD SWAP1 DUP2 MSTORE PUSH1 0x20 ADD PUSH1 0x0 KECCAK256 PUSH1 0x0 PUSH2 0x100 EXP DUP2 SLOAD DUP2 PUSH1 0xFF MUL NOT AND SWAP1 DUP4 ISZERO ISZERO MUL OR SWAP1 SSTORE POP PUSH1 0x1 PUSH1 0x6 PUSH1 0x0 PUSH2 0xDEAD PUSH20 0xFFFFFFFFFFFFFFFFFFFFFFFFFFFFFFFFFFFFFFFF AND PUSH20 0xFFFFFFFFFFFFFFFFFFFFFFFFFFFFFFFFFFFFFFFF AND DUP2 MSTORE PUSH1 0x20 ADD SWAP1 DUP2 MSTORE PUSH1 0x20 ADD PUSH1 0x0 KECCAK256 PUSH1 0x0 PUSH2 0x100 EXP DUP2 SLOAD DUP2 PUSH1 0xFF MUL NOT AND SWAP1 DUP4 ISZERO ISZERO MUL OR SWAP1 SSTORE POP PUSH1 0x1 PUSH1 0x4 PUSH1 0x0 PUSH1 0x1C PUSH1 0x2 SWAP1 SLOAD SWAP1 PUSH2 0x100 EXP SWAP1 DIV PUSH20 0xFFFFFFFFFFFFFFFFFFFFFFFFFFFFFFFFFFFFFFFF AND PUSH20 0xFFFFFFFFFFFFFFFFFFFFFFFFFFFFFFFFFFFFFFFF AND PUSH20 0xFFFFFFFFFFFFFFFFFFFFFFFFFFFFFFFFFFFFFFFF AND DUP2 MSTORE PUSH1 0x20 ADD SWAP1 DUP2 MSTORE PUSH1 0x20 ADD PUSH1 0x0 KECCAK256 PUSH1 0x0 PUSH2 0x100 EXP DUP2 SLOAD DUP2 PUSH1 0xFF MUL NOT AND SWAP1 DUP4 ISZERO ISZERO MUL OR SWAP1 SSTORE POP PUSH3 0x11F9 JUMP JUMPDEST PUSH1 0x0 PUSH20 0xFFFFFFFFFFFFFFFFFFFFFFFFFFFFFFFFFFFFFFFF AND DUP4 PUSH20 0xFFFFFFFFFFFFFFFFFFFFFFFFFFFFFFFFFFFFFFFF AND SUB PUSH3 0xC51 JUMPI PUSH1 0x40 MLOAD PUSH32 0x8C379A000000000000000000000000000000000000000000000000000000000 DUP2 MSTORE PUSH1 0x4 ADD PUSH3 0xC48 SWAP1 PUSH3 0x11D7 JUMP JUMPDEST PUSH1 0x40 MLOAD DUP1 SWAP2 SUB SWAP1 REVERT JUMPDEST PUSH1 0x0 PUSH20 0xFFFFFFFFFFFFFFFFFFFFFFFFFFFFFFFFFFFFFFFF AND DUP3 PUSH20 0xFFFFFFFFFFFFFFFFFFFFFFFFFFFFFFFFFFFFFFFF AND SUB PUSH3 0xCC3 JUMPI PUSH1 0x40 MLOAD PUSH32 0x8C379A000000000000000000000000000000000000000000000000000000000 DUP2 MSTORE PUSH1 0x4 ADD PUSH3 0xCBA SWAP1 PUSH3 0x11D7 JUMP JUMPDEST PUSH1 0x40 MLOAD DUP1 SWAP2 SUB SWAP1 REVERT JUMPDEST DUP1 PUSH1 0x3 PUSH1 0x0 DUP6 PUSH20 0xFFFFFFFFFFFFFFFFFFFFFFFFFFFFFFFFFFFFFFFF AND PUSH20 0xFFFFFFFFFFFFFFFFFFFFFFFFFFFFFFFFFFFFFFFF AND DUP2 MSTORE PUSH1 0x20 ADD SWAP1 DUP2 MSTORE PUSH1 0x20 ADD PUSH1 0x0 KECCAK256 PUSH1 0x0 DUP5 PUSH20 0xFFFFFFFFFFFFFFFFFFFFFFFFFFFFFFFFFFFFFFFF AND PUSH20 0xFFFFFFFFFFFFFFFFFFFFFFFFFFFFFFFFFFFFFFFF AND DUP2 MSTORE PUSH1 0x20 ADD SWAP1 DUP2 MSTORE PUSH1 0x20 ADD PUSH1 0x0 KECCAK256 DUP2 SWAP1 SSTORE POP DUP2 PUSH20 0xFFFFFFFFFFFFFFFFFFFFFFFFFFFFFFFFFFFFFFFF AND DUP4 PUSH20 0xFFFFFFFFFFFFFFFFFFFFFFFFFFFFFFFFFFFFFFFF AND PUSH32 0x8C5BE1E5EBEC7D5BD14F71427D1E84F3DD0314C0F7B2291E5B200AC8C7C3B925 DUP4 PUSH1 0x40 MLOAD PUSH3 0xDA3 SWAP2 SWAP1 PUSH3 0x10E7 JUMP JUMPDEST PUSH1 0x40 MLOAD DUP1 SWAP2 SUB SWAP1 LOG3 POP POP POP JUMP JUMPDEST PUSH32 0x4E487B7100000000000000000000000000000000000000000000000000000000 PUSH1 0x0 MSTORE PUSH1 0x11 PUSH1 0x4 MSTORE PUSH1 0x24 PUSH1 0x0 REVERT JUMPDEST PUSH1 0x0 DUP2 PUSH1 0x1 SHR SWAP1 POP SWAP2 SWAP1 POP JUMP JUMPDEST PUSH1 0x0 DUP1 DUP3 SWAP2 POP DUP4 SWAP1 POP JUMPDEST PUSH1 0x1 DUP6 GT ISZERO PUSH3 0xE3E JUMPI DUP1 DUP7 DIV DUP2 GT ISZERO PUSH3 0xE16 JUMPI PUSH3 0xE15 PUSH3 0xDB0 JUMP JUMPDEST JUMPDEST PUSH1 0x1 DUP6 AND ISZERO PUSH3 0xE26 JUMPI DUP1 DUP3 MUL SWAP2 POP JUMPDEST DUP1 DUP2 MUL SWAP1 POP PUSH3 0xE36 DUP6 PUSH3 0xDDF JUMP JUMPDEST SWAP5 POP PUSH3 0xDF6 JUMP JUMPDEST SWAP5 POP SWAP5 SWAP3 POP POP POP JUMP JUMPDEST PUSH1 0x0 DUP3 PUSH3 0xE59 JUMPI PUSH1 0x1 SWAP1 POP PUSH3 0xF2C JUMP JUMPDEST DUP2 PUSH3 0xE69 JUMPI PUSH1 0x0 SWAP1 POP PUSH3 0xF2C JUMP JUMPDEST DUP2 PUSH1 0x1 DUP2 EQ PUSH3 0xE82 JUMPI PUSH1 0x2 DUP2 EQ PUSH3 0xE8D JUMPI PUSH3 0xEC3 JUMP JUMPDEST PUSH1 0x1 SWAP2 POP POP PUSH3 0xF2C JUMP JUMPDEST PUSH1 0xFF DUP5 GT ISZERO PUSH3 0xEA2 JUMPI PUSH3 0xEA1 PUSH3 0xDB0 JUMP JUMPDEST JUMPDEST DUP4 PUSH1 0x2 EXP SWAP2 POP DUP5 DUP3 GT ISZERO PUSH3 0xEBC JUMPI PUSH3 0xEBB PUSH3 0xDB0 JUMP JUMPDEST JUMPDEST POP PUSH3 0xF2C JUMP JUMPDEST POP PUSH1 0x20 DUP4 LT PUSH2 0x133 DUP4 LT AND PUSH1 0x4E DUP5 LT PUSH1 0xB DUP5 LT AND OR ISZERO PUSH3 0xEFD JUMPI DUP3 DUP3 EXP SWAP1 POP DUP4 DUP2 GT ISZERO PUSH3 0xEF7 JUMPI PUSH3 0xEF6 PUSH3 0xDB0 JUMP JUMPDEST JUMPDEST PUSH3 0xF2C JUMP JUMPDEST PUSH3 0xF0C DUP5 DUP5 DUP5 PUSH1 0x1 PUSH3 0xDEC JUMP JUMPDEST SWAP3 POP SWAP1 POP DUP2 DUP5 DIV DUP2 GT ISZERO PUSH3 0xF26 JUMPI PUSH3 0xF25 PUSH3 0xDB0 JUMP JUMPDEST JUMPDEST DUP2 DUP2 MUL SWAP1 POP JUMPDEST SWAP4 SWAP3 POP POP POP JUMP JUMPDEST PUSH1 0x0 DUP2 SWAP1 POP SWAP2 SWAP1 POP JUMP JUMPDEST PUSH1 0x0 PUSH1 0xFF DUP3 AND SWAP1 POP SWAP2 SWAP1 POP JUMP JUMPDEST PUSH1 0x0 PUSH3 0xF57 DUP3 PUSH3 0xF33 JUMP JUMPDEST SWAP2 POP PUSH3 0xF64 DUP4 PUSH3 0xF3D JUMP JUMPDEST SWAP3 POP PUSH3 0xF93 PUSH32 0xFFFFFFFFFFFFFFFFFFFFFFFFFFFFFFFFFFFFFFFFFFFFFFFFFFFFFFFFFFFFFFFF DUP5 DUP5 PUSH3 0xE47 JUMP JUMPDEST SWAP1 POP SWAP3 SWAP2 POP POP JUMP JUMPDEST PUSH1 0x0 PUSH3 0xFA8 DUP3 PUSH3 0xF33 JUMP JUMPDEST SWAP2 POP PUSH3 0xFB5 DUP4 PUSH3 0xF33 JUMP JUMPDEST SWAP3 POP DUP2 PUSH32 0xFFFFFFFFFFFFFFFFFFFFFFFFFFFFFFFFFFFFFFFFFFFFFFFFFFFFFFFFFFFFFFFF DIV DUP4 GT DUP3 ISZERO ISZERO AND ISZERO PUSH3 0xFF1 JUMPI PUSH3 0xFF0 PUSH3 0xDB0 JUMP JUMPDEST JUMPDEST DUP3 DUP3 MUL SWAP1 POP SWAP3 SWAP2 POP POP JUMP JUMPDEST PUSH32 0x4E487B7100000000000000000000000000000000000000000000000000000000 PUSH1 0x0 MSTORE PUSH1 0x12 PUSH1 0x4 MSTORE PUSH1 0x24 PUSH1 0x0 REVERT JUMPDEST PUSH1 0x0 PUSH3 0x1038 DUP3 PUSH3 0xF33 JUMP JUMPDEST SWAP2 POP PUSH3 0x1045 DUP4 PUSH3 0xF33 JUMP JUMPDEST SWAP3 POP DUP3 PUSH3 0x1058 JUMPI PUSH3 0x1057 PUSH3 0xFFC JUMP JUMPDEST JUMPDEST DUP3 DUP3 MOD SWAP1 POP SWAP3 SWAP2 POP POP JUMP JUMPDEST PUSH1 0x0 PUSH3 0x1070 DUP3 PUSH3 0xF33 JUMP JUMPDEST SWAP2 POP PUSH3 0x107D DUP4 PUSH3 0xF33 JUMP JUMPDEST SWAP3 POP DUP3 DUP3 LT ISZERO PUSH3 0x1093 JUMPI PUSH3 0x1092 PUSH3 0xDB0 JUMP JUMPDEST JUMPDEST DUP3 DUP3 SUB SWAP1 POP SWAP3 SWAP2 POP POP JUMP JUMPDEST PUSH1 0x0 PUSH3 0x10AB DUP3 PUSH3 0xF33 JUMP JUMPDEST SWAP2 POP PUSH3 0x10B8 DUP4 PUSH3 0xF33 JUMP JUMPDEST SWAP3 POP DUP3 PUSH3 0x10CB JUMPI PUSH3 0x10CA PUSH3 0xFFC JUMP JUMPDEST JUMPDEST DUP3 DUP3 DIV SWAP1 POP SWAP3 SWAP2 POP POP JUMP JUMPDEST PUSH3 0x10E1 DUP2 PUSH3 0xF33 JUMP JUMPDEST DUP3 MSTORE POP POP JUMP JUMPDEST PUSH1 0x0 PUSH1 0x20 DUP3 ADD SWAP1 POP PUSH3 0x10FE PUSH1 0x0 DUP4 ADD DUP5 PUSH3 0x10D6 JUMP JUMPDEST SWAP3 SWAP2 POP POP JUMP JUMPDEST PUSH1 0x0 DUP3 DUP3 MSTORE PUSH1 0x20 DUP3 ADD SWAP1 POP SWAP3 SWAP2 POP POP JUMP JUMPDEST PUSH32 0x556E737570706F72746564206E6574776F726B00000000000000000000000000 PUSH1 0x0 DUP3 ADD MSTORE POP JUMP JUMPDEST PUSH1 0x0 PUSH3 0x114D PUSH1 0x13 DUP4 PUSH3 0x1104 JUMP JUMPDEST SWAP2 POP PUSH3 0x115A DUP3 PUSH3 0x1115 JUMP JUMPDEST PUSH1 0x20 DUP3 ADD SWAP1 POP SWAP2 SWAP1 POP JUMP JUMPDEST PUSH1 0x0 PUSH1 0x20 DUP3 ADD SWAP1 POP DUP2 DUP2 SUB PUSH1 0x0 DUP4 ADD MSTORE PUSH3 0x1180 DUP2 PUSH3 0x113E JUMP JUMPDEST SWAP1 POP SWAP2 SWAP1 POP JUMP JUMPDEST PUSH32 0x45524332303A205A65726F204164647265737300000000000000000000000000 PUSH1 0x0 DUP3 ADD MSTORE POP JUMP JUMPDEST PUSH1 0x0 PUSH3 0x11BF PUSH1 0x13 DUP4 PUSH3 0x1104 JUMP JUMPDEST SWAP2 POP PUSH3 0x11CC DUP3 PUSH3 0x1187 JUMP JUMPDEST PUSH1 0x20 DUP3 ADD SWAP1 POP SWAP2 SWAP1 POP JUMP JUMPDEST PUSH1 0x0 PUSH1 0x20 DUP3 ADD SWAP1 POP DUP2 DUP2 SUB PUSH1 0x0 DUP4 ADD MSTORE PUSH3 0x11F2 DUP2 PUSH3 0x11B0 JUMP JUMPDEST SWAP1 POP SWAP2 SWAP1 POP JUMP JUMPDEST PUSH2 0x9379 DUP1 PUSH3 0x1209 PUSH1 0x0 CODECOPY PUSH1 0x0 RETURN INVALID PUSH1 0x80 PUSH1 0x40 MSTORE PUSH1 0x4 CALLDATASIZE LT PUSH2 0x414 JUMPI PUSH1 0x0 CALLDATALOAD PUSH1 0xE0 SHR DUP1 PUSH4 0x590FFDCE GT PUSH2 0x21E JUMPI DUP1 PUSH4 0xB7DF8B36 GT PUSH2 0x123 JUMPI DUP1 PUSH4 0xEE5F4DD3 GT PUSH2 0xAB JUMPI DUP1 PUSH4 0xF94AA1B4 GT PUSH2 0x7A JUMPI DUP1 PUSH4 0xF94AA1B4 EQ PUSH2 0x1092 JUMPI DUP1 PUSH4 0xFB78680D EQ PUSH2 0x10C0 JUMPI DUP1 PUSH4 0xFDB78C0E EQ PUSH2 0x10E9 JUMPI DUP1 PUSH4 0xFE575A87 EQ PUSH2 0x1114 JUMPI DUP1 PUSH4 0xFEADDE9C EQ PUSH2 0x1151 JUMPI PUSH2 0x41B JUMP JUMPDEST DUP1 PUSH4 0xEE5F4DD3 EQ PUSH2 0xFC6 JUMPI DUP1 PUSH4 0xEEC2744E EQ PUSH2 0x1003 JUMPI DUP1 PUSH4 0xF72F863B EQ PUSH2 0x102C JUMPI DUP1 PUSH4 0xF8C1844D EQ PUSH2 0x1055 JUMPI PUSH2 0x41B JUMP JUMPDEST DUP1 PUSH4 0xD69153C9 GT PUSH2 0xF2 JUMPI DUP1 PUSH4 0xD69153C9 EQ PUSH2 0xEA9 JUMPI DUP1 PUSH4 0xDD62ED3E EQ PUSH2 0xED2 JUMPI DUP1 PUSH4 0xE0BF7FD1 EQ PUSH2 0xF0F JUMPI DUP1 PUSH4 0xE1AEB58F EQ PUSH2 0xF4C JUMPI DUP1 PUSH4 0xE550573D EQ PUSH2 0xF89 JUMPI PUSH2 0x41B JUMP JUMPDEST DUP1 PUSH4 0xB7DF8B36 EQ PUSH2 0xDFB JUMPI DUP1 PUSH4 0xBFC2FC35 EQ PUSH2 0xE26 JUMPI DUP1 PUSH4 0xCBC87098 EQ PUSH2 0xE4F JUMPI DUP1 PUSH4 0xCF847706 EQ PUSH2 0xE78 JUMPI PUSH2 0x41B JUMP JUMPDEST DUP1 PUSH4 0x893D20E8 GT PUSH2 0x1A6 JUMPI DUP1 PUSH4 0x95D89B41 GT PUSH2 0x175 JUMPI DUP1 PUSH4 0x95D89B41 EQ PUSH2 0xD00 JUMPI DUP1 PUSH4 0xA9059CBB EQ PUSH2 0xD2B JUMPI DUP1 PUSH4 0xAEF0EBEB EQ PUSH2 0xD68 JUMPI DUP1 PUSH4 0xB1B08F71 EQ PUSH2 0xDA5 JUMPI DUP1 PUSH4 0xB3D514FB EQ PUSH2 0xDD0 JUMPI PUSH2 0x41B JUMP JUMPDEST DUP1 PUSH4 0x893D20E8 EQ PUSH2 0xC6A JUMPI DUP1 PUSH4 0x8A63BD9B EQ PUSH2 0xC95 JUMPI DUP1 PUSH4 0x8A8C523C EQ PUSH2 0xCC0 JUMPI DUP1 PUSH4 0x9515FF2A EQ PUSH2 0xCD7 JUMPI PUSH2 0x41B JUMP JUMPDEST DUP1 PUSH4 0x70A08231 GT PUSH2 0x1ED JUMPI DUP1 PUSH4 0x70A08231 EQ PUSH2 0xB87 JUMPI DUP1 PUSH4 0x78648EDF EQ PUSH2 0xBC4 JUMPI DUP1 PUSH4 0x7D459DB3 EQ PUSH2 0xBDB JUMPI DUP1 PUSH4 0x80C581D1 EQ PUSH2 0xC18 JUMPI DUP1 PUSH4 0x83672F3E EQ PUSH2 0xC41 JUMPI PUSH2 0x41B JUMP JUMPDEST DUP1 PUSH4 0x590FFDCE EQ PUSH2 0xAB9 JUMPI DUP1 PUSH4 0x5CCE86CD EQ PUSH2 0xAE2 JUMPI DUP1 PUSH4 0x66FCA980 EQ PUSH2 0xB1F JUMPI DUP1 PUSH4 0x6EBD0078 EQ PUSH2 0xB5C JUMPI PUSH2 0x41B JUMP JUMPDEST DUP1 PUSH4 0x28577751 GT PUSH2 0x324 JUMPI DUP1 PUSH4 0x43C788BB GT PUSH2 0x2AC JUMPI DUP1 PUSH4 0x4BBB93EB GT PUSH2 0x27B JUMPI DUP1 PUSH4 0x4BBB93EB EQ PUSH2 0x9C2 JUMPI DUP1 PUSH4 0x4E718E48 EQ PUSH2 0x9FF JUMPI DUP1 PUSH4 0x4FB2E45D EQ PUSH2 0xA28 JUMPI DUP1 PUSH4 0x4FBEE193 EQ PUSH2 0xA51 JUMPI DUP1 PUSH4 0x50A8E016 EQ PUSH2 0xA8E JUMPI PUSH2 0x41B JUMP JUMPDEST DUP1 PUSH4 0x43C788BB EQ PUSH2 0x906 JUMPI DUP1 PUSH4 0x43CC8C2A EQ PUSH2 0x92F JUMPI DUP1 PUSH4 0x452ED4F1 EQ PUSH2 0x96C JUMPI DUP1 PUSH4 0x4ADA218B EQ PUSH2 0x997 JUMPI PUSH2 0x41B JUMP JUMPDEST DUP1 PUSH4 0x2E8FA821 GT PUSH2 0x2F3 JUMPI DUP1 PUSH4 0x2E8FA821 EQ PUSH2 0x835 JUMPI DUP1 PUSH4 0x313CE567 EQ PUSH2 0x860 JUMPI DUP1 PUSH4 0x32CDE664 EQ PUSH2 0x88B JUMPI DUP1 PUSH4 0x36FDDB04 EQ PUSH2 0x8B4 JUMPI DUP1 PUSH4 0x3F3CF56C EQ PUSH2 0x8DD JUMPI PUSH2 0x41B JUMP JUMPDEST DUP1 PUSH4 0x28577751 EQ PUSH2 0x777 JUMPI DUP1 PUSH4 0x2B112E49 EQ PUSH2 0x7A2 JUMPI DUP1 PUSH4 0x2B28FC7A EQ PUSH2 0x7CD JUMPI DUP1 PUSH4 0x2D838119 EQ PUSH2 0x7F8 JUMPI PUSH2 0x41B JUMP JUMPDEST DUP1 PUSH4 0x95EA7B3 GT PUSH2 0x3A7 JUMPI DUP1 PUSH4 0x18FC02D1 GT PUSH2 0x376 JUMPI DUP1 PUSH4 0x18FC02D1 EQ PUSH2 0x65A JUMPI DUP1 PUSH4 0x1C5AE3B8 EQ PUSH2 0x697 JUMPI DUP1 PUSH4 0x1CDD3BE3 EQ PUSH2 0x6D4 JUMPI DUP1 PUSH4 0x23B872DD EQ PUSH2 0x711 JUMPI DUP1 PUSH4 0x26003957 EQ PUSH2 0x74E JUMPI PUSH2 0x41B JUMP JUMPDEST DUP1 PUSH4 0x95EA7B3 EQ PUSH2 0x58A JUMPI DUP1 PUSH4 0xDCBCF1C EQ PUSH2 0x5C7 JUMPI DUP1 PUSH4 0xFA604E4 EQ PUSH2 0x604 JUMPI DUP1 PUSH4 0x18160DDD EQ PUSH2 0x62F JUMPI PUSH2 0x41B JUMP JUMPDEST DUP1 PUSH4 0x69D955F GT PUSH2 0x3E3 JUMPI DUP1 PUSH4 0x69D955F EQ PUSH2 0x4DC JUMPI DUP1 PUSH4 0x6FDDE03 EQ PUSH2 0x509 JUMPI DUP1 PUSH4 0x758D924 EQ PUSH2 0x534 JUMPI DUP1 PUSH4 0x7DD79E0 EQ PUSH2 0x55F JUMPI PUSH2 0x41B JUMP JUMPDEST DUP1 PUSH4 0x24C2DDD EQ PUSH2 0x420 JUMPI DUP1 PUSH4 0x3FD2A45 EQ PUSH2 0x45D JUMPI DUP1 PUSH4 0x445B667 EQ PUSH2 0x488 JUMPI DUP1 PUSH4 0x5BBEDB6 EQ PUSH2 0x4B3 JUMPI PUSH2 0x41B JUMP JUMPDEST CALLDATASIZE PUSH2 0x41B JUMPI STOP JUMPDEST PUSH1 0x0 DUP1 REVERT JUMPDEST CALLVALUE DUP1 ISZERO PUSH2 0x42C JUMPI PUSH1 0x0 DUP1 REVERT JUMPDEST POP PUSH2 0x447 PUSH1 0x4 DUP1 CALLDATASIZE SUB DUP2 ADD SWAP1 PUSH2 0x442 SWAP2 SWAP1 PUSH2 0x71AD JUMP JUMPDEST PUSH2 0x117A JUMP JUMPDEST PUSH1 0x40 MLOAD PUSH2 0x454 SWAP2 SWAP1 PUSH2 0x7206 JUMP JUMPDEST PUSH1 0x40 MLOAD DUP1 SWAP2 SUB SWAP1 RETURN JUMPDEST CALLVALUE DUP1 ISZERO PUSH2 0x469 JUMPI PUSH1 0x0 DUP1 REVERT JUMPDEST POP PUSH2 0x472 PUSH2 0x119F JUMP JUMPDEST PUSH1 0x40 MLOAD PUSH2 0x47F SWAP2 SWAP1 PUSH2 0x7230 JUMP JUMPDEST PUSH1 0x40 MLOAD DUP1 SWAP2 SUB SWAP1 RETURN JUMPDEST CALLVALUE DUP1 ISZERO PUSH2 0x494 JUMPI PUSH1 0x0 DUP1 REVERT JUMPDEST POP PUSH2 0x49D PUSH2 0x11A5 JUMP JUMPDEST PUSH1 0x40 MLOAD PUSH2 0x4AA SWAP2 SWAP1 PUSH2 0x7206 JUMP JUMPDEST PUSH1 0x40 MLOAD DUP1 SWAP2 SUB SWAP1 RETURN JUMPDEST CALLVALUE DUP1 ISZERO PUSH2 0x4BF JUMPI PUSH1 0x0 DUP1 REVERT JUMPDEST POP PUSH2 0x4DA PUSH1 0x4 DUP1 CALLDATASIZE SUB DUP2 ADD SWAP1 PUSH2 0x4D5 SWAP2 SWAP1 PUSH2 0x73DC JUMP JUMPDEST PUSH2 0x11AB JUMP JUMPDEST STOP JUMPDEST CALLVALUE DUP1 ISZERO PUSH2 0x4E8 JUMPI PUSH1 0x0 DUP1 REVERT JUMPDEST POP PUSH2 0x4F1 PUSH2 0x12D8 JUMP JUMPDEST PUSH1 0x40 MLOAD PUSH2 0x500 SWAP4 SWAP3 SWAP2 SWAP1 PUSH2 0x7455 JUMP JUMPDEST PUSH1 0x40 MLOAD DUP1 SWAP2 SUB SWAP1 RETURN JUMPDEST CALLVALUE DUP1 ISZERO PUSH2 0x515 JUMPI PUSH1 0x0 DUP1 REVERT JUMPDEST POP PUSH2 0x51E PUSH2 0x131A JUMP JUMPDEST PUSH1 0x40 MLOAD PUSH2 0x52B SWAP2 SWAP1 PUSH2 0x7514 JUMP JUMPDEST PUSH1 0x40 MLOAD DUP1 SWAP2 SUB SWAP1 RETURN JUMPDEST CALLVALUE DUP1 ISZERO PUSH2 0x540 JUMPI PUSH1 0x0 DUP1 REVERT JUMPDEST POP PUSH2 0x549 PUSH2 0x1357 JUMP JUMPDEST PUSH1 0x40 MLOAD PUSH2 0x556 SWAP2 SWAP1 PUSH2 0x7595 JUMP JUMPDEST PUSH1 0x40 MLOAD DUP1 SWAP2 SUB SWAP1 RETURN JUMPDEST CALLVALUE DUP1 ISZERO PUSH2 0x56B JUMPI PUSH1 0x0 DUP1 REVERT JUMPDEST POP PUSH2 0x574 PUSH2 0x137D JUMP JUMPDEST PUSH1 0x40 MLOAD PUSH2 0x581 SWAP2 SWAP1 PUSH2 0x75BF JUMP JUMPDEST PUSH1 0x40 MLOAD DUP1 SWAP2 SUB SWAP1 RETURN JUMPDEST CALLVALUE DUP1 ISZERO PUSH2 0x596 JUMPI PUSH1 0x0 DUP1 REVERT JUMPDEST POP PUSH2 0x5B1 PUSH1 0x4 DUP1 CALLDATASIZE SUB DUP2 ADD SWAP1 PUSH2 0x5AC SWAP2 SWAP1 PUSH2 0x7606 JUMP JUMPDEST PUSH2 0x1390 JUMP JUMPDEST PUSH1 0x40 MLOAD PUSH2 0x5BE SWAP2 SWAP1 PUSH2 0x75BF JUMP JUMPDEST PUSH1 0x40 MLOAD DUP1 SWAP2 SUB SWAP1 RETURN JUMPDEST CALLVALUE DUP1 ISZERO PUSH2 0x5D3 JUMPI PUSH1 0x0 DUP1 REVERT JUMPDEST POP PUSH2 0x5EE PUSH1 0x4 DUP1 CALLDATASIZE SUB DUP2 ADD SWAP1 PUSH2 0x5E9 SWAP2 SWAP1 PUSH2 0x7646 JUMP JUMPDEST PUSH2 0x13A7 JUMP JUMPDEST PUSH1 0x40 MLOAD PUSH2 0x5FB SWAP2 SWAP1 PUSH2 0x75BF JUMP JUMPDEST PUSH1 0x40 MLOAD DUP1 SWAP2 SUB SWAP1 RETURN JUMPDEST CALLVALUE DUP1 ISZERO PUSH2 0x610 JUMPI PUSH1 0x0 DUP1 REVERT JUMPDEST POP PUSH2 0x619 PUSH2 0x13FD JUMP JUMPDEST PUSH1 0x40 MLOAD PUSH2 0x626 SWAP2 SWAP1 PUSH2 0x7206 JUMP JUMPDEST PUSH1 0x40 MLOAD DUP1 SWAP2 SUB SWAP1 RETURN JUMPDEST CALLVALUE DUP1 ISZERO PUSH2 0x63B JUMPI PUSH1 0x0 DUP1 REVERT JUMPDEST POP PUSH2 0x644 PUSH2 0x141F JUMP JUMPDEST PUSH1 0x40 MLOAD PUSH2 0x651 SWAP2 SWAP1 PUSH2 0x7206 JUMP JUMPDEST PUSH1 0x40 MLOAD DUP1 SWAP2 SUB SWAP1 RETURN JUMPDEST CALLVALUE DUP1 ISZERO PUSH2 0x666 JUMPI PUSH1 0x0 DUP1 REVERT JUMPDEST POP PUSH2 0x681 PUSH1 0x4 DUP1 CALLDATASIZE SUB DUP2 ADD SWAP1 PUSH2 0x67C SWAP2 SWAP1 PUSH2 0x7646 JUMP JUMPDEST PUSH2 0x1443 JUMP JUMPDEST PUSH1 0x40 MLOAD PUSH2 0x68E SWAP2 SWAP1 PUSH2 0x7206 JUMP JUMPDEST PUSH1 0x40 MLOAD DUP1 SWAP2 SUB SWAP1 RETURN JUMPDEST CALLVALUE DUP1 ISZERO PUSH2 0x6A3 JUMPI PUSH1 0x0 DUP1 REVERT JUMPDEST POP PUSH2 0x6BE PUSH1 0x4 DUP1 CALLDATASIZE SUB DUP2 ADD SWAP1 PUSH2 0x6B9 SWAP2 SWAP1 PUSH2 0x7646 JUMP JUMPDEST PUSH2 0x145B JUMP JUMPDEST PUSH1 0x40 MLOAD PUSH2 0x6CB SWAP2 SWAP1 PUSH2 0x75BF JUMP JUMPDEST PUSH1 0x40 MLOAD DUP1 SWAP2 SUB SWAP1 RETURN JUMPDEST CALLVALUE DUP1 ISZERO PUSH2 0x6E0 JUMPI PUSH1 0x0 DUP1 REVERT JUMPDEST POP PUSH2 0x6FB PUSH1 0x4 DUP1 CALLDATASIZE SUB DUP2 ADD SWAP1 PUSH2 0x6F6 SWAP2 SWAP1 PUSH2 0x7646 JUMP JUMPDEST PUSH2 0x147B JUMP JUMPDEST PUSH1 0x40 MLOAD PUSH2 0x708 SWAP2 SWAP1 PUSH2 0x75BF JUMP JUMPDEST PUSH1 0x40 MLOAD DUP1 SWAP2 SUB SWAP1 RETURN JUMPDEST CALLVALUE DUP1 ISZERO PUSH2 0x71D JUMPI PUSH1 0x0 DUP1 REVERT JUMPDEST POP PUSH2 0x738 PUSH1 0x4 DUP1 CALLDATASIZE SUB DUP2 ADD SWAP1 PUSH2 0x733 SWAP2 SWAP1 PUSH2 0x7673 JUMP JUMPDEST PUSH2 0x149B JUMP JUMPDEST PUSH1 0x40 MLOAD PUSH2 0x745 SWAP2 SWAP1 PUSH2 0x75BF JUMP JUMPDEST PUSH1 0x40 MLOAD DUP1 SWAP2 SUB SWAP1 RETURN JUMPDEST CALLVALUE DUP1 ISZERO PUSH2 0x75A JUMPI PUSH1 0x0 DUP1 REVERT JUMPDEST POP PUSH2 0x775 PUSH1 0x4 DUP1 CALLDATASIZE SUB DUP2 ADD SWAP1 PUSH2 0x770 SWAP2 SWAP1 PUSH2 0x76C6 JUMP JUMPDEST PUSH2 0x15E8 JUMP JUMPDEST STOP JUMPDEST CALLVALUE DUP1 ISZERO PUSH2 0x783 JUMPI PUSH1 0x0 DUP1 REVERT JUMPDEST POP PUSH2 0x78C PUSH2 0x178B JUMP JUMPDEST PUSH1 0x40 MLOAD PUSH2 0x799 SWAP2 SWAP1 PUSH2 0x7206 JUMP JUMPDEST PUSH1 0x40 MLOAD DUP1 SWAP2 SUB SWAP1 RETURN JUMPDEST CALLVALUE DUP1 ISZERO PUSH2 0x7AE JUMPI PUSH1 0x0 DUP1 REVERT JUMPDEST POP PUSH2 0x7B7 PUSH2 0x1791 JUMP JUMPDEST PUSH1 0x40 MLOAD PUSH2 0x7C4 SWAP2 SWAP1 PUSH2 0x7206 JUMP JUMPDEST PUSH1 0x40 MLOAD DUP1 SWAP2 SUB SWAP1 RETURN JUMPDEST CALLVALUE DUP1 ISZERO PUSH2 0x7D9 JUMPI PUSH1 0x0 DUP1 REVERT JUMPDEST POP PUSH2 0x7E2 PUSH2 0x17DE JUMP JUMPDEST PUSH1 0x40 MLOAD PUSH2 0x7EF SWAP2 SWAP1 PUSH2 0x7206 JUMP JUMPDEST PUSH1 0x40 MLOAD DUP1 SWAP2 SUB SWAP1 RETURN JUMPDEST CALLVALUE DUP1 ISZERO PUSH2 0x804 JUMPI PUSH1 0x0 DUP1 REVERT JUMPDEST POP PUSH2 0x81F PUSH1 0x4 DUP1 CALLDATASIZE SUB DUP2 ADD SWAP1 PUSH2 0x81A SWAP2 SWAP1 PUSH2 0x7706 JUMP JUMPDEST PUSH2 0x17E4 JUMP JUMPDEST PUSH1 0x40 MLOAD PUSH2 0x82C SWAP2 SWAP1 PUSH2 0x7206 JUMP JUMPDEST PUSH1 0x40 MLOAD DUP1 SWAP2 SUB SWAP1 RETURN JUMPDEST CALLVALUE DUP1 ISZERO PUSH2 0x841 JUMPI PUSH1 0x0 DUP1 REVERT JUMPDEST POP PUSH2 0x84A PUSH2 0x184B JUMP JUMPDEST PUSH1 0x40 MLOAD PUSH2 0x857 SWAP2 SWAP1 PUSH2 0x7206 JUMP JUMPDEST PUSH1 0x40 MLOAD DUP1 SWAP2 SUB SWAP1 RETURN JUMPDEST CALLVALUE DUP1 ISZERO PUSH2 0x86C JUMPI PUSH1 0x0 DUP1 REVERT JUMPDEST POP PUSH2 0x875 PUSH2 0x1851 JUMP JUMPDEST PUSH1 0x40 MLOAD PUSH2 0x882 SWAP2 SWAP1 PUSH2 0x774F JUMP JUMPDEST PUSH1 0x40 MLOAD DUP1 SWAP2 SUB SWAP1 RETURN JUMPDEST CALLVALUE DUP1 ISZERO PUSH2 0x897 JUMPI PUSH1 0x0 DUP1 REVERT JUMPDEST POP PUSH2 0x8B2 PUSH1 0x4 DUP1 CALLDATASIZE SUB DUP2 ADD SWAP1 PUSH2 0x8AD SWAP2 SWAP1 PUSH2 0x7796 JUMP JUMPDEST PUSH2 0x185A JUMP JUMPDEST STOP JUMPDEST CALLVALUE DUP1 ISZERO PUSH2 0x8C0 JUMPI PUSH1 0x0 DUP1 REVERT JUMPDEST POP PUSH2 0x8DB PUSH1 0x4 DUP1 CALLDATASIZE SUB DUP2 ADD SWAP1 PUSH2 0x8D6 SWAP2 SWAP1 PUSH2 0x77E9 JUMP JUMPDEST PUSH2 0x1A47 JUMP JUMPDEST STOP JUMPDEST CALLVALUE DUP1 ISZERO PUSH2 0x8E9 JUMPI PUSH1 0x0 DUP1 REVERT JUMPDEST POP PUSH2 0x904 PUSH1 0x4 DUP1 CALLDATASIZE SUB DUP2 ADD SWAP1 PUSH2 0x8FF SWAP2 SWAP1 PUSH2 0x76C6 JUMP JUMPDEST PUSH2 0x1B6B JUMP JUMPDEST STOP JUMPDEST CALLVALUE DUP1 ISZERO PUSH2 0x912 JUMPI PUSH1 0x0 DUP1 REVERT JUMPDEST POP PUSH2 0x92D PUSH1 0x4 DUP1 CALLDATASIZE SUB DUP2 ADD SWAP1 PUSH2 0x928 SWAP2 SWAP1 PUSH2 0x78EC JUMP JUMPDEST PUSH2 0x1D1B JUMP JUMPDEST STOP JUMPDEST CALLVALUE DUP1 ISZERO PUSH2 0x93B JUMPI PUSH1 0x0 DUP1 REVERT JUMPDEST POP PUSH2 0x956 PUSH1 0x4 DUP1 CALLDATASIZE SUB DUP2 ADD SWAP1 PUSH2 0x951 SWAP2 SWAP1 PUSH2 0x7646 JUMP JUMPDEST PUSH2 0x1EFD JUMP JUMPDEST PUSH1 0x40 MLOAD PUSH2 0x963 SWAP2 SWAP1 PUSH2 0x75BF JUMP JUMPDEST PUSH1 0x40 MLOAD DUP1 SWAP2 SUB SWAP1 RETURN JUMPDEST CALLVALUE DUP1 ISZERO PUSH2 0x978 JUMPI PUSH1 0x0 DUP1 REVERT JUMPDEST POP PUSH2 0x981 PUSH2 0x1F1D JUMP JUMPDEST PUSH1 0x40 MLOAD PUSH2 0x98E SWAP2 SWAP1 PUSH2 0x7230 JUMP JUMPDEST PUSH1 0x40 MLOAD DUP1 SWAP2 SUB SWAP1 RETURN JUMPDEST CALLVALUE DUP1 ISZERO PUSH2 0x9A3 JUMPI PUSH1 0x0 DUP1 REVERT JUMPDEST POP PUSH2 0x9AC PUSH2 0x1F43 JUMP JUMPDEST PUSH1 0x40 MLOAD PUSH2 0x9B9 SWAP2 SWAP1 PUSH2 0x75BF JUMP JUMPDEST PUSH1 0x40 MLOAD DUP1 SWAP2 SUB SWAP1 RETURN JUMPDEST CALLVALUE DUP1 ISZERO PUSH2 0x9CE JUMPI PUSH1 0x0 DUP1 REVERT JUMPDEST POP PUSH2 0x9E9 PUSH1 0x4 DUP1 CALLDATASIZE SUB DUP2 ADD SWAP1 PUSH2 0x9E4 SWAP2 SWAP1 PUSH2 0x7706 JUMP JUMPDEST PUSH2 0x1F56 JUMP JUMPDEST PUSH1 0x40 MLOAD PUSH2 0x9F6 SWAP2 SWAP1 PUSH2 0x7206 JUMP JUMPDEST PUSH1 0x40 MLOAD DUP1 SWAP2 SUB SWAP1 RETURN JUMPDEST CALLVALUE DUP1 ISZERO PUSH2 0xA0B JUMPI PUSH1 0x0 DUP1 REVERT JUMPDEST POP PUSH2 0xA26 PUSH1 0x4 DUP1 CALLDATASIZE SUB DUP2 ADD SWAP1 PUSH2 0xA21 SWAP2 SWAP1 PUSH2 0x7706 JUMP JUMPDEST PUSH2 0x1FA2 JUMP JUMPDEST STOP JUMPDEST CALLVALUE DUP1 ISZERO PUSH2 0xA34 JUMPI PUSH1 0x0 DUP1 REVERT JUMPDEST POP PUSH2 0xA4F PUSH1 0x4 DUP1 CALLDATASIZE SUB DUP2 ADD SWAP1 PUSH2 0xA4A SWAP2 SWAP1 PUSH2 0x7646 JUMP JUMPDEST PUSH2 0x20B7 JUMP JUMPDEST STOP JUMPDEST CALLVALUE DUP1 ISZERO PUSH2 0xA5D JUMPI PUSH1 0x0 DUP1 REVERT JUMPDEST POP PUSH2 0xA78 PUSH1 0x4 DUP1 CALLDATASIZE SUB DUP2 ADD SWAP1 PUSH2 0xA73 SWAP2 SWAP1 PUSH2 0x7646 JUMP JUMPDEST PUSH2 0x2380 JUMP JUMPDEST PUSH1 0x40 MLOAD PUSH2 0xA85 SWAP2 SWAP1 PUSH2 0x75BF JUMP JUMPDEST PUSH1 0x40 MLOAD DUP1 SWAP2 SUB SWAP1 RETURN JUMPDEST CALLVALUE DUP1 ISZERO PUSH2 0xA9A JUMPI PUSH1 0x0 DUP1 REVERT JUMPDEST POP PUSH2 0xAA3 PUSH2 0x23D6 JUMP JUMPDEST PUSH1 0x40 MLOAD PUSH2 0xAB0 SWAP2 SWAP1 PUSH2 0x75BF JUMP JUMPDEST PUSH1 0x40 MLOAD DUP1 SWAP2 SUB SWAP1 RETURN JUMPDEST CALLVALUE DUP1 ISZERO PUSH2 0xAC5 JUMPI PUSH1 0x0 DUP1 REVERT JUMPDEST POP PUSH2 0xAE0 PUSH1 0x4 DUP1 CALLDATASIZE SUB DUP2 ADD SWAP1 PUSH2 0xADB SWAP2 SWAP1 PUSH2 0x77E9 JUMP JUMPDEST PUSH2 0x23E9 JUMP JUMPDEST STOP JUMPDEST CALLVALUE DUP1 ISZERO PUSH2 0xAEE JUMPI PUSH1 0x0 DUP1 REVERT JUMPDEST POP PUSH2 0xB09 PUSH1 0x4 DUP1 CALLDATASIZE SUB DUP2 ADD SWAP1 PUSH2 0xB04 SWAP2 SWAP1 PUSH2 0x7646 JUMP JUMPDEST PUSH2 0x250D JUMP JUMPDEST PUSH1 0x40 MLOAD PUSH2 0xB16 SWAP2 SWAP1 PUSH2 0x75BF JUMP JUMPDEST PUSH1 0x40 MLOAD DUP1 SWAP2 SUB SWAP1 RETURN JUMPDEST CALLVALUE DUP1 ISZERO PUSH2 0xB2B JUMPI PUSH1 0x0 DUP1 REVERT JUMPDEST POP PUSH2 0xB46 PUSH1 0x4 DUP1 CALLDATASIZE SUB DUP2 ADD SWAP1 PUSH2 0xB41 SWAP2 SWAP1 PUSH2 0x7646 JUMP JUMPDEST PUSH2 0x2563 JUMP JUMPDEST PUSH1 0x40 MLOAD PUSH2 0xB53 SWAP2 SWAP1 PUSH2 0x75BF JUMP JUMPDEST PUSH1 0x40 MLOAD DUP1 SWAP2 SUB SWAP1 RETURN JUMPDEST CALLVALUE DUP1 ISZERO PUSH2 0xB68 JUMPI PUSH1 0x0 DUP1 REVERT JUMPDEST POP PUSH2 0xB71 PUSH2 0x2583 JUMP JUMPDEST PUSH1 0x40 MLOAD PUSH2 0xB7E SWAP2 SWAP1 PUSH2 0x7206 JUMP JUMPDEST PUSH1 0x40 MLOAD DUP1 SWAP2 SUB SWAP1 RETURN JUMPDEST CALLVALUE DUP1 ISZERO PUSH2 0xB93 JUMPI PUSH1 0x0 DUP1 REVERT JUMPDEST POP PUSH2 0xBAE PUSH1 0x4 DUP1 CALLDATASIZE SUB DUP2 ADD SWAP1 PUSH2 0xBA9 SWAP2 SWAP1 PUSH2 0x7646 JUMP JUMPDEST PUSH2 0x25A5 JUMP JUMPDEST PUSH1 0x40 MLOAD PUSH2 0xBBB SWAP2 SWAP1 PUSH2 0x7206 JUMP JUMPDEST PUSH1 0x40 MLOAD DUP1 SWAP2 SUB SWAP1 RETURN JUMPDEST CALLVALUE DUP1 ISZERO PUSH2 0xBD0 JUMPI PUSH1 0x0 DUP1 REVERT JUMPDEST POP PUSH2 0xBD9 PUSH2 0x268F JUMP JUMPDEST STOP JUMPDEST CALLVALUE DUP1 ISZERO PUSH2 0xBE7 JUMPI PUSH1 0x0 DUP1 REVERT JUMPDEST POP PUSH2 0xC02 PUSH1 0x4 DUP1 CALLDATASIZE SUB DUP2 ADD SWAP1 PUSH2 0xBFD SWAP2 SWAP1 PUSH2 0x7646 JUMP JUMPDEST PUSH2 0x2768 JUMP JUMPDEST PUSH1 0x40 MLOAD PUSH2 0xC0F SWAP2 SWAP1 PUSH2 0x75BF JUMP JUMPDEST PUSH1 0x40 MLOAD DUP1 SWAP2 SUB SWAP1 RETURN JUMPDEST CALLVALUE DUP1 ISZERO PUSH2 0xC24 JUMPI PUSH1 0x0 DUP1 REVERT JUMPDEST POP PUSH2 0xC3F PUSH1 0x4 DUP1 CALLDATASIZE SUB DUP2 ADD SWAP1 PUSH2 0xC3A SWAP2 SWAP1 PUSH2 0x77E9 JUMP JUMPDEST PUSH2 0x27BE JUMP JUMPDEST STOP JUMPDEST CALLVALUE DUP1 ISZERO PUSH2 0xC4D JUMPI PUSH1 0x0 DUP1 REVERT JUMPDEST POP PUSH2 0xC68 PUSH1 0x4 DUP1 CALLDATASIZE SUB DUP2 ADD SWAP1 PUSH2 0xC63 SWAP2 SWAP1 PUSH2 0x79A2 JUMP JUMPDEST PUSH2 0x2946 JUMP JUMPDEST STOP JUMPDEST CALLVALUE DUP1 ISZERO PUSH2 0xC76 JUMPI PUSH1 0x0 DUP1 REVERT JUMPDEST POP PUSH2 0xC7F PUSH2 0x2C44 JUMP JUMPDEST PUSH1 0x40 MLOAD PUSH2 0xC8C SWAP2 SWAP1 PUSH2 0x7230 JUMP JUMPDEST PUSH1 0x40 MLOAD DUP1 SWAP2 SUB SWAP1 RETURN JUMPDEST CALLVALUE DUP1 ISZERO PUSH2 0xCA1 JUMPI PUSH1 0x0 DUP1 REVERT JUMPDEST POP PUSH2 0xCAA PUSH2 0x2C6E JUMP JUMPDEST PUSH1 0x40 MLOAD PUSH2 0xCB7 SWAP2 SWAP1 PUSH2 0x75BF JUMP JUMPDEST PUSH1 0x40 MLOAD DUP1 SWAP2 SUB SWAP1 RETURN JUMPDEST CALLVALUE DUP1 ISZERO PUSH2 0xCCC JUMPI PUSH1 0x0 DUP1 REVERT JUMPDEST POP PUSH2 0xCD5 PUSH2 0x2D54 JUMP JUMPDEST STOP JUMPDEST CALLVALUE DUP1 ISZERO PUSH2 0xCE3 JUMPI PUSH1 0x0 DUP1 REVERT JUMPDEST POP PUSH2 0xCFE PUSH1 0x4 DUP1 CALLDATASIZE SUB DUP2 ADD SWAP1 PUSH2 0xCF9 SWAP2 SWAP1 PUSH2 0x77E9 JUMP JUMPDEST PUSH2 0x2F60 JUMP JUMPDEST STOP JUMPDEST CALLVALUE DUP1 ISZERO PUSH2 0xD0C JUMPI PUSH1 0x0 DUP1 REVERT JUMPDEST POP PUSH2 0xD15 PUSH2 0x3862 JUMP JUMPDEST PUSH1 0x40 MLOAD PUSH2 0xD22 SWAP2 SWAP1 PUSH2 0x7514 JUMP JUMPDEST PUSH1 0x40 MLOAD DUP1 SWAP2 SUB SWAP1 RETURN JUMPDEST CALLVALUE DUP1 ISZERO PUSH2 0xD37 JUMPI PUSH1 0x0 DUP1 REVERT JUMPDEST POP PUSH2 0xD52 PUSH1 0x4 DUP1 CALLDATASIZE SUB DUP2 ADD SWAP1 PUSH2 0xD4D SWAP2 SWAP1 PUSH2 0x7606 JUMP JUMPDEST PUSH2 0x389F JUMP JUMPDEST PUSH1 0x40 MLOAD PUSH2 0xD5F SWAP2 SWAP1 PUSH2 0x75BF JUMP JUMPDEST PUSH1 0x40 MLOAD DUP1 SWAP2 SUB SWAP1 RETURN JUMPDEST CALLVALUE DUP1 ISZERO PUSH2 0xD74 JUMPI PUSH1 0x0 DUP1 REVERT JUMPDEST POP PUSH2 0xD8F PUSH1 0x4 DUP1 CALLDATASIZE SUB DUP2 ADD SWAP1 PUSH2 0xD8A SWAP2 SWAP1 PUSH2 0x7646 JUMP JUMPDEST PUSH2 0x38B7 JUMP JUMPDEST PUSH1 0x40 MLOAD PUSH2 0xD9C SWAP2 SWAP1 PUSH2 0x75BF JUMP JUMPDEST PUSH1 0x40 MLOAD DUP1 SWAP2 SUB SWAP1 RETURN JUMPDEST CALLVALUE DUP1 ISZERO PUSH2 0xDB1 JUMPI PUSH1 0x0 DUP1 REVERT JUMPDEST POP PUSH2 0xDBA PUSH2 0x38D7 JUMP JUMPDEST PUSH1 0x40 MLOAD PUSH2 0xDC7 SWAP2 SWAP1 PUSH2 0x7206 JUMP JUMPDEST PUSH1 0x40 MLOAD DUP1 SWAP2 SUB SWAP1 RETURN JUMPDEST CALLVALUE DUP1 ISZERO PUSH2 0xDDC JUMPI PUSH1 0x0 DUP1 REVERT JUMPDEST POP PUSH2 0xDE5 PUSH2 0x38DD JUMP JUMPDEST PUSH1 0x40 MLOAD PUSH2 0xDF2 SWAP2 SWAP1 PUSH2 0x7206 JUMP JUMPDEST PUSH1 0x40 MLOAD DUP1 SWAP2 SUB SWAP1 RETURN JUMPDEST CALLVALUE DUP1 ISZERO PUSH2 0xE07 JUMPI PUSH1 0x0 DUP1 REVERT JUMPDEST POP PUSH2 0xE10 PUSH2 0x38E3 JUMP JUMPDEST PUSH1 0x40 MLOAD PUSH2 0xE1D SWAP2 SWAP1 PUSH2 0x75BF JUMP JUMPDEST PUSH1 0x40 MLOAD DUP1 SWAP2 SUB SWAP1 RETURN JUMPDEST CALLVALUE DUP1 ISZERO PUSH2 0xE32 JUMPI PUSH1 0x0 DUP1 REVERT JUMPDEST POP PUSH2 0xE4D PUSH1 0x4 DUP1 CALLDATASIZE SUB DUP2 ADD SWAP1 PUSH2 0xE48 SWAP2 SWAP1 PUSH2 0x7A09 JUMP JUMPDEST PUSH2 0x38F6 JUMP JUMPDEST STOP JUMPDEST CALLVALUE DUP1 ISZERO PUSH2 0xE5B JUMPI PUSH1 0x0 DUP1 REVERT JUMPDEST POP PUSH2 0xE76 PUSH1 0x4 DUP1 CALLDATASIZE SUB DUP2 ADD SWAP1 PUSH2 0xE71 SWAP2 SWAP1 PUSH2 0x7646 JUMP JUMPDEST PUSH2 0x39F5 JUMP JUMPDEST STOP JUMPDEST CALLVALUE DUP1 ISZERO PUSH2 0xE84 JUMPI PUSH1 0x0 DUP1 REVERT JUMPDEST POP PUSH2 0xE8D PUSH2 0x3C59 JUMP JUMPDEST PUSH1 0x40 MLOAD PUSH2 0xEA0 SWAP8 SWAP7 SWAP6 SWAP5 SWAP4 SWAP3 SWAP2 SWAP1 PUSH2 0x7A49 JUMP JUMPDEST PUSH1 0x40 MLOAD DUP1 SWAP2 SUB SWAP1 RETURN JUMPDEST CALLVALUE DUP1 ISZERO PUSH2 0xEB5 JUMPI PUSH1 0x0 DUP1 REVERT JUMPDEST POP PUSH2 0xED0 PUSH1 0x4 DUP1 CALLDATASIZE SUB DUP2 ADD SWAP1 PUSH2 0xECB SWAP2 SWAP1 PUSH2 0x7AB8 JUMP JUMPDEST PUSH2 0x3CEB JUMP JUMPDEST STOP JUMPDEST CALLVALUE DUP1 ISZERO PUSH2 0xEDE JUMPI PUSH1 0x0 DUP1 REVERT JUMPDEST POP PUSH2 0xEF9 PUSH1 0x4 DUP1 CALLDATASIZE SUB DUP2 ADD SWAP1 PUSH2 0xEF4 SWAP2 SWAP1 PUSH2 0x71AD JUMP JUMPDEST PUSH2 0x3F83 JUMP JUMPDEST PUSH1 0x40 MLOAD PUSH2 0xF06 SWAP2 SWAP1 PUSH2 0x7206 JUMP JUMPDEST PUSH1 0x40 MLOAD DUP1 SWAP2 SUB SWAP1 RETURN JUMPDEST CALLVALUE DUP1 ISZERO PUSH2 0xF1B JUMPI PUSH1 0x0 DUP1 REVERT JUMPDEST POP PUSH2 0xF36 PUSH1 0x4 DUP1 CALLDATASIZE SUB DUP2 ADD SWAP1 PUSH2 0xF31 SWAP2 SWAP1 PUSH2 0x7646 JUMP JUMPDEST PUSH2 0x400A JUMP JUMPDEST PUSH1 0x40 MLOAD PUSH2 0xF43 SWAP2 SWAP1 PUSH2 0x75BF JUMP JUMPDEST PUSH1 0x40 MLOAD DUP1 SWAP2 SUB SWAP1 RETURN JUMPDEST CALLVALUE DUP1 ISZERO PUSH2 0xF58 JUMPI PUSH1 0x0 DUP1 REVERT JUMPDEST POP PUSH2 0xF73 PUSH1 0x4 DUP1 CALLDATASIZE SUB DUP2 ADD SWAP1 PUSH2 0xF6E SWAP2 SWAP1 PUSH2 0x7646 JUMP JUMPDEST PUSH2 0x402A JUMP JUMPDEST PUSH1 0x40 MLOAD PUSH2 0xF80 SWAP2 SWAP1 PUSH2 0x7206 JUMP JUMPDEST PUSH1 0x40 MLOAD DUP1 SWAP2 SUB SWAP1 RETURN JUMPDEST CALLVALUE DUP1 ISZERO PUSH2 0xF95 JUMPI PUSH1 0x0 DUP1 REVERT JUMPDEST POP PUSH2 0xFB0 PUSH1 0x4 DUP1 CALLDATASIZE SUB DUP2 ADD SWAP1 PUSH2 0xFAB SWAP2 SWAP1 PUSH2 0x7646 JUMP JUMPDEST PUSH2 0x4042 JUMP JUMPDEST PUSH1 0x40 MLOAD PUSH2 0xFBD SWAP2 SWAP1 PUSH2 0x75BF JUMP JUMPDEST PUSH1 0x40 MLOAD DUP1 SWAP2 SUB SWAP1 RETURN JUMPDEST CALLVALUE DUP1 ISZERO PUSH2 0xFD2 JUMPI PUSH1 0x0 DUP1 REVERT JUMPDEST POP PUSH2 0xFED PUSH1 0x4 DUP1 CALLDATASIZE SUB DUP2 ADD SWAP1 PUSH2 0xFE8 SWAP2 SWAP1 PUSH2 0x7646 JUMP JUMPDEST PUSH2 0x4062 JUMP JUMPDEST PUSH1 0x40 MLOAD PUSH2 0xFFA SWAP2 SWAP1 PUSH2 0x75BF JUMP JUMPDEST PUSH1 0x40 MLOAD DUP1 SWAP2 SUB SWAP1 RETURN JUMPDEST CALLVALUE DUP1 ISZERO PUSH2 0x100F JUMPI PUSH1 0x0 DUP1 REVERT JUMPDEST POP PUSH2 0x102A PUSH1 0x4 DUP1 CALLDATASIZE SUB DUP2 ADD SWAP1 PUSH2 0x1025 SWAP2 SWAP1 PUSH2 0x77E9 JUMP JUMPDEST PUSH2 0x4082 JUMP JUMPDEST STOP JUMPDEST CALLVALUE DUP1 ISZERO PUSH2 0x1038 JUMPI PUSH1 0x0 DUP1 REVERT JUMPDEST POP PUSH2 0x1053 PUSH1 0x4 DUP1 CALLDATASIZE SUB DUP2 ADD SWAP1 PUSH2 0x104E SWAP2 SWAP1 PUSH2 0x7646 JUMP JUMPDEST PUSH2 0x41A6 JUMP JUMPDEST STOP JUMPDEST CALLVALUE DUP1 ISZERO PUSH2 0x1061 JUMPI PUSH1 0x0 DUP1 REVERT JUMPDEST POP PUSH2 0x107C PUSH1 0x4 DUP1 CALLDATASIZE SUB DUP2 ADD SWAP1 PUSH2 0x1077 SWAP2 SWAP1 PUSH2 0x7706 JUMP JUMPDEST PUSH2 0x4712 JUMP JUMPDEST PUSH1 0x40 MLOAD PUSH2 0x1089 SWAP2 SWAP1 PUSH2 0x7230 JUMP JUMPDEST PUSH1 0x40 MLOAD DUP1 SWAP2 SUB SWAP1 RETURN JUMPDEST CALLVALUE DUP1 ISZERO PUSH2 0x109E JUMPI PUSH1 0x0 DUP1 REVERT JUMPDEST POP PUSH2 0x10A7 PUSH2 0x4751 JUMP JUMPDEST PUSH1 0x40 MLOAD PUSH2 0x10B7 SWAP5 SWAP4 SWAP3 SWAP2 SWAP1 PUSH2 0x7B54 JUMP JUMPDEST PUSH1 0x40 MLOAD DUP1 SWAP2 SUB SWAP1 RETURN JUMPDEST CALLVALUE DUP1 ISZERO PUSH2 0x10CC JUMPI PUSH1 0x0 DUP1 REVERT JUMPDEST POP PUSH2 0x10E7 PUSH1 0x4 DUP1 CALLDATASIZE SUB DUP2 ADD SWAP1 PUSH2 0x10E2 SWAP2 SWAP1 PUSH2 0x7B99 JUMP JUMPDEST PUSH2 0x47EF JUMP JUMPDEST STOP JUMPDEST CALLVALUE DUP1 ISZERO PUSH2 0x10F5 JUMPI PUSH1 0x0 DUP1 REVERT JUMPDEST POP PUSH2 0x10FE PUSH2 0x4AE1 JUMP JUMPDEST PUSH1 0x40 MLOAD PUSH2 0x110B SWAP2 SWAP1 PUSH2 0x75BF JUMP JUMPDEST PUSH1 0x40 MLOAD DUP1 SWAP2 SUB SWAP1 RETURN JUMPDEST CALLVALUE DUP1 ISZERO PUSH2 0x1120 JUMPI PUSH1 0x0 DUP1 REVERT JUMPDEST POP PUSH2 0x113B PUSH1 0x4 DUP1 CALLDATASIZE SUB DUP2 ADD SWAP1 PUSH2 0x1136 SWAP2 SWAP1 PUSH2 0x7646 JUMP JUMPDEST PUSH2 0x4AF4 JUMP JUMPDEST PUSH1 0x40 MLOAD PUSH2 0x1148 SWAP2 SWAP1 PUSH2 0x75BF JUMP JUMPDEST PUSH1 0x40 MLOAD DUP1 SWAP2 SUB SWAP1 RETURN JUMPDEST CALLVALUE DUP1 ISZERO PUSH2 0x115D JUMPI PUSH1 0x0 DUP1 REVERT JUMPDEST POP PUSH2 0x1178 PUSH1 0x4 DUP1 CALLDATASIZE SUB DUP2 ADD SWAP1 PUSH2 0x1173 SWAP2 SWAP1 PUSH2 0x77E9 JUMP JUMPDEST PUSH2 0x4B4A JUMP JUMPDEST STOP JUMPDEST PUSH1 0x3 PUSH1 0x20 MSTORE DUP2 PUSH1 0x0 MSTORE PUSH1 0x40 PUSH1 0x0 KECCAK256 PUSH1 0x20 MSTORE DUP1 PUSH1 0x0 MSTORE PUSH1 0x40 PUSH1 0x0 KECCAK256 PUSH1 0x0 SWAP2 POP SWAP2 POP POP SLOAD DUP2 JUMP JUMPDEST PUSH2 0xDEAD DUP2 JUMP JUMPDEST PUSH1 0x16 SLOAD DUP2 JUMP JUMPDEST CALLER PUSH20 0xFFFFFFFFFFFFFFFFFFFFFFFFFFFFFFFFFFFFFFFF AND PUSH1 0x1C PUSH1 0x2 SWAP1 SLOAD SWAP1 PUSH2 0x100 EXP SWAP1 DIV PUSH20 0xFFFFFFFFFFFFFFFFFFFFFFFFFFFFFFFFFFFFFFFF AND PUSH20 0xFFFFFFFFFFFFFFFFFFFFFFFFFFFFFFFFFFFFFFFF AND EQ PUSH2 0x123B JUMPI PUSH1 0x40 MLOAD PUSH32 0x8C379A000000000000000000000000000000000000000000000000000000000 DUP2 MSTORE PUSH1 0x4 ADD PUSH2 0x1232 SWAP1 PUSH2 0x7C4C JUMP JUMPDEST PUSH1 0x40 MLOAD DUP1 SWAP2 SUB SWAP1 REVERT JUMPDEST PUSH1 0x0 JUMPDEST DUP3 MLOAD DUP2 PUSH2 0xFFFF AND LT ISZERO PUSH2 0x12D3 JUMPI DUP2 PUSH1 0x9 PUSH1 0x0 DUP6 DUP5 PUSH2 0xFFFF AND DUP2 MLOAD DUP2 LT PUSH2 0x1267 JUMPI PUSH2 0x1266 PUSH2 0x7C6C JUMP JUMPDEST JUMPDEST PUSH1 0x20 MUL PUSH1 0x20 ADD ADD MLOAD PUSH20 0xFFFFFFFFFFFFFFFFFFFFFFFFFFFFFFFFFFFFFFFF AND PUSH20 0xFFFFFFFFFFFFFFFFFFFFFFFFFFFFFFFFFFFFFFFF AND DUP2 MSTORE PUSH1 0x20 ADD SWAP1 DUP2 MSTORE PUSH1 0x20 ADD PUSH1 0x0 KECCAK256 PUSH1 0x0 PUSH2 0x100 EXP DUP2 SLOAD DUP2 PUSH1 0xFF MUL NOT AND SWAP1 DUP4 ISZERO ISZERO MUL OR SWAP1 SSTORE POP DUP1 DUP1 PUSH2 0x12CB SWAP1 PUSH2 0x7CCA JUMP JUMPDEST SWAP2 POP POP PUSH2 0x123E JUMP JUMPDEST POP POP POP JUMP JUMPDEST PUSH1 0xD DUP1 PUSH1 0x0 ADD PUSH1 0x0 SWAP1 SLOAD SWAP1 PUSH2 0x100 EXP SWAP1 DIV PUSH2 0xFFFF AND SWAP1 DUP1 PUSH1 0x0 ADD PUSH1 0x2 SWAP1 SLOAD SWAP1 PUSH2 0x100 EXP SWAP1 DIV PUSH2 0xFFFF AND SWAP1 DUP1 PUSH1 0x0 ADD PUSH1 0x4 SWAP1 SLOAD SWAP1 PUSH2 0x100 EXP SWAP1 DIV PUSH2 0xFFFF AND SWAP1 POP DUP4 JUMP JUMPDEST PUSH1 0x60 PUSH1 0x40 MLOAD DUP1 PUSH1 0x40 ADD PUSH1 0x40 MSTORE DUP1 PUSH1 0xE DUP2 MSTORE PUSH1 0x20 ADD PUSH32 0x4E696E6A612057617272696F7273000000000000000000000000000000000000 DUP2 MSTORE POP SWAP1 POP SWAP1 JUMP JUMPDEST PUSH1 0xF PUSH1 0x1 SWAP1 SLOAD SWAP1 PUSH2 0x100 EXP SWAP1 DIV PUSH20 0xFFFFFFFFFFFFFFFFFFFFFFFFFFFFFFFFFFFFFFFF AND DUP2 JUMP JUMPDEST PUSH1 0xF PUSH1 0x0 SWAP1 SLOAD SWAP1 PUSH2 0x100 EXP SWAP1 DIV PUSH1 0xFF AND DUP2 JUMP JUMPDEST PUSH1 0x0 PUSH2 0x139D CALLER DUP5 DUP5 PUSH2 0x4C6E JUMP JUMPDEST PUSH1 0x1 SWAP1 POP SWAP3 SWAP2 POP POP JUMP JUMPDEST PUSH1 0x0 PUSH1 0x5 PUSH1 0x0 DUP4 PUSH20 0xFFFFFFFFFFFFFFFFFFFFFFFFFFFFFFFFFFFFFFFF AND PUSH20 0xFFFFFFFFFFFFFFFFFFFFFFFFFFFFFFFFFFFFFFFF AND DUP2 MSTORE PUSH1 0x20 ADD SWAP1 DUP2 MSTORE PUSH1 0x20 ADD PUSH1 0x0 KECCAK256 PUSH1 0x0 SWAP1 SLOAD SWAP1 PUSH2 0x100 EXP SWAP1 DIV PUSH1 0xFF AND SWAP1 POP SWAP2 SWAP1 POP JUMP JUMPDEST PUSH1 0x0 PUSH1 0x9 PUSH1 0xA PUSH2 0x140D SWAP2 SWAP1 PUSH2 0x7E27 JUMP JUMPDEST PUSH1 0x1B SLOAD PUSH2 0x141A SWAP2 SWAP1 PUSH2 0x7EA1 JUMP JUMPDEST SWAP1 POP SWAP1 JUMP JUMPDEST PUSH1 0x0 PUSH1 0x9 PUSH1 0xA PUSH2 0x142F SWAP2 SWAP1 PUSH2 0x7E27 JUMP JUMPDEST PUSH4 0x35A4E900 PUSH2 0x143E SWAP2 SWAP1 PUSH2 0x7ED2 JUMP JUMPDEST SWAP1 POP SWAP1 JUMP JUMPDEST PUSH1 0x0 PUSH1 0x20 MSTORE DUP1 PUSH1 0x0 MSTORE PUSH1 0x40 PUSH1 0x0 KECCAK256 PUSH1 0x0 SWAP2 POP SWAP1 POP SLOAD DUP2 JUMP JUMPDEST PUSH1 0x4 PUSH1 0x20 MSTORE DUP1 PUSH1 0x0 MSTORE PUSH1 0x40 PUSH1 0x0 KECCAK256 PUSH1 0x0 SWAP2 POP SLOAD SWAP1 PUSH2 0x100 EXP SWAP1 DIV PUSH1 0xFF AND DUP2 JUMP JUMPDEST PUSH1 0x9 PUSH1 0x20 MSTORE DUP1 PUSH1 0x0 MSTORE PUSH1 0x40 PUSH1 0x0 KECCAK256 PUSH1 0x0 SWAP2 POP SLOAD SWAP1 PUSH2 0x100 EXP SWAP1 DIV PUSH1 0xFF AND DUP2 JUMP JUMPDEST PUSH1 0x0 PUSH32 0xFFFFFFFFFFFFFFFFFFFFFFFFFFFFFFFFFFFFFFFFFFFFFFFFFFFFFFFFFFFFFFFF PUSH1 0x3 PUSH1 0x0 DUP7 PUSH20 0xFFFFFFFFFFFFFFFFFFFFFFFFFFFFFFFFFFFFFFFF AND PUSH20 0xFFFFFFFFFFFFFFFFFFFFFFFFFFFFFFFFFFFFFFFF AND DUP2 MSTORE PUSH1 0x20 ADD SWAP1 DUP2 MSTORE PUSH1 0x20 ADD PUSH1 0x0 KECCAK256 PUSH1 0x0 CALLER PUSH20 0xFFFFFFFFFFFFFFFFFFFFFFFFFFFFFFFFFFFFFFFF AND PUSH20 0xFFFFFFFFFFFFFFFFFFFFFFFFFFFFFFFFFFFFFFFF AND DUP2 MSTORE PUSH1 0x20 ADD SWAP1 DUP2 MSTORE PUSH1 0x20 ADD PUSH1 0x0 KECCAK256 SLOAD EQ PUSH2 0x15D4 JUMPI DUP2 PUSH1 0x3 PUSH1 0x0 DUP7 PUSH20 0xFFFFFFFFFFFFFFFFFFFFFFFFFFFFFFFFFFFFFFFF AND PUSH20 0xFFFFFFFFFFFFFFFFFFFFFFFFFFFFFFFFFFFFFFFF AND DUP2 MSTORE PUSH1 0x20 ADD SWAP1 DUP2 MSTORE PUSH1 0x20 ADD PUSH1 0x0 KECCAK256 PUSH1 0x0 CALLER PUSH20 0xFFFFFFFFFFFFFFFFFFFFFFFFFFFFFFFFFFFFFFFF AND PUSH20 0xFFFFFFFFFFFFFFFFFFFFFFFFFFFFFFFFFFFFFFFF AND DUP2 MSTORE PUSH1 0x20 ADD SWAP1 DUP2 MSTORE PUSH1 0x20 ADD PUSH1 0x0 KECCAK256 PUSH1 0x0 DUP3 DUP3 SLOAD PUSH2 0x15CC SWAP2 SWAP1 PUSH2 0x7F2C JUMP JUMPDEST SWAP3 POP POP DUP2 SWAP1 SSTORE POP JUMPDEST PUSH2 0x15DF DUP5 DUP5 DUP5 PUSH2 0x4E37 JUMP JUMPDEST SWAP1 POP SWAP4 SWAP3 POP POP POP JUMP JUMPDEST CALLER PUSH20 0xFFFFFFFFFFFFFFFFFFFFFFFFFFFFFFFFFFFFFFFF AND PUSH1 0x1C PUSH1 0x2 SWAP1 SLOAD SWAP1 PUSH2 0x100 EXP SWAP1 DIV PUSH20 0xFFFFFFFFFFFFFFFFFFFFFFFFFFFFFFFFFFFFFFFF AND PUSH20 0xFFFFFFFFFFFFFFFFFFFFFFFFFFFFFFFFFFFFFFFF AND EQ PUSH2 0x1678 JUMPI PUSH1 0x40 MLOAD PUSH32 0x8C379A000000000000000000000000000000000000000000000000000000000 DUP2 MSTORE PUSH1 0x4 ADD PUSH2 0x166F SWAP1 PUSH2 0x7C4C JUMP JUMPDEST PUSH1 0x40 MLOAD DUP1 SWAP2 SUB SWAP1 REVERT JUMPDEST PUSH1 0x64 PUSH1 0x9 PUSH1 0xA PUSH2 0x1688 SWAP2 SWAP1 PUSH2 0x7E27 JUMP JUMPDEST PUSH4 0x35A4E900 PUSH2 0x1697 SWAP2 SWAP1 PUSH2 0x7ED2 JUMP JUMPDEST PUSH2 0x16A1 SWAP2 SWAP1 PUSH2 0x7EA1 JUMP JUMPDEST DUP2 DUP4 PUSH1 0x9 PUSH1 0xA PUSH2 0x16B1 SWAP2 SWAP1 PUSH2 0x7E27 JUMP JUMPDEST PUSH4 0x35A4E900 PUSH2 0x16C0 SWAP2 SWAP1 PUSH2 0x7ED2 JUMP JUMPDEST PUSH2 0x16CA SWAP2 SWAP1 PUSH2 0x7ED2 JUMP JUMPDEST PUSH2 0x16D4 SWAP2 SWAP1 PUSH2 0x7EA1 JUMP JUMPDEST LT ISZERO PUSH2 0x1715 JUMPI PUSH1 0x40 MLOAD PUSH32 0x8C379A000000000000000000000000000000000000000000000000000000000 DUP2 MSTORE PUSH1 0x4 ADD PUSH2 0x170C SWAP1 PUSH2 0x7FD2 JUMP JUMPDEST PUSH1 0x40 MLOAD DUP1 SWAP2 SUB SWAP1 REVERT JUMPDEST DUP1 DUP3 PUSH1 0x9 PUSH1 0xA PUSH2 0x1725 SWAP2 SWAP1 PUSH2 0x7E27 JUMP JUMPDEST PUSH4 0x35A4E900 PUSH2 0x1734 SWAP2 SWAP1 PUSH2 0x7ED2 JUMP JUMPDEST PUSH2 0x173E SWAP2 SWAP1 PUSH2 0x7ED2 JUMP JUMPDEST PUSH2 0x1748 SWAP2 SWAP1 PUSH2 0x7EA1 JUMP JUMPDEST PUSH1 0x1B DUP2 SWAP1 SSTORE POP PUSH32 0xC3B2F2AAF09EC1E96E6B7C99869F672447BFC8F29D707DFB338AD84F967B796 DUP3 DUP3 PUSH1 0x40 MLOAD PUSH2 0x177F SWAP3 SWAP2 SWAP1 PUSH2 0x7FF2 JUMP JUMPDEST PUSH1 0x40 MLOAD DUP1 SWAP2 SUB SWAP1 LOG1 POP POP JUMP JUMPDEST PUSH1 0x19 SLOAD DUP2 JUMP JUMPDEST PUSH1 0x0 PUSH2 0x179D PUSH1 0x0 PUSH2 0x25A5 JUMP JUMPDEST PUSH2 0x17A8 PUSH2 0xDEAD PUSH2 0x25A5 JUMP JUMPDEST PUSH2 0x17B2 SWAP2 SWAP1 PUSH2 0x801B JUMP JUMPDEST PUSH1 0x9 PUSH1 0xA PUSH2 0x17C0 SWAP2 SWAP1 PUSH2 0x7E27 JUMP JUMPDEST PUSH4 0x35A4E900 PUSH2 0x17CF SWAP2 SWAP1 PUSH2 0x7ED2 JUMP JUMPDEST PUSH2 0x17D9 SWAP2 SWAP1 PUSH2 0x7F2C JUMP JUMPDEST SWAP1 POP SWAP1 JUMP JUMPDEST PUSH2 0x7D0 DUP2 JUMP JUMPDEST PUSH1 0x0 PUSH1 0xC SLOAD DUP3 GT ISZERO PUSH2 0x182B JUMPI PUSH1 0x40 MLOAD PUSH32 0x8C379A000000000000000000000000000000000000000000000000000000000 DUP2 MSTORE PUSH1 0x4 ADD PUSH2 0x1822 SWAP1 PUSH2 0x80E3 JUMP JUMPDEST PUSH1 0x40 MLOAD DUP1 SWAP2 SUB SWAP1 REVERT JUMPDEST PUSH1 0x0 PUSH2 0x1835 PUSH2 0x558A JUMP JUMPDEST SWAP1 POP DUP1 DUP4 PUSH2 0x1843 SWAP2 SWAP1 PUSH2 0x7EA1 JUMP JUMPDEST SWAP2 POP POP SWAP2 SWAP1 POP JUMP JUMPDEST PUSH1 0x17 SLOAD DUP2 JUMP JUMPDEST PUSH1 0x0 PUSH1 0x9 SWAP1 POP SWAP1 JUMP JUMPDEST CALLER PUSH20 0xFFFFFFFFFFFFFFFFFFFFFFFFFFFFFFFFFFFFFFFF AND PUSH1 0x1C PUSH1 0x2 SWAP1 SLOAD SWAP1 PUSH2 0x100 EXP SWAP1 DIV PUSH20 0xFFFFFFFFFFFFFFFFFFFFFFFFFFFFFFFFFFFFFFFF AND PUSH20 0xFFFFFFFFFFFFFFFFFFFFFFFFFFFFFFFFFFFFFFFF AND EQ PUSH2 0x18EA JUMPI PUSH1 0x40 MLOAD PUSH32 0x8C379A000000000000000000000000000000000000000000000000000000000 DUP2 MSTORE PUSH1 0x4 ADD PUSH2 0x18E1 SWAP1 PUSH2 0x7C4C JUMP JUMPDEST PUSH1 0x40 MLOAD DUP1 SWAP2 SUB SWAP1 REVERT JUMPDEST PUSH1 0xF PUSH1 0x0 SWAP1 SLOAD SWAP1 PUSH2 0x100 EXP SWAP1 DIV PUSH1 0xFF AND ISZERO PUSH2 0x193A JUMPI PUSH1 0x40 MLOAD PUSH32 0x8C379A000000000000000000000000000000000000000000000000000000000 DUP2 MSTORE PUSH1 0x4 ADD PUSH2 0x1931 SWAP1 PUSH2 0x814F JUMP JUMPDEST PUSH1 0x40 MLOAD DUP1 SWAP2 SUB SWAP1 REVERT JUMPDEST PUSH2 0x7D0 DUP4 PUSH2 0xFFFF AND GT ISZERO DUP1 ISZERO PUSH2 0x1956 JUMPI POP PUSH2 0x7D0 DUP3 PUSH2 0xFFFF AND GT ISZERO JUMPDEST DUP1 ISZERO PUSH2 0x1968 JUMPI POP PUSH2 0x7D0 DUP2 PUSH2 0xFFFF AND GT ISZERO JUMPDEST PUSH2 0x19A7 JUMPI PUSH1 0x40 MLOAD PUSH32 0x8C379A000000000000000000000000000000000000000000000000000000000 DUP2 MSTORE PUSH1 0x4 ADD PUSH2 0x199E SWAP1 PUSH2 0x81BB JUMP JUMPDEST PUSH1 0x40 MLOAD DUP1 SWAP2 SUB SWAP1 REVERT JUMPDEST DUP3 PUSH1 0xD PUSH1 0x0 ADD PUSH1 0x0 PUSH2 0x100 EXP DUP2 SLOAD DUP2 PUSH2 0xFFFF MUL NOT AND SWAP1 DUP4 PUSH2 0xFFFF AND MUL OR SWAP1 SSTORE POP DUP2 PUSH1 0xD PUSH1 0x0 ADD PUSH1 0x2 PUSH2 0x100 EXP DUP2 SLOAD DUP2 PUSH2 0xFFFF MUL NOT AND SWAP1 DUP4 PUSH2 0xFFFF AND MUL OR SWAP1 SSTORE POP DUP1 PUSH1 0xD PUSH1 0x0 ADD PUSH1 0x4 PUSH2 0x100 EXP DUP2 SLOAD DUP2 PUSH2 0xFFFF MUL NOT AND SWAP1 DUP4 PUSH2 0xFFFF AND MUL OR SWAP1 SSTORE POP PUSH32 0x540DEC552B2A7A44D3D6174E189BE8D0B3E89BC5C82BC74C93A3B251AFD123DB DUP4 DUP4 DUP4 PUSH1 0x40 MLOAD PUSH2 0x1A3A SWAP4 SWAP3 SWAP2 SWAP1 PUSH2 0x7455 JUMP JUMPDEST PUSH1 0x40 MLOAD DUP1 SWAP2 SUB SWAP1 LOG1 POP POP POP JUMP JUMPDEST CALLER PUSH20 0xFFFFFFFFFFFFFFFFFFFFFFFFFFFFFFFFFFFFFFFF AND PUSH1 0x1C PUSH1 0x2 SWAP1 SLOAD SWAP1 PUSH2 0x100 EXP SWAP1 DIV PUSH20 0xFFFFFFFFFFFFFFFFFFFFFFFFFFFFFFFFFFFFFFFF AND PUSH20 0xFFFFFFFFFFFFFFFFFFFFFFFFFFFFFFFFFFFFFFFF AND EQ PUSH2 0x1AD7 JUMPI PUSH1 0x40 MLOAD PUSH32 0x8C379A000000000000000000000000000000000000000000000000000000000 DUP2 MSTORE PUSH1 0x4 ADD PUSH2 0x1ACE SWAP1 PUSH2 0x7C4C JUMP JUMPDEST PUSH1 0x40 MLOAD DUP1 SWAP2 SUB SWAP1 REVERT JUMPDEST DUP1 PUSH1 0x8 PUSH1 0x0 DUP5 PUSH20 0xFFFFFFFFFFFFFFFFFFFFFFFFFFFFFFFFFFFFFFFF AND PUSH20 0xFFFFFFFFFFFFFFFFFFFFFFFFFFFFFFFFFFFFFFFF AND DUP2 MSTORE PUSH1 0x20 ADD SWAP1 DUP2 MSTORE PUSH1 0x20 ADD PUSH1 0x0 KECCAK256 PUSH1 0x0 PUSH2 0x100 EXP DUP2 SLOAD DUP2 PUSH1 0xFF MUL NOT AND SWAP1 DUP4 ISZERO ISZERO MUL OR SWAP1 SSTORE POP PUSH32 0x74392251B09500CC108C71712E5E7E0392BE9075A74A24F1494551CFA8E06870 DUP3 DUP3 PUSH1 0x40 MLOAD PUSH2 0x1B5F SWAP3 SWAP2 SWAP1 PUSH2 0x81DB JUMP JUMPDEST PUSH1 0x40 MLOAD DUP1 SWAP2 SUB SWAP1 LOG1 POP POP JUMP JUMPDEST CALLER PUSH20 0xFFFFFFFFFFFFFFFFFFFFFFFFFFFFFFFFFFFFFFFF AND PUSH1 0x1C PUSH1 0x2 SWAP1 SLOAD SWAP1 PUSH2 0x100 EXP SWAP1 DIV PUSH20 0xFFFFFFFFFFFFFFFFFFFFFFFFFFFFFFFFFFFFFFFF AND PUSH20 0xFFFFFFFFFFFFFFFFFFFFFFFFFFFFFFFFFFFFFFFF AND EQ PUSH2 0x1BFB JUMPI PUSH1 0x40 MLOAD PUSH32 0x8C379A000000000000000000000000000000000000000000000000000000000 DUP2 MSTORE PUSH1 0x4 ADD PUSH2 0x1BF2 SWAP1 PUSH2 0x7C4C JUMP JUMPDEST PUSH1 0x40 MLOAD DUP1 SWAP2 SUB SWAP1 REVERT JUMPDEST PUSH2 0x3E8 PUSH1 0x5 PUSH1 0x9 PUSH1 0xA PUSH2 0x1C0E SWAP2 SWAP1 PUSH2 0x7E27 JUMP JUMPDEST PUSH4 0x35A4E900 PUSH2 0x1C1D SWAP2 SWAP1 PUSH2 0x7ED2 JUMP JUMPDEST PUSH2 0x1C27 SWAP2 SWAP1 PUSH2 0x7ED2 JUMP JUMPDEST PUSH2 0x1C31 SWAP2 SWAP1 PUSH2 0x7EA1 JUMP JUMPDEST DUP2 DUP4 PUSH1 0x9 PUSH1 0xA PUSH2 0x1C41 SWAP2 SWAP1 PUSH2 0x7E27 JUMP JUMPDEST PUSH4 0x35A4E900 PUSH2 0x1C50 SWAP2 SWAP1 PUSH2 0x7ED2 JUMP JUMPDEST PUSH2 0x1C5A SWAP2 SWAP1 PUSH2 0x7ED2 JUMP JUMPDEST PUSH2 0x1C64 SWAP2 SWAP1 PUSH2 0x7EA1 JUMP JUMPDEST LT ISZERO PUSH2 0x1CA5 JUMPI PUSH1 0x40 MLOAD PUSH32 0x8C379A000000000000000000000000000000000000000000000000000000000 DUP2 MSTORE PUSH1 0x4 ADD PUSH2 0x1C9C SWAP1 PUSH2 0x8276 JUMP JUMPDEST PUSH1 0x40 MLOAD DUP1 SWAP2 SUB SWAP1 REVERT JUMPDEST DUP1 DUP3 PUSH1 0x9 PUSH1 0xA PUSH2 0x1CB5 SWAP2 SWAP1 PUSH2 0x7E27 JUMP JUMPDEST PUSH4 0x35A4E900 PUSH2 0x1CC4 SWAP2 SWAP1 PUSH2 0x7ED2 JUMP JUMPDEST PUSH2 0x1CCE SWAP2 SWAP1 PUSH2 0x7ED2 JUMP JUMPDEST PUSH2 0x1CD8 SWAP2 SWAP1 PUSH2 0x7EA1 JUMP JUMPDEST PUSH1 0x1A DUP2 SWAP1 SSTORE POP PUSH32 0x9CCB61B09A9577F71565477D66091EDF28D6ED480A8DD1AAE2194E19865E881D DUP3 DUP3 PUSH1 0x40 MLOAD PUSH2 0x1D0F SWAP3 SWAP2 SWAP1 PUSH2 0x7FF2 JUMP JUMPDEST PUSH1 0x40 MLOAD DUP1 SWAP2 SUB SWAP1 LOG1 POP POP JUMP JUMPDEST CALLER PUSH20 0xFFFFFFFFFFFFFFFFFFFFFFFFFFFFFFFFFFFFFFFF AND PUSH1 0x1C PUSH1 0x2 SWAP1 SLOAD SWAP1 PUSH2 0x100 EXP SWAP1 DIV PUSH20 0xFFFFFFFFFFFFFFFFFFFFFFFFFFFFFFFFFFFFFFFF AND PUSH20 0xFFFFFFFFFFFFFFFFFFFFFFFFFFFFFFFFFFFFFFFF AND EQ PUSH2 0x1DAB JUMPI PUSH1 0x40 MLOAD PUSH32 0x8C379A000000000000000000000000000000000000000000000000000000000 DUP2 MSTORE PUSH1 0x4 ADD PUSH2 0x1DA2 SWAP1 PUSH2 0x7C4C JUMP JUMPDEST PUSH1 0x40 MLOAD DUP1 SWAP2 SUB SWAP1 REVERT JUMPDEST DUP1 MLOAD DUP3 MLOAD EQ PUSH2 0x1DEF JUMPI PUSH1 0x40 MLOAD PUSH32 0x8C379A000000000000000000000000000000000000000000000000000000000 DUP2 MSTORE PUSH1 0x4 ADD PUSH2 0x1DE6 SWAP1 PUSH2 0x82E2 JUMP JUMPDEST PUSH1 0x40 MLOAD DUP1 SWAP2 SUB SWAP1 REVERT JUMPDEST PUSH1 0x0 JUMPDEST DUP3 MLOAD DUP2 PUSH2 0xFFFF AND LT ISZERO PUSH2 0x1EF8 JUMPI PUSH1 0x9 PUSH1 0xA PUSH2 0x1E0D SWAP2 SWAP1 PUSH2 0x7E27 JUMP JUMPDEST DUP3 DUP3 PUSH2 0xFFFF AND DUP2 MLOAD DUP2 LT PUSH2 0x1E24 JUMPI PUSH2 0x1E23 PUSH2 0x7C6C JUMP JUMPDEST JUMPDEST PUSH1 0x20 MUL PUSH1 0x20 ADD ADD MLOAD PUSH2 0x1E36 SWAP2 SWAP1 PUSH2 0x7ED2 JUMP JUMPDEST PUSH2 0x1E3F CALLER PUSH2 0x25A5 JUMP JUMPDEST LT ISZERO PUSH2 0x1E80 JUMPI PUSH1 0x40 MLOAD PUSH32 0x8C379A000000000000000000000000000000000000000000000000000000000 DUP2 MSTORE PUSH1 0x4 ADD PUSH2 0x1E77 SWAP1 PUSH2 0x834E JUMP JUMPDEST PUSH1 0x40 MLOAD DUP1 SWAP2 SUB SWAP1 REVERT JUMPDEST PUSH2 0x1EE4 CALLER DUP5 DUP4 PUSH2 0xFFFF AND DUP2 MLOAD DUP2 LT PUSH2 0x1E9B JUMPI PUSH2 0x1E9A PUSH2 0x7C6C JUMP JUMPDEST JUMPDEST PUSH1 0x20 MUL PUSH1 0x20 ADD ADD MLOAD PUSH1 0x9 PUSH1 0xA PUSH2 0x1EB1 SWAP2 SWAP1 PUSH2 0x7E27 JUMP JUMPDEST DUP6 DUP6 PUSH2 0xFFFF AND DUP2 MLOAD DUP2 LT PUSH2 0x1EC8 JUMPI PUSH2 0x1EC7 PUSH2 0x7C6C JUMP JUMPDEST JUMPDEST PUSH1 0x20 MUL PUSH1 0x20 ADD ADD MLOAD PUSH2 0x1EDA SWAP2 SWAP1 PUSH2 0x7ED2 JUMP JUMPDEST PUSH1 0x0 DUP1 PUSH1 0x1 PUSH2 0x590F JUMP JUMPDEST POP DUP1 DUP1 PUSH2 0x1EF0 SWAP1 PUSH2 0x7CCA JUMP JUMPDEST SWAP2 POP POP PUSH2 0x1DF2 JUMP JUMPDEST POP POP POP JUMP JUMPDEST PUSH1 0x2 PUSH1 0x20 MSTORE DUP1 PUSH1 0x0 MSTORE PUSH1 0x40 PUSH1 0x0 KECCAK256 PUSH1 0x0 SWAP2 POP SLOAD SWAP1 PUSH2 0x100 EXP SWAP1 DIV PUSH1 0xFF AND DUP2 JUMP JUMPDEST PUSH1 0x10 PUSH1 0x0 SWAP1 SLOAD SWAP1 PUSH2 0x100 EXP SWAP1 DIV PUSH20 0xFFFFFFFFFFFFFFFFFFFFFFFFFFFFFFFFFFFFFFFF AND DUP2 JUMP JUMPDEST PUSH1 0x1C PUSH1 0x0 SWAP1 SLOAD SWAP1 PUSH2 0x100 EXP SWAP1 DIV PUSH1 0xFF AND DUP2 JUMP JUMPDEST PUSH1 0x0 PUSH2 0x2710 DUP3 PUSH2 0x1F87 PUSH1 0x10 PUSH1 0x0 SWAP1 SLOAD SWAP1 PUSH2 0x100 EXP SWAP1 DIV PUSH20 0xFFFFFFFFFFFFFFFFFFFFFFFFFFFFFFFFFFFFFFFF AND PUSH2 0x25A5 JUMP JUMPDEST PUSH2 0x1F91 SWAP2 SWAP1 PUSH2 0x7ED2 JUMP JUMPDEST PUSH2 0x1F9B SWAP2 SWAP1 PUSH2 0x7EA1 JUMP JUMPDEST SWAP1 POP SWAP2 SWAP1 POP JUMP JUMPDEST CALLER PUSH20 0xFFFFFFFFFFFFFFFFFFFFFFFFFFFFFFFFFFFFFFFF AND PUSH1 0x1C PUSH1 0x2 SWAP1 SLOAD SWAP1 PUSH2 0x100 EXP SWAP1 DIV PUSH20 0xFFFFFFFFFFFFFFFFFFFFFFFFFFFFFFFFFFFFFFFF AND PUSH20 0xFFFFFFFFFFFFFFFFFFFFFFFFFFFFFFFFFFFFFFFF AND EQ PUSH2 0x2032 JUMPI PUSH1 0x40 MLOAD PUSH32 0x8C379A000000000000000000000000000000000000000000000000000000000 DUP2 MSTORE PUSH1 0x4 ADD PUSH2 0x2029 SWAP1 PUSH2 0x7C4C JUMP JUMPDEST PUSH1 0x40 MLOAD DUP1 SWAP2 SUB SWAP1 REVERT JUMPDEST PUSH1 0x96 DUP2 GT ISZERO PUSH2 0x2076 JUMPI PUSH1 0x40 MLOAD PUSH32 0x8C379A000000000000000000000000000000000000000000000000000000000 DUP2 MSTORE PUSH1 0x4 ADD PUSH2 0x206D SWAP1 PUSH2 0x83BA JUMP JUMPDEST PUSH1 0x40 MLOAD DUP1 SWAP2 SUB SWAP1 REVERT JUMPDEST DUP1 PUSH1 0x19 DUP2 SWAP1 SSTORE POP PUSH32 0x1FB435878E213D939617BA034D16D5FFA73262162EA68685DE8A5908C60DE732 DUP2 PUSH1 0x40 MLOAD PUSH2 0x20AC SWAP2 SWAP1 PUSH2 0x7206 JUMP JUMPDEST PUSH1 0x40 MLOAD DUP1 SWAP2 SUB SWAP1 LOG1 POP JUMP JUMPDEST CALLER PUSH20 0xFFFFFFFFFFFFFFFFFFFFFFFFFFFFFFFFFFFFFFFF AND PUSH1 0x1C PUSH1 0x2 SWAP1 SLOAD SWAP1 PUSH2 0x100 EXP SWAP1 DIV PUSH20 0xFFFFFFFFFFFFFFFFFFFFFFFFFFFFFFFFFFFFFFFF AND PUSH20 0xFFFFFFFFFFFFFFFFFFFFFFFFFFFFFFFFFFFFFFFF AND EQ PUSH2 0x2147 JUMPI PUSH1 0x40 MLOAD PUSH32 0x8C379A000000000000000000000000000000000000000000000000000000000 DUP2 MSTORE PUSH1 0x4 ADD PUSH2 0x213E SWAP1 PUSH2 0x7C4C JUMP JUMPDEST PUSH1 0x40 MLOAD DUP1 SWAP2 SUB SWAP1 REVERT JUMPDEST PUSH1 0x0 PUSH20 0xFFFFFFFFFFFFFFFFFFFFFFFFFFFFFFFFFFFFFFFF AND DUP2 PUSH20 0xFFFFFFFFFFFFFFFFFFFFFFFFFFFFFFFFFFFFFFFF AND EQ ISZERO DUP1 ISZERO PUSH2 0x21B2 JUMPI POP PUSH2 0xDEAD PUSH20 0xFFFFFFFFFFFFFFFFFFFFFFFFFFFFFFFFFFFFFFFF AND DUP2 PUSH20 0xFFFFFFFFFFFFFFFFFFFFFFFFFFFFFFFFFFFFFFFF AND EQ ISZERO JUMPDEST PUSH2 0x21F1 JUMPI PUSH1 0x40 MLOAD PUSH32 0x8C379A000000000000000000000000000000000000000000000000000000000 DUP2 MSTORE PUSH1 0x4 ADD PUSH2 0x21E8 SWAP1 PUSH2 0x844C JUMP JUMPDEST PUSH1 0x40 MLOAD DUP1 SWAP2 SUB SWAP1 REVERT JUMPDEST PUSH2 0x221E PUSH1 0x1C PUSH1 0x2 SWAP1 SLOAD SWAP1 PUSH2 0x100 EXP SWAP1 DIV PUSH20 0xFFFFFFFFFFFFFFFFFFFFFFFFFFFFFFFFFFFFFFFF AND PUSH1 0x0 PUSH2 0x23E9 JUMP JUMPDEST PUSH2 0x2229 DUP2 PUSH1 0x1 PUSH2 0x23E9 JUMP JUMPDEST PUSH1 0x0 PUSH2 0x2256 PUSH1 0x1C PUSH1 0x2 SWAP1 SLOAD SWAP1 PUSH2 0x100 EXP SWAP1 DIV PUSH20 0xFFFFFFFFFFFFFFFFFFFFFFFFFFFFFFFFFFFFFFFF AND PUSH2 0x25A5 JUMP JUMPDEST GT ISZERO PUSH2 0x22BA JUMPI PUSH2 0x22B8 PUSH1 0x1C PUSH1 0x2 SWAP1 SLOAD SWAP1 PUSH2 0x100 EXP SWAP1 DIV PUSH20 0xFFFFFFFFFFFFFFFFFFFFFFFFFFFFFFFFFFFFFFFF AND DUP3 PUSH2 0x22AE PUSH1 0x1C PUSH1 0x2 SWAP1 SLOAD SWAP1 PUSH2 0x100 EXP SWAP1 DIV PUSH20 0xFFFFFFFFFFFFFFFFFFFFFFFFFFFFFFFFFFFFFFFF AND PUSH2 0x25A5 JUMP JUMPDEST PUSH1 0x0 DUP1 PUSH1 0x1 PUSH2 0x590F JUMP JUMPDEST POP JUMPDEST PUSH1 0x0 PUSH1 0x1C PUSH1 0x2 SWAP1 SLOAD SWAP1 PUSH2 0x100 EXP SWAP1 DIV PUSH20 0xFFFFFFFFFFFFFFFFFFFFFFFFFFFFFFFFFFFFFFFF AND SWAP1 POP DUP2 PUSH1 0x1C PUSH1 0x2 PUSH2 0x100 EXP DUP2 SLOAD DUP2 PUSH20 0xFFFFFFFFFFFFFFFFFFFFFFFFFFFFFFFFFFFFFFFF MUL NOT AND SWAP1 DUP4 PUSH20 0xFFFFFFFFFFFFFFFFFFFFFFFFFFFFFFFFFFFFFFFF AND MUL OR SWAP1 SSTORE POP DUP2 PUSH20 0xFFFFFFFFFFFFFFFFFFFFFFFFFFFFFFFFFFFFFFFF AND DUP2 PUSH20 0xFFFFFFFFFFFFFFFFFFFFFFFFFFFFFFFFFFFFFFFF AND PUSH32 0x8BE0079C531659141344CD1FD0A4F28419497F9722A3DAAFE3B4186F6B6457E0 PUSH1 0x40 MLOAD PUSH1 0x40 MLOAD DUP1 SWAP2 SUB SWAP1 LOG3 POP POP JUMP JUMPDEST PUSH1 0x0 PUSH1 0x6 PUSH1 0x0 DUP4 PUSH20 0xFFFFFFFFFFFFFFFFFFFFFFFFFFFFFFFFFFFFFFFF AND PUSH20 0xFFFFFFFFFFFFFFFFFFFFFFFFFFFFFFFFFFFFFFFF AND DUP2 MSTORE PUSH1 0x20 ADD SWAP1 DUP2 MSTORE PUSH1 0x20 ADD PUSH1 0x0 KECCAK256 PUSH1 0x0 SWAP1 SLOAD SWAP1 PUSH2 0x100 EXP SWAP1 DIV PUSH1 0xFF AND SWAP1 POP SWAP2 SWAP1 POP JUMP JUMPDEST PUSH1 0x1C PUSH1 0x1 SWAP1 SLOAD SWAP1 PUSH2 0x100 EXP SWAP1 DIV PUSH1 0xFF AND DUP2 JUMP JUMPDEST CALLER PUSH20 0xFFFFFFFFFFFFFFFFFFFFFFFFFFFFFFFFFFFFFFFF AND PUSH1 0x1C PUSH1 0x2 SWAP1 SLOAD SWAP1 PUSH2 0x100 EXP SWAP1 DIV PUSH20 0xFFFFFFFFFFFFFFFFFFFFFFFFFFFFFFFFFFFFFFFF AND PUSH20 0xFFFFFFFFFFFFFFFFFFFFFFFFFFFFFFFFFFFFFFFF AND EQ PUSH2 0x2479 JUMPI PUSH1 0x40 MLOAD PUSH32 0x8C379A000000000000000000000000000000000000000000000000000000000 DUP2 MSTORE PUSH1 0x4 ADD PUSH2 0x2470 SWAP1 PUSH2 0x7C4C JUMP JUMPDEST PUSH1 0x40 MLOAD DUP1 SWAP2 SUB SWAP1 REVERT JUMPDEST DUP1 PUSH1 0x6 PUSH1 0x0 DUP5 PUSH20 0xFFFFFFFFFFFFFFFFFFFFFFFFFFFFFFFFFFFFFFFF AND PUSH20 0xFFFFFFFFFFFFFFFFFFFFFFFFFFFFFFFFFFFFFFFF AND DUP2 MSTORE PUSH1 0x20 ADD SWAP1 DUP2 MSTORE PUSH1 0x20 ADD PUSH1 0x0 KECCAK256 PUSH1 0x0 PUSH2 0x100 EXP DUP2 SLOAD DUP2 PUSH1 0xFF MUL NOT AND SWAP1 DUP4 ISZERO ISZERO MUL OR SWAP1 SSTORE POP PUSH32 0x3499BFCF9673677BA552F3FE2EA274EC7E6246DA31C3C87E115B45A9B0DB2EFB DUP3 DUP3 PUSH1 0x40 MLOAD PUSH2 0x2501 SWAP3 SWAP2 SWAP1 PUSH2 0x81DB JUMP JUMPDEST PUSH1 0x40 MLOAD DUP1 SWAP2 SUB SWAP1 LOG1 POP POP JUMP JUMPDEST PUSH1 0x0 PUSH1 0x8 PUSH1 0x0 DUP4 PUSH20 0xFFFFFFFFFFFFFFFFFFFFFFFFFFFFFFFFFFFFFFFF AND PUSH20 0xFFFFFFFFFFFFFFFFFFFFFFFFFFFFFFFFFFFFFFFF AND DUP2 MSTORE PUSH1 0x20 ADD SWAP1 DUP2 MSTORE PUSH1 0x20 ADD PUSH1 0x0 KECCAK256 PUSH1 0x0 SWAP1 SLOAD SWAP1 PUSH2 0x100 EXP SWAP1 DIV PUSH1 0xFF AND SWAP1 POP SWAP2 SWAP1 POP JUMP JUMPDEST PUSH1 0xB PUSH1 0x20 MSTORE DUP1 PUSH1 0x0 MSTORE PUSH1 0x40 PUSH1 0x0 KECCAK256 PUSH1 0x0 SWAP2 POP SLOAD SWAP1 PUSH2 0x100 EXP SWAP1 DIV PUSH1 0xFF AND DUP2 JUMP JUMPDEST PUSH1 0x0 PUSH1 0x9 PUSH1 0xA PUSH2 0x2593 SWAP2 SWAP1 PUSH2 0x7E27 JUMP JUMPDEST PUSH1 0x1A SLOAD PUSH2 0x25A0 SWAP2 SWAP1 PUSH2 0x7EA1 JUMP JUMPDEST SWAP1 POP SWAP1 JUMP JUMPDEST PUSH1 0x0 PUSH1 0x7 PUSH1 0x0 DUP4 PUSH20 0xFFFFFFFFFFFFFFFFFFFFFFFFFFFFFFFFFFFFFFFF AND PUSH20 0xFFFFFFFFFFFFFFFFFFFFFFFFFFFFFFFFFFFFFFFF AND DUP2 MSTORE PUSH1 0x20 ADD SWAP1 DUP2 MSTORE PUSH1 0x20 ADD PUSH1 0x0 KECCAK256 PUSH1 0x0 SWAP1 SLOAD SWAP1 PUSH2 0x100 EXP SWAP1 DIV PUSH1 0xFF AND ISZERO PUSH2 0x2640 JUMPI PUSH1 0x1 PUSH1 0x0 DUP4 PUSH20 0xFFFFFFFFFFFFFFFFFFFFFFFFFFFFFFFFFFFFFFFF AND PUSH20 0xFFFFFFFFFFFFFFFFFFFFFFFFFFFFFFFFFFFFFFFF AND DUP2 MSTORE PUSH1 0x20 ADD SWAP1 DUP2 MSTORE PUSH1 0x20 ADD PUSH1 0x0 KECCAK256 SLOAD SWAP1 POP PUSH2 0x268A JUMP JUMPDEST PUSH2 0x2687 PUSH1 0x0 DUP1 DUP5 PUSH20 0xFFFFFFFFFFFFFFFFFFFFFFFFFFFFFFFFFFFFFFFF AND PUSH20 0xFFFFFFFFFFFFFFFFFFFFFFFFFFFFFFFFFFFFFFFF AND DUP2 MSTORE PUSH1 0x20 ADD SWAP1 DUP2 MSTORE PUSH1 0x20 ADD PUSH1 0x0 KECCAK256 SLOAD PUSH2 0x17E4 JUMP JUMPDEST SWAP1 POP JUMPDEST SWAP2 SWAP1 POP JUMP JUMPDEST CALLER PUSH20 0xFFFFFFFFFFFFFFFFFFFFFFFFFFFFFFFFFFFFFFFF AND PUSH1 0x1C PUSH1 0x2 SWAP1 SLOAD SWAP1 PUSH2 0x100 EXP SWAP1 DIV PUSH20 0xFFFFFFFFFFFFFFFFFFFFFFFFFFFFFFFFFFFFFFFF AND PUSH20 0xFFFFFFFFFFFFFFFFFFFFFFFFFFFFFFFFFFFFFFFF AND EQ PUSH2 0x271F JUMPI PUSH1 0x40 MLOAD PUSH32 0x8C379A000000000000000000000000000000000000000000000000000000000 DUP2 MSTORE PUSH1 0x4 ADD PUSH2 0x2716 SWAP1 PUSH2 0x7C4C JUMP JUMPDEST PUSH1 0x40 MLOAD DUP1 SWAP2 SUB SWAP1 REVERT JUMPDEST PUSH1 0x1 PUSH1 0xF PUSH1 0x0 PUSH2 0x100 EXP DUP2 SLOAD DUP2 PUSH1 0xFF MUL NOT AND SWAP1 DUP4 ISZERO ISZERO MUL OR SWAP1 SSTORE POP PUSH32 0x86896658840680F8FBFFC78D43D4CF530F280C75F9A50359942BB186230E6F4E PUSH1 0x40 MLOAD PUSH1 0x40 MLOAD DUP1 SWAP2 SUB SWAP1 LOG1 JUMP JUMPDEST PUSH1 0x0 PUSH1 0x7 PUSH1 0x0 DUP4 PUSH20 0xFFFFFFFFFFFFFFFFFFFFFFFFFFFFFFFFFFFFFFFF AND PUSH20 0xFFFFFFFFFFFFFFFFFFFFFFFFFFFFFFFFFFFFFFFF AND DUP2 MSTORE PUSH1 0x20 ADD SWAP1 DUP2 MSTORE PUSH1 0x20 ADD PUSH1 0x0 KECCAK256 PUSH1 0x0 SWAP1 SLOAD SWAP1 PUSH2 0x100 EXP SWAP1 DIV PUSH1 0xFF AND SWAP1 POP SWAP2 SWAP1 POP JUMP JUMPDEST CALLER PUSH20 0xFFFFFFFFFFFFFFFFFFFFFFFFFFFFFFFFFFFFFFFF AND PUSH1 0x1C PUSH1 0x2 SWAP1 SLOAD SWAP1 PUSH2 0x100 EXP SWAP1 DIV PUSH20 0xFFFFFFFFFFFFFFFFFFFFFFFFFFFFFFFFFFFFFFFF AND PUSH20 0xFFFFFFFFFFFFFFFFFFFFFFFFFFFFFFFFFFFFFFFF AND EQ PUSH2 0x284E JUMPI PUSH1 0x40 MLOAD PUSH32 0x8C379A000000000000000000000000000000000000000000000000000000000 DUP2 MSTORE PUSH1 0x4 ADD PUSH2 0x2845 SWAP1 PUSH2 0x7C4C JUMP JUMPDEST PUSH1 0x40 MLOAD DUP1 SWAP2 SUB SWAP1 REVERT JUMPDEST DUP1 PUSH2 0x28B0 JUMPI PUSH1 0x0 PUSH1 0x2 PUSH1 0x0 DUP5 PUSH20 0xFFFFFFFFFFFFFFFFFFFFFFFFFFFFFFFFFFFFFFFF AND PUSH20 0xFFFFFFFFFFFFFFFFFFFFFFFFFFFFFFFFFFFFFFFF AND DUP2 MSTORE PUSH1 0x20 ADD SWAP1 DUP2 MSTORE PUSH1 0x20 ADD PUSH1 0x0 KECCAK256 PUSH1 0x0 PUSH2 0x100 EXP DUP2 SLOAD DUP2 PUSH1 0xFF MUL NOT AND SWAP1 DUP4 ISZERO ISZERO MUL OR SWAP1 SSTORE POP PUSH2 0x2909 JUMP JUMPDEST PUSH1 0x1 PUSH1 0x2 PUSH1 0x0 DUP5 PUSH20 0xFFFFFFFFFFFFFFFFFFFFFFFFFFFFFFFFFFFFFFFF AND PUSH20 0xFFFFFFFFFFFFFFFFFFFFFFFFFFFFFFFFFFFFFFFF AND DUP2 MSTORE PUSH1 0x20 ADD SWAP1 DUP2 MSTORE PUSH1 0x20 ADD PUSH1 0x0 KECCAK256 PUSH1 0x0 PUSH2 0x100 EXP DUP2 SLOAD DUP2 PUSH1 0xFF MUL NOT AND SWAP1 DUP4 ISZERO ISZERO MUL OR SWAP1 SSTORE POP JUMPDEST PUSH32 0x1831FB11BB171110FC94FFB34002EA962C4D071403B9EB6F07D92F59F37A685A DUP3 DUP3 PUSH1 0x40 MLOAD PUSH2 0x293A SWAP3 SWAP2 SWAP1 PUSH2 0x81DB JUMP JUMPDEST PUSH1 0x40 MLOAD DUP1 SWAP2 SUB SWAP1 LOG1 POP POP JUMP JUMPDEST CALLER PUSH20 0xFFFFFFFFFFFFFFFFFFFFFFFFFFFFFFFFFFFFFFFF AND PUSH1 0x1C PUSH1 0x2 SWAP1 SLOAD SWAP1 PUSH2 0x100 EXP SWAP1 DIV PUSH20 0xFFFFFFFFFFFFFFFFFFFFFFFFFFFFFFFFFFFFFFFF AND PUSH20 0xFFFFFFFFFFFFFFFFFFFFFFFFFFFFFFFFFFFFFFFF AND EQ PUSH2 0x29D6 JUMPI PUSH1 0x40 MLOAD PUSH32 0x8C379A000000000000000000000000000000000000000000000000000000000 DUP2 MSTORE PUSH1 0x4 ADD PUSH2 0x29CD SWAP1 PUSH2 0x7C4C JUMP JUMPDEST PUSH1 0x40 MLOAD DUP1 SWAP2 SUB SWAP1 REVERT JUMPDEST PUSH1 0x0 PUSH20 0xFFFFFFFFFFFFFFFFFFFFFFFFFFFFFFFFFFFFFFFF AND DUP5 PUSH20 0xFFFFFFFFFFFFFFFFFFFFFFFFFFFFFFFFFFFFFFFF AND EQ ISZERO DUP1 ISZERO PUSH2 0x2A40 JUMPI POP PUSH1 0x0 PUSH20 0xFFFFFFFFFFFFFFFFFFFFFFFFFFFFFFFFFFFFFFFF AND DUP3 PUSH20 0xFFFFFFFFFFFFFFFFFFFFFFFFFFFFFFFFFFFFFFFF AND EQ ISZERO JUMPDEST DUP1 ISZERO PUSH2 0x2A79 JUMPI POP PUSH1 0x0 PUSH20 0xFFFFFFFFFFFFFFFFFFFFFFFFFFFFFFFFFFFFFFFF AND DUP4 PUSH20 0xFFFFFFFFFFFFFFFFFFFFFFFFFFFFFFFFFFFFFFFF AND EQ ISZERO JUMPDEST DUP1 ISZERO PUSH2 0x2AB2 JUMPI POP PUSH1 0x0 PUSH20 0xFFFFFFFFFFFFFFFFFFFFFFFFFFFFFFFFFFFFFFFF AND DUP2 PUSH20 0xFFFFFFFFFFFFFFFFFFFFFFFFFFFFFFFFFFFFFFFF AND EQ ISZERO JUMPDEST PUSH2 0x2AF1 JUMPI PUSH1 0x40 MLOAD PUSH32 0x8C379A000000000000000000000000000000000000000000000000000000000 DUP2 MSTORE PUSH1 0x4 ADD PUSH2 0x2AE8 SWAP1 PUSH2 0x84B8 JUMP JUMPDEST PUSH1 0x40 MLOAD DUP1 SWAP2 SUB SWAP1 REVERT JUMPDEST DUP4 PUSH1 0x11 PUSH1 0x0 ADD PUSH1 0x0 PUSH2 0x100 EXP DUP2 SLOAD DUP2 PUSH20 0xFFFFFFFFFFFFFFFFFFFFFFFFFFFFFFFFFFFFFFFF MUL NOT AND SWAP1 DUP4 PUSH20 0xFFFFFFFFFFFFFFFFFFFFFFFFFFFFFFFFFFFFFFFF AND MUL OR SWAP1 SSTORE POP DUP2 PUSH1 0x11 PUSH1 0x1 ADD PUSH1 0x0 PUSH2 0x100 EXP DUP2 SLOAD DUP2 PUSH20 0xFFFFFFFFFFFFFFFFFFFFFFFFFFFFFFFFFFFFFFFF MUL NOT AND SWAP1 DUP4 PUSH20 0xFFFFFFFFFFFFFFFFFFFFFFFFFFFFFFFFFFFFFFFF AND MUL OR SWAP1 SSTORE POP DUP3 PUSH1 0x11 PUSH1 0x2 ADD PUSH1 0x0 PUSH2 0x100 EXP DUP2 SLOAD DUP2 PUSH20 0xFFFFFFFFFFFFFFFFFFFFFFFFFFFFFFFFFFFFFFFF MUL NOT AND SWAP1 DUP4 PUSH20 0xFFFFFFFFFFFFFFFFFFFFFFFFFFFFFFFFFFFFFFFF AND MUL OR SWAP1 SSTORE POP DUP1 PUSH1 0x11 PUSH1 0x3 ADD PUSH1 0x0 PUSH2 0x100 EXP DUP2 SLOAD DUP2 PUSH20 0xFFFFFFFFFFFFFFFFFFFFFFFFFFFFFFFFFFFFFFFF MUL NOT AND SWAP1 DUP4 PUSH20 0xFFFFFFFFFFFFFFFFFFFFFFFFFFFFFFFFFFFFFFFF AND MUL OR SWAP1 SSTORE POP PUSH32 0x52B47F1BA26C2EE426FBF018DD47E477FC9DFBCA9F4F4BD6448E8CB42CCA80D9 DUP5 DUP5 DUP5 DUP5 PUSH1 0x40 MLOAD PUSH2 0x2C36 SWAP5 SWAP4 SWAP3 SWAP2 SWAP1 PUSH2 0x84F9 JUMP JUMPDEST PUSH1 0x40 MLOAD DUP1 SWAP2 SUB SWAP1 LOG1 POP POP POP POP JUMP JUMPDEST PUSH1 0x0 PUSH1 0x1C PUSH1 0x2 SWAP1 SLOAD SWAP1 PUSH2 0x100 EXP SWAP1 DIV PUSH20 0xFFFFFFFFFFFFFFFFFFFFFFFFFFFFFFFFFFFFFFFF AND SWAP1 POP SWAP1 JUMP JUMPDEST PUSH1 0x0 CALLER PUSH20 0xFFFFFFFFFFFFFFFFFFFFFFFFFFFFFFFFFFFFFFFF AND PUSH1 0x1C PUSH1 0x2 SWAP1 SLOAD SWAP1 PUSH2 0x100 EXP SWAP1 DIV PUSH20 0xFFFFFFFFFFFFFFFFFFFFFFFFFFFFFFFFFFFFFFFF AND PUSH20 0xFFFFFFFFFFFFFFFFFFFFFFFFFFFFFFFFFFFFFFFF AND EQ PUSH2 0x2D00 JUMPI PUSH1 0x40 MLOAD PUSH32 0x8C379A000000000000000000000000000000000000000000000000000000000 DUP2 MSTORE PUSH1 0x4 ADD PUSH2 0x2CF7 SWAP1 PUSH2 0x7C4C JUMP JUMPDEST PUSH1 0x40 MLOAD DUP1 SWAP2 SUB SWAP1 REVERT JUMPDEST PUSH2 0x2D4D ADDRESS PUSH1 0xF PUSH1 0x1 SWAP1 SLOAD SWAP1 PUSH2 0x100 EXP SWAP1 DIV PUSH20 0xFFFFFFFFFFFFFFFFFFFFFFFFFFFFFFFFFFFFFFFF AND PUSH32 0xFFFFFFFFFFFFFFFFFFFFFFFFFFFFFFFFFFFFFFFFFFFFFFFFFFFFFFFFFFFFFFFF PUSH2 0x4C6E JUMP JUMPDEST PUSH1 0x1 SWAP1 POP SWAP1 JUMP JUMPDEST CALLER PUSH20 0xFFFFFFFFFFFFFFFFFFFFFFFFFFFFFFFFFFFFFFFF AND PUSH1 0x1C PUSH1 0x2 SWAP1 SLOAD SWAP1 PUSH2 0x100 EXP SWAP1 DIV PUSH20 0xFFFFFFFFFFFFFFFFFFFFFFFFFFFFFFFFFFFFFFFF AND PUSH20 0xFFFFFFFFFFFFFFFFFFFFFFFFFFFFFFFFFFFFFFFF AND EQ PUSH2 0x2DE4 JUMPI PUSH1 0x40 MLOAD PUSH32 0x8C379A000000000000000000000000000000000000000000000000000000000 DUP2 MSTORE PUSH1 0x4 ADD PUSH2 0x2DDB SWAP1 PUSH2 0x7C4C JUMP JUMPDEST PUSH1 0x40 MLOAD DUP1 SWAP2 SUB SWAP1 REVERT JUMPDEST PUSH1 0x1C PUSH1 0x0 SWAP1 SLOAD SWAP1 PUSH2 0x100 EXP SWAP1 DIV PUSH1 0xFF AND ISZERO PUSH2 0x2E34 JUMPI PUSH1 0x40 MLOAD PUSH32 0x8C379A000000000000000000000000000000000000000000000000000000000 DUP2 MSTORE PUSH1 0x4 ADD PUSH2 0x2E2B SWAP1 PUSH2 0x858A JUMP JUMPDEST PUSH1 0x40 MLOAD DUP1 SWAP2 SUB SWAP1 REVERT JUMPDEST PUSH1 0x1C PUSH1 0x1 SWAP1 SLOAD SWAP1 PUSH2 0x100 EXP SWAP1 DIV PUSH1 0xFF AND PUSH2 0x2E83 JUMPI PUSH1 0x40 MLOAD PUSH32 0x8C379A000000000000000000000000000000000000000000000000000000000 DUP2 MSTORE PUSH1 0x4 ADD PUSH2 0x2E7A SWAP1 PUSH2 0x85F6 JUMP JUMPDEST PUSH1 0x40 MLOAD DUP1 SWAP2 SUB SWAP1 REVERT JUMPDEST PUSH1 0x1 PUSH1 0x1C PUSH1 0x0 PUSH2 0x100 EXP DUP2 SLOAD DUP2 PUSH1 0xFF MUL NOT AND SWAP1 DUP4 ISZERO ISZERO MUL OR SWAP1 SSTORE POP PUSH2 0x2710 PUSH1 0xA PUSH2 0x2ECE PUSH1 0x10 PUSH1 0x0 SWAP1 SLOAD SWAP1 PUSH2 0x100 EXP SWAP1 DIV PUSH20 0xFFFFFFFFFFFFFFFFFFFFFFFFFFFFFFFFFFFFFFFF AND PUSH2 0x25A5 JUMP JUMPDEST PUSH2 0x2ED8 SWAP2 SWAP1 PUSH2 0x7ED2 JUMP JUMPDEST PUSH2 0x2EE2 SWAP2 SWAP1 PUSH2 0x7EA1 JUMP JUMPDEST PUSH1 0x16 DUP2 SWAP1 SSTORE POP PUSH2 0x2710 PUSH1 0x1E PUSH2 0x2F18 PUSH1 0x10 PUSH1 0x0 SWAP1 SLOAD SWAP1 PUSH2 0x100 EXP SWAP1 DIV PUSH20 0xFFFFFFFFFFFFFFFFFFFFFFFFFFFFFFFFFFFFFFFF AND PUSH2 0x25A5 JUMP JUMPDEST PUSH2 0x2F22 SWAP2 SWAP1 PUSH2 0x7ED2 JUMP JUMPDEST PUSH2 0x2F2C SWAP2 SWAP1 PUSH2 0x7EA1 JUMP JUMPDEST PUSH1 0x17 DUP2 SWAP1 SSTORE POP PUSH32 0x799663458A5EF2936F7FA0C99B3336C69C25890F82974F04E811E5BB359186C7 PUSH1 0x40 MLOAD PUSH1 0x40 MLOAD DUP1 SWAP2 SUB SWAP1 LOG1 JUMP JUMPDEST CALLER PUSH20 0xFFFFFFFFFFFFFFFFFFFFFFFFFFFFFFFFFFFFFFFF AND PUSH1 0x1C PUSH1 0x2 SWAP1 SLOAD SWAP1 PUSH2 0x100 EXP SWAP1 DIV PUSH20 0xFFFFFFFFFFFFFFFFFFFFFFFFFFFFFFFFFFFFFFFF AND PUSH20 0xFFFFFFFFFFFFFFFFFFFFFFFFFFFFFFFFFFFFFFFF AND EQ PUSH2 0x2FF0 JUMPI PUSH1 0x40 MLOAD PUSH32 0x8C379A000000000000000000000000000000000000000000000000000000000 DUP2 MSTORE PUSH1 0x4 ADD PUSH2 0x2FE7 SWAP1 PUSH2 0x7C4C JUMP JUMPDEST PUSH1 0x40 MLOAD DUP1 SWAP2 SUB SWAP1 REVERT JUMPDEST DUP1 ISZERO PUSH2 0x322F JUMPI PUSH1 0x7 PUSH1 0x0 DUP4 PUSH20 0xFFFFFFFFFFFFFFFFFFFFFFFFFFFFFFFFFFFFFFFF AND PUSH20 0xFFFFFFFFFFFFFFFFFFFFFFFFFFFFFFFFFFFFFFFF AND DUP2 MSTORE PUSH1 0x20 ADD SWAP1 DUP2 MSTORE PUSH1 0x20 ADD PUSH1 0x0 KECCAK256 PUSH1 0x0 SWAP1 SLOAD SWAP1 PUSH2 0x100 EXP SWAP1 DIV PUSH1 0xFF AND PUSH2 0x385E JUMPI PUSH1 0x0 DUP1 PUSH1 0x0 DUP5 PUSH20 0xFFFFFFFFFFFFFFFFFFFFFFFFFFFFFFFFFFFFFFFF AND PUSH20 0xFFFFFFFFFFFFFFFFFFFFFFFFFFFFFFFFFFFFFFFF AND DUP2 MSTORE PUSH1 0x20 ADD SWAP1 DUP2 MSTORE PUSH1 0x20 ADD PUSH1 0x0 KECCAK256 SLOAD GT ISZERO PUSH2 0x3119 JUMPI PUSH2 0x30D5 PUSH1 0x0 DUP1 DUP5 PUSH20 0xFFFFFFFFFFFFFFFFFFFFFFFFFFFFFFFFFFFFFFFF AND PUSH20 0xFFFFFFFFFFFFFFFFFFFFFFFFFFFFFFFFFFFFFFFF AND DUP2 MSTORE PUSH1 0x20 ADD SWAP1 DUP2 MSTORE PUSH1 0x20 ADD PUSH1 0x0 KECCAK256 SLOAD PUSH2 0x17E4 JUMP JUMPDEST PUSH1 0x1 PUSH1 0x0 DUP5 PUSH20 0xFFFFFFFFFFFFFFFFFFFFFFFFFFFFFFFFFFFFFFFF AND PUSH20 0xFFFFFFFFFFFFFFFFFFFFFFFFFFFFFFFFFFFFFFFF AND DUP2 MSTORE PUSH1 0x20 ADD SWAP1 DUP2 MSTORE PUSH1 0x20 ADD PUSH1 0x0 KECCAK256 DUP2 SWAP1 SSTORE POP JUMPDEST PUSH1 0x1 PUSH1 0x7 PUSH1 0x0 DUP5 PUSH20 0xFFFFFFFFFFFFFFFFFFFFFFFFFFFFFFFFFFFFFFFF AND PUSH20 0xFFFFFFFFFFFFFFFFFFFFFFFFFFFFFFFFFFFFFFFF AND DUP2 MSTORE PUSH1 0x20 ADD SWAP1 DUP2 MSTORE PUSH1 0x20 ADD PUSH1 0x0 KECCAK256 PUSH1 0x0 PUSH2 0x100 EXP DUP2 SLOAD DUP2 PUSH1 0xFF MUL NOT AND SWAP1 DUP4 ISZERO ISZERO MUL OR SWAP1 SSTORE POP PUSH1 0x10 PUSH1 0x0 SWAP1 SLOAD SWAP1 PUSH2 0x100 EXP SWAP1 DIV PUSH20 0xFFFFFFFFFFFFFFFFFFFFFFFFFFFFFFFFFFFFFFFF AND PUSH20 0xFFFFFFFFFFFFFFFFFFFFFFFFFFFFFFFFFFFFFFFF AND DUP3 PUSH20 0xFFFFFFFFFFFFFFFFFFFFFFFFFFFFFFFFFFFFFFFF AND EQ PUSH2 0x322A JUMPI PUSH1 0xA DUP3 SWAP1 DUP1 PUSH1 0x1 DUP2 SLOAD ADD DUP1 DUP3 SSTORE DUP1 SWAP2 POP POP PUSH1 0x1 SWAP1 SUB SWAP1 PUSH1 0x0 MSTORE PUSH1 0x20 PUSH1 0x0 KECCAK256 ADD PUSH1 0x0 SWAP1 SWAP2 SWAP1 SWAP2 SWAP1 SWAP2 PUSH2 0x100 EXP DUP2 SLOAD DUP2 PUSH20 0xFFFFFFFFFFFFFFFFFFFFFFFFFFFFFFFFFFFFFFFF MUL NOT AND SWAP1 DUP4 PUSH20 0xFFFFFFFFFFFFFFFFFFFFFFFFFFFFFFFFFFFFFFFF AND MUL OR SWAP1 SSTORE POP JUMPDEST PUSH2 0x385D JUMP JUMPDEST DUP1 PUSH2 0x385C JUMPI PUSH1 0x7 PUSH1 0x0 DUP4 PUSH20 0xFFFFFFFFFFFFFFFFFFFFFFFFFFFFFFFFFFFFFFFF AND PUSH20 0xFFFFFFFFFFFFFFFFFFFFFFFFFFFFFFFFFFFFFFFF AND DUP2 MSTORE PUSH1 0x20 ADD SWAP1 DUP2 MSTORE PUSH1 0x20 ADD PUSH1 0x0 KECCAK256 PUSH1 0x0 SWAP1 SLOAD SWAP1 PUSH2 0x100 EXP SWAP1 DIV PUSH1 0xFF AND ISZERO PUSH2 0x385E JUMPI PUSH1 0x10 PUSH1 0x0 SWAP1 SLOAD SWAP1 PUSH2 0x100 EXP SWAP1 DIV PUSH20 0xFFFFFFFFFFFFFFFFFFFFFFFFFFFFFFFFFFFFFFFF AND PUSH20 0xFFFFFFFFFFFFFFFFFFFFFFFFFFFFFFFFFFFFFFFF AND DUP3 PUSH20 0xFFFFFFFFFFFFFFFFFFFFFFFFFFFFFFFFFFFFFFFF AND SUB PUSH2 0x3411 JUMPI PUSH2 0x32E3 PUSH2 0x558A JUMP JUMPDEST PUSH1 0x1 PUSH1 0x0 DUP5 PUSH20 0xFFFFFFFFFFFFFFFFFFFFFFFFFFFFFFFFFFFFFFFF AND PUSH20 0xFFFFFFFFFFFFFFFFFFFFFFFFFFFFFFFFFFFFFFFF AND DUP2 MSTORE PUSH1 0x20 ADD SWAP1 DUP2 MSTORE PUSH1 0x20 ADD PUSH1 0x0 KECCAK256 SLOAD PUSH2 0x332D SWAP2 SWAP1 PUSH2 0x7ED2 JUMP JUMPDEST PUSH1 0x0 DUP1 DUP5 PUSH20 0xFFFFFFFFFFFFFFFFFFFFFFFFFFFFFFFFFFFFFFFF AND PUSH20 0xFFFFFFFFFFFFFFFFFFFFFFFFFFFFFFFFFFFFFFFF AND DUP2 MSTORE PUSH1 0x20 ADD SWAP1 DUP2 MSTORE PUSH1 0x20 ADD PUSH1 0x0 KECCAK256 DUP2 SWAP1 SSTORE POP PUSH1 0x0 PUSH1 0x1 PUSH1 0x0 DUP5 PUSH20 0xFFFFFFFFFFFFFFFFFFFFFFFFFFFFFFFFFFFFFFFF AND PUSH20 0xFFFFFFFFFFFFFFFFFFFFFFFFFFFFFFFFFFFFFFFF AND DUP2 MSTORE PUSH1 0x20 ADD SWAP1 DUP2 MSTORE PUSH1 0x20 ADD PUSH1 0x0 KECCAK256 DUP2 SWAP1 SSTORE POP PUSH1 0x0 PUSH1 0x7 PUSH1 0x0 DUP5 PUSH20 0xFFFFFFFFFFFFFFFFFFFFFFFFFFFFFFFFFFFFFFFF AND PUSH20 0xFFFFFFFFFFFFFFFFFFFFFFFFFFFFFFFFFFFFFFFF AND DUP2 MSTORE PUSH1 0x20 ADD SWAP1 DUP2 MSTORE PUSH1 0x20 ADD PUSH1 0x0 KECCAK256 PUSH1 0x0 PUSH2 0x100 EXP DUP2 SLOAD DUP2 PUSH1 0xFF MUL NOT AND SWAP1 DUP4 ISZERO ISZERO MUL OR SWAP1 SSTORE POP PUSH2 0x385B JUMP JUMPDEST PUSH1 0x1 PUSH1 0xA DUP1 SLOAD SWAP1 POP SUB PUSH2 0x359B JUMPI PUSH2 0x3426 PUSH2 0x558A JUMP JUMPDEST PUSH1 0x1 PUSH1 0x0 DUP5 PUSH20 0xFFFFFFFFFFFFFFFFFFFFFFFFFFFFFFFFFFFFFFFF AND PUSH20 0xFFFFFFFFFFFFFFFFFFFFFFFFFFFFFFFFFFFFFFFF AND DUP2 MSTORE PUSH1 0x20 ADD SWAP1 DUP2 MSTORE PUSH1 0x20 ADD PUSH1 0x0 KECCAK256 SLOAD PUSH2 0x3470 SWAP2 SWAP1 PUSH2 0x7ED2 JUMP JUMPDEST PUSH1 0x0 DUP1 DUP5 PUSH20 0xFFFFFFFFFFFFFFFFFFFFFFFFFFFFFFFFFFFFFFFF AND PUSH20 0xFFFFFFFFFFFFFFFFFFFFFFFFFFFFFFFFFFFFFFFF AND DUP2 MSTORE PUSH1 0x20 ADD SWAP1 DUP2 MSTORE PUSH1 0x20 ADD PUSH1 0x0 KECCAK256 DUP2 SWAP1 SSTORE POP PUSH1 0x0 PUSH1 0x1 PUSH1 0x0 DUP5 PUSH20 0xFFFFFFFFFFFFFFFFFFFFFFFFFFFFFFFFFFFFFFFF AND PUSH20 0xFFFFFFFFFFFFFFFFFFFFFFFFFFFFFFFFFFFFFFFF AND DUP2 MSTORE PUSH1 0x20 ADD SWAP1 DUP2 MSTORE PUSH1 0x20 ADD PUSH1 0x0 KECCAK256 DUP2 SWAP1 SSTORE POP PUSH1 0x0 PUSH1 0x7 PUSH1 0x0 DUP5 PUSH20 0xFFFFFFFFFFFFFFFFFFFFFFFFFFFFFFFFFFFFFFFF AND PUSH20 0xFFFFFFFFFFFFFFFFFFFFFFFFFFFFFFFFFFFFFFFF AND DUP2 MSTORE PUSH1 0x20 ADD SWAP1 DUP2 MSTORE PUSH1 0x20 ADD PUSH1 0x0 KECCAK256 PUSH1 0x0 PUSH2 0x100 EXP DUP2 SLOAD DUP2 PUSH1 0xFF MUL NOT AND SWAP1 DUP4 ISZERO ISZERO MUL OR SWAP1 SSTORE POP PUSH1 0xA DUP1 SLOAD DUP1 PUSH2 0x3561 JUMPI PUSH2 0x3560 PUSH2 0x8616 JUMP JUMPDEST JUMPDEST PUSH1 0x1 SWAP1 SUB DUP2 DUP2 SWAP1 PUSH1 0x0 MSTORE PUSH1 0x20 PUSH1 0x0 KECCAK256 ADD PUSH1 0x0 PUSH2 0x100 EXP DUP2 SLOAD SWAP1 PUSH20 0xFFFFFFFFFFFFFFFFFFFFFFFFFFFFFFFFFFFFFFFF MUL NOT AND SWAP1 SSTORE SWAP1 SSTORE PUSH2 0x385A JUMP JUMPDEST PUSH1 0x0 JUMPDEST PUSH1 0xA DUP1 SLOAD SWAP1 POP DUP2 LT ISZERO PUSH2 0x3858 JUMPI DUP3 PUSH20 0xFFFFFFFFFFFFFFFFFFFFFFFFFFFFFFFFFFFFFFFF AND PUSH1 0xA DUP3 DUP2 SLOAD DUP2 LT PUSH2 0x35D6 JUMPI PUSH2 0x35D5 PUSH2 0x7C6C JUMP JUMPDEST JUMPDEST SWAP1 PUSH1 0x0 MSTORE PUSH1 0x20 PUSH1 0x0 KECCAK256 ADD PUSH1 0x0 SWAP1 SLOAD SWAP1 PUSH2 0x100 EXP SWAP1 DIV PUSH20 0xFFFFFFFFFFFFFFFFFFFFFFFFFFFFFFFFFFFFFFFF AND PUSH20 0xFFFFFFFFFFFFFFFFFFFFFFFFFFFFFFFFFFFFFFFF AND SUB PUSH2 0x3845 JUMPI PUSH1 0xA PUSH1 0x1 PUSH1 0xA DUP1 SLOAD SWAP1 POP PUSH2 0x3630 SWAP2 SWAP1 PUSH2 0x7F2C JUMP JUMPDEST DUP2 SLOAD DUP2 LT PUSH2 0x3641 JUMPI PUSH2 0x3640 PUSH2 0x7C6C JUMP JUMPDEST JUMPDEST SWAP1 PUSH1 0x0 MSTORE PUSH1 0x20 PUSH1 0x0 KECCAK256 ADD PUSH1 0x0 SWAP1 SLOAD SWAP1 PUSH2 0x100 EXP SWAP1 DIV PUSH20 0xFFFFFFFFFFFFFFFFFFFFFFFFFFFFFFFFFFFFFFFF AND PUSH1 0xA DUP3 DUP2 SLOAD DUP2 LT PUSH2 0x3680 JUMPI PUSH2 0x367F PUSH2 0x7C6C JUMP JUMPDEST JUMPDEST SWAP1 PUSH1 0x0 MSTORE PUSH1 0x20 PUSH1 0x0 KECCAK256 ADD PUSH1 0x0 PUSH2 0x100 EXP DUP2 SLOAD DUP2 PUSH20 0xFFFFFFFFFFFFFFFFFFFFFFFFFFFFFFFFFFFFFFFF MUL NOT AND SWAP1 DUP4 PUSH20 0xFFFFFFFFFFFFFFFFFFFFFFFFFFFFFFFFFFFFFFFF AND MUL OR SWAP1 SSTORE POP PUSH2 0x36D0 PUSH2 0x558A JUMP JUMPDEST PUSH1 0x1 PUSH1 0x0 DUP6 PUSH20 0xFFFFFFFFFFFFFFFFFFFFFFFFFFFFFFFFFFFFFFFF AND PUSH20 0xFFFFFFFFFFFFFFFFFFFFFFFFFFFFFFFFFFFFFFFF AND DUP2 MSTORE PUSH1 0x20 ADD SWAP1 DUP2 MSTORE PUSH1 0x20 ADD PUSH1 0x0 KECCAK256 SLOAD PUSH2 0x371A SWAP2 SWAP1 PUSH2 0x7ED2 JUMP JUMPDEST PUSH1 0x0 DUP1 DUP6 PUSH20 0xFFFFFFFFFFFFFFFFFFFFFFFFFFFFFFFFFFFFFFFF AND PUSH20 0xFFFFFFFFFFFFFFFFFFFFFFFFFFFFFFFFFFFFFFFF AND DUP2 MSTORE PUSH1 0x20 ADD SWAP1 DUP2 MSTORE PUSH1 0x20 ADD PUSH1 0x0 KECCAK256 DUP2 SWAP1 SSTORE POP PUSH1 0x0 PUSH1 0x1 PUSH1 0x0 DUP6 PUSH20 0xFFFFFFFFFFFFFFFFFFFFFFFFFFFFFFFFFFFFFFFF AND PUSH20 0xFFFFFFFFFFFFFFFFFFFFFFFFFFFFFFFFFFFFFFFF AND DUP2 MSTORE PUSH1 0x20 ADD SWAP1 DUP2 MSTORE PUSH1 0x20 ADD PUSH1 0x0 KECCAK256 DUP2 SWAP1 SSTORE POP PUSH1 0x0 PUSH1 0x7 PUSH1 0x0 DUP6 PUSH20 0xFFFFFFFFFFFFFFFFFFFFFFFFFFFFFFFFFFFFFFFF AND PUSH20 0xFFFFFFFFFFFFFFFFFFFFFFFFFFFFFFFFFFFFFFFF AND DUP2 MSTORE PUSH1 0x20 ADD SWAP1 DUP2 MSTORE PUSH1 0x20 ADD PUSH1 0x0 KECCAK256 PUSH1 0x0 PUSH2 0x100 EXP DUP2 SLOAD DUP2 PUSH1 0xFF MUL NOT AND SWAP1 DUP4 ISZERO ISZERO MUL OR SWAP1 SSTORE POP PUSH1 0xA DUP1 SLOAD DUP1 PUSH2 0x380B JUMPI PUSH2 0x380A PUSH2 0x8616 JUMP JUMPDEST JUMPDEST PUSH1 0x1 SWAP1 SUB DUP2 DUP2 SWAP1 PUSH1 0x0 MSTORE PUSH1 0x20 PUSH1 0x0 KECCAK256 ADD PUSH1 0x0 PUSH2 0x100 EXP DUP2 SLOAD SWAP1 PUSH20 0xFFFFFFFFFFFFFFFFFFFFFFFFFFFFFFFFFFFFFFFF MUL NOT AND SWAP1 SSTORE SWAP1 SSTORE PUSH2 0x3858 JUMP JUMPDEST DUP1 DUP1 PUSH2 0x3850 SWAP1 PUSH2 0x8645 JUMP JUMPDEST SWAP2 POP POP PUSH2 0x359E JUMP JUMPDEST POP JUMPDEST JUMPDEST JUMPDEST JUMPDEST JUMPDEST POP POP JUMP JUMPDEST PUSH1 0x60 PUSH1 0x40 MLOAD DUP1 PUSH1 0x40 ADD PUSH1 0x40 MSTORE DUP1 PUSH1 0x3 DUP2 MSTORE PUSH1 0x20 ADD PUSH32 0x4E57540000000000000000000000000000000000000000000000000000000000 DUP2 MSTORE POP SWAP1 POP SWAP1 JUMP JUMPDEST PUSH1 0x0 PUSH2 0x38AC CALLER DUP5 DUP5 PUSH2 0x4E37 JUMP JUMPDEST POP PUSH1 0x1 SWAP1 POP SWAP3 SWAP2 POP POP JUMP JUMPDEST PUSH1 0x5 PUSH1 0x20 MSTORE DUP1 PUSH1 0x0 MSTORE PUSH1 0x40 PUSH1 0x0 KECCAK256 PUSH1 0x0 SWAP2 POP SLOAD SWAP1 PUSH2 0x100 EXP SWAP1 DIV PUSH1 0xFF AND DUP2 JUMP JUMPDEST PUSH2 0x7D0 DUP2 JUMP JUMPDEST PUSH2 0x7D0 DUP2 JUMP JUMPDEST PUSH1 0x18 PUSH1 0x0 SWAP1 SLOAD SWAP1 PUSH2 0x100 EXP SWAP1 DIV PUSH1 0xFF AND DUP2 JUMP JUMPDEST CALLER PUSH20 0xFFFFFFFFFFFFFFFFFFFFFFFFFFFFFFFFFFFFFFFF AND PUSH1 0x1C PUSH1 0x2 SWAP1 SLOAD SWAP1 PUSH2 0x100 EXP SWAP1 DIV PUSH20 0xFFFFFFFFFFFFFFFFFFFFFFFFFFFFFFFFFFFFFFFF AND PUSH20 0xFFFFFFFFFFFFFFFFFFFFFFFFFFFFFFFFFFFFFFFF AND EQ PUSH2 0x3986 JUMPI PUSH1 0x40 MLOAD PUSH32 0x8C379A000000000000000000000000000000000000000000000000000000000 DUP2 MSTORE PUSH1 0x4 ADD PUSH2 0x397D SWAP1 PUSH2 0x7C4C JUMP JUMPDEST PUSH1 0x40 MLOAD DUP1 SWAP2 SUB SWAP1 REVERT JUMPDEST DUP2 PUSH1 0x15 PUSH1 0x1 PUSH2 0x100 EXP DUP2 SLOAD DUP2 PUSH1 0xFF MUL NOT AND SWAP1 DUP4 ISZERO ISZERO MUL OR SWAP1 SSTORE POP DUP1 PUSH1 0x18 PUSH1 0x0 PUSH2 0x100 EXP DUP2 SLOAD DUP2 PUSH1 0xFF MUL NOT AND SWAP1 DUP4 ISZERO ISZERO MUL OR SWAP1 SSTORE POP PUSH32 0x7B0A47D3B0234280B6C9213C5BBFF44C8B6001BEA7770B3950280F9141053257 DUP3 PUSH1 0x40 MLOAD PUSH2 0x39E9 SWAP2 SWAP1 PUSH2 0x75BF JUMP JUMPDEST PUSH1 0x40 MLOAD DUP1 SWAP2 SUB SWAP1 LOG1 POP POP JUMP JUMPDEST CALLER PUSH20 0xFFFFFFFFFFFFFFFFFFFFFFFFFFFFFFFFFFFFFFFF AND PUSH1 0x1C PUSH1 0x2 SWAP1 SLOAD SWAP1 PUSH2 0x100 EXP SWAP1 DIV PUSH20 0xFFFFFFFFFFFFFFFFFFFFFFFFFFFFFFFFFFFFFFFF AND PUSH20 0xFFFFFFFFFFFFFFFFFFFFFFFFFFFFFFFFFFFFFFFF AND EQ PUSH2 0x3A85 JUMPI PUSH1 0x40 MLOAD PUSH32 0x8C379A000000000000000000000000000000000000000000000000000000000 DUP2 MSTORE PUSH1 0x4 ADD PUSH2 0x3A7C SWAP1 PUSH2 0x7C4C JUMP JUMPDEST PUSH1 0x40 MLOAD DUP1 SWAP2 SUB SWAP1 REVERT JUMPDEST ADDRESS PUSH20 0xFFFFFFFFFFFFFFFFFFFFFFFFFFFFFFFFFFFFFFFF AND DUP2 PUSH20 0xFFFFFFFFFFFFFFFFFFFFFFFFFFFFFFFFFFFFFFFF AND EQ ISZERO DUP1 ISZERO PUSH2 0x3B0F JUMPI POP DUP1 PUSH20 0xFFFFFFFFFFFFFFFFFFFFFFFFFFFFFFFFFFFFFFFF AND PUSH1 0x10 PUSH1 0x0 SWAP1 SLOAD SWAP1 PUSH2 0x100 EXP SWAP1 DIV PUSH20 0xFFFFFFFFFFFFFFFFFFFFFFFFFFFFFFFFFFFFFFFF AND PUSH20 0xFFFFFFFFFFFFFFFFFFFFFFFFFFFFFFFFFFFFFFFF AND EQ ISZERO JUMPDEST PUSH2 0x3B4E JUMPI PUSH1 0x40 MLOAD PUSH32 0x8C379A000000000000000000000000000000000000000000000000000000000 DUP2 MSTORE PUSH1 0x4 ADD PUSH2 0x3B45 SWAP1 PUSH2 0x86D9 JUMP JUMPDEST PUSH1 0x40 MLOAD DUP1 SWAP2 SUB SWAP1 REVERT JUMPDEST PUSH1 0x1 PUSH1 0x4 PUSH1 0x0 DUP4 PUSH20 0xFFFFFFFFFFFFFFFFFFFFFFFFFFFFFFFFFFFFFFFF AND PUSH20 0xFFFFFFFFFFFFFFFFFFFFFFFFFFFFFFFFFFFFFFFF AND DUP2 MSTORE PUSH1 0x20 ADD SWAP1 DUP2 MSTORE PUSH1 0x20 ADD PUSH1 0x0 KECCAK256 PUSH1 0x0 PUSH2 0x100 EXP DUP2 SLOAD DUP2 PUSH1 0xFF MUL NOT AND SWAP1 DUP4 ISZERO ISZERO MUL OR SWAP1 SSTORE POP PUSH1 0x1 PUSH1 0xB PUSH1 0x0 DUP4 PUSH20 0xFFFFFFFFFFFFFFFFFFFFFFFFFFFFFFFFFFFFFFFF AND PUSH20 0xFFFFFFFFFFFFFFFFFFFFFFFFFFFFFFFFFFFFFFFF AND DUP2 MSTORE PUSH1 0x20 ADD SWAP1 DUP2 MSTORE PUSH1 0x20 ADD PUSH1 0x0 KECCAK256 PUSH1 0x0 PUSH2 0x100 EXP DUP2 SLOAD DUP2 PUSH1 0xFF MUL NOT AND SWAP1 DUP4 ISZERO ISZERO MUL OR SWAP1 SSTORE POP PUSH2 0x3C09 DUP2 PUSH1 0x1 PUSH2 0x23E9 JUMP JUMPDEST PUSH2 0x3C14 DUP2 PUSH1 0x1 PUSH2 0x2F60 JUMP JUMPDEST PUSH2 0x3C1F DUP2 PUSH1 0x1 PUSH2 0x1A47 JUMP JUMPDEST PUSH32 0xE70B6F23B1273E9E23CD301FC51379D114C8259414A72B85A2C6A09AEF10BD85 DUP2 PUSH1 0x40 MLOAD PUSH2 0x3C4E SWAP2 SWAP1 PUSH2 0x7230 JUMP JUMPDEST PUSH1 0x40 MLOAD DUP1 SWAP2 SUB SWAP1 LOG1 POP JUMP JUMPDEST PUSH1 0xE DUP1 PUSH1 0x0 ADD PUSH1 0x0 SWAP1 SLOAD SWAP1 PUSH2 0x100 EXP SWAP1 DIV PUSH2 0xFFFF AND SWAP1 DUP1 PUSH1 0x0 ADD PUSH1 0x2 SWAP1 SLOAD SWAP1 PUSH2 0x100 EXP SWAP1 DIV PUSH2 0xFFFF AND SWAP1 DUP1 PUSH1 0x0 ADD PUSH1 0x4 SWAP1 SLOAD SWAP1 PUSH2 0x100 EXP SWAP1 DIV PUSH2 0xFFFF AND SWAP1 DUP1 PUSH1 0x0 ADD PUSH1 0x6 SWAP1 SLOAD SWAP1 PUSH2 0x100 EXP SWAP1 DIV PUSH2 0xFFFF AND SWAP1 DUP1 PUSH1 0x0 ADD PUSH1 0x8 SWAP1 SLOAD SWAP1 PUSH2 0x100 EXP SWAP1 DIV PUSH2 0xFFFF AND SWAP1 DUP1 PUSH1 0x0 ADD PUSH1 0xA SWAP1 SLOAD SWAP1 PUSH2 0x100 EXP SWAP1 DIV PUSH2 0xFFFF AND SWAP1 DUP1 PUSH1 0x0 ADD PUSH1 0xC SWAP1 SLOAD SWAP1 PUSH2 0x100 EXP SWAP1 DIV PUSH2 0xFFFF AND SWAP1 POP DUP8 JUMP JUMPDEST CALLER PUSH20 0xFFFFFFFFFFFFFFFFFFFFFFFFFFFFFFFFFFFFFFFF AND PUSH1 0x1C PUSH1 0x2 SWAP1 SLOAD SWAP1 PUSH2 0x100 EXP SWAP1 DIV PUSH20 0xFFFFFFFFFFFFFFFFFFFFFFFFFFFFFFFFFFFFFFFF AND PUSH20 0xFFFFFFFFFFFFFFFFFFFFFFFFFFFFFFFFFFFFFFFF AND EQ PUSH2 0x3D7B JUMPI PUSH1 0x40 MLOAD PUSH32 0x8C379A000000000000000000000000000000000000000000000000000000000 DUP2 MSTORE PUSH1 0x4 ADD PUSH2 0x3D72 SWAP1 PUSH2 0x7C4C JUMP JUMPDEST PUSH1 0x40 MLOAD DUP1 SWAP2 SUB SWAP1 REVERT JUMPDEST DUP6 PUSH1 0xE PUSH1 0x0 ADD PUSH1 0x0 PUSH2 0x100 EXP DUP2 SLOAD DUP2 PUSH2 0xFFFF MUL NOT AND SWAP1 DUP4 PUSH2 0xFFFF AND MUL OR SWAP1 SSTORE POP DUP5 PUSH1 0xE PUSH1 0x0 ADD PUSH1 0x2 PUSH2 0x100 EXP DUP2 SLOAD DUP2 PUSH2 0xFFFF MUL NOT AND SWAP1 DUP4 PUSH2 0xFFFF AND MUL OR SWAP1 SSTORE POP DUP2 PUSH1 0xE PUSH1 0x0 ADD PUSH1 0x4 PUSH2 0x100 EXP DUP2 SLOAD DUP2 PUSH2 0xFFFF MUL NOT AND SWAP1 DUP4 PUSH2 0xFFFF AND MUL OR SWAP1 SSTORE POP DUP4 PUSH1 0xE PUSH1 0x0 ADD PUSH1 0x8 PUSH2 0x100 EXP DUP2 SLOAD DUP2 PUSH2 0xFFFF MUL NOT AND SWAP1 DUP4 PUSH2 0xFFFF AND MUL OR SWAP1 SSTORE POP DUP3 PUSH1 0xE PUSH1 0x0 ADD PUSH1 0x6 PUSH2 0x100 EXP DUP2 SLOAD DUP2 PUSH2 0xFFFF MUL NOT AND SWAP1 DUP4 PUSH2 0xFFFF AND MUL OR SWAP1 SSTORE POP DUP1 PUSH1 0xE PUSH1 0x0 ADD PUSH1 0xA PUSH2 0x100 EXP DUP2 SLOAD DUP2 PUSH2 0xFFFF MUL NOT AND SWAP1 DUP4 PUSH2 0xFFFF AND MUL OR SWAP1 SSTORE POP DUP1 DUP4 DUP6 DUP5 DUP9 PUSH2 0x3E4A SWAP2 SWAP1 PUSH2 0x86F9 JUMP JUMPDEST PUSH2 0x3E54 SWAP2 SWAP1 PUSH2 0x86F9 JUMP JUMPDEST PUSH2 0x3E5E SWAP2 SWAP1 PUSH2 0x86F9 JUMP JUMPDEST PUSH2 0x3E68 SWAP2 SWAP1 PUSH2 0x86F9 JUMP JUMPDEST PUSH1 0xE PUSH1 0x0 ADD PUSH1 0xC PUSH2 0x100 EXP DUP2 SLOAD DUP2 PUSH2 0xFFFF MUL NOT AND SWAP1 DUP4 PUSH2 0xFFFF AND MUL OR SWAP1 SSTORE POP PUSH1 0x0 PUSH1 0xD PUSH1 0x0 ADD PUSH1 0x2 SWAP1 SLOAD SWAP1 PUSH2 0x100 EXP SWAP1 DIV PUSH2 0xFFFF AND PUSH1 0xD PUSH1 0x0 ADD PUSH1 0x0 SWAP1 SLOAD SWAP1 PUSH2 0x100 EXP SWAP1 DIV PUSH2 0xFFFF AND PUSH2 0x3EBB SWAP2 SWAP1 PUSH2 0x86F9 JUMP JUMPDEST PUSH2 0xFFFF AND SWAP1 POP DUP1 PUSH1 0xE PUSH1 0x0 ADD PUSH1 0x0 SWAP1 SLOAD SWAP1 PUSH2 0x100 EXP SWAP1 DIV PUSH2 0xFFFF AND PUSH1 0xE PUSH1 0x0 ADD PUSH1 0xC SWAP1 SLOAD SWAP1 PUSH2 0x100 EXP SWAP1 DIV PUSH2 0xFFFF AND PUSH2 0x3EF4 SWAP2 SWAP1 PUSH2 0x86F9 JUMP JUMPDEST PUSH2 0xFFFF AND GT ISZERO PUSH2 0x3F39 JUMPI PUSH1 0x40 MLOAD PUSH32 0x8C379A000000000000000000000000000000000000000000000000000000000 DUP2 MSTORE PUSH1 0x4 ADD PUSH2 0x3F30 SWAP1 PUSH2 0x87A3 JUMP JUMPDEST PUSH1 0x40 MLOAD DUP1 SWAP2 SUB SWAP1 REVERT JUMPDEST PUSH32 0xE9CE8F967079E549ABB66ABE8ACF518BEB61F0BA67EE5DD49B82B1189E3AFB82 DUP8 DUP8 DUP8 DUP8 DUP8 DUP8 PUSH1 0x40 MLOAD PUSH2 0x3F72 SWAP7 SWAP6 SWAP5 SWAP4 SWAP3 SWAP2 SWAP1 PUSH2 0x87C3 JUMP JUMPDEST PUSH1 0x40 MLOAD DUP1 SWAP2 SUB SWAP1 LOG1 POP POP POP POP POP POP POP JUMP JUMPDEST PUSH1 0x0 PUSH1 0x3 PUSH1 0x0 DUP5 PUSH20 0xFFFFFFFFFFFFFFFFFFFFFFFFFFFFFFFFFFFFFFFF AND PUSH20 0xFFFFFFFFFFFFFFFFFFFFFFFFFFFFFFFFFFFFFFFF AND DUP2 MSTORE PUSH1 0x20 ADD SWAP1 DUP2 MSTORE PUSH1 0x20 ADD PUSH1 0x0 KECCAK256 PUSH1 0x0 DUP4 PUSH20 0xFFFFFFFFFFFFFFFFFFFFFFFFFFFFFFFFFFFFFFFF AND PUSH20 0xFFFFFFFFFFFFFFFFFFFFFFFFFFFFFFFFFFFFFFFF AND DUP2 MSTORE PUSH1 0x20 ADD SWAP1 DUP2 MSTORE PUSH1 0x20 ADD PUSH1 0x0 KECCAK256 SLOAD SWAP1 POP SWAP3 SWAP2 POP POP JUMP JUMPDEST PUSH1 0x6 PUSH1 0x20 MSTORE DUP1 PUSH1 0x0 MSTORE PUSH1 0x40 PUSH1 0x0 KECCAK256 PUSH1 0x0 SWAP2 POP SLOAD SWAP1 PUSH2 0x100 EXP SWAP1 DIV PUSH1 0xFF AND DUP2 JUMP JUMPDEST PUSH1 0x1 PUSH1 0x20 MSTORE DUP1 PUSH1 0x0 MSTORE PUSH1 0x40 PUSH1 0x0 KECCAK256 PUSH1 0x0 SWAP2 POP SWAP1 POP SLOAD DUP2 JUMP JUMPDEST PUSH1 0x8 PUSH1 0x20 MSTORE DUP1 PUSH1 0x0 MSTORE PUSH1 0x40 PUSH1 0x0 KECCAK256 PUSH1 0x0 SWAP2 POP SLOAD SWAP1 PUSH2 0x100 EXP SWAP1 DIV PUSH1 0xFF AND DUP2 JUMP JUMPDEST PUSH1 0x7 PUSH1 0x20 MSTORE DUP1 PUSH1 0x0 MSTORE PUSH1 0x40 PUSH1 0x0 KECCAK256 PUSH1 0x0 SWAP2 POP SLOAD SWAP1 PUSH2 0x100 EXP SWAP1 DIV PUSH1 0xFF AND DUP2 JUMP JUMPDEST CALLER PUSH20 0xFFFFFFFFFFFFFFFFFFFFFFFFFFFFFFFFFFFFFFFF AND PUSH1 0x1C PUSH1 0x2 SWAP1 SLOAD SWAP1 PUSH2 0x100 EXP SWAP1 DIV PUSH20 0xFFFFFFFFFFFFFFFFFFFFFFFFFFFFFFFFFFFFFFFF AND PUSH20 0xFFFFFFFFFFFFFFFFFFFFFFFFFFFFFFFFFFFFFFFF AND EQ PUSH2 0x4112 JUMPI PUSH1 0x40 MLOAD PUSH32 0x8C379A000000000000000000000000000000000000000000000000000000000 DUP2 MSTORE PUSH1 0x4 ADD PUSH2 0x4109 SWAP1 PUSH2 0x7C4C JUMP JUMPDEST PUSH1 0x40 MLOAD DUP1 SWAP2 SUB SWAP1 REVERT JUMPDEST DUP1 PUSH1 0x9 PUSH1 0x0 DUP5 PUSH20 0xFFFFFFFFFFFFFFFFFFFFFFFFFFFFFFFFFFFFFFFF AND PUSH20 0xFFFFFFFFFFFFFFFFFFFFFFFFFFFFFFFFFFFFFFFF AND DUP2 MSTORE PUSH1 0x20 ADD SWAP1 DUP2 MSTORE PUSH1 0x20 ADD PUSH1 0x0 KECCAK256 PUSH1 0x0 PUSH2 0x100 EXP DUP2 SLOAD DUP2 PUSH1 0xFF MUL NOT AND SWAP1 DUP4 ISZERO ISZERO MUL OR SWAP1 SSTORE POP PUSH32 0x921341769C2075D1AE425396063D5AB65FF5006C4BC0BD0821E50CE51FB60123 DUP3 DUP3 PUSH1 0x40 MLOAD PUSH2 0x419A SWAP3 SWAP2 SWAP1 PUSH2 0x81DB JUMP JUMPDEST PUSH1 0x40 MLOAD DUP1 SWAP2 SUB SWAP1 LOG1 POP POP JUMP JUMPDEST CALLER PUSH20 0xFFFFFFFFFFFFFFFFFFFFFFFFFFFFFFFFFFFFFFFF AND PUSH1 0x1C PUSH1 0x2 SWAP1 SLOAD SWAP1 PUSH2 0x100 EXP SWAP1 DIV PUSH20 0xFFFFFFFFFFFFFFFFFFFFFFFFFFFFFFFFFFFFFFFF AND PUSH20 0xFFFFFFFFFFFFFFFFFFFFFFFFFFFFFFFFFFFFFFFF AND EQ PUSH2 0x4236 JUMPI PUSH1 0x40 MLOAD PUSH32 0x8C379A000000000000000000000000000000000000000000000000000000000 DUP2 MSTORE PUSH1 0x4 ADD PUSH2 0x422D SWAP1 PUSH2 0x7C4C JUMP JUMPDEST PUSH1 0x40 MLOAD DUP1 SWAP2 SUB SWAP1 REVERT JUMPDEST PUSH1 0x0 DUP2 SWAP1 POP PUSH1 0x0 DUP2 PUSH20 0xFFFFFFFFFFFFFFFFFFFFFFFFFFFFFFFFFFFFFFFF AND PUSH4 0xC45A0155 PUSH1 0x40 MLOAD DUP2 PUSH4 0xFFFFFFFF AND PUSH1 0xE0 SHL DUP2 MSTORE PUSH1 0x4 ADD PUSH1 0x20 PUSH1 0x40 MLOAD DUP1 DUP4 SUB DUP2 DUP7 GAS STATICCALL ISZERO DUP1 ISZERO PUSH2 0x4288 JUMPI RETURNDATASIZE PUSH1 0x0 DUP1 RETURNDATACOPY RETURNDATASIZE PUSH1 0x0 REVERT JUMPDEST POP POP POP POP PUSH1 0x40 MLOAD RETURNDATASIZE PUSH1 0x1F NOT PUSH1 0x1F DUP3 ADD AND DUP3 ADD DUP1 PUSH1 0x40 MSTORE POP DUP2 ADD SWAP1 PUSH2 0x42AC SWAP2 SWAP1 PUSH2 0x8839 JUMP JUMPDEST PUSH20 0xFFFFFFFFFFFFFFFFFFFFFFFFFFFFFFFFFFFFFFFF AND PUSH4 0xE6A43905 ADDRESS DUP5 PUSH20 0xFFFFFFFFFFFFFFFFFFFFFFFFFFFFFFFFFFFFFFFF AND PUSH4 0xAD5C4648 PUSH1 0x40 MLOAD DUP2 PUSH4 0xFFFFFFFF AND PUSH1 0xE0 SHL DUP2 MSTORE PUSH1 0x4 ADD PUSH1 0x20 PUSH1 0x40 MLOAD DUP1 DUP4 SUB DUP2 DUP7 GAS STATICCALL ISZERO DUP1 ISZERO PUSH2 0x4313 JUMPI RETURNDATASIZE PUSH1 0x0 DUP1 RETURNDATACOPY RETURNDATASIZE PUSH1 0x0 REVERT JUMPDEST POP POP POP POP PUSH1 0x40 MLOAD RETURNDATASIZE PUSH1 0x1F NOT PUSH1 0x1F DUP3 ADD AND DUP3 ADD DUP1 PUSH1 0x40 MSTORE POP DUP2 ADD SWAP1 PUSH2 0x4337 SWAP2 SWAP1 PUSH2 0x8839 JUMP JUMPDEST PUSH1 0x40 MLOAD DUP4 PUSH4 0xFFFFFFFF AND PUSH1 0xE0 SHL DUP2 MSTORE PUSH1 0x4 ADD PUSH2 0x4354 SWAP3 SWAP2 SWAP1 PUSH2 0x8866 JUMP JUMPDEST PUSH1 0x20 PUSH1 0x40 MLOAD DUP1 DUP4 SUB DUP2 DUP7 GAS STATICCALL ISZERO DUP1 ISZERO PUSH2 0x4371 JUMPI RETURNDATASIZE PUSH1 0x0 DUP1 RETURNDATACOPY RETURNDATASIZE PUSH1 0x0 REVERT JUMPDEST POP POP POP POP PUSH1 0x40 MLOAD RETURNDATASIZE PUSH1 0x1F NOT PUSH1 0x1F DUP3 ADD AND DUP3 ADD DUP1 PUSH1 0x40 MSTORE POP DUP2 ADD SWAP1 PUSH2 0x4395 SWAP2 SWAP1 PUSH2 0x8839 JUMP JUMPDEST SWAP1 POP PUSH1 0x0 PUSH20 0xFFFFFFFFFFFFFFFFFFFFFFFFFFFFFFFFFFFFFFFF AND DUP2 PUSH20 0xFFFFFFFFFFFFFFFFFFFFFFFFFFFFFFFFFFFFFFFF AND SUB PUSH2 0x456A JUMPI DUP2 PUSH20 0xFFFFFFFFFFFFFFFFFFFFFFFFFFFFFFFFFFFFFFFF AND PUSH4 0xC45A0155 PUSH1 0x40 MLOAD DUP2 PUSH4 0xFFFFFFFF AND PUSH1 0xE0 SHL DUP2 MSTORE PUSH1 0x4 ADD PUSH1 0x20 PUSH1 0x40 MLOAD DUP1 DUP4 SUB DUP2 DUP7 GAS STATICCALL ISZERO DUP1 ISZERO PUSH2 0x4416 JUMPI RETURNDATASIZE PUSH1 0x0 DUP1 RETURNDATACOPY RETURNDATASIZE PUSH1 0x0 REVERT JUMPDEST POP POP POP POP PUSH1 0x40 MLOAD RETURNDATASIZE PUSH1 0x1F NOT PUSH1 0x1F DUP3 ADD AND DUP3 ADD DUP1 PUSH1 0x40 MSTORE POP DUP2 ADD SWAP1 PUSH2 0x443A SWAP2 SWAP1 PUSH2 0x8839 JUMP JUMPDEST PUSH20 0xFFFFFFFFFFFFFFFFFFFFFFFFFFFFFFFFFFFFFFFF AND PUSH4 0xC9C65396 ADDRESS DUP5 PUSH20 0xFFFFFFFFFFFFFFFFFFFFFFFFFFFFFFFFFFFFFFFF AND PUSH4 0xAD5C4648 PUSH1 0x40 MLOAD DUP2 PUSH4 0xFFFFFFFF AND PUSH1 0xE0 SHL DUP2 MSTORE PUSH1 0x4 ADD PUSH1 0x20 PUSH1 0x40 MLOAD DUP1 DUP4 SUB DUP2 DUP7 GAS STATICCALL ISZERO DUP1 ISZERO PUSH2 0x44A1 JUMPI RETURNDATASIZE PUSH1 0x0 DUP1 RETURNDATACOPY RETURNDATASIZE PUSH1 0x0 REVERT JUMPDEST POP POP POP POP PUSH1 0x40 MLOAD RETURNDATASIZE PUSH1 0x1F NOT PUSH1 0x1F DUP3 ADD AND DUP3 ADD DUP1 PUSH1 0x40 MSTORE POP DUP2 ADD SWAP1 PUSH2 0x44C5 SWAP2 SWAP1 PUSH2 0x8839 JUMP JUMPDEST PUSH1 0x40 MLOAD DUP4 PUSH4 0xFFFFFFFF AND PUSH1 0xE0 SHL DUP2 MSTORE PUSH1 0x4 ADD PUSH2 0x44E2 SWAP3 SWAP2 SWAP1 PUSH2 0x8866 JUMP JUMPDEST PUSH1 0x20 PUSH1 0x40 MLOAD DUP1 DUP4 SUB DUP2 PUSH1 0x0 DUP8 GAS CALL ISZERO DUP1 ISZERO PUSH2 0x4501 JUMPI RETURNDATASIZE PUSH1 0x0 DUP1 RETURNDATACOPY RETURNDATASIZE PUSH1 0x0 REVERT JUMPDEST POP POP POP POP PUSH1 0x40 MLOAD RETURNDATASIZE PUSH1 0x1F NOT PUSH1 0x1F DUP3 ADD AND DUP3 ADD DUP1 PUSH1 0x40 MSTORE POP DUP2 ADD SWAP1 PUSH2 0x4525 SWAP2 SWAP1 PUSH2 0x8839 JUMP JUMPDEST PUSH1 0x10 PUSH1 0x0 PUSH2 0x100 EXP DUP2 SLOAD DUP2 PUSH20 0xFFFFFFFFFFFFFFFFFFFFFFFFFFFFFFFFFFFFFFFF MUL NOT AND SWAP1 DUP4 PUSH20 0xFFFFFFFFFFFFFFFFFFFFFFFFFFFFFFFFFFFFFFFF AND MUL OR SWAP1 SSTORE POP PUSH2 0x45AC JUMP JUMPDEST DUP1 PUSH1 0x10 PUSH1 0x0 PUSH2 0x100 EXP DUP2 SLOAD DUP2 PUSH20 0xFFFFFFFFFFFFFFFFFFFFFFFFFFFFFFFFFFFFFFFF MUL NOT AND SWAP1 DUP4 PUSH20 0xFFFFFFFFFFFFFFFFFFFFFFFFFFFFFFFFFFFFFFFF AND MUL OR SWAP1 SSTORE POP JUMPDEST DUP2 PUSH1 0xF PUSH1 0x1 PUSH2 0x100 EXP DUP2 SLOAD DUP2 PUSH20 0xFFFFFFFFFFFFFFFFFFFFFFFFFFFFFFFFFFFFFFFF MUL NOT AND SWAP1 DUP4 PUSH20 0xFFFFFFFFFFFFFFFFFFFFFFFFFFFFFFFFFFFFFFFF AND MUL OR SWAP1 SSTORE POP PUSH1 0x1 PUSH1 0x2 PUSH1 0x0 PUSH1 0x10 PUSH1 0x0 SWAP1 SLOAD SWAP1 PUSH2 0x100 EXP SWAP1 DIV PUSH20 0xFFFFFFFFFFFFFFFFFFFFFFFFFFFFFFFFFFFFFFFF AND PUSH20 0xFFFFFFFFFFFFFFFFFFFFFFFFFFFFFFFFFFFFFFFF AND PUSH20 0xFFFFFFFFFFFFFFFFFFFFFFFFFFFFFFFFFFFFFFFF AND DUP2 MSTORE PUSH1 0x20 ADD SWAP1 DUP2 MSTORE PUSH1 0x20 ADD PUSH1 0x0 KECCAK256 PUSH1 0x0 PUSH2 0x100 EXP DUP2 SLOAD DUP2 PUSH1 0xFF MUL NOT AND SWAP1 DUP4 ISZERO ISZERO MUL OR SWAP1 SSTORE POP PUSH2 0x46B4 ADDRESS PUSH1 0xF PUSH1 0x1 SWAP1 SLOAD SWAP1 PUSH2 0x100 EXP SWAP1 DIV PUSH20 0xFFFFFFFFFFFFFFFFFFFFFFFFFFFFFFFFFFFFFFFF AND PUSH32 0xFFFFFFFFFFFFFFFFFFFFFFFFFFFFFFFFFFFFFFFFFFFFFFFFFFFFFFFFFFFFFFFF PUSH2 0x4C6E JUMP JUMPDEST PUSH32 0xB7D876AE8D87054BD191D9A2294C7BC50817A9EFD22CB0376D4B14838EB271C PUSH1 0xF PUSH1 0x1 SWAP1 SLOAD SWAP1 PUSH2 0x100 EXP SWAP1 DIV PUSH20 0xFFFFFFFFFFFFFFFFFFFFFFFFFFFFFFFFFFFFFFFF AND PUSH1 0x40 MLOAD PUSH2 0x4705 SWAP2 SWAP1 PUSH2 0x7230 JUMP JUMPDEST PUSH1 0x40 MLOAD DUP1 SWAP2 SUB SWAP1 LOG1 POP POP POP JUMP JUMPDEST PUSH1 0xA DUP2 DUP2 SLOAD DUP2 LT PUSH2 0x4722 JUMPI PUSH1 0x0 DUP1 REVERT JUMPDEST SWAP1 PUSH1 0x0 MSTORE PUSH1 0x20 PUSH1 0x0 KECCAK256 ADD PUSH1 0x0 SWAP2 POP SLOAD SWAP1 PUSH2 0x100 EXP SWAP1 DIV PUSH20 0xFFFFFFFFFFFFFFFFFFFFFFFFFFFFFFFFFFFFFFFF AND DUP2 JUMP JUMPDEST PUSH1 0x11 DUP1 PUSH1 0x0 ADD PUSH1 0x0 SWAP1 SLOAD SWAP1 PUSH2 0x100 EXP SWAP1 DIV PUSH20 0xFFFFFFFFFFFFFFFFFFFFFFFFFFFFFFFFFFFFFFFF AND SWAP1 DUP1 PUSH1 0x1 ADD PUSH1 0x0 SWAP1 SLOAD SWAP1 PUSH2 0x100 EXP SWAP1 DIV PUSH20 0xFFFFFFFFFFFFFFFFFFFFFFFFFFFFFFFFFFFFFFFF AND SWAP1 DUP1 PUSH1 0x2 ADD PUSH1 0x0 SWAP1 SLOAD SWAP1 PUSH2 0x100 EXP SWAP1 DIV PUSH20 0xFFFFFFFFFFFFFFFFFFFFFFFFFFFFFFFFFFFFFFFF AND SWAP1 DUP1 PUSH1 0x3 ADD PUSH1 0x0 SWAP1 SLOAD SWAP1 PUSH2 0x100 EXP SWAP1 DIV PUSH20 0xFFFFFFFFFFFFFFFFFFFFFFFFFFFFFFFFFFFFFFFF AND SWAP1 POP DUP5 JUMP JUMPDEST CALLER PUSH20 0xFFFFFFFFFFFFFFFFFFFFFFFFFFFFFFFFFFFFFFFF AND PUSH1 0x1C PUSH1 0x2 SWAP1 SLOAD SWAP1 PUSH2 0x100 EXP SWAP1 DIV PUSH20 0xFFFFFFFFFFFFFFFFFFFFFFFFFFFFFFFFFFFFFFFF AND PUSH20 0xFFFFFFFFFFFFFFFFFFFFFFFFFFFFFFFFFFFFFFFF AND EQ PUSH2 0x487F JUMPI PUSH1 0x40 MLOAD PUSH32 0x8C379A000000000000000000000000000000000000000000000000000000000 DUP2 MSTORE PUSH1 0x4 ADD PUSH2 0x4876 SWAP1 PUSH2 0x7C4C JUMP JUMPDEST PUSH1 0x40 MLOAD DUP1 SWAP2 SUB SWAP1 REVERT JUMPDEST DUP3 DUP5 PUSH1 0x9 PUSH1 0xA PUSH2 0x488F SWAP2 SWAP1 PUSH2 0x7E27 JUMP JUMPDEST PUSH4 0x35A4E900 PUSH2 0x489E SWAP2 SWAP1 PUSH2 0x7ED2 JUMP JUMPDEST PUSH2 0x48A8 SWAP2 SWAP1 PUSH2 0x7ED2 JUMP JUMPDEST PUSH2 0x48B2 SWAP2 SWAP1 PUSH2 0x7EA1 JUMP JUMPDEST PUSH1 0x16 DUP2 SWAP1 SSTORE POP DUP1 DUP3 PUSH1 0x9 PUSH1 0xA PUSH2 0x48C8 SWAP2 SWAP1 PUSH2 0x7E27 JUMP JUMPDEST PUSH4 0x35A4E900 PUSH2 0x48D7 SWAP2 SWAP1 PUSH2 0x7ED2 JUMP JUMPDEST PUSH2 0x48E1 SWAP2 SWAP1 PUSH2 0x7ED2 JUMP JUMPDEST PUSH2 0x48EB SWAP2 SWAP1 PUSH2 0x7EA1 JUMP JUMPDEST PUSH1 0x17 DUP2 SWAP1 SSTORE POP PUSH1 0x17 SLOAD PUSH1 0x16 SLOAD GT ISZERO PUSH2 0x4938 JUMPI PUSH1 0x40 MLOAD PUSH32 0x8C379A000000000000000000000000000000000000000000000000000000000 DUP2 MSTORE PUSH1 0x4 ADD PUSH2 0x492F SWAP1 PUSH2 0x8901 JUMP JUMPDEST PUSH1 0x40 MLOAD DUP1 SWAP2 SUB SWAP1 REVERT JUMPDEST PUSH2 0x2710 PUSH1 0x96 PUSH2 0x4968 PUSH1 0x10 PUSH1 0x0 SWAP1 SLOAD SWAP1 PUSH2 0x100 EXP SWAP1 DIV PUSH20 0xFFFFFFFFFFFFFFFFFFFFFFFFFFFFFFFFFFFFFFFF AND PUSH2 0x25A5 JUMP JUMPDEST PUSH2 0x4972 SWAP2 SWAP1 PUSH2 0x7ED2 JUMP JUMPDEST PUSH2 0x497C SWAP2 SWAP1 PUSH2 0x7EA1 JUMP JUMPDEST PUSH1 0x17 SLOAD GT ISZERO PUSH2 0x49C0 JUMPI PUSH1 0x40 MLOAD PUSH32 0x8C379A000000000000000000000000000000000000000000000000000000000 DUP2 MSTORE PUSH1 0x4 ADD PUSH2 0x49B7 SWAP1 PUSH2 0x8993 JUMP JUMPDEST PUSH1 0x40 MLOAD DUP1 SWAP2 SUB SWAP1 REVERT JUMPDEST PUSH3 0xF4240 PUSH1 0x9 PUSH1 0xA PUSH2 0x49D2 SWAP2 SWAP1 PUSH2 0x7E27 JUMP JUMPDEST PUSH4 0x35A4E900 PUSH2 0x49E1 SWAP2 SWAP1 PUSH2 0x7ED2 JUMP JUMPDEST PUSH2 0x49EB SWAP2 SWAP1 PUSH2 0x7EA1 JUMP JUMPDEST PUSH1 0x17 SLOAD LT ISZERO PUSH2 0x4A2F JUMPI PUSH1 0x40 MLOAD PUSH32 0x8C379A000000000000000000000000000000000000000000000000000000000 DUP2 MSTORE PUSH1 0x4 ADD PUSH2 0x4A26 SWAP1 PUSH2 0x8A25 JUMP JUMPDEST PUSH1 0x40 MLOAD DUP1 SWAP2 SUB SWAP1 REVERT JUMPDEST PUSH3 0xF4240 PUSH1 0x9 PUSH1 0xA PUSH2 0x4A41 SWAP2 SWAP1 PUSH2 0x7E27 JUMP JUMPDEST PUSH4 0x35A4E900 PUSH2 0x4A50 SWAP2 SWAP1 PUSH2 0x7ED2 JUMP JUMPDEST PUSH2 0x4A5A SWAP2 SWAP1 PUSH2 0x7EA1 JUMP JUMPDEST PUSH1 0x16 SLOAD LT ISZERO PUSH2 0x4A9E JUMPI PUSH1 0x40 MLOAD PUSH32 0x8C379A000000000000000000000000000000000000000000000000000000000 DUP2 MSTORE PUSH1 0x4 ADD PUSH2 0x4A95 SWAP1 PUSH2 0x8A25 JUMP JUMPDEST PUSH1 0x40 MLOAD DUP1 SWAP2 SUB SWAP1 REVERT JUMPDEST PUSH32 0x8E5592317B89F85AD3E0FB9F24E6D1D9ACB7D73A47ED48F41CFFF9A96E702CD1 DUP5 DUP5 DUP5 DUP5 PUSH1 0x40 MLOAD PUSH2 0x4AD3 SWAP5 SWAP4 SWAP3 SWAP2 SWAP1 PUSH2 0x8A45 JUMP JUMPDEST PUSH1 0x40 MLOAD DUP1 SWAP2 SUB SWAP1 LOG1 POP POP POP POP JUMP JUMPDEST PUSH1 0x15 PUSH1 0x1 SWAP1 SLOAD SWAP1 PUSH2 0x100 EXP SWAP1 DIV PUSH1 0xFF AND DUP2 JUMP JUMPDEST PUSH1 0x0 PUSH1 0x9 PUSH1 0x0 DUP4 PUSH20 0xFFFFFFFFFFFFFFFFFFFFFFFFFFFFFFFFFFFFFFFF AND PUSH20 0xFFFFFFFFFFFFFFFFFFFFFFFFFFFFFFFFFFFFFFFF AND DUP2 MSTORE PUSH1 0x20 ADD SWAP1 DUP2 MSTORE PUSH1 0x20 ADD PUSH1 0x0 KECCAK256 PUSH1 0x0 SWAP1 SLOAD SWAP1 PUSH2 0x100 EXP SWAP1 DIV PUSH1 0xFF AND SWAP1 POP SWAP2 SWAP1 POP JUMP JUMPDEST CALLER PUSH20 0xFFFFFFFFFFFFFFFFFFFFFFFFFFFFFFFFFFFFFFFF AND PUSH1 0x1C PUSH1 0x2 SWAP1 SLOAD SWAP1 PUSH2 0x100 EXP SWAP1 DIV PUSH20 0xFFFFFFFFFFFFFFFFFFFFFFFFFFFFFFFFFFFFFFFF AND PUSH20 0xFFFFFFFFFFFFFFFFFFFFFFFFFFFFFFFFFFFFFFFF AND EQ PUSH2 0x4BDA JUMPI PUSH1 0x40 MLOAD PUSH32 0x8C379A000000000000000000000000000000000000000000000000000000000 DUP2 MSTORE PUSH1 0x4 ADD PUSH2 0x4BD1 SWAP1 PUSH2 0x7C4C JUMP JUMPDEST PUSH1 0x40 MLOAD DUP1 SWAP2 SUB SWAP1 REVERT JUMPDEST DUP1 PUSH1 0x5 PUSH1 0x0 DUP5 PUSH20 0xFFFFFFFFFFFFFFFFFFFFFFFFFFFFFFFFFFFFFFFF AND PUSH20 0xFFFFFFFFFFFFFFFFFFFFFFFFFFFFFFFFFFFFFFFF AND DUP2 MSTORE PUSH1 0x20 ADD SWAP1 DUP2 MSTORE PUSH1 0x20 ADD PUSH1 0x0 KECCAK256 PUSH1 0x0 PUSH2 0x100 EXP DUP2 SLOAD DUP2 PUSH1 0xFF MUL NOT AND SWAP1 DUP4 ISZERO ISZERO MUL OR SWAP1 SSTORE POP PUSH32 0x7F5CE2A14AC5D831E88D6E5CC41DCECD553FFD745E8558D7934978D386856F70 DUP3 DUP3 PUSH1 0x40 MLOAD PUSH2 0x4C62 SWAP3 SWAP2 SWAP1 PUSH2 0x81DB JUMP JUMPDEST PUSH1 0x40 MLOAD DUP1 SWAP2 SUB SWAP1 LOG1 POP POP JUMP JUMPDEST PUSH1 0x0 PUSH20 0xFFFFFFFFFFFFFFFFFFFFFFFFFFFFFFFFFFFFFFFF AND DUP4 PUSH20 0xFFFFFFFFFFFFFFFFFFFFFFFFFFFFFFFFFFFFFFFF AND SUB PUSH2 0x4CDD JUMPI PUSH1 0x40 MLOAD PUSH32 0x8C379A000000000000000000000000000000000000000000000000000000000 DUP2 MSTORE PUSH1 0x4 ADD PUSH2 0x4CD4 SWAP1 PUSH2 0x8AD6 JUMP JUMPDEST PUSH1 0x40 MLOAD DUP1 SWAP2 SUB SWAP1 REVERT JUMPDEST PUSH1 0x0 PUSH20 0xFFFFFFFFFFFFFFFFFFFFFFFFFFFFFFFFFFFFFFFF AND DUP3 PUSH20 0xFFFFFFFFFFFFFFFFFFFFFFFFFFFFFFFFFFFFFFFF AND SUB PUSH2 0x4D4C JUMPI PUSH1 0x40 MLOAD PUSH32 0x8C379A000000000000000000000000000000000000000000000000000000000 DUP2 MSTORE PUSH1 0x4 ADD PUSH2 0x4D43 SWAP1 PUSH2 0x8AD6 JUMP JUMPDEST PUSH1 0x40 MLOAD DUP1 SWAP2 SUB SWAP1 REVERT JUMPDEST DUP1 PUSH1 0x3 PUSH1 0x0 DUP6 PUSH20 0xFFFFFFFFFFFFFFFFFFFFFFFFFFFFFFFFFFFFFFFF AND PUSH20 0xFFFFFFFFFFFFFFFFFFFFFFFFFFFFFFFFFFFFFFFF AND DUP2 MSTORE PUSH1 0x20 ADD SWAP1 DUP2 MSTORE PUSH1 0x20 ADD PUSH1 0x0 KECCAK256 PUSH1 0x0 DUP5 PUSH20 0xFFFFFFFFFFFFFFFFFFFFFFFFFFFFFFFFFFFFFFFF AND PUSH20 0xFFFFFFFFFFFFFFFFFFFFFFFFFFFFFFFFFFFFFFFF AND DUP2 MSTORE PUSH1 0x20 ADD SWAP1 DUP2 MSTORE PUSH1 0x20 ADD PUSH1 0x0 KECCAK256 DUP2 SWAP1 SSTORE POP DUP2 PUSH20 0xFFFFFFFFFFFFFFFFFFFFFFFFFFFFFFFFFFFFFFFF AND DUP4 PUSH20 0xFFFFFFFFFFFFFFFFFFFFFFFFFFFFFFFFFFFFFFFF AND PUSH32 0x8C5BE1E5EBEC7D5BD14F71427D1E84F3DD0314C0F7B2291E5B200AC8C7C3B925 DUP4 PUSH1 0x40 MLOAD PUSH2 0x4E2A SWAP2 SWAP1 PUSH2 0x7206 JUMP JUMPDEST PUSH1 0x40 MLOAD DUP1 SWAP2 SUB SWAP1 LOG3 POP POP POP JUMP JUMPDEST PUSH1 0x0 DUP1 PUSH20 0xFFFFFFFFFFFFFFFFFFFFFFFFFFFFFFFFFFFFFFFF AND DUP5 PUSH20 0xFFFFFFFFFFFFFFFFFFFFFFFFFFFFFFFFFFFFFFFF AND SUB PUSH2 0x4EA7 JUMPI PUSH1 0x40 MLOAD PUSH32 0x8C379A000000000000000000000000000000000000000000000000000000000 DUP2 MSTORE PUSH1 0x4 ADD PUSH2 0x4E9E SWAP1 PUSH2 0x8B68 JUMP JUMPDEST PUSH1 0x40 MLOAD DUP1 SWAP2 SUB SWAP1 REVERT JUMPDEST PUSH1 0x0 PUSH20 0xFFFFFFFFFFFFFFFFFFFFFFFFFFFFFFFFFFFFFFFF AND DUP4 PUSH20 0xFFFFFFFFFFFFFFFFFFFFFFFFFFFFFFFFFFFFFFFF AND SUB PUSH2 0x4F16 JUMPI PUSH1 0x40 MLOAD PUSH32 0x8C379A000000000000000000000000000000000000000000000000000000000 DUP2 MSTORE PUSH1 0x4 ADD PUSH2 0x4F0D SWAP1 PUSH2 0x8BFA JUMP JUMPDEST PUSH1 0x40 MLOAD DUP1 SWAP2 SUB SWAP1 REVERT JUMPDEST PUSH1 0x0 ISZERO ISZERO PUSH1 0x9 PUSH1 0x0 DUP7 PUSH20 0xFFFFFFFFFFFFFFFFFFFFFFFFFFFFFFFFFFFFFFFF AND PUSH20 0xFFFFFFFFFFFFFFFFFFFFFFFFFFFFFFFFFFFFFFFF AND DUP2 MSTORE PUSH1 0x20 ADD SWAP1 DUP2 MSTORE PUSH1 0x20 ADD PUSH1 0x0 KECCAK256 PUSH1 0x0 SWAP1 SLOAD SWAP1 PUSH2 0x100 EXP SWAP1 DIV PUSH1 0xFF AND ISZERO ISZERO EQ PUSH2 0x4FA9 JUMPI PUSH1 0x40 MLOAD PUSH32 0x8C379A000000000000000000000000000000000000000000000000000000000 DUP2 MSTORE PUSH1 0x4 ADD PUSH2 0x4FA0 SWAP1 PUSH2 0x8C8C JUMP JUMPDEST PUSH1 0x40 MLOAD DUP1 SWAP2 SUB SWAP1 REVERT JUMPDEST PUSH1 0x0 ISZERO ISZERO PUSH1 0x9 PUSH1 0x0 DUP6 PUSH20 0xFFFFFFFFFFFFFFFFFFFFFFFFFFFFFFFFFFFFFFFF AND PUSH20 0xFFFFFFFFFFFFFFFFFFFFFFFFFFFFFFFFFFFFFFFF AND DUP2 MSTORE PUSH1 0x20 ADD SWAP1 DUP2 MSTORE PUSH1 0x20 ADD PUSH1 0x0 KECCAK256 PUSH1 0x0 SWAP1 SLOAD SWAP1 PUSH2 0x100 EXP SWAP1 DIV PUSH1 0xFF AND ISZERO ISZERO EQ PUSH2 0x503C JUMPI PUSH1 0x40 MLOAD PUSH32 0x8C379A000000000000000000000000000000000000000000000000000000000 DUP2 MSTORE PUSH1 0x4 ADD PUSH2 0x5033 SWAP1 PUSH2 0x8D1E JUMP JUMPDEST PUSH1 0x40 MLOAD DUP1 SWAP2 SUB SWAP1 REVERT JUMPDEST PUSH1 0x0 DUP3 GT PUSH2 0x507F JUMPI PUSH1 0x40 MLOAD PUSH32 0x8C379A000000000000000000000000000000000000000000000000000000000 DUP2 MSTORE PUSH1 0x4 ADD PUSH2 0x5076 SWAP1 PUSH2 0x8DB0 JUMP JUMPDEST PUSH1 0x40 MLOAD DUP1 SWAP2 SUB SWAP1 REVERT JUMPDEST PUSH1 0x0 DUP1 PUSH1 0x0 PUSH1 0x2 PUSH1 0x0 DUP9 PUSH20 0xFFFFFFFFFFFFFFFFFFFFFFFFFFFFFFFFFFFFFFFF AND PUSH20 0xFFFFFFFFFFFFFFFFFFFFFFFFFFFFFFFFFFFFFFFF AND DUP2 MSTORE PUSH1 0x20 ADD SWAP1 DUP2 MSTORE PUSH1 0x20 ADD PUSH1 0x0 KECCAK256 PUSH1 0x0 SWAP1 SLOAD SWAP1 PUSH2 0x100 EXP SWAP1 DIV PUSH1 0xFF AND ISZERO PUSH2 0x50DF JUMPI PUSH1 0x1 SWAP3 POP PUSH2 0x5140 JUMP JUMPDEST PUSH1 0x2 PUSH1 0x0 DUP8 PUSH20 0xFFFFFFFFFFFFFFFFFFFFFFFFFFFFFFFFFFFFFFFF AND PUSH20 0xFFFFFFFFFFFFFFFFFFFFFFFFFFFFFFFFFFFFFFFF AND DUP2 MSTORE PUSH1 0x20 ADD SWAP1 DUP2 MSTORE PUSH1 0x20 ADD PUSH1 0x0 KECCAK256 PUSH1 0x0 SWAP1 SLOAD SWAP1 PUSH2 0x100 EXP SWAP1 DIV PUSH1 0xFF AND ISZERO PUSH2 0x513A JUMPI PUSH1 0x1 SWAP2 POP PUSH2 0x513F JUMP JUMPDEST PUSH1 0x1 SWAP1 POP JUMPDEST JUMPDEST PUSH2 0x514A DUP8 DUP8 PUSH2 0x5EA3 JUMP JUMPDEST ISZERO PUSH2 0x5401 JUMPI PUSH1 0x1C PUSH1 0x0 SWAP1 SLOAD SWAP1 PUSH2 0x100 EXP SWAP1 DIV PUSH1 0xFF AND PUSH2 0x519E JUMPI PUSH1 0x40 MLOAD PUSH32 0x8C379A000000000000000000000000000000000000000000000000000000000 DUP2 MSTORE PUSH1 0x4 ADD PUSH2 0x5195 SWAP1 PUSH2 0x8E1C JUMP JUMPDEST PUSH1 0x40 MLOAD DUP1 SWAP2 SUB SWAP1 REVERT JUMPDEST DUP3 DUP1 PUSH2 0x51A7 JUMPI POP DUP2 JUMPDEST ISZERO PUSH2 0x529C JUMPI PUSH1 0x8 PUSH1 0x0 DUP9 PUSH20 0xFFFFFFFFFFFFFFFFFFFFFFFFFFFFFFFFFFFFFFFF AND PUSH20 0xFFFFFFFFFFFFFFFFFFFFFFFFFFFFFFFFFFFFFFFF AND DUP2 MSTORE PUSH1 0x20 ADD SWAP1 DUP2 MSTORE PUSH1 0x20 ADD PUSH1 0x0 KECCAK256 PUSH1 0x0 SWAP1 SLOAD SWAP1 PUSH2 0x100 EXP SWAP1 DIV PUSH1 0xFF AND ISZERO DUP1 ISZERO PUSH2 0x5250 JUMPI POP PUSH1 0x8 PUSH1 0x0 DUP8 PUSH20 0xFFFFFFFFFFFFFFFFFFFFFFFFFFFFFFFFFFFFFFFF AND PUSH20 0xFFFFFFFFFFFFFFFFFFFFFFFFFFFFFFFFFFFFFFFF AND DUP2 MSTORE PUSH1 0x20 ADD SWAP1 DUP2 MSTORE PUSH1 0x20 ADD PUSH1 0x0 KECCAK256 PUSH1 0x0 SWAP1 SLOAD SWAP1 PUSH2 0x100 EXP SWAP1 DIV PUSH1 0xFF AND ISZERO JUMPDEST ISZERO PUSH2 0x529B JUMPI PUSH1 0x1A SLOAD DUP6 GT ISZERO PUSH2 0x529A JUMPI PUSH1 0x40 MLOAD PUSH32 0x8C379A000000000000000000000000000000000000000000000000000000000 DUP2 MSTORE PUSH1 0x4 ADD PUSH2 0x5291 SWAP1 PUSH2 0x8EAE JUMP JUMPDEST PUSH1 0x40 MLOAD DUP1 SWAP2 SUB SWAP1 REVERT JUMPDEST JUMPDEST JUMPDEST PUSH1 0xF PUSH1 0x1 SWAP1 SLOAD SWAP1 PUSH2 0x100 EXP SWAP1 DIV PUSH20 0xFFFFFFFFFFFFFFFFFFFFFFFFFFFFFFFFFFFFFFFF AND PUSH20 0xFFFFFFFFFFFFFFFFFFFFFFFFFFFFFFFFFFFFFFFF AND DUP7 PUSH20 0xFFFFFFFFFFFFFFFFFFFFFFFFFFFFFFFFFFFFFFFF AND EQ ISZERO DUP1 ISZERO PUSH2 0x52F8 JUMPI POP DUP2 ISZERO JUMPDEST ISZERO PUSH2 0x5400 JUMPI PUSH1 0x8 PUSH1 0x0 DUP8 PUSH20 0xFFFFFFFFFFFFFFFFFFFFFFFFFFFFFFFFFFFFFFFF AND PUSH20 0xFFFFFFFFFFFFFFFFFFFFFFFFFFFFFFFFFFFFFFFF AND DUP2 MSTORE PUSH1 0x20 ADD SWAP1 DUP2 MSTORE PUSH1 0x20 ADD PUSH1 0x0 KECCAK256 PUSH1 0x0 SWAP1 SLOAD SWAP1 PUSH2 0x100 EXP SWAP1 DIV PUSH1 0xFF AND ISZERO DUP1 ISZERO PUSH2 0x53A1 JUMPI POP PUSH1 0xB PUSH1 0x0 DUP9 PUSH20 0xFFFFFFFFFFFFFFFFFFFFFFFFFFFFFFFFFFFFFFFF AND PUSH20 0xFFFFFFFFFFFFFFFFFFFFFFFFFFFFFFFFFFFFFFFF AND DUP2 MSTORE PUSH1 0x20 ADD SWAP1 DUP2 MSTORE PUSH1 0x20 ADD PUSH1 0x0 KECCAK256 PUSH1 0x0 SWAP1 SLOAD SWAP1 PUSH2 0x100 EXP SWAP1 DIV PUSH1 0xFF AND ISZERO JUMPDEST ISZERO PUSH2 0x53FF JUMPI PUSH1 0x1B SLOAD DUP6 PUSH2 0x53B3 DUP9 PUSH2 0x25A5 JUMP JUMPDEST PUSH2 0x53BD SWAP2 SWAP1 PUSH2 0x801B JUMP JUMPDEST GT ISZERO PUSH2 0x53FE JUMPI PUSH1 0x40 MLOAD PUSH32 0x8C379A000000000000000000000000000000000000000000000000000000000 DUP2 MSTORE PUSH1 0x4 ADD PUSH2 0x53F5 SWAP1 PUSH2 0x8F40 JUMP JUMPDEST PUSH1 0x40 MLOAD DUP1 SWAP2 SUB SWAP1 REVERT JUMPDEST JUMPDEST JUMPDEST JUMPDEST DUP2 ISZERO PUSH2 0x5570 JUMPI PUSH1 0x15 PUSH1 0x0 SWAP1 SLOAD SWAP1 PUSH2 0x100 EXP SWAP1 DIV PUSH1 0xFF AND PUSH2 0x556F JUMPI PUSH1 0x15 PUSH1 0x1 SWAP1 SLOAD SWAP1 PUSH2 0x100 EXP SWAP1 DIV PUSH1 0xFF AND DUP1 ISZERO PUSH2 0x5481 JUMPI POP PUSH1 0xB PUSH1 0x0 DUP8 PUSH20 0xFFFFFFFFFFFFFFFFFFFFFFFFFFFFFFFFFFFFFFFF AND PUSH20 0xFFFFFFFFFFFFFFFFFFFFFFFFFFFFFFFFFFFFFFFF AND DUP2 MSTORE PUSH1 0x20 ADD SWAP1 DUP2 MSTORE PUSH1 0x20 ADD PUSH1 0x0 KECCAK256 PUSH1 0x0 SWAP1 SLOAD SWAP1 PUSH2 0x100 EXP SWAP1 DIV PUSH1 0xFF AND ISZERO JUMPDEST DUP1 ISZERO PUSH2 0x54D7 JUMPI POP PUSH1 0xB PUSH1 0x0 DUP9 PUSH20 0xFFFFFFFFFFFFFFFFFFFFFFFFFFFFFFFFFFFFFFFF AND PUSH20 0xFFFFFFFFFFFFFFFFFFFFFFFFFFFFFFFFFFFFFFFF AND DUP2 MSTORE PUSH1 0x20 ADD SWAP1 DUP2 MSTORE PUSH1 0x20 ADD PUSH1 0x0 KECCAK256 PUSH1 0x0 SWAP1 SLOAD SWAP1 PUSH2 0x100 EXP SWAP1 DIV PUSH1 0xFF AND ISZERO JUMPDEST ISZERO PUSH2 0x556E JUMPI PUSH1 0x0 PUSH2 0x54E7 ADDRESS PUSH2 0x25A5 JUMP JUMPDEST SWAP1 POP PUSH1 0x16 SLOAD DUP2 LT PUSH2 0x556C JUMPI PUSH1 0x0 PUSH1 0x17 SLOAD SWAP1 POP PUSH1 0x18 PUSH1 0x0 SWAP1 SLOAD SWAP1 PUSH2 0x100 EXP SWAP1 DIV PUSH1 0xFF AND ISZERO PUSH2 0x5556 JUMPI PUSH2 0x2710 PUSH1 0x19 SLOAD PUSH2 0x553F PUSH1 0x10 PUSH1 0x0 SWAP1 SLOAD SWAP1 PUSH2 0x100 EXP SWAP1 DIV PUSH20 0xFFFFFFFFFFFFFFFFFFFFFFFFFFFFFFFFFFFFFFFF AND PUSH2 0x25A5 JUMP JUMPDEST PUSH2 0x5549 SWAP2 SWAP1 PUSH2 0x7ED2 JUMP JUMPDEST PUSH2 0x5553 SWAP2 SWAP1 PUSH2 0x7EA1 JUMP JUMPDEST SWAP1 POP JUMPDEST DUP1 DUP3 LT PUSH2 0x5561 JUMPI DUP1 SWAP2 POP JUMPDEST PUSH2 0x556A DUP3 PUSH2 0x610A JUMP JUMPDEST POP JUMPDEST POP JUMPDEST JUMPDEST JUMPDEST PUSH2 0x557E DUP8 DUP8 DUP8 DUP7 DUP7 DUP7 PUSH2 0x590F JUMP JUMPDEST SWAP4 POP POP POP POP SWAP4 SWAP3 POP POP POP JUMP JUMPDEST PUSH1 0x0 DUP1 PUSH1 0xC SLOAD SWAP1 POP PUSH1 0x0 PUSH1 0x9 PUSH1 0xA PUSH2 0x55A2 SWAP2 SWAP1 PUSH2 0x7E27 JUMP JUMPDEST PUSH4 0x35A4E900 PUSH2 0x55B1 SWAP2 SWAP1 PUSH2 0x7ED2 JUMP JUMPDEST SWAP1 POP PUSH1 0x0 DUP3 SWAP1 POP PUSH1 0x0 DUP3 SWAP1 POP PUSH1 0x7 PUSH1 0x0 PUSH1 0x10 PUSH1 0x0 SWAP1 SLOAD SWAP1 PUSH2 0x100 EXP SWAP1 DIV PUSH20 0xFFFFFFFFFFFFFFFFFFFFFFFFFFFFFFFFFFFFFFFF AND PUSH20 0xFFFFFFFFFFFFFFFFFFFFFFFFFFFFFFFFFFFFFFFF AND PUSH20 0xFFFFFFFFFFFFFFFFFFFFFFFFFFFFFFFFFFFFFFFF AND DUP2 MSTORE PUSH1 0x20 ADD SWAP1 DUP2 MSTORE PUSH1 0x20 ADD PUSH1 0x0 KECCAK256 PUSH1 0x0 SWAP1 SLOAD SWAP1 PUSH2 0x100 EXP SWAP1 DIV PUSH1 0xFF AND ISZERO PUSH2 0x5746 JUMPI PUSH1 0x0 DUP1 PUSH1 0x0 PUSH1 0x10 PUSH1 0x0 SWAP1 SLOAD SWAP1 PUSH2 0x100 EXP SWAP1 DIV PUSH20 0xFFFFFFFFFFFFFFFFFFFFFFFFFFFFFFFFFFFFFFFF AND PUSH20 0xFFFFFFFFFFFFFFFFFFFFFFFFFFFFFFFFFFFFFFFF AND PUSH20 0xFFFFFFFFFFFFFFFFFFFFFFFFFFFFFFFFFFFFFFFF AND DUP2 MSTORE PUSH1 0x20 ADD SWAP1 DUP2 MSTORE PUSH1 0x20 ADD PUSH1 0x0 KECCAK256 SLOAD SWAP1 POP PUSH1 0x0 PUSH1 0x1 PUSH1 0x0 PUSH1 0x10 PUSH1 0x0 SWAP1 SLOAD SWAP1 PUSH2 0x100 EXP SWAP1 DIV PUSH20 0xFFFFFFFFFFFFFFFFFFFFFFFFFFFFFFFFFFFFFFFF AND PUSH20 0xFFFFFFFFFFFFFFFFFFFFFFFFFFFFFFFFFFFFFFFF AND PUSH20 0xFFFFFFFFFFFFFFFFFFFFFFFFFFFFFFFFFFFFFFFF AND DUP2 MSTORE PUSH1 0x20 ADD SWAP1 DUP2 MSTORE PUSH1 0x20 ADD PUSH1 0x0 KECCAK256 SLOAD SWAP1 POP DUP4 DUP3 GT DUP1 PUSH2 0x5709 JUMPI POP DUP3 DUP2 GT JUMPDEST ISZERO PUSH2 0x5727 JUMPI DUP5 DUP7 PUSH2 0x571A SWAP2 SWAP1 PUSH2 0x7EA1 JUMP JUMPDEST SWAP7 POP POP POP POP POP POP POP PUSH2 0x590C JUMP JUMPDEST DUP2 DUP5 PUSH2 0x5733 SWAP2 SWAP1 PUSH2 0x7F2C JUMP JUMPDEST SWAP4 POP DUP1 DUP4 PUSH2 0x5741 SWAP2 SWAP1 PUSH2 0x7F2C JUMP JUMPDEST SWAP3 POP POP POP JUMPDEST PUSH1 0x0 PUSH1 0xA DUP1 SLOAD SWAP1 POP GT ISZERO PUSH2 0x58CF JUMPI PUSH1 0x0 JUMPDEST PUSH1 0xA DUP1 SLOAD SWAP1 POP DUP2 PUSH1 0xFF AND LT ISZERO PUSH2 0x58CD JUMPI PUSH1 0x0 DUP1 PUSH1 0x0 PUSH1 0xA DUP5 PUSH1 0xFF AND DUP2 SLOAD DUP2 LT PUSH2 0x5783 JUMPI PUSH2 0x5782 PUSH2 0x7C6C JUMP JUMPDEST JUMPDEST SWAP1 PUSH1 0x0 MSTORE PUSH1 0x20 PUSH1 0x0 KECCAK256 ADD PUSH1 0x0 SWAP1 SLOAD SWAP1 PUSH2 0x100 EXP SWAP1 DIV PUSH20 0xFFFFFFFFFFFFFFFFFFFFFFFFFFFFFFFFFFFFFFFF AND PUSH20 0xFFFFFFFFFFFFFFFFFFFFFFFFFFFFFFFFFFFFFFFF AND PUSH20 0xFFFFFFFFFFFFFFFFFFFFFFFFFFFFFFFFFFFFFFFF AND DUP2 MSTORE PUSH1 0x20 ADD SWAP1 DUP2 MSTORE PUSH1 0x20 ADD PUSH1 0x0 KECCAK256 SLOAD SWAP1 POP PUSH1 0x0 PUSH1 0x1 PUSH1 0x0 PUSH1 0xA DUP6 PUSH1 0xFF AND DUP2 SLOAD DUP2 LT PUSH2 0x5808 JUMPI PUSH2 0x5807 PUSH2 0x7C6C JUMP JUMPDEST JUMPDEST SWAP1 PUSH1 0x0 MSTORE PUSH1 0x20 PUSH1 0x0 KECCAK256 ADD PUSH1 0x0 SWAP1 SLOAD SWAP1 PUSH2 0x100 EXP SWAP1 DIV PUSH20 0xFFFFFFFFFFFFFFFFFFFFFFFFFFFFFFFFFFFFFFFF AND PUSH20 0xFFFFFFFFFFFFFFFFFFFFFFFFFFFFFFFFFFFFFFFF AND PUSH20 0xFFFFFFFFFFFFFFFFFFFFFFFFFFFFFFFFFFFFFFFF AND DUP2 MSTORE PUSH1 0x20 ADD SWAP1 DUP2 MSTORE PUSH1 0x20 ADD PUSH1 0x0 KECCAK256 SLOAD SWAP1 POP DUP5 DUP3 GT DUP1 PUSH2 0x587D JUMPI POP DUP4 DUP2 GT JUMPDEST ISZERO PUSH2 0x589C JUMPI DUP6 DUP8 PUSH2 0x588E SWAP2 SWAP1 PUSH2 0x7EA1 JUMP JUMPDEST SWAP8 POP POP POP POP POP POP POP POP PUSH2 0x590C JUMP JUMPDEST DUP2 DUP6 PUSH2 0x58A8 SWAP2 SWAP1 PUSH2 0x7F2C JUMP JUMPDEST SWAP5 POP DUP1 DUP5 PUSH2 0x58B6 SWAP2 SWAP1 PUSH2 0x7F2C JUMP JUMPDEST SWAP4 POP POP POP DUP1 DUP1 PUSH2 0x58C5 SWAP1 PUSH2 0x8F60 JUMP JUMPDEST SWAP2 POP POP PUSH2 0x5757 JUMP JUMPDEST POP JUMPDEST DUP3 DUP5 PUSH2 0x58DB SWAP2 SWAP1 PUSH2 0x7EA1 JUMP JUMPDEST DUP3 LT ISZERO PUSH2 0x58F9 JUMPI DUP3 DUP5 PUSH2 0x58EE SWAP2 SWAP1 PUSH2 0x7EA1 JUMP JUMPDEST SWAP5 POP POP POP POP POP PUSH2 0x590C JUMP JUMPDEST DUP1 DUP3 PUSH2 0x5905 SWAP2 SWAP1 PUSH2 0x7EA1 JUMP JUMPDEST SWAP5 POP POP POP POP POP JUMPDEST SWAP1 JUMP JUMPDEST PUSH1 0x0 DUP1 PUSH1 0x1 SWAP1 POP PUSH1 0x6 PUSH1 0x0 DUP10 PUSH20 0xFFFFFFFFFFFFFFFFFFFFFFFFFFFFFFFFFFFFFFFF AND PUSH20 0xFFFFFFFFFFFFFFFFFFFFFFFFFFFFFFFFFFFFFFFF AND DUP2 MSTORE PUSH1 0x20 ADD SWAP1 DUP2 MSTORE PUSH1 0x20 ADD PUSH1 0x0 KECCAK256 PUSH1 0x0 SWAP1 SLOAD SWAP1 PUSH2 0x100 EXP SWAP1 DIV PUSH1 0xFF AND DUP1 PUSH2 0x59B7 JUMPI POP PUSH1 0x6 PUSH1 0x0 DUP9 PUSH20 0xFFFFFFFFFFFFFFFFFFFFFFFFFFFFFFFFFFFFFFFF AND PUSH20 0xFFFFFFFFFFFFFFFFFFFFFFFFFFFFFFFFFFFFFFFF AND DUP2 MSTORE PUSH1 0x20 ADD SWAP1 DUP2 MSTORE PUSH1 0x20 ADD PUSH1 0x0 KECCAK256 PUSH1 0x0 SWAP1 SLOAD SWAP1 PUSH2 0x100 EXP SWAP1 DIV PUSH1 0xFF AND JUMPDEST ISZERO PUSH2 0x59C1 JUMPI PUSH1 0x0 SWAP1 POP JUMPDEST PUSH1 0x0 PUSH2 0x59D0 DUP10 DUP9 DUP5 DUP10 DUP10 PUSH2 0x6AD5 JUMP JUMPDEST SWAP1 POP DUP1 PUSH1 0x80 ADD MLOAD PUSH1 0x0 DUP1 DUP12 PUSH20 0xFFFFFFFFFFFFFFFFFFFFFFFFFFFFFFFFFFFFFFFF AND PUSH20 0xFFFFFFFFFFFFFFFFFFFFFFFFFFFFFFFFFFFFFFFF AND DUP2 MSTORE PUSH1 0x20 ADD SWAP1 DUP2 MSTORE PUSH1 0x20 ADD PUSH1 0x0 KECCAK256 SLOAD PUSH2 0x5A20 SWAP2 SWAP1 PUSH2 0x7F2C JUMP JUMPDEST PUSH1 0x0 DUP1 DUP12 PUSH20 0xFFFFFFFFFFFFFFFFFFFFFFFFFFFFFFFFFFFFFFFF AND PUSH20 0xFFFFFFFFFFFFFFFFFFFFFFFFFFFFFFFFFFFFFFFF AND DUP2 MSTORE PUSH1 0x20 ADD SWAP1 DUP2 MSTORE PUSH1 0x20 ADD PUSH1 0x0 KECCAK256 DUP2 SWAP1 SSTORE POP DUP1 PUSH1 0x60 ADD MLOAD PUSH1 0x0 DUP1 DUP11 PUSH20 0xFFFFFFFFFFFFFFFFFFFFFFFFFFFFFFFFFFFFFFFF AND PUSH20 0xFFFFFFFFFFFFFFFFFFFFFFFFFFFFFFFFFFFFFFFF AND DUP2 MSTORE PUSH1 0x20 ADD SWAP1 DUP2 MSTORE PUSH1 0x20 ADD PUSH1 0x0 KECCAK256 SLOAD PUSH2 0x5AB0 SWAP2 SWAP1 PUSH2 0x801B JUMP JUMPDEST PUSH1 0x0 DUP1 DUP11 PUSH20 0xFFFFFFFFFFFFFFFFFFFFFFFFFFFFFFFFFFFFFFFF AND PUSH20 0xFFFFFFFFFFFFFFFFFFFFFFFFFFFFFFFFFFFFFFFF AND DUP2 MSTORE PUSH1 0x20 ADD SWAP1 DUP2 MSTORE PUSH1 0x20 ADD PUSH1 0x0 KECCAK256 DUP2 SWAP1 SSTORE POP PUSH1 0x7 PUSH1 0x0 DUP11 PUSH20 0xFFFFFFFFFFFFFFFFFFFFFFFFFFFFFFFFFFFFFFFF AND PUSH20 0xFFFFFFFFFFFFFFFFFFFFFFFFFFFFFFFFFFFFFFFF AND DUP2 MSTORE PUSH1 0x20 ADD SWAP1 DUP2 MSTORE PUSH1 0x20 ADD PUSH1 0x0 KECCAK256 PUSH1 0x0 SWAP1 SLOAD SWAP1 PUSH2 0x100 EXP SWAP1 DIV PUSH1 0xFF AND ISZERO PUSH2 0x5BD3 JUMPI DUP7 PUSH1 0x1 PUSH1 0x0 DUP12 PUSH20 0xFFFFFFFFFFFFFFFFFFFFFFFFFFFFFFFFFFFFFFFF AND PUSH20 0xFFFFFFFFFFFFFFFFFFFFFFFFFFFFFFFFFFFFFFFF AND DUP2 MSTORE PUSH1 0x20 ADD SWAP1 DUP2 MSTORE PUSH1 0x20 ADD PUSH1 0x0 KECCAK256 SLOAD PUSH2 0x5B8F SWAP2 SWAP1 PUSH2 0x7F2C JUMP JUMPDEST PUSH1 0x1 PUSH1 0x0 DUP12 PUSH20 0xFFFFFFFFFFFFFFFFFFFFFFFFFFFFFFFFFFFFFFFF AND PUSH20 0xFFFFFFFFFFFFFFFFFFFFFFFFFFFFFFFFFFFFFFFF AND DUP2 MSTORE PUSH1 0x20 ADD SWAP1 DUP2 MSTORE PUSH1 0x20 ADD PUSH1 0x0 KECCAK256 DUP2 SWAP1 SSTORE POP JUMPDEST PUSH1 0x7 PUSH1 0x0 DUP10 PUSH20 0xFFFFFFFFFFFFFFFFFFFFFFFFFFFFFFFFFFFFFFFF AND PUSH20 0xFFFFFFFFFFFFFFFFFFFFFFFFFFFFFFFFFFFFFFFF AND DUP2 MSTORE PUSH1 0x20 ADD SWAP1 DUP2 MSTORE PUSH1 0x20 ADD PUSH1 0x0 KECCAK256 PUSH1 0x0 SWAP1 SLOAD SWAP1 PUSH2 0x100 EXP SWAP1 DIV PUSH1 0xFF AND ISZERO PUSH2 0x5CB8 JUMPI DUP1 PUSH1 0x0 ADD MLOAD PUSH1 0x1 PUSH1 0x0 DUP11 PUSH20 0xFFFFFFFFFFFFFFFFFFFFFFFFFFFFFFFFFFFFFFFF AND PUSH20 0xFFFFFFFFFFFFFFFFFFFFFFFFFFFFFFFFFFFFFFFF AND DUP2 MSTORE PUSH1 0x20 ADD SWAP1 DUP2 MSTORE PUSH1 0x20 ADD PUSH1 0x0 KECCAK256 SLOAD PUSH2 0x5C74 SWAP2 SWAP1 PUSH2 0x801B JUMP JUMPDEST PUSH1 0x1 PUSH1 0x0 DUP11 PUSH20 0xFFFFFFFFFFFFFFFFFFFFFFFFFFFFFFFFFFFFFFFF AND PUSH20 0xFFFFFFFFFFFFFFFFFFFFFFFFFFFFFFFFFFFFFFFF AND DUP2 MSTORE PUSH1 0x20 ADD SWAP1 DUP2 MSTORE PUSH1 0x20 ADD PUSH1 0x0 KECCAK256 DUP2 SWAP1 SSTORE POP JUMPDEST PUSH1 0x0 DUP2 PUSH1 0xA0 ADD MLOAD GT DUP1 PUSH2 0x5CCF JUMPI POP PUSH1 0x0 DUP2 PUSH1 0x20 ADD MLOAD GT JUMPDEST ISZERO PUSH2 0x5CF2 JUMPI DUP1 PUSH1 0xA0 ADD MLOAD PUSH1 0xC PUSH1 0x0 DUP3 DUP3 SLOAD PUSH2 0x5CEA SWAP2 SWAP1 PUSH2 0x7F2C JUMP JUMPDEST SWAP3 POP POP DUP2 SWAP1 SSTORE POP JUMPDEST DUP8 PUSH20 0xFFFFFFFFFFFFFFFFFFFFFFFFFFFFFFFFFFFFFFFF AND DUP10 PUSH20 0xFFFFFFFFFFFFFFFFFFFFFFFFFFFFFFFFFFFFFFFF AND PUSH32 0xDDF252AD1BE2C89B69C2B068FC378DAA952BA7F163C4A11628F55A4DF523B3EF DUP4 PUSH1 0x0 ADD MLOAD PUSH1 0x40 MLOAD PUSH2 0x5D53 SWAP2 SWAP1 PUSH2 0x7206 JUMP JUMPDEST PUSH1 0x40 MLOAD DUP1 SWAP2 SUB SWAP1 LOG3 PUSH1 0x1C PUSH1 0x1 SWAP1 SLOAD SWAP1 PUSH2 0x100 EXP SWAP1 DIV PUSH1 0xFF AND PUSH2 0x5E93 JUMPI PUSH2 0x5D79 DUP10 DUP10 PUSH2 0x6F22 JUMP JUMPDEST PUSH1 0x1C PUSH1 0x1 SWAP1 SLOAD SWAP1 PUSH2 0x100 EXP SWAP1 DIV PUSH1 0xFF AND ISZERO DUP1 ISZERO PUSH2 0x5D9C JUMPI POP PUSH2 0x5D9B DUP10 DUP10 PUSH2 0x5EA3 JUMP JUMPDEST JUMPDEST DUP1 ISZERO PUSH2 0x5DF2 JUMPI POP PUSH1 0x5 PUSH1 0x0 DUP11 PUSH20 0xFFFFFFFFFFFFFFFFFFFFFFFFFFFFFFFFFFFFFFFF AND PUSH20 0xFFFFFFFFFFFFFFFFFFFFFFFFFFFFFFFFFFFFFFFF AND DUP2 MSTORE PUSH1 0x20 ADD SWAP1 DUP2 MSTORE PUSH1 0x20 ADD PUSH1 0x0 KECCAK256 PUSH1 0x0 SWAP1 SLOAD SWAP1 PUSH2 0x100 EXP SWAP1 DIV PUSH1 0xFF AND ISZERO JUMPDEST DUP1 ISZERO PUSH2 0x5E48 JUMPI POP PUSH1 0x5 PUSH1 0x0 DUP10 PUSH20 0xFFFFFFFFFFFFFFFFFFFFFFFFFFFFFFFFFFFFFFFF AND PUSH20 0xFFFFFFFFFFFFFFFFFFFFFFFFFFFFFFFFFFFFFFFF AND DUP2 MSTORE PUSH1 0x20 ADD SWAP1 DUP2 MSTORE PUSH1 0x20 ADD PUSH1 0x0 KECCAK256 PUSH1 0x0 SWAP1 SLOAD SWAP1 PUSH2 0x100 EXP SWAP1 DIV PUSH1 0xFF AND ISZERO JUMPDEST DUP1 ISZERO PUSH2 0x5E52 JUMPI POP DUP4 ISZERO JUMPDEST ISZERO PUSH2 0x5E92 JUMPI PUSH1 0x40 MLOAD PUSH32 0x8C379A000000000000000000000000000000000000000000000000000000000 DUP2 MSTORE PUSH1 0x4 ADD PUSH2 0x5E89 SWAP1 PUSH2 0x8FFB JUMP JUMPDEST PUSH1 0x40 MLOAD DUP1 SWAP2 SUB SWAP1 REVERT JUMPDEST JUMPDEST PUSH1 0x1 SWAP3 POP POP POP SWAP7 SWAP6 POP POP POP POP POP POP JUMP JUMPDEST PUSH1 0x0 PUSH1 0x1C PUSH1 0x2 SWAP1 SLOAD SWAP1 PUSH2 0x100 EXP SWAP1 DIV PUSH20 0xFFFFFFFFFFFFFFFFFFFFFFFFFFFFFFFFFFFFFFFF AND PUSH20 0xFFFFFFFFFFFFFFFFFFFFFFFFFFFFFFFFFFFFFFFF AND DUP4 PUSH20 0xFFFFFFFFFFFFFFFFFFFFFFFFFFFFFFFFFFFFFFFF AND EQ ISZERO DUP1 ISZERO PUSH2 0x5F51 JUMPI POP PUSH1 0x1C PUSH1 0x2 SWAP1 SLOAD SWAP1 PUSH2 0x100 EXP SWAP1 DIV PUSH20 0xFFFFFFFFFFFFFFFFFFFFFFFFFFFFFFFFFFFFFFFF AND PUSH20 0xFFFFFFFFFFFFFFFFFFFFFFFFFFFFFFFFFFFFFFFF AND DUP3 PUSH20 0xFFFFFFFFFFFFFFFFFFFFFFFFFFFFFFFFFFFFFFFF AND EQ ISZERO JUMPDEST DUP1 ISZERO PUSH2 0x5FAB JUMPI POP PUSH1 0x1C PUSH1 0x2 SWAP1 SLOAD SWAP1 PUSH2 0x100 EXP SWAP1 DIV PUSH20 0xFFFFFFFFFFFFFFFFFFFFFFFFFFFFFFFFFFFFFFFF AND PUSH20 0xFFFFFFFFFFFFFFFFFFFFFFFFFFFFFFFFFFFFFFFF AND ORIGIN PUSH20 0xFFFFFFFFFFFFFFFFFFFFFFFFFFFFFFFFFFFFFFFF AND EQ ISZERO JUMPDEST DUP1 ISZERO PUSH2 0x6001 JUMPI POP PUSH1 0x4 PUSH1 0x0 DUP4 PUSH20 0xFFFFFFFFFFFFFFFFFFFFFFFFFFFFFFFFFFFFFFFF AND PUSH20 0xFFFFFFFFFFFFFFFFFFFFFFFFFFFFFFFFFFFFFFFF AND DUP2 MSTORE PUSH1 0x20 ADD SWAP1 DUP2 MSTORE PUSH1 0x20 ADD PUSH1 0x0 KECCAK256 PUSH1 0x0 SWAP1 SLOAD SWAP1 PUSH2 0x100 EXP SWAP1 DIV PUSH1 0xFF AND ISZERO JUMPDEST DUP1 ISZERO PUSH2 0x6057 JUMPI POP PUSH1 0x4 PUSH1 0x0 DUP5 PUSH20 0xFFFFFFFFFFFFFFFFFFFFFFFFFFFFFFFFFFFFFFFF AND PUSH20 0xFFFFFFFFFFFFFFFFFFFFFFFFFFFFFFFFFFFFFFFF AND DUP2 MSTORE PUSH1 0x20 ADD SWAP1 DUP2 MSTORE PUSH1 0x20 ADD PUSH1 0x0 KECCAK256 PUSH1 0x0 SWAP1 SLOAD SWAP1 PUSH2 0x100 EXP SWAP1 DIV PUSH1 0xFF AND ISZERO JUMPDEST DUP1 ISZERO PUSH2 0x6091 JUMPI POP PUSH2 0xDEAD PUSH20 0xFFFFFFFFFFFFFFFFFFFFFFFFFFFFFFFFFFFFFFFF AND DUP3 PUSH20 0xFFFFFFFFFFFFFFFFFFFFFFFFFFFFFFFFFFFFFFFF AND EQ ISZERO JUMPDEST DUP1 ISZERO PUSH2 0x60CA JUMPI POP PUSH1 0x0 PUSH20 0xFFFFFFFFFFFFFFFFFFFFFFFFFFFFFFFFFFFFFFFF AND DUP3 PUSH20 0xFFFFFFFFFFFFFFFFFFFFFFFFFFFFFFFFFFFFFFFF AND EQ ISZERO JUMPDEST DUP1 ISZERO PUSH2 0x6102 JUMPI POP ADDRESS PUSH20 0xFFFFFFFFFFFFFFFFFFFFFFFFFFFFFFFFFFFFFFFF AND DUP4 PUSH20 0xFFFFFFFFFFFFFFFFFFFFFFFFFFFFFFFFFFFFFFFF AND EQ ISZERO JUMPDEST SWAP1 POP SWAP3 SWAP2 POP POP JUMP JUMPDEST PUSH1 0x1 PUSH1 0x15 PUSH1 0x0 PUSH2 0x100 EXP DUP2 SLOAD DUP2 PUSH1 0xFF MUL NOT AND SWAP1 DUP4 ISZERO ISZERO MUL OR SWAP1 SSTORE POP PUSH1 0x0 PUSH1 0xE PUSH1 0x40 MLOAD DUP1 PUSH1 0xE0 ADD PUSH1 0x40 MSTORE SWAP1 DUP2 PUSH1 0x0 DUP3 ADD PUSH1 0x0 SWAP1 SLOAD SWAP1 PUSH2 0x100 EXP SWAP1 DIV PUSH2 0xFFFF AND PUSH2 0xFFFF AND PUSH2 0xFFFF AND DUP2 MSTORE PUSH1 0x20 ADD PUSH1 0x0 DUP3 ADD PUSH1 0x2 SWAP1 SLOAD SWAP1 PUSH2 0x100 EXP SWAP1 DIV PUSH2 0xFFFF AND PUSH2 0xFFFF AND PUSH2 0xFFFF AND DUP2 MSTORE PUSH1 0x20 ADD PUSH1 0x0 DUP3 ADD PUSH1 0x4 SWAP1 SLOAD SWAP1 PUSH2 0x100 EXP SWAP1 DIV PUSH2 0xFFFF AND PUSH2 0xFFFF AND PUSH2 0xFFFF AND DUP2 MSTORE PUSH1 0x20 ADD PUSH1 0x0 DUP3 ADD PUSH1 0x6 SWAP1 SLOAD SWAP1 PUSH2 0x100 EXP SWAP1 DIV PUSH2 0xFFFF AND PUSH2 0xFFFF AND PUSH2 0xFFFF AND DUP2 MSTORE PUSH1 0x20 ADD PUSH1 0x0 DUP3 ADD PUSH1 0x8 SWAP1 SLOAD SWAP1 PUSH2 0x100 EXP SWAP1 DIV PUSH2 0xFFFF AND PUSH2 0xFFFF AND PUSH2 0xFFFF AND DUP2 MSTORE PUSH1 0x20 ADD PUSH1 0x0 DUP3 ADD PUSH1 0xA SWAP1 SLOAD SWAP1 PUSH2 0x100 EXP SWAP1 DIV PUSH2 0xFFFF AND PUSH2 0xFFFF AND PUSH2 0xFFFF AND DUP2 MSTORE PUSH1 0x20 ADD PUSH1 0x0 DUP3 ADD PUSH1 0xC SWAP1 SLOAD SWAP1 PUSH2 0x100 EXP SWAP1 DIV PUSH2 0xFFFF AND PUSH2 0xFFFF AND PUSH2 0xFFFF AND DUP2 MSTORE POP POP SWAP1 POP PUSH1 0x0 DUP2 PUSH1 0xC0 ADD MLOAD PUSH2 0xFFFF AND SUB PUSH2 0x622C JUMPI POP PUSH2 0x6AB7 JUMP JUMPDEST PUSH32 0xFFFFFFFFFFFFFFFFFFFFFFFFFFFFFFFFFFFFFFFFFFFFFFFFFFFFFFFFFFFFFFFF PUSH1 0x3 PUSH1 0x0 ADDRESS PUSH20 0xFFFFFFFFFFFFFFFFFFFFFFFFFFFFFFFFFFFFFFFF AND PUSH20 0xFFFFFFFFFFFFFFFFFFFFFFFFFFFFFFFFFFFFFFFF AND DUP2 MSTORE PUSH1 0x20 ADD SWAP1 DUP2 MSTORE PUSH1 0x20 ADD PUSH1 0x0 KECCAK256 PUSH1 0x0 PUSH1 0xF PUSH1 0x1 SWAP1 SLOAD SWAP1 PUSH2 0x100 EXP SWAP1 DIV PUSH20 0xFFFFFFFFFFFFFFFFFFFFFFFFFFFFFFFFFFFFFFFF AND PUSH20 0xFFFFFFFFFFFFFFFFFFFFFFFFFFFFFFFFFFFFFFFF AND PUSH20 0xFFFFFFFFFFFFFFFFFFFFFFFFFFFFFFFFFFFFFFFF AND DUP2 MSTORE PUSH1 0x20 ADD SWAP1 DUP2 MSTORE PUSH1 0x20 ADD PUSH1 0x0 KECCAK256 SLOAD EQ PUSH2 0x63B5 JUMPI PUSH32 0xFFFFFFFFFFFFFFFFFFFFFFFFFFFFFFFFFFFFFFFFFFFFFFFFFFFFFFFFFFFFFFFF PUSH1 0x3 PUSH1 0x0 ADDRESS PUSH20 0xFFFFFFFFFFFFFFFFFFFFFFFFFFFFFFFFFFFFFFFF AND PUSH20 0xFFFFFFFFFFFFFFFFFFFFFFFFFFFFFFFFFFFFFFFF AND DUP2 MSTORE PUSH1 0x20 ADD SWAP1 DUP2 MSTORE PUSH1 0x20 ADD PUSH1 0x0 KECCAK256 PUSH1 0x0 PUSH1 0xF PUSH1 0x1 SWAP1 SLOAD SWAP1 PUSH2 0x100 EXP SWAP1 DIV PUSH20 0xFFFFFFFFFFFFFFFFFFFFFFFFFFFFFFFFFFFFFFFF AND PUSH20 0xFFFFFFFFFFFFFFFFFFFFFFFFFFFFFFFFFFFFFFFF AND PUSH20 0xFFFFFFFFFFFFFFFFFFFFFFFFFFFFFFFFFFFFFFFF AND DUP2 MSTORE PUSH1 0x20 ADD SWAP1 DUP2 MSTORE PUSH1 0x20 ADD PUSH1 0x0 KECCAK256 DUP2 SWAP1 SSTORE POP JUMPDEST PUSH1 0x0 PUSH1 0x2 DUP3 PUSH1 0xC0 ADD MLOAD PUSH2 0xFFFF AND DUP4 PUSH1 0x20 ADD MLOAD PUSH2 0xFFFF AND DUP6 PUSH2 0x63D6 SWAP2 SWAP1 PUSH2 0x7ED2 JUMP JUMPDEST PUSH2 0x63E0 SWAP2 SWAP1 PUSH2 0x7EA1 JUMP JUMPDEST PUSH2 0x63EA SWAP2 SWAP1 PUSH2 0x7EA1 JUMP JUMPDEST SWAP1 POP PUSH1 0x0 DUP2 DUP5 PUSH2 0x63FA SWAP2 SWAP1 PUSH2 0x7F2C JUMP JUMPDEST SWAP1 POP PUSH1 0x0 PUSH1 0x2 PUSH8 0xFFFFFFFFFFFFFFFF DUP2 GT ISZERO PUSH2 0x6419 JUMPI PUSH2 0x6418 PUSH2 0x7261 JUMP JUMPDEST JUMPDEST PUSH1 0x40 MLOAD SWAP1 DUP1 DUP3 MSTORE DUP1 PUSH1 0x20 MUL PUSH1 0x20 ADD DUP3 ADD PUSH1 0x40 MSTORE DUP1 ISZERO PUSH2 0x6447 JUMPI DUP2 PUSH1 0x20 ADD PUSH1 0x20 DUP3 MUL DUP1 CALLDATASIZE DUP4 CALLDATACOPY DUP1 DUP3 ADD SWAP2 POP POP SWAP1 POP JUMPDEST POP SWAP1 POP ADDRESS DUP2 PUSH1 0x0 DUP2 MLOAD DUP2 LT PUSH2 0x645F JUMPI PUSH2 0x645E PUSH2 0x7C6C JUMP JUMPDEST JUMPDEST PUSH1 0x20 MUL PUSH1 0x20 ADD ADD SWAP1 PUSH20 0xFFFFFFFFFFFFFFFFFFFFFFFFFFFFFFFFFFFFFFFF AND SWAP1 DUP2 PUSH20 0xFFFFFFFFFFFFFFFFFFFFFFFFFFFFFFFFFFFFFFFF AND DUP2 MSTORE POP POP PUSH1 0xF PUSH1 0x1 SWAP1 SLOAD SWAP1 PUSH2 0x100 EXP SWAP1 DIV PUSH20 0xFFFFFFFFFFFFFFFFFFFFFFFFFFFFFFFFFFFFFFFF AND PUSH20 0xFFFFFFFFFFFFFFFFFFFFFFFFFFFFFFFFFFFFFFFF AND PUSH4 0xAD5C4648 PUSH1 0x40 MLOAD DUP2 PUSH4 0xFFFFFFFF AND PUSH1 0xE0 SHL DUP2 MSTORE PUSH1 0x4 ADD PUSH1 0x20 PUSH1 0x40 MLOAD DUP1 DUP4 SUB DUP2 DUP7 GAS STATICCALL ISZERO DUP1 ISZERO PUSH2 0x6506 JUMPI RETURNDATASIZE PUSH1 0x0 DUP1 RETURNDATACOPY RETURNDATASIZE PUSH1 0x0 REVERT JUMPDEST POP POP POP POP PUSH1 0x40 MLOAD RETURNDATASIZE PUSH1 0x1F NOT PUSH1 0x1F DUP3 ADD AND DUP3 ADD DUP1 PUSH1 0x40 MSTORE POP DUP2 ADD SWAP1 PUSH2 0x652A SWAP2 SWAP1 PUSH2 0x8839 JUMP JUMPDEST DUP2 PUSH1 0x1 DUP2 MLOAD DUP2 LT PUSH2 0x653E JUMPI PUSH2 0x653D PUSH2 0x7C6C JUMP JUMPDEST JUMPDEST PUSH1 0x20 MUL PUSH1 0x20 ADD ADD SWAP1 PUSH20 0xFFFFFFFFFFFFFFFFFFFFFFFFFFFFFFFFFFFFFFFF AND SWAP1 DUP2 PUSH20 0xFFFFFFFFFFFFFFFFFFFFFFFFFFFFFFFFFFFFFFFF AND DUP2 MSTORE POP POP PUSH1 0xF PUSH1 0x1 SWAP1 SLOAD SWAP1 PUSH2 0x100 EXP SWAP1 DIV PUSH20 0xFFFFFFFFFFFFFFFFFFFFFFFFFFFFFFFFFFFFFFFF AND PUSH20 0xFFFFFFFFFFFFFFFFFFFFFFFFFFFFFFFFFFFFFFFF AND PUSH4 0x791AC947 DUP4 PUSH1 0x0 DUP5 ADDRESS TIMESTAMP PUSH1 0x40 MLOAD DUP7 PUSH4 0xFFFFFFFF AND PUSH1 0xE0 SHL DUP2 MSTORE PUSH1 0x4 ADD PUSH2 0x65DC SWAP6 SWAP5 SWAP4 SWAP3 SWAP2 SWAP1 PUSH2 0x9114 JUMP JUMPDEST PUSH1 0x0 PUSH1 0x40 MLOAD DUP1 DUP4 SUB DUP2 PUSH1 0x0 DUP8 DUP1 EXTCODESIZE ISZERO DUP1 ISZERO PUSH2 0x65F6 JUMPI PUSH1 0x0 DUP1 REVERT JUMPDEST POP GAS CALL SWAP3 POP POP POP DUP1 ISZERO PUSH2 0x6607 JUMPI POP PUSH1 0x1 JUMPDEST PUSH2 0x6614 JUMPI POP POP POP POP PUSH2 0x6AB7 JUMP JUMPDEST PUSH1 0x0 SELFBALANCE SWAP1 POP PUSH1 0x0 DUP4 DUP6 DUP4 PUSH2 0x6628 SWAP2 SWAP1 PUSH2 0x7ED2 JUMP JUMPDEST PUSH2 0x6632 SWAP2 SWAP1 PUSH2 0x7EA1 JUMP JUMPDEST SWAP1 POP PUSH1 0x0 DUP6 GT ISZERO PUSH2 0x672E JUMPI PUSH1 0xF PUSH1 0x1 SWAP1 SLOAD SWAP1 PUSH2 0x100 EXP SWAP1 DIV PUSH20 0xFFFFFFFFFFFFFFFFFFFFFFFFFFFFFFFFFFFFFFFF AND PUSH20 0xFFFFFFFFFFFFFFFFFFFFFFFFFFFFFFFFFFFFFFFF AND PUSH4 0xF305D719 DUP3 ADDRESS DUP9 PUSH1 0x0 DUP1 PUSH2 0xDEAD TIMESTAMP PUSH1 0x40 MLOAD DUP9 PUSH4 0xFFFFFFFF AND PUSH1 0xE0 SHL DUP2 MSTORE PUSH1 0x4 ADD PUSH2 0x66A6 SWAP7 SWAP6 SWAP5 SWAP4 SWAP3 SWAP2 SWAP1 PUSH2 0x916E JUMP JUMPDEST PUSH1 0x60 PUSH1 0x40 MLOAD DUP1 DUP4 SUB DUP2 DUP6 DUP9 GAS CALL SWAP4 POP POP POP POP DUP1 ISZERO PUSH2 0x66E2 JUMPI POP PUSH1 0x40 MLOAD RETURNDATASIZE PUSH1 0x1F NOT PUSH1 0x1F DUP3 ADD AND DUP3 ADD DUP1 PUSH1 0x40 MSTORE POP DUP2 ADD SWAP1 PUSH2 0x66DF SWAP2 SWAP1 PUSH2 0x91E4 JUMP JUMPDEST PUSH1 0x1 JUMPDEST PUSH2 0x66F1 JUMPI POP POP POP POP POP POP PUSH2 0x6AB7 JUMP JUMPDEST POP POP POP PUSH32 0x424DB2872186FA7E7AFA7A5E902ED3B49A2EF19C2F5431E672462495DD6B4506 DUP2 DUP7 PUSH1 0x40 MLOAD PUSH2 0x6725 SWAP3 SWAP2 SWAP1 PUSH2 0x7FF2 JUMP JUMPDEST PUSH1 0x40 MLOAD DUP1 SWAP2 SUB SWAP1 LOG1 JUMPDEST DUP1 DUP3 PUSH2 0x673A SWAP2 SWAP1 PUSH2 0x7F2C JUMP JUMPDEST SWAP2 POP DUP6 PUSH1 0x20 ADD MLOAD DUP7 PUSH1 0xC0 ADD DUP2 DUP2 MLOAD PUSH2 0x6752 SWAP2 SWAP1 PUSH2 0x9237 JUMP JUMPDEST SWAP2 POP SWAP1 PUSH2 0xFFFF AND SWAP1 DUP2 PUSH2 0xFFFF AND DUP2 MSTORE POP POP PUSH1 0x0 DUP1 DUP8 PUSH1 0xC0 ADD MLOAD PUSH2 0xFFFF AND DUP9 PUSH1 0x60 ADD MLOAD PUSH2 0xFFFF AND DUP6 PUSH2 0x6783 SWAP2 SWAP1 PUSH2 0x7ED2 JUMP JUMPDEST PUSH2 0x678D SWAP2 SWAP1 PUSH2 0x7EA1 JUMP JUMPDEST SWAP1 POP PUSH1 0x0 DUP9 PUSH1 0xC0 ADD MLOAD PUSH2 0xFFFF AND DUP10 PUSH1 0x40 ADD MLOAD PUSH2 0xFFFF AND DUP7 PUSH2 0x67AE SWAP2 SWAP1 PUSH2 0x7ED2 JUMP JUMPDEST PUSH2 0x67B8 SWAP2 SWAP1 PUSH2 0x7EA1 JUMP JUMPDEST SWAP1 POP PUSH1 0x0 DUP10 PUSH1 0xC0 ADD MLOAD PUSH2 0xFFFF AND DUP11 PUSH1 0x80 ADD MLOAD PUSH2 0xFFFF AND DUP8 PUSH2 0x67D9 SWAP2 SWAP1 PUSH2 0x7ED2 JUMP JUMPDEST PUSH2 0x67E3 SWAP2 SWAP1 PUSH2 0x7EA1 JUMP JUMPDEST SWAP1 POP PUSH1 0x0 DUP2 DUP4 DUP6 DUP10 PUSH2 0x67F5 SWAP2 SWAP1 PUSH2 0x7F2C JUMP JUMPDEST PUSH2 0x67FF SWAP2 SWAP1 PUSH2 0x7F2C JUMP JUMPDEST PUSH2 0x6809 SWAP2 SWAP1 PUSH2 0x7F2C JUMP JUMPDEST SWAP1 POP PUSH1 0x0 DUP12 PUSH1 0x60 ADD MLOAD PUSH2 0xFFFF AND GT ISZERO PUSH2 0x68B3 JUMPI PUSH1 0x11 PUSH1 0x1 ADD PUSH1 0x0 SWAP1 SLOAD SWAP1 PUSH2 0x100 EXP SWAP1 DIV PUSH20 0xFFFFFFFFFFFFFFFFFFFFFFFFFFFFFFFFFFFFFFFF AND PUSH20 0xFFFFFFFFFFFFFFFFFFFFFFFFFFFFFFFFFFFFFFFF AND DUP5 PUSH2 0xD6D8 SWAP1 PUSH1 0x40 MLOAD PUSH2 0x6869 SWAP1 PUSH2 0x929C JUMP JUMPDEST PUSH1 0x0 PUSH1 0x40 MLOAD DUP1 DUP4 SUB DUP2 DUP6 DUP9 DUP9 CALL SWAP4 POP POP POP POP RETURNDATASIZE DUP1 PUSH1 0x0 DUP2 EQ PUSH2 0x68A7 JUMPI PUSH1 0x40 MLOAD SWAP2 POP PUSH1 0x1F NOT PUSH1 0x3F RETURNDATASIZE ADD AND DUP3 ADD PUSH1 0x40 MSTORE RETURNDATASIZE DUP3 MSTORE RETURNDATASIZE PUSH1 0x0 PUSH1 0x20 DUP5 ADD RETURNDATACOPY PUSH2 0x68AC JUMP JUMPDEST PUSH1 0x60 SWAP2 POP JUMPDEST POP POP DUP1 SWAP6 POP POP JUMPDEST PUSH1 0x0 DUP12 PUSH1 0x40 ADD MLOAD PUSH2 0xFFFF AND GT ISZERO PUSH2 0x695B JUMPI PUSH1 0x11 PUSH1 0x0 ADD PUSH1 0x0 SWAP1 SLOAD SWAP1 PUSH2 0x100 EXP SWAP1 DIV PUSH20 0xFFFFFFFFFFFFFFFFFFFFFFFFFFFFFFFFFFFFFFFF AND PUSH20 0xFFFFFFFFFFFFFFFFFFFFFFFFFFFFFFFFFFFFFFFF AND DUP4 PUSH2 0xD6D8 SWAP1 PUSH1 0x40 MLOAD PUSH2 0x6911 SWAP1 PUSH2 0x929C JUMP JUMPDEST PUSH1 0x0 PUSH1 0x40 MLOAD DUP1 DUP4 SUB DUP2 DUP6 DUP9 DUP9 CALL SWAP4 POP POP POP POP RETURNDATASIZE DUP1 PUSH1 0x0 DUP2 EQ PUSH2 0x694F JUMPI PUSH1 0x40 MLOAD SWAP2 POP PUSH1 0x1F NOT PUSH1 0x3F RETURNDATASIZE ADD AND DUP3 ADD PUSH1 0x40 MSTORE RETURNDATASIZE DUP3 MSTORE RETURNDATASIZE PUSH1 0x0 PUSH1 0x20 DUP5 ADD RETURNDATACOPY PUSH2 0x6954 JUMP JUMPDEST PUSH1 0x60 SWAP2 POP JUMPDEST POP POP DUP1 SWAP6 POP POP JUMPDEST PUSH1 0x0 DUP12 PUSH1 0x80 ADD MLOAD PUSH2 0xFFFF AND GT ISZERO PUSH2 0x6A03 JUMPI PUSH1 0x11 PUSH1 0x2 ADD PUSH1 0x0 SWAP1 SLOAD SWAP1 PUSH2 0x100 EXP SWAP1 DIV PUSH20 0xFFFFFFFFFFFFFFFFFFFFFFFFFFFFFFFFFFFFFFFF AND PUSH20 0xFFFFFFFFFFFFFFFFFFFFFFFFFFFFFFFFFFFFFFFF AND DUP3 PUSH2 0xD6D8 SWAP1 PUSH1 0x40 MLOAD PUSH2 0x69B9 SWAP1 PUSH2 0x929C JUMP JUMPDEST PUSH1 0x0 PUSH1 0x40 MLOAD DUP1 DUP4 SUB DUP2 DUP6 DUP9 DUP9 CALL SWAP4 POP POP POP POP RETURNDATASIZE DUP1 PUSH1 0x0 DUP2 EQ PUSH2 0x69F7 JUMPI PUSH1 0x40 MLOAD SWAP2 POP PUSH1 0x1F NOT PUSH1 0x3F RETURNDATASIZE ADD AND DUP3 ADD PUSH1 0x40 MSTORE RETURNDATASIZE DUP3 MSTORE RETURNDATASIZE PUSH1 0x0 PUSH1 0x20 DUP5 ADD RETURNDATACOPY PUSH2 0x69FC JUMP JUMPDEST PUSH1 0x60 SWAP2 POP JUMPDEST POP POP DUP1 SWAP6 POP POP JUMPDEST PUSH1 0x0 DUP12 PUSH1 0xA0 ADD MLOAD PUSH2 0xFFFF AND GT ISZERO PUSH2 0x6AAB JUMPI PUSH1 0x11 PUSH1 0x3 ADD PUSH1 0x0 SWAP1 SLOAD SWAP1 PUSH2 0x100 EXP SWAP1 DIV PUSH20 0xFFFFFFFFFFFFFFFFFFFFFFFFFFFFFFFFFFFFFFFF AND PUSH20 0xFFFFFFFFFFFFFFFFFFFFFFFFFFFFFFFFFFFFFFFF AND DUP2 PUSH2 0xD6D8 SWAP1 PUSH1 0x40 MLOAD PUSH2 0x6A61 SWAP1 PUSH2 0x929C JUMP JUMPDEST PUSH1 0x0 PUSH1 0x40 MLOAD DUP1 DUP4 SUB DUP2 DUP6 DUP9 DUP9 CALL SWAP4 POP POP POP POP RETURNDATASIZE DUP1 PUSH1 0x0 DUP2 EQ PUSH2 0x6A9F JUMPI PUSH1 0x40 MLOAD SWAP2 POP PUSH1 0x1F NOT PUSH1 0x3F RETURNDATASIZE ADD AND DUP3 ADD PUSH1 0x40 MSTORE RETURNDATASIZE DUP3 MSTORE RETURNDATASIZE PUSH1 0x0 PUSH1 0x20 DUP5 ADD RETURNDATACOPY PUSH2 0x6AA4 JUMP JUMPDEST PUSH1 0x60 SWAP2 POP JUMPDEST POP POP DUP1 SWAP6 POP POP JUMPDEST POP POP POP POP POP POP POP POP POP POP POP JUMPDEST PUSH1 0x0 PUSH1 0x15 PUSH1 0x0 PUSH2 0x100 EXP DUP2 SLOAD DUP2 PUSH1 0xFF MUL NOT AND SWAP1 DUP4 ISZERO ISZERO MUL OR SWAP1 SSTORE POP POP JUMP JUMPDEST PUSH2 0x6ADD PUSH2 0x70FE JUMP JUMPDEST PUSH2 0x6AE5 PUSH2 0x70FE JUMP JUMPDEST PUSH1 0x0 PUSH1 0xE PUSH1 0x40 MLOAD DUP1 PUSH1 0xE0 ADD PUSH1 0x40 MSTORE SWAP1 DUP2 PUSH1 0x0 DUP3 ADD PUSH1 0x0 SWAP1 SLOAD SWAP1 PUSH2 0x100 EXP SWAP1 DIV PUSH2 0xFFFF AND PUSH2 0xFFFF AND PUSH2 0xFFFF AND DUP2 MSTORE PUSH1 0x20 ADD PUSH1 0x0 DUP3 ADD PUSH1 0x2 SWAP1 SLOAD SWAP1 PUSH2 0x100 EXP SWAP1 DIV PUSH2 0xFFFF AND PUSH2 0xFFFF AND PUSH2 0xFFFF AND DUP2 MSTORE PUSH1 0x20 ADD PUSH1 0x0 DUP3 ADD PUSH1 0x4 SWAP1 SLOAD SWAP1 PUSH2 0x100 EXP SWAP1 DIV PUSH2 0xFFFF AND PUSH2 0xFFFF AND PUSH2 0xFFFF AND DUP2 MSTORE PUSH1 0x20 ADD PUSH1 0x0 DUP3 ADD PUSH1 0x6 SWAP1 SLOAD SWAP1 PUSH2 0x100 EXP SWAP1 DIV PUSH2 0xFFFF AND PUSH2 0xFFFF AND PUSH2 0xFFFF AND DUP2 MSTORE PUSH1 0x20 ADD PUSH1 0x0 DUP3 ADD PUSH1 0x8 SWAP1 SLOAD SWAP1 PUSH2 0x100 EXP SWAP1 DIV PUSH2 0xFFFF AND PUSH2 0xFFFF AND PUSH2 0xFFFF AND DUP2 MSTORE PUSH1 0x20 ADD PUSH1 0x0 DUP3 ADD PUSH1 0xA SWAP1 SLOAD SWAP1 PUSH2 0x100 EXP SWAP1 DIV PUSH2 0xFFFF AND PUSH2 0xFFFF AND PUSH2 0xFFFF AND DUP2 MSTORE PUSH1 0x20 ADD PUSH1 0x0 DUP3 ADD PUSH1 0xC SWAP1 SLOAD SWAP1 PUSH2 0x100 EXP SWAP1 DIV PUSH2 0xFFFF AND PUSH2 0xFFFF AND PUSH2 0xFFFF AND DUP2 MSTORE POP POP SWAP1 POP PUSH2 0x6BDE PUSH2 0x558A JUMP JUMPDEST DUP3 PUSH1 0xC0 ADD DUP2 DUP2 MSTORE POP POP DUP2 PUSH1 0xC0 ADD MLOAD DUP8 PUSH2 0x6BF7 SWAP2 SWAP1 PUSH2 0x7ED2 JUMP JUMPDEST DUP3 PUSH1 0x80 ADD DUP2 DUP2 MSTORE POP POP PUSH1 0x0 DUP2 PUSH1 0x0 ADD MLOAD DUP3 PUSH1 0xC0 ADD MLOAD PUSH2 0x6C16 SWAP2 SWAP1 PUSH2 0x86F9 JUMP JUMPDEST PUSH2 0xFFFF AND SWAP1 POP PUSH1 0x0 DUP2 SUB PUSH2 0x6C29 JUMPI PUSH1 0x0 SWAP7 POP JUMPDEST DUP7 ISZERO PUSH2 0x6D41 JUMPI PUSH1 0x0 DUP7 ISZERO PUSH2 0x6C56 JUMPI PUSH1 0xD PUSH1 0x0 ADD PUSH1 0x0 SWAP1 SLOAD SWAP1 PUSH2 0x100 EXP SWAP1 DIV PUSH2 0xFFFF AND PUSH2 0xFFFF AND SWAP1 POP PUSH2 0x6C97 JUMP JUMPDEST DUP6 ISZERO PUSH2 0x6C7B JUMPI PUSH1 0xD PUSH1 0x0 ADD PUSH1 0x2 SWAP1 SLOAD SWAP1 PUSH2 0x100 EXP SWAP1 DIV PUSH2 0xFFFF AND PUSH2 0xFFFF AND SWAP1 POP PUSH2 0x6C96 JUMP JUMPDEST PUSH1 0xD PUSH1 0x0 ADD PUSH1 0x4 SWAP1 SLOAD SWAP1 PUSH2 0x100 EXP SWAP1 DIV PUSH2 0xFFFF AND PUSH2 0xFFFF AND SWAP1 POP JUMPDEST JUMPDEST PUSH1 0x0 PUSH2 0x2710 DUP3 DUP12 PUSH2 0x6CA8 SWAP2 SWAP1 PUSH2 0x7ED2 JUMP JUMPDEST PUSH2 0x6CB2 SWAP2 SWAP1 PUSH2 0x7EA1 JUMP JUMPDEST SWAP1 POP DUP3 DUP5 PUSH1 0x0 ADD MLOAD PUSH2 0xFFFF AND DUP3 PUSH2 0x6CC9 SWAP2 SWAP1 PUSH2 0x7ED2 JUMP JUMPDEST PUSH2 0x6CD3 SWAP2 SWAP1 PUSH2 0x7EA1 JUMP JUMPDEST DUP6 PUSH1 0x20 ADD DUP2 DUP2 MSTORE POP POP DUP5 PUSH1 0x20 ADD MLOAD DUP2 PUSH2 0x6CEC SWAP2 SWAP1 PUSH2 0x7F2C JUMP JUMPDEST DUP6 PUSH1 0x40 ADD DUP2 DUP2 MSTORE POP POP DUP5 PUSH1 0x40 ADD MLOAD DUP6 PUSH1 0x20 ADD MLOAD PUSH2 0x6D09 SWAP2 SWAP1 PUSH2 0x801B JUMP JUMPDEST DUP11 PUSH2 0x6D14 SWAP2 SWAP1 PUSH2 0x7F2C JUMP JUMPDEST DUP6 PUSH1 0x0 ADD DUP2 DUP2 MSTORE POP POP DUP5 PUSH1 0xC0 ADD MLOAD DUP6 PUSH1 0x20 ADD MLOAD PUSH2 0x6D31 SWAP2 SWAP1 PUSH2 0x7ED2 JUMP JUMPDEST DUP6 PUSH1 0xA0 ADD DUP2 DUP2 MSTORE POP POP POP POP PUSH2 0x6D4C JUMP JUMPDEST DUP8 DUP4 PUSH1 0x0 ADD DUP2 DUP2 MSTORE POP POP JUMPDEST PUSH1 0x0 DUP4 PUSH1 0x40 ADD MLOAD GT ISZERO PUSH2 0x6ED8 JUMPI DUP3 PUSH1 0xC0 ADD MLOAD DUP4 PUSH1 0x40 ADD MLOAD PUSH2 0x6D6D SWAP2 SWAP1 PUSH2 0x7ED2 JUMP JUMPDEST PUSH1 0x0 DUP1 ADDRESS PUSH20 0xFFFFFFFFFFFFFFFFFFFFFFFFFFFFFFFFFFFFFFFF AND PUSH20 0xFFFFFFFFFFFFFFFFFFFFFFFFFFFFFFFFFFFFFFFF AND DUP2 MSTORE PUSH1 0x20 ADD SWAP1 DUP2 MSTORE PUSH1 0x20 ADD PUSH1 0x0 KECCAK256 PUSH1 0x0 DUP3 DUP3 SLOAD PUSH2 0x6DBA SWAP2 SWAP1 PUSH2 0x801B JUMP JUMPDEST SWAP3 POP POP DUP2 SWAP1 SSTORE POP PUSH1 0x7 PUSH1 0x0 ADDRESS PUSH20 0xFFFFFFFFFFFFFFFFFFFFFFFFFFFFFFFFFFFFFFFF AND PUSH20 0xFFFFFFFFFFFFFFFFFFFFFFFFFFFFFFFFFFFFFFFF AND DUP2 MSTORE PUSH1 0x20 ADD SWAP1 DUP2 MSTORE PUSH1 0x20 ADD PUSH1 0x0 KECCAK256 PUSH1 0x0 SWAP1 SLOAD SWAP1 PUSH2 0x100 EXP SWAP1 DIV PUSH1 0xFF AND ISZERO PUSH2 0x6E6E JUMPI DUP3 PUSH1 0x40 ADD MLOAD PUSH1 0x1 PUSH1 0x0 ADDRESS PUSH20 0xFFFFFFFFFFFFFFFFFFFFFFFFFFFFFFFFFFFFFFFF AND PUSH20 0xFFFFFFFFFFFFFFFFFFFFFFFFFFFFFFFFFFFFFFFF AND DUP2 MSTORE PUSH1 0x20 ADD SWAP1 DUP2 MSTORE PUSH1 0x20 ADD PUSH1 0x0 KECCAK256 PUSH1 0x0 DUP3 DUP3 SLOAD PUSH2 0x6E66 SWAP2 SWAP1 PUSH2 0x801B JUMP JUMPDEST SWAP3 POP POP DUP2 SWAP1 SSTORE POP JUMPDEST ADDRESS PUSH20 0xFFFFFFFFFFFFFFFFFFFFFFFFFFFFFFFFFFFFFFFF AND DUP10 PUSH20 0xFFFFFFFFFFFFFFFFFFFFFFFFFFFFFFFFFFFFFFFF AND PUSH32 0xDDF252AD1BE2C89B69C2B068FC378DAA952BA7F163C4A11628F55A4DF523B3EF DUP6 PUSH1 0x40 ADD MLOAD PUSH1 0x40 MLOAD PUSH2 0x6ECF SWAP2 SWAP1 PUSH2 0x7206 JUMP JUMPDEST PUSH1 0x40 MLOAD DUP1 SWAP2 SUB SWAP1 LOG3 JUMPDEST DUP3 PUSH1 0xC0 ADD MLOAD DUP4 PUSH1 0x40 ADD MLOAD PUSH2 0x6EEC SWAP2 SWAP1 PUSH2 0x7ED2 JUMP JUMPDEST DUP4 PUSH1 0xA0 ADD MLOAD PUSH2 0x6EFB SWAP2 SWAP1 PUSH2 0x801B JUMP JUMPDEST DUP4 PUSH1 0x80 ADD MLOAD PUSH2 0x6F0A SWAP2 SWAP1 PUSH2 0x7F2C JUMP JUMPDEST DUP4 PUSH1 0x60 ADD DUP2 DUP2 MSTORE POP POP DUP3 SWAP4 POP POP POP POP SWAP6 SWAP5 POP POP POP POP POP JUMP JUMPDEST PUSH1 0x1C PUSH1 0x1 SWAP1 SLOAD SWAP1 PUSH2 0x100 EXP SWAP1 DIV PUSH1 0xFF AND ISZERO PUSH2 0x6F72 JUMPI PUSH1 0x40 MLOAD PUSH32 0x8C379A000000000000000000000000000000000000000000000000000000000 DUP2 MSTORE PUSH1 0x4 ADD PUSH2 0x6F69 SWAP1 PUSH2 0x9323 JUMP JUMPDEST PUSH1 0x40 MLOAD DUP1 SWAP2 SUB SWAP1 REVERT JUMPDEST PUSH2 0x6F7C DUP3 DUP3 PUSH2 0x5EA3 JUMP JUMPDEST ISZERO DUP1 ISZERO PUSH2 0x6FD6 JUMPI POP PUSH1 0x10 PUSH1 0x0 SWAP1 SLOAD SWAP1 PUSH2 0x100 EXP SWAP1 DIV PUSH20 0xFFFFFFFFFFFFFFFFFFFFFFFFFFFFFFFFFFFFFFFF AND PUSH20 0xFFFFFFFFFFFFFFFFFFFFFFFFFFFFFFFFFFFFFFFF AND DUP2 PUSH20 0xFFFFFFFFFFFFFFFFFFFFFFFFFFFFFFFFFFFFFFFF AND EQ JUMPDEST ISZERO PUSH2 0x70FA JUMPI PUSH1 0x1 PUSH1 0x4 PUSH1 0x0 DUP5 PUSH20 0xFFFFFFFFFFFFFFFFFFFFFFFFFFFFFFFFFFFFFFFF AND PUSH20 0xFFFFFFFFFFFFFFFFFFFFFFFFFFFFFFFFFFFFFFFF AND DUP2 MSTORE PUSH1 0x20 ADD SWAP1 DUP2 MSTORE PUSH1 0x20 ADD PUSH1 0x0 KECCAK256 PUSH1 0x0 PUSH2 0x100 EXP DUP2 SLOAD DUP2 PUSH1 0xFF MUL NOT AND SWAP1 DUP4 ISZERO ISZERO MUL OR SWAP1 SSTORE POP PUSH1 0x1 PUSH1 0x6 PUSH1 0x0 DUP5 PUSH20 0xFFFFFFFFFFFFFFFFFFFFFFFFFFFFFFFFFFFFFFFF AND PUSH20 0xFFFFFFFFFFFFFFFFFFFFFFFFFFFFFFFFFFFFFFFF AND DUP2 MSTORE PUSH1 0x20 ADD SWAP1 DUP2 MSTORE PUSH1 0x20 ADD PUSH1 0x0 KECCAK256 PUSH1 0x0 PUSH2 0x100 EXP DUP2 SLOAD DUP2 PUSH1 0xFF MUL NOT AND SWAP1 DUP4 ISZERO ISZERO MUL OR SWAP1 SSTORE POP PUSH1 0x1 PUSH1 0x1C PUSH1 0x1 PUSH2 0x100 EXP DUP2 SLOAD DUP2 PUSH1 0xFF MUL NOT AND SWAP1 DUP4 ISZERO ISZERO MUL OR SWAP1 SSTORE POP PUSH1 0x1 PUSH1 0x15 PUSH1 0x1 PUSH2 0x100 EXP DUP2 SLOAD DUP2 PUSH1 0xFF MUL NOT AND SWAP1 DUP4 ISZERO ISZERO MUL OR SWAP1 SSTORE POP PUSH32 0x7B0A47D3B0234280B6C9213C5BBFF44C8B6001BEA7770B3950280F9141053257 PUSH1 0x1 PUSH1 0x40 MLOAD PUSH2 0x70F1 SWAP2 SWAP1 PUSH2 0x75BF JUMP JUMPDEST PUSH1 0x40 MLOAD DUP1 SWAP2 SUB SWAP1 LOG1 JUMPDEST POP POP JUMP JUMPDEST PUSH1 0x40 MLOAD DUP1 PUSH1 0xE0 ADD PUSH1 0x40 MSTORE DUP1 PUSH1 0x0 DUP2 MSTORE PUSH1 0x20 ADD PUSH1 0x0 DUP2 MSTORE PUSH1 0x20 ADD PUSH1 0x0 DUP2 MSTORE PUSH1 0x20 ADD PUSH1 0x0 DUP2 MSTORE PUSH1 0x20 ADD PUSH1 0x0 DUP2 MSTORE PUSH1 0x20 ADD PUSH1 0x0 DUP2 MSTORE PUSH1 0x20 ADD PUSH1 0x0 DUP2 MSTORE POP SWAP1 JUMP JUMPDEST PUSH1 0x0 PUSH1 0x40 MLOAD SWAP1 POP SWAP1 JUMP JUMPDEST PUSH1 0x0 DUP1 REVERT JUMPDEST PUSH1 0x0 DUP1 REVERT JUMPDEST PUSH1 0x0 PUSH20 0xFFFFFFFFFFFFFFFFFFFFFFFFFFFFFFFFFFFFFFFF DUP3 AND SWAP1 POP SWAP2 SWAP1 POP JUMP JUMPDEST PUSH1 0x0 PUSH2 0x717A DUP3 PUSH2 0x714F JUMP JUMPDEST SWAP1 POP SWAP2 SWAP1 POP JUMP JUMPDEST PUSH2 0x718A DUP2 PUSH2 0x716F JUMP JUMPDEST DUP2 EQ PUSH2 0x7195 JUMPI PUSH1 0x0 DUP1 REVERT JUMPDEST POP JUMP JUMPDEST PUSH1 0x0 DUP2 CALLDATALOAD SWAP1 POP PUSH2 0x71A7 DUP2 PUSH2 0x7181 JUMP JUMPDEST SWAP3 SWAP2 POP POP JUMP JUMPDEST PUSH1 0x0 DUP1 PUSH1 0x40 DUP4 DUP6 SUB SLT ISZERO PUSH2 0x71C4 JUMPI PUSH2 0x71C3 PUSH2 0x7145 JUMP JUMPDEST JUMPDEST PUSH1 0x0 PUSH2 0x71D2 DUP6 DUP3 DUP7 ADD PUSH2 0x7198 JUMP JUMPDEST SWAP3 POP POP PUSH1 0x20 PUSH2 0x71E3 DUP6 DUP3 DUP7 ADD PUSH2 0x7198 JUMP JUMPDEST SWAP2 POP POP SWAP3 POP SWAP3 SWAP1 POP JUMP JUMPDEST PUSH1 0x0 DUP2 SWAP1 POP SWAP2 SWAP1 POP JUMP JUMPDEST PUSH2 0x7200 DUP2 PUSH2 0x71ED JUMP JUMPDEST DUP3 MSTORE POP POP JUMP JUMPDEST PUSH1 0x0 PUSH1 0x20 DUP3 ADD SWAP1 POP PUSH2 0x721B PUSH1 0x0 DUP4 ADD DUP5 PUSH2 0x71F7 JUMP JUMPDEST SWAP3 SWAP2 POP POP JUMP JUMPDEST PUSH2 0x722A DUP2 PUSH2 0x716F JUMP JUMPDEST DUP3 MSTORE POP POP JUMP JUMPDEST PUSH1 0x0 PUSH1 0x20 DUP3 ADD SWAP1 POP PUSH2 0x7245 PUSH1 0x0 DUP4 ADD DUP5 PUSH2 0x7221 JUMP JUMPDEST SWAP3 SWAP2 POP POP JUMP JUMPDEST PUSH1 0x0 DUP1 REVERT JUMPDEST PUSH1 0x0 PUSH1 0x1F NOT PUSH1 0x1F DUP4 ADD AND SWAP1 POP SWAP2 SWAP1 POP JUMP JUMPDEST PUSH32 0x4E487B7100000000000000000000000000000000000000000000000000000000 PUSH1 0x0 MSTORE PUSH1 0x41 PUSH1 0x4 MSTORE PUSH1 0x24 PUSH1 0x0 REVERT JUMPDEST PUSH2 0x7299 DUP3 PUSH2 0x7250 JUMP JUMPDEST DUP2 ADD DUP2 DUP2 LT PUSH8 0xFFFFFFFFFFFFFFFF DUP3 GT OR ISZERO PUSH2 0x72B8 JUMPI PUSH2 0x72B7 PUSH2 0x7261 JUMP JUMPDEST JUMPDEST DUP1 PUSH1 0x40 MSTORE POP POP POP JUMP JUMPDEST PUSH1 0x0 PUSH2 0x72CB PUSH2 0x713B JUMP JUMPDEST SWAP1 POP PUSH2 0x72D7 DUP3 DUP3 PUSH2 0x7290 JUMP JUMPDEST SWAP2 SWAP1 POP JUMP JUMPDEST PUSH1 0x0 PUSH8 0xFFFFFFFFFFFFFFFF DUP3 GT ISZERO PUSH2 0x72F7 JUMPI PUSH2 0x72F6 PUSH2 0x7261 JUMP JUMPDEST JUMPDEST PUSH1 0x20 DUP3 MUL SWAP1 POP PUSH1 0x20 DUP2 ADD SWAP1 POP SWAP2 SWAP1 POP JUMP JUMPDEST PUSH1 0x0 DUP1 REVERT JUMPDEST PUSH1 0x0 PUSH2 0x7320 PUSH2 0x731B DUP5 PUSH2 0x72DC JUMP JUMPDEST PUSH2 0x72C1 JUMP JUMPDEST SWAP1 POP DUP1 DUP4 DUP3 MSTORE PUSH1 0x20 DUP3 ADD SWAP1 POP PUSH1 0x20 DUP5 MUL DUP4 ADD DUP6 DUP2 GT ISZERO PUSH2 0x7343 JUMPI PUSH2 0x7342 PUSH2 0x7308 JUMP JUMPDEST JUMPDEST DUP4 JUMPDEST DUP2 DUP2 LT ISZERO PUSH2 0x736C JUMPI DUP1 PUSH2 0x7358 DUP9 DUP3 PUSH2 0x7198 JUMP JUMPDEST DUP5 MSTORE PUSH1 0x20 DUP5 ADD SWAP4 POP POP PUSH1 0x20 DUP2 ADD SWAP1 POP PUSH2 0x7345 JUMP JUMPDEST POP POP POP SWAP4 SWAP3 POP POP POP JUMP JUMPDEST PUSH1 0x0 DUP3 PUSH1 0x1F DUP4 ADD SLT PUSH2 0x738B JUMPI PUSH2 0x738A PUSH2 0x724B JUMP JUMPDEST JUMPDEST DUP2 CALLDATALOAD PUSH2 0x739B DUP5 DUP3 PUSH1 0x20 DUP7 ADD PUSH2 0x730D JUMP JUMPDEST SWAP2 POP POP SWAP3 SWAP2 POP POP JUMP JUMPDEST PUSH1 0x0 DUP2 ISZERO ISZERO SWAP1 POP SWAP2 SWAP1 POP JUMP JUMPDEST PUSH2 0x73B9 DUP2 PUSH2 0x73A4 JUMP JUMPDEST DUP2 EQ PUSH2 0x73C4 JUMPI PUSH1 0x0 DUP1 REVERT JUMPDEST POP JUMP JUMPDEST PUSH1 0x0 DUP2 CALLDATALOAD SWAP1 POP PUSH2 0x73D6 DUP2 PUSH2 0x73B0 JUMP JUMPDEST SWAP3 SWAP2 POP POP JUMP JUMPDEST PUSH1 0x0 DUP1 PUSH1 0x40 DUP4 DUP6 SUB SLT ISZERO PUSH2 0x73F3 JUMPI PUSH2 0x73F2 PUSH2 0x7145 JUMP JUMPDEST JUMPDEST PUSH1 0x0 DUP4 ADD CALLDATALOAD PUSH8 0xFFFFFFFFFFFFFFFF DUP2 GT ISZERO PUSH2 0x7411 JUMPI PUSH2 0x7410 PUSH2 0x714A JUMP JUMPDEST JUMPDEST PUSH2 0x741D DUP6 DUP3 DUP7 ADD PUSH2 0x7376 JUMP JUMPDEST SWAP3 POP POP PUSH1 0x20 PUSH2 0x742E DUP6 DUP3 DUP7 ADD PUSH2 0x73C7 JUMP JUMPDEST SWAP2 POP POP SWAP3 POP SWAP3 SWAP1 POP JUMP JUMPDEST PUSH1 0x0 PUSH2 0xFFFF DUP3 AND SWAP1 POP SWAP2 SWAP1 POP JUMP JUMPDEST PUSH2 0x744F DUP2 PUSH2 0x7438 JUMP JUMPDEST DUP3 MSTORE POP POP JUMP JUMPDEST PUSH1 0x0 PUSH1 0x60 DUP3 ADD SWAP1 POP PUSH2 0x746A PUSH1 0x0 DUP4 ADD DUP7 PUSH2 0x7446 JUMP JUMPDEST PUSH2 0x7477 PUSH1 0x20 DUP4 ADD DUP6 PUSH2 0x7446 JUMP JUMPDEST PUSH2 0x7484 PUSH1 0x40 DUP4 ADD DUP5 PUSH2 0x7446 JUMP JUMPDEST SWAP5 SWAP4 POP POP POP POP JUMP JUMPDEST PUSH1 0x0 DUP2 MLOAD SWAP1 POP SWAP2 SWAP1 POP JUMP JUMPDEST PUSH1 0x0 DUP3 DUP3 MSTORE PUSH1 0x20 DUP3 ADD SWAP1 POP SWAP3 SWAP2 POP POP JUMP JUMPDEST PUSH1 0x0 JUMPDEST DUP4 DUP2 LT ISZERO PUSH2 0x74C6 JUMPI DUP1 DUP3 ADD MLOAD DUP2 DUP5 ADD MSTORE PUSH1 0x20 DUP2 ADD SWAP1 POP PUSH2 0x74AB JUMP JUMPDEST DUP4 DUP2 GT ISZERO PUSH2 0x74D5 JUMPI PUSH1 0x0 DUP5 DUP5 ADD MSTORE JUMPDEST POP POP POP POP JUMP JUMPDEST PUSH1 0x0 PUSH2 0x74E6 DUP3 PUSH2 0x748C JUMP JUMPDEST PUSH2 0x74F0 DUP2 DUP6 PUSH2 0x7497 JUMP JUMPDEST SWAP4 POP PUSH2 0x7500 DUP2 DUP6 PUSH1 0x20 DUP7 ADD PUSH2 0x74A8 JUMP JUMPDEST PUSH2 0x7509 DUP2 PUSH2 0x7250 JUMP JUMPDEST DUP5 ADD SWAP2 POP POP SWAP3 SWAP2 POP POP JUMP JUMPDEST PUSH1 0x0 PUSH1 0x20 DUP3 ADD SWAP1 POP DUP2 DUP2 SUB PUSH1 0x0 DUP4 ADD MSTORE PUSH2 0x752E DUP2 DUP5 PUSH2 0x74DB JUMP JUMPDEST SWAP1 POP SWAP3 SWAP2 POP POP JUMP JUMPDEST PUSH1 0x0 DUP2 SWAP1 POP SWAP2 SWAP1 POP JUMP JUMPDEST PUSH1 0x0 PUSH2 0x755B PUSH2 0x7556 PUSH2 0x7551 DUP5 PUSH2 0x714F JUMP JUMPDEST PUSH2 0x7536 JUMP JUMPDEST PUSH2 0x714F JUMP JUMPDEST SWAP1 POP SWAP2 SWAP1 POP JUMP JUMPDEST PUSH1 0x0 PUSH2 0x756D DUP3 PUSH2 0x7540 JUMP JUMPDEST SWAP1 POP SWAP2 SWAP1 POP JUMP JUMPDEST PUSH1 0x0 PUSH2 0x757F DUP3 PUSH2 0x7562 JUMP JUMPDEST SWAP1 POP SWAP2 SWAP1 POP JUMP JUMPDEST PUSH2 0x758F DUP2 PUSH2 0x7574 JUMP JUMPDEST DUP3 MSTORE POP POP JUMP JUMPDEST PUSH1 0x0 PUSH1 0x20 DUP3 ADD SWAP1 POP PUSH2 0x75AA PUSH1 0x0 DUP4 ADD DUP5 PUSH2 0x7586 JUMP JUMPDEST SWAP3 SWAP2 POP POP JUMP JUMPDEST PUSH2 0x75B9 DUP2 PUSH2 0x73A4 JUMP JUMPDEST DUP3 MSTORE POP POP JUMP JUMPDEST PUSH1 0x0 PUSH1 0x20 DUP3 ADD SWAP1 POP PUSH2 0x75D4 PUSH1 0x0 DUP4 ADD DUP5 PUSH2 0x75B0 JUMP JUMPDEST SWAP3 SWAP2 POP POP JUMP JUMPDEST PUSH2 0x75E3 DUP2 PUSH2 0x71ED JUMP JUMPDEST DUP2 EQ PUSH2 0x75EE JUMPI PUSH1 0x0 DUP1 REVERT JUMPDEST POP JUMP JUMPDEST PUSH1 0x0 DUP2 CALLDATALOAD SWAP1 POP PUSH2 0x7600 DUP2 PUSH2 0x75DA JUMP JUMPDEST SWAP3 SWAP2 POP POP JUMP JUMPDEST PUSH1 0x0 DUP1 PUSH1 0x40 DUP4 DUP6 SUB SLT ISZERO PUSH2 0x761D JUMPI PUSH2 0x761C PUSH2 0x7145 JUMP JUMPDEST JUMPDEST PUSH1 0x0 PUSH2 0x762B DUP6 DUP3 DUP7 ADD PUSH2 0x7198 JUMP JUMPDEST SWAP3 POP POP PUSH1 0x20 PUSH2 0x763C DUP6 DUP3 DUP7 ADD PUSH2 0x75F1 JUMP JUMPDEST SWAP2 POP POP SWAP3 POP SWAP3 SWAP1 POP JUMP JUMPDEST PUSH1 0x0 PUSH1 0x20 DUP3 DUP5 SUB SLT ISZERO PUSH2 0x765C JUMPI PUSH2 0x765B PUSH2 0x7145 JUMP JUMPDEST JUMPDEST PUSH1 0x0 PUSH2 0x766A DUP5 DUP3 DUP6 ADD PUSH2 0x7198 JUMP JUMPDEST SWAP2 POP POP SWAP3 SWAP2 POP POP JUMP JUMPDEST PUSH1 0x0 DUP1 PUSH1 0x0 PUSH1 0x60 DUP5 DUP7 SUB SLT ISZERO PUSH2 0x768C JUMPI PUSH2 0x768B PUSH2 0x7145 JUMP JUMPDEST JUMPDEST PUSH1 0x0 PUSH2 0x769A DUP7 DUP3 DUP8 ADD PUSH2 0x7198 JUMP JUMPDEST SWAP4 POP POP PUSH1 0x20 PUSH2 0x76AB DUP7 DUP3 DUP8 ADD PUSH2 0x7198 JUMP JUMPDEST SWAP3 POP POP PUSH1 0x40 PUSH2 0x76BC DUP7 DUP3 DUP8 ADD PUSH2 0x75F1 JUMP JUMPDEST SWAP2 POP POP SWAP3 POP SWAP3 POP SWAP3 JUMP JUMPDEST PUSH1 0x0 DUP1 PUSH1 0x40 DUP4 DUP6 SUB SLT ISZERO PUSH2 0x76DD JUMPI PUSH2 0x76DC PUSH2 0x7145 JUMP JUMPDEST JUMPDEST PUSH1 0x0 PUSH2 0x76EB DUP6 DUP3 DUP7 ADD PUSH2 0x75F1 JUMP JUMPDEST SWAP3 POP POP PUSH1 0x20 PUSH2 0x76FC DUP6 DUP3 DUP7 ADD PUSH2 0x75F1 JUMP JUMPDEST SWAP2 POP POP SWAP3 POP SWAP3 SWAP1 POP JUMP JUMPDEST PUSH1 0x0 PUSH1 0x20 DUP3 DUP5 SUB SLT ISZERO PUSH2 0x771C JUMPI PUSH2 0x771B PUSH2 0x7145 JUMP JUMPDEST JUMPDEST PUSH1 0x0 PUSH2 0x772A DUP5 DUP3 DUP6 ADD PUSH2 0x75F1 JUMP JUMPDEST SWAP2 POP POP SWAP3 SWAP2 POP POP JUMP JUMPDEST PUSH1 0x0 PUSH1 0xFF DUP3 AND SWAP1 POP SWAP2 SWAP1 POP JUMP JUMPDEST PUSH2 0x7749 DUP2 PUSH2 0x7733 JUMP JUMPDEST DUP3 MSTORE POP POP JUMP JUMPDEST PUSH1 0x0 PUSH1 0x20 DUP3 ADD SWAP1 POP PUSH2 0x7764 PUSH1 0x0 DUP4 ADD DUP5 PUSH2 0x7740 JUMP JUMPDEST SWAP3 SWAP2 POP POP JUMP JUMPDEST PUSH2 0x7773 DUP2 PUSH2 0x7438 JUMP JUMPDEST DUP2 EQ PUSH2 0x777E JUMPI PUSH1 0x0 DUP1 REVERT JUMPDEST POP JUMP JUMPDEST PUSH1 0x0 DUP2 CALLDATALOAD SWAP1 POP PUSH2 0x7790 DUP2 PUSH2 0x776A JUMP JUMPDEST SWAP3 SWAP2 POP POP JUMP JUMPDEST PUSH1 0x0 DUP1 PUSH1 0x0 PUSH1 0x60 DUP5 DUP7 SUB SLT ISZERO PUSH2 0x77AF JUMPI PUSH2 0x77AE PUSH2 0x7145 JUMP JUMPDEST JUMPDEST PUSH1 0x0 PUSH2 0x77BD DUP7 DUP3 DUP8 ADD PUSH2 0x7781 JUMP JUMPDEST SWAP4 POP POP PUSH1 0x20 PUSH2 0x77CE DUP7 DUP3 DUP8 ADD PUSH2 0x7781 JUMP JUMPDEST SWAP3 POP POP PUSH1 0x40 PUSH2 0x77DF DUP7 DUP3 DUP8 ADD PUSH2 0x7781 JUMP JUMPDEST SWAP2 POP POP SWAP3 POP SWAP3 POP SWAP3 JUMP JUMPDEST PUSH1 0x0 DUP1 PUSH1 0x40 DUP4 DUP6 SUB SLT ISZERO PUSH2 0x7800 JUMPI PUSH2 0x77FF PUSH2 0x7145 JUMP JUMPDEST JUMPDEST PUSH1 0x0 PUSH2 0x780E DUP6 DUP3 DUP7 ADD PUSH2 0x7198 JUMP JUMPDEST SWAP3 POP POP PUSH1 0x20 PUSH2 0x781F DUP6 DUP3 DUP7 ADD PUSH2 0x73C7 JUMP JUMPDEST SWAP2 POP POP SWAP3 POP SWAP3 SWAP1 POP JUMP JUMPDEST PUSH1 0x0 PUSH8 0xFFFFFFFFFFFFFFFF DUP3 GT ISZERO PUSH2 0x7844 JUMPI PUSH2 0x7843 PUSH2 0x7261 JUMP JUMPDEST JUMPDEST PUSH1 0x20 DUP3 MUL SWAP1 POP PUSH1 0x20 DUP2 ADD SWAP1 POP SWAP2 SWAP1 POP JUMP JUMPDEST PUSH1 0x0 PUSH2 0x7868 PUSH2 0x7863 DUP5 PUSH2 0x7829 JUMP JUMPDEST PUSH2 0x72C1 JUMP JUMPDEST SWAP1 POP DUP1 DUP4 DUP3 MSTORE PUSH1 0x20 DUP3 ADD SWAP1 POP PUSH1 0x20 DUP5 MUL DUP4 ADD DUP6 DUP2 GT ISZERO PUSH2 0x788B JUMPI PUSH2 0x788A PUSH2 0x7308 JUMP JUMPDEST JUMPDEST DUP4 JUMPDEST DUP2 DUP2 LT ISZERO PUSH2 0x78B4 JUMPI DUP1 PUSH2 0x78A0 DUP9 DUP3 PUSH2 0x75F1 JUMP JUMPDEST DUP5 MSTORE PUSH1 0x20 DUP5 ADD SWAP4 POP POP PUSH1 0x20 DUP2 ADD SWAP1 POP PUSH2 0x788D JUMP JUMPDEST POP POP POP SWAP4 SWAP3 POP POP POP JUMP JUMPDEST PUSH1 0x0 DUP3 PUSH1 0x1F DUP4 ADD SLT PUSH2 0x78D3 JUMPI PUSH2 0x78D2 PUSH2 0x724B JUMP JUMPDEST JUMPDEST DUP2 CALLDATALOAD PUSH2 0x78E3 DUP5 DUP3 PUSH1 0x20 DUP7 ADD PUSH2 0x7855 JUMP JUMPDEST SWAP2 POP POP SWAP3 SWAP2 POP POP JUMP JUMPDEST PUSH1 0x0 DUP1 PUSH1 0x40 DUP4 DUP6 SUB SLT ISZERO PUSH2 0x7903 JUMPI PUSH2 0x7902 PUSH2 0x7145 JUMP JUMPDEST JUMPDEST PUSH1 0x0 DUP4 ADD CALLDATALOAD PUSH8 0xFFFFFFFFFFFFFFFF DUP2 GT ISZERO PUSH2 0x7921 JUMPI PUSH2 0x7920 PUSH2 0x714A JUMP JUMPDEST JUMPDEST PUSH2 0x792D DUP6 DUP3 DUP7 ADD PUSH2 0x7376 JUMP JUMPDEST SWAP3 POP POP PUSH1 0x20 DUP4 ADD CALLDATALOAD PUSH8 0xFFFFFFFFFFFFFFFF DUP2 GT ISZERO PUSH2 0x794E JUMPI PUSH2 0x794D PUSH2 0x714A JUMP JUMPDEST JUMPDEST PUSH2 0x795A DUP6 DUP3 DUP7 ADD PUSH2 0x78BE JUMP JUMPDEST SWAP2 POP POP SWAP3 POP SWAP3 SWAP1 POP JUMP JUMPDEST PUSH1 0x0 PUSH2 0x796F DUP3 PUSH2 0x714F JUMP JUMPDEST SWAP1 POP SWAP2 SWAP1 POP JUMP JUMPDEST PUSH2 0x797F DUP2 PUSH2 0x7964 JUMP JUMPDEST DUP2 EQ PUSH2 0x798A JUMPI PUSH1 0x0 DUP1 REVERT JUMPDEST POP JUMP JUMPDEST PUSH1 0x0 DUP2 CALLDATALOAD SWAP1 POP PUSH2 0x799C DUP2 PUSH2 0x7976 JUMP JUMPDEST SWAP3 SWAP2 POP POP JUMP JUMPDEST PUSH1 0x0 DUP1 PUSH1 0x0 DUP1 PUSH1 0x80 DUP6 DUP8 SUB SLT ISZERO PUSH2 0x79BC JUMPI PUSH2 0x79BB PUSH2 0x7145 JUMP JUMPDEST JUMPDEST PUSH1 0x0 PUSH2 0x79CA DUP8 DUP3 DUP9 ADD PUSH2 0x798D JUMP JUMPDEST SWAP5 POP POP PUSH1 0x20 PUSH2 0x79DB DUP8 DUP3 DUP9 ADD PUSH2 0x798D JUMP JUMPDEST SWAP4 POP POP PUSH1 0x40 PUSH2 0x79EC DUP8 DUP3 DUP9 ADD PUSH2 0x798D JUMP JUMPDEST SWAP3 POP POP PUSH1 0x60 PUSH2 0x79FD DUP8 DUP3 DUP9 ADD PUSH2 0x798D JUMP JUMPDEST SWAP2 POP POP SWAP3 SWAP6 SWAP2 SWAP5 POP SWAP3 POP JUMP JUMPDEST PUSH1 0x0 DUP1 PUSH1 0x40 DUP4 DUP6 SUB SLT ISZERO PUSH2 0x7A20 JUMPI PUSH2 0x7A1F PUSH2 0x7145 JUMP JUMPDEST JUMPDEST PUSH1 0x0 PUSH2 0x7A2E DUP6 DUP3 DUP7 ADD PUSH2 0x73C7 JUMP JUMPDEST SWAP3 POP POP PUSH1 0x20 PUSH2 0x7A3F DUP6 DUP3 DUP7 ADD PUSH2 0x73C7 JUMP JUMPDEST SWAP2 POP POP SWAP3 POP SWAP3 SWAP1 POP JUMP JUMPDEST PUSH1 0x0 PUSH1 0xE0 DUP3 ADD SWAP1 POP PUSH2 0x7A5E PUSH1 0x0 DUP4 ADD DUP11 PUSH2 0x7446 JUMP JUMPDEST PUSH2 0x7A6B PUSH1 0x20 DUP4 ADD DUP10 PUSH2 0x7446 JUMP JUMPDEST PUSH2 0x7A78 PUSH1 0x40 DUP4 ADD DUP9 PUSH2 0x7446 JUMP JUMPDEST PUSH2 0x7A85 PUSH1 0x60 DUP4 ADD DUP8 PUSH2 0x7446 JUMP JUMPDEST PUSH2 0x7A92 PUSH1 0x80 DUP4 ADD DUP7 PUSH2 0x7446 JUMP JUMPDEST PUSH2 0x7A9F PUSH1 0xA0 DUP4 ADD DUP6 PUSH2 0x7446 JUMP JUMPDEST PUSH2 0x7AAC PUSH1 0xC0 DUP4 ADD DUP5 PUSH2 0x7446 JUMP JUMPDEST SWAP9 SWAP8 POP POP POP POP POP POP POP POP JUMP JUMPDEST PUSH1 0x0 DUP1 PUSH1 0x0 DUP1 PUSH1 0x0 DUP1 PUSH1 0xC0 DUP8 DUP10 SUB SLT ISZERO PUSH2 0x7AD5 JUMPI PUSH2 0x7AD4 PUSH2 0x7145 JUMP JUMPDEST JUMPDEST PUSH1 0x0 PUSH2 0x7AE3 DUP10 DUP3 DUP11 ADD PUSH2 0x7781 JUMP JUMPDEST SWAP7 POP POP PUSH1 0x20 PUSH2 0x7AF4 DUP10 DUP3 DUP11 ADD PUSH2 0x7781 JUMP JUMPDEST SWAP6 POP POP PUSH1 0x40 PUSH2 0x7B05 DUP10 DUP3 DUP11 ADD PUSH2 0x7781 JUMP JUMPDEST SWAP5 POP POP PUSH1 0x60 PUSH2 0x7B16 DUP10 DUP3 DUP11 ADD PUSH2 0x7781 JUMP JUMPDEST SWAP4 POP POP PUSH1 0x80 PUSH2 0x7B27 DUP10 DUP3 DUP11 ADD PUSH2 0x7781 JUMP JUMPDEST SWAP3 POP POP PUSH1 0xA0 PUSH2 0x7B38 DUP10 DUP3 DUP11 ADD PUSH2 0x7781 JUMP JUMPDEST SWAP2 POP POP SWAP3 SWAP6 POP SWAP3 SWAP6 POP SWAP3 SWAP6 JUMP JUMPDEST PUSH2 0x7B4E DUP2 PUSH2 0x7964 JUMP JUMPDEST DUP3 MSTORE POP POP JUMP JUMPDEST PUSH1 0x0 PUSH1 0x80 DUP3 ADD SWAP1 POP PUSH2 0x7B69 PUSH1 0x0 DUP4 ADD DUP8 PUSH2 0x7B45 JUMP JUMPDEST PUSH2 0x7B76 PUSH1 0x20 DUP4 ADD DUP7 PUSH2 0x7B45 JUMP JUMPDEST PUSH2 0x7B83 PUSH1 0x40 DUP4 ADD DUP6 PUSH2 0x7B45 JUMP JUMPDEST PUSH2 0x7B90 PUSH1 0x60 DUP4 ADD DUP5 PUSH2 0x7B45 JUMP JUMPDEST SWAP6 SWAP5 POP POP POP POP POP JUMP JUMPDEST PUSH1 0x0 DUP1 PUSH1 0x0 DUP1 PUSH1 0x80 DUP6 DUP8 SUB SLT ISZERO PUSH2 0x7BB3 JUMPI PUSH2 0x7BB2 PUSH2 0x7145 JUMP JUMPDEST JUMPDEST PUSH1 0x0 PUSH2 0x7BC1 DUP8 DUP3 DUP9 ADD PUSH2 0x75F1 JUMP JUMPDEST SWAP5 POP POP PUSH1 0x20 PUSH2 0x7BD2 DUP8 DUP3 DUP9 ADD PUSH2 0x75F1 JUMP JUMPDEST SWAP4 POP POP PUSH1 0x40 PUSH2 0x7BE3 DUP8 DUP3 DUP9 ADD PUSH2 0x75F1 JUMP JUMPDEST SWAP3 POP POP PUSH1 0x60 PUSH2 0x7BF4 DUP8 DUP3 DUP9 ADD PUSH2 0x75F1 JUMP JUMPDEST SWAP2 POP POP SWAP3 SWAP6 SWAP2 SWAP5 POP SWAP3 POP JUMP JUMPDEST PUSH32 0x43616C6C6572206973206E6F74206F776E65722E000000000000000000000000 PUSH1 0x0 DUP3 ADD MSTORE POP JUMP JUMPDEST PUSH1 0x0 PUSH2 0x7C36 PUSH1 0x14 DUP4 PUSH2 0x7497 JUMP JUMPDEST SWAP2 POP PUSH2 0x7C41 DUP3 PUSH2 0x7C00 JUMP JUMPDEST PUSH1 0x20 DUP3 ADD SWAP1 POP SWAP2 SWAP1 POP JUMP JUMPDEST PUSH1 0x0 PUSH1 0x20 DUP3 ADD SWAP1 POP DUP2 DUP2 SUB PUSH1 0x0 DUP4 ADD MSTORE PUSH2 0x7C65 DUP2 PUSH2 0x7C29 JUMP JUMPDEST SWAP1 POP SWAP2 SWAP1 POP JUMP JUMPDEST PUSH32 0x4E487B7100000000000000000000000000000000000000000000000000000000 PUSH1 0x0 MSTORE PUSH1 0x32 PUSH1 0x4 MSTORE PUSH1 0x24 PUSH1 0x0 REVERT JUMPDEST PUSH32 0x4E487B7100000000000000000000000000000000000000000000000000000000 PUSH1 0x0 MSTORE PUSH1 0x11 PUSH1 0x4 MSTORE PUSH1 0x24 PUSH1 0x0 REVERT JUMPDEST PUSH1 0x0 PUSH2 0x7CD5 DUP3 PUSH2 0x7438 JUMP JUMPDEST SWAP2 POP PUSH2 0xFFFF DUP3 SUB PUSH2 0x7CE9 JUMPI PUSH2 0x7CE8 PUSH2 0x7C9B JUMP JUMPDEST JUMPDEST PUSH1 0x1 DUP3 ADD SWAP1 POP SWAP2 SWAP1 POP JUMP JUMPDEST PUSH1 0x0 DUP2 PUSH1 0x1 SHR SWAP1 POP SWAP2 SWAP1 POP JUMP JUMPDEST PUSH1 0x0 DUP1 DUP3 SWAP2 POP DUP4 SWAP1 POP JUMPDEST PUSH1 0x1 DUP6 GT ISZERO PUSH2 0x7D4B JUMPI DUP1 DUP7 DIV DUP2 GT ISZERO PUSH2 0x7D27 JUMPI PUSH2 0x7D26 PUSH2 0x7C9B JUMP JUMPDEST JUMPDEST PUSH1 0x1 DUP6 AND ISZERO PUSH2 0x7D36 JUMPI DUP1 DUP3 MUL SWAP2 POP JUMPDEST DUP1 DUP2 MUL SWAP1 POP PUSH2 0x7D44 DUP6 PUSH2 0x7CF4 JUMP JUMPDEST SWAP5 POP PUSH2 0x7D0B JUMP JUMPDEST SWAP5 POP SWAP5 SWAP3 POP POP POP JUMP JUMPDEST PUSH1 0x0 DUP3 PUSH2 0x7D64 JUMPI PUSH1 0x1 SWAP1 POP PUSH2 0x7E20 JUMP JUMPDEST DUP2 PUSH2 0x7D72 JUMPI PUSH1 0x0 SWAP1 POP PUSH2 0x7E20 JUMP JUMPDEST DUP2 PUSH1 0x1 DUP2 EQ PUSH2 0x7D88 JUMPI PUSH1 0x2 DUP2 EQ PUSH2 0x7D92 JUMPI PUSH2 0x7DC1 JUMP JUMPDEST PUSH1 0x1 SWAP2 POP POP PUSH2 0x7E20 JUMP JUMPDEST PUSH1 0xFF DUP5 GT ISZERO PUSH2 0x7DA4 JUMPI PUSH2 0x7DA3 PUSH2 0x7C9B JUMP JUMPDEST JUMPDEST DUP4 PUSH1 0x2 EXP SWAP2 POP DUP5 DUP3 GT ISZERO PUSH2 0x7DBB JUMPI PUSH2 0x7DBA PUSH2 0x7C9B JUMP JUMPDEST JUMPDEST POP PUSH2 0x7E20 JUMP JUMPDEST POP PUSH1 0x20 DUP4 LT PUSH2 0x133 DUP4 LT AND PUSH1 0x4E DUP5 LT PUSH1 0xB DUP5 LT AND OR ISZERO PUSH2 0x7DF6 JUMPI DUP3 DUP3 EXP SWAP1 POP DUP4 DUP2 GT ISZERO PUSH2 0x7DF1 JUMPI PUSH2 0x7DF0 PUSH2 0x7C9B JUMP JUMPDEST JUMPDEST PUSH2 0x7E20 JUMP JUMPDEST PUSH2 0x7E03 DUP5 DUP5 DUP5 PUSH1 0x1 PUSH2 0x7D01 JUMP JUMPDEST SWAP3 POP SWAP1 POP DUP2 DUP5 DIV DUP2 GT ISZERO PUSH2 0x7E1A JUMPI PUSH2 0x7E19 PUSH2 0x7C9B JUMP JUMPDEST JUMPDEST DUP2 DUP2 MUL SWAP1 POP JUMPDEST SWAP4 SWAP3 POP POP POP JUMP JUMPDEST PUSH1 0x0 PUSH2 0x7E32 DUP3 PUSH2 0x71ED JUMP JUMPDEST SWAP2 POP PUSH2 0x7E3D DUP4 PUSH2 0x7733 JUMP JUMPDEST SWAP3 POP PUSH2 0x7E6A PUSH32 0xFFFFFFFFFFFFFFFFFFFFFFFFFFFFFFFFFFFFFFFFFFFFFFFFFFFFFFFFFFFFFFFF DUP5 DUP5 PUSH2 0x7D54 JUMP JUMPDEST SWAP1 POP SWAP3 SWAP2 POP POP JUMP JUMPDEST PUSH32 0x4E487B7100000000000000000000000000000000000000000000000000000000 PUSH1 0x0 MSTORE PUSH1 0x12 PUSH1 0x4 MSTORE PUSH1 0x24 PUSH1 0x0 REVERT JUMPDEST PUSH1 0x0 PUSH2 0x7EAC DUP3 PUSH2 0x71ED JUMP JUMPDEST SWAP2 POP PUSH2 0x7EB7 DUP4 PUSH2 0x71ED JUMP JUMPDEST SWAP3 POP DUP3 PUSH2 0x7EC7 JUMPI PUSH2 0x7EC6 PUSH2 0x7E72 JUMP JUMPDEST JUMPDEST DUP3 DUP3 DIV SWAP1 POP SWAP3 SWAP2 POP POP JUMP JUMPDEST PUSH1 0x0 PUSH2 0x7EDD DUP3 PUSH2 0x71ED JUMP JUMPDEST SWAP2 POP PUSH2 0x7EE8 DUP4 PUSH2 0x71ED JUMP JUMPDEST SWAP3 POP DUP2 PUSH32 0xFFFFFFFFFFFFFFFFFFFFFFFFFFFFFFFFFFFFFFFFFFFFFFFFFFFFFFFFFFFFFFFF DIV DUP4 GT DUP3 ISZERO ISZERO AND ISZERO PUSH2 0x7F21 JUMPI PUSH2 0x7F20 PUSH2 0x7C9B JUMP JUMPDEST JUMPDEST DUP3 DUP3 MUL SWAP1 POP SWAP3 SWAP2 POP POP JUMP JUMPDEST PUSH1 0x0 PUSH2 0x7F37 DUP3 PUSH2 0x71ED JUMP JUMPDEST SWAP2 POP PUSH2 0x7F42 DUP4 PUSH2 0x71ED JUMP JUMPDEST SWAP3 POP DUP3 DUP3 LT ISZERO PUSH2 0x7F55 JUMPI PUSH2 0x7F54 PUSH2 0x7C9B JUMP JUMPDEST JUMPDEST DUP3 DUP3 SUB SWAP1 POP SWAP3 SWAP2 POP POP JUMP JUMPDEST PUSH32 0x4D61782057616C6C657420616D74206D7573742062652061626F766520312520 PUSH1 0x0 DUP3 ADD MSTORE PUSH32 0x6F6620746F74616C20737570706C792E00000000000000000000000000000000 PUSH1 0x20 DUP3 ADD MSTORE POP JUMP JUMPDEST PUSH1 0x0 PUSH2 0x7FBC PUSH1 0x30 DUP4 PUSH2 0x7497 JUMP JUMPDEST SWAP2 POP PUSH2 0x7FC7 DUP3 PUSH2 0x7F60 JUMP JUMPDEST PUSH1 0x40 DUP3 ADD SWAP1 POP SWAP2 SWAP1 POP JUMP JUMPDEST PUSH1 0x0 PUSH1 0x20 DUP3 ADD SWAP1 POP DUP2 DUP2 SUB PUSH1 0x0 DUP4 ADD MSTORE PUSH2 0x7FEB DUP2 PUSH2 0x7FAF JUMP JUMPDEST SWAP1 POP SWAP2 SWAP1 POP JUMP JUMPDEST PUSH1 0x0 PUSH1 0x40 DUP3 ADD SWAP1 POP PUSH2 0x8007 PUSH1 0x0 DUP4 ADD DUP6 PUSH2 0x71F7 JUMP JUMPDEST PUSH2 0x8014 PUSH1 0x20 DUP4 ADD DUP5 PUSH2 0x71F7 JUMP JUMPDEST SWAP4 SWAP3 POP POP POP JUMP JUMPDEST PUSH1 0x0 PUSH2 0x8026 DUP3 PUSH2 0x71ED JUMP JUMPDEST SWAP2 POP PUSH2 0x8031 DUP4 PUSH2 0x71ED JUMP JUMPDEST SWAP3 POP DUP3 PUSH32 0xFFFFFFFFFFFFFFFFFFFFFFFFFFFFFFFFFFFFFFFFFFFFFFFFFFFFFFFFFFFFFFFF SUB DUP3 GT ISZERO PUSH2 0x8066 JUMPI PUSH2 0x8065 PUSH2 0x7C9B JUMP JUMPDEST JUMPDEST DUP3 DUP3 ADD SWAP1 POP SWAP3 SWAP2 POP POP JUMP JUMPDEST PUSH32 0x416D6F756E74206D757374206265206C657373207468616E20746F74616C2072 PUSH1 0x0 DUP3 ADD MSTORE PUSH32 0x65666C656374696F6E7300000000000000000000000000000000000000000000 PUSH1 0x20 DUP3 ADD MSTORE POP JUMP JUMPDEST PUSH1 0x0 PUSH2 0x80CD PUSH1 0x2A DUP4 PUSH2 0x7497 JUMP JUMPDEST SWAP2 POP PUSH2 0x80D8 DUP3 PUSH2 0x8071 JUMP JUMPDEST PUSH1 0x40 DUP3 ADD SWAP1 POP SWAP2 SWAP1 POP JUMP JUMPDEST PUSH1 0x0 PUSH1 0x20 DUP3 ADD SWAP1 POP DUP2 DUP2 SUB PUSH1 0x0 DUP4 ADD MSTORE PUSH2 0x80FC DUP2 PUSH2 0x80C0 JUMP JUMPDEST SWAP1 POP SWAP2 SWAP1 POP JUMP JUMPDEST PUSH32 0x546178657320617265206C6F636B65642E000000000000000000000000000000 PUSH1 0x0 DUP3 ADD MSTORE POP JUMP JUMPDEST PUSH1 0x0 PUSH2 0x8139 PUSH1 0x11 DUP4 PUSH2 0x7497 JUMP JUMPDEST SWAP2 POP PUSH2 0x8144 DUP3 PUSH2 0x8103 JUMP JUMPDEST PUSH1 0x20 DUP3 ADD SWAP1 POP SWAP2 SWAP1 POP JUMP JUMPDEST PUSH1 0x0 PUSH1 0x20 DUP3 ADD SWAP1 POP DUP2 DUP2 SUB PUSH1 0x0 DUP4 ADD MSTORE PUSH2 0x8168 DUP2 PUSH2 0x812C JUMP JUMPDEST SWAP1 POP SWAP2 SWAP1 POP JUMP JUMPDEST PUSH32 0x43616E6E6F7420657863656564206D6178696D756D732E000000000000000000 PUSH1 0x0 DUP3 ADD MSTORE POP JUMP JUMPDEST PUSH1 0x0 PUSH2 0x81A5 PUSH1 0x17 DUP4 PUSH2 0x7497 JUMP JUMPDEST SWAP2 POP PUSH2 0x81B0 DUP3 PUSH2 0x816F JUMP JUMPDEST PUSH1 0x20 DUP3 ADD SWAP1 POP SWAP2 SWAP1 POP JUMP JUMPDEST PUSH1 0x0 PUSH1 0x20 DUP3 ADD SWAP1 POP DUP2 DUP2 SUB PUSH1 0x0 DUP4 ADD MSTORE PUSH2 0x81D4 DUP2 PUSH2 0x8198 JUMP JUMPDEST SWAP1 POP SWAP2 SWAP1 POP JUMP JUMPDEST PUSH1 0x0 PUSH1 0x40 DUP3 ADD SWAP1 POP PUSH2 0x81F0 PUSH1 0x0 DUP4 ADD DUP6 PUSH2 0x7221 JUMP JUMPDEST PUSH2 0x81FD PUSH1 0x20 DUP4 ADD DUP5 PUSH2 0x75B0 JUMP JUMPDEST SWAP4 SWAP3 POP POP POP JUMP JUMPDEST PUSH32 0x4D6178205472616E73616374696F6E20616D74206D7573742062652061626F76 PUSH1 0x0 DUP3 ADD MSTORE PUSH32 0x6520302E3525206F6620746F74616C20737570706C792E000000000000000000 PUSH1 0x20 DUP3 ADD MSTORE POP JUMP JUMPDEST PUSH1 0x0 PUSH2 0x8260 PUSH1 0x37 DUP4 PUSH2 0x7497 JUMP JUMPDEST SWAP2 POP PUSH2 0x826B DUP3 PUSH2 0x8204 JUMP JUMPDEST PUSH1 0x40 DUP3 ADD SWAP1 POP SWAP2 SWAP1 POP JUMP JUMPDEST PUSH1 0x0 PUSH1 0x20 DUP3 ADD SWAP1 POP DUP2 DUP2 SUB PUSH1 0x0 DUP4 ADD MSTORE PUSH2 0x828F DUP2 PUSH2 0x8253 JUMP JUMPDEST SWAP1 POP SWAP2 SWAP1 POP JUMP JUMPDEST PUSH32 0x4C656E6774687320646F206E6F74206D617463682E0000000000000000000000 PUSH1 0x0 DUP3 ADD MSTORE POP JUMP JUMPDEST PUSH1 0x0 PUSH2 0x82CC PUSH1 0x15 DUP4 PUSH2 0x7497 JUMP JUMPDEST SWAP2 POP PUSH2 0x82D7 DUP3 PUSH2 0x8296 JUMP JUMPDEST PUSH1 0x20 DUP3 ADD SWAP1 POP SWAP2 SWAP1 POP JUMP JUMPDEST PUSH1 0x0 PUSH1 0x20 DUP3 ADD SWAP1 POP DUP2 DUP2 SUB PUSH1 0x0 DUP4 ADD MSTORE PUSH2 0x82FB DUP2 PUSH2 0x82BF JUMP JUMPDEST SWAP1 POP SWAP2 SWAP1 POP JUMP JUMPDEST PUSH32 0x4E6F7420656E6F75676820746F6B656E732E0000000000000000000000000000 PUSH1 0x0 DUP3 ADD MSTORE POP JUMP JUMPDEST PUSH1 0x0 PUSH2 0x8338 PUSH1 0x12 DUP4 PUSH2 0x7497 JUMP JUMPDEST SWAP2 POP PUSH2 0x8343 DUP3 PUSH2 0x8302 JUMP JUMPDEST PUSH1 0x20 DUP3 ADD SWAP1 POP SWAP2 SWAP1 POP JUMP JUMPDEST PUSH1 0x0 PUSH1 0x20 DUP3 ADD SWAP1 POP DUP2 DUP2 SUB PUSH1 0x0 DUP4 ADD MSTORE PUSH2 0x8367 DUP2 PUSH2 0x832B JUMP JUMPDEST SWAP1 POP SWAP2 SWAP1 POP JUMP JUMPDEST PUSH32 0x43616E6E6F74207365742061626F766520312E35252E00000000000000000000 PUSH1 0x0 DUP3 ADD MSTORE POP JUMP JUMPDEST PUSH1 0x0 PUSH2 0x83A4 PUSH1 0x16 DUP4 PUSH2 0x7497 JUMP JUMPDEST SWAP2 POP PUSH2 0x83AF DUP3 PUSH2 0x836E JUMP JUMPDEST PUSH1 0x20 DUP3 ADD SWAP1 POP SWAP2 SWAP1 POP JUMP JUMPDEST PUSH1 0x0 PUSH1 0x20 DUP3 ADD SWAP1 POP DUP2 DUP2 SUB PUSH1 0x0 DUP4 ADD MSTORE PUSH2 0x83D3 DUP2 PUSH2 0x8397 JUMP JUMPDEST SWAP1 POP SWAP2 SWAP1 POP JUMP JUMPDEST PUSH32 0x43616E206E6F74207472616E73666572206F776E65727368697020746F207468 PUSH1 0x0 DUP3 ADD MSTORE PUSH32 0x6573652061646472657373657300000000000000000000000000000000000000 PUSH1 0x20 DUP3 ADD MSTORE POP JUMP JUMPDEST PUSH1 0x0 PUSH2 0x8436 PUSH1 0x2D DUP4 PUSH2 0x7497 JUMP JUMPDEST SWAP2 POP PUSH2 0x8441 DUP3 PUSH2 0x83DA JUMP JUMPDEST PUSH1 0x40 DUP3 ADD SWAP1 POP SWAP2 SWAP1 POP JUMP JUMPDEST PUSH1 0x0 PUSH1 0x20 DUP3 ADD SWAP1 POP DUP2 DUP2 SUB PUSH1 0x0 DUP4 ADD MSTORE PUSH2 0x8465 DUP2 PUSH2 0x8429 JUMP JUMPDEST SWAP1 POP SWAP2 SWAP1 POP JUMP JUMPDEST PUSH32 0x43616E6E6F74206265207A65726F20616464726573732E000000000000000000 PUSH1 0x0 DUP3 ADD MSTORE POP JUMP JUMPDEST PUSH1 0x0 PUSH2 0x84A2 PUSH1 0x17 DUP4 PUSH2 0x7497 JUMP JUMPDEST SWAP2 POP PUSH2 0x84AD DUP3 PUSH2 0x846C JUMP JUMPDEST PUSH1 0x20 DUP3 ADD SWAP1 POP SWAP2 SWAP1 POP JUMP JUMPDEST PUSH1 0x0 PUSH1 0x20 DUP3 ADD SWAP1 POP DUP2 DUP2 SUB PUSH1 0x0 DUP4 ADD MSTORE PUSH2 0x84D1 DUP2 PUSH2 0x8495 JUMP JUMPDEST SWAP1 POP SWAP2 SWAP1 POP JUMP JUMPDEST PUSH1 0x0 PUSH2 0x84E3 DUP3 PUSH2 0x7562 JUMP JUMPDEST SWAP1 POP SWAP2 SWAP1 POP JUMP JUMPDEST PUSH2 0x84F3 DUP2 PUSH2 0x84D8 JUMP JUMPDEST DUP3 MSTORE POP POP JUMP JUMPDEST PUSH1 0x0 PUSH1 0x80 DUP3 ADD SWAP1 POP PUSH2 0x850E PUSH1 0x0 DUP4 ADD DUP8 PUSH2 0x84EA JUMP JUMPDEST PUSH2 0x851B PUSH1 0x20 DUP4 ADD DUP7 PUSH2 0x84EA JUMP JUMPDEST PUSH2 0x8528 PUSH1 0x40 DUP4 ADD DUP6 PUSH2 0x84EA JUMP JUMPDEST PUSH2 0x8535 PUSH1 0x60 DUP4 ADD DUP5 PUSH2 0x84EA JUMP JUMPDEST SWAP6 SWAP5 POP POP POP POP POP JUMP JUMPDEST PUSH32 0x54726164696E6720616C726561647920656E61626C6564210000000000000000 PUSH1 0x0 DUP3 ADD MSTORE POP JUMP JUMPDEST PUSH1 0x0 PUSH2 0x8574 PUSH1 0x18 DUP4 PUSH2 0x7497 JUMP JUMPDEST SWAP2 POP PUSH2 0x857F DUP3 PUSH2 0x853E JUMP JUMPDEST PUSH1 0x20 DUP3 ADD SWAP1 POP SWAP2 SWAP1 POP JUMP JUMPDEST PUSH1 0x0 PUSH1 0x20 DUP3 ADD SWAP1 POP DUP2 DUP2 SUB PUSH1 0x0 DUP4 ADD MSTORE PUSH2 0x85A3 DUP2 PUSH2 0x8567 JUMP JUMPDEST SWAP1 POP SWAP2 SWAP1 POP JUMP JUMPDEST PUSH32 0x4C6971756964697479206D7573742062652061646465642E0000000000000000 PUSH1 0x0 DUP3 ADD MSTORE POP JUMP JUMPDEST PUSH1 0x0 PUSH2 0x85E0 PUSH1 0x18 DUP4 PUSH2 0x7497 JUMP JUMPDEST SWAP2 POP PUSH2 0x85EB DUP3 PUSH2 0x85AA JUMP JUMPDEST PUSH1 0x20 DUP3 ADD SWAP1 POP SWAP2 SWAP1 POP JUMP JUMPDEST PUSH1 0x0 PUSH1 0x20 DUP3 ADD SWAP1 POP DUP2 DUP2 SUB PUSH1 0x0 DUP4 ADD MSTORE PUSH2 0x860F DUP2 PUSH2 0x85D3 JUMP JUMPDEST SWAP1 POP SWAP2 SWAP1 POP JUMP JUMPDEST PUSH32 0x4E487B7100000000000000000000000000000000000000000000000000000000 PUSH1 0x0 MSTORE PUSH1 0x31 PUSH1 0x4 MSTORE PUSH1 0x24 PUSH1 0x0 REVERT JUMPDEST PUSH1 0x0 PUSH2 0x8650 DUP3 PUSH2 0x71ED JUMP JUMPDEST SWAP2 POP PUSH32 0xFFFFFFFFFFFFFFFFFFFFFFFFFFFFFFFFFFFFFFFFFFFFFFFFFFFFFFFFFFFFFFFF DUP3 SUB PUSH2 0x8682 JUMPI PUSH2 0x8681 PUSH2 0x7C9B JUMP JUMPDEST JUMPDEST PUSH1 0x1 DUP3 ADD SWAP1 POP SWAP2 SWAP1 POP JUMP JUMPDEST PUSH32 0x4A75737420646F6E27742E000000000000000000000000000000000000000000 PUSH1 0x0 DUP3 ADD MSTORE POP JUMP JUMPDEST PUSH1 0x0 PUSH2 0x86C3 PUSH1 0xB DUP4 PUSH2 0x7497 JUMP JUMPDEST SWAP2 POP PUSH2 0x86CE DUP3 PUSH2 0x868D JUMP JUMPDEST PUSH1 0x20 DUP3 ADD SWAP1 POP SWAP2 SWAP1 POP JUMP JUMPDEST PUSH1 0x0 PUSH1 0x20 DUP3 ADD SWAP1 POP DUP2 DUP2 SUB PUSH1 0x0 DUP4 ADD MSTORE PUSH2 0x86F2 DUP2 PUSH2 0x86B6 JUMP JUMPDEST SWAP1 POP SWAP2 SWAP1 POP JUMP JUMPDEST PUSH1 0x0 PUSH2 0x8704 DUP3 PUSH2 0x7438 JUMP JUMPDEST SWAP2 POP PUSH2 0x870F DUP4 PUSH2 0x7438 JUMP JUMPDEST SWAP3 POP DUP3 PUSH2 0xFFFF SUB DUP3 GT ISZERO PUSH2 0x8726 JUMPI PUSH2 0x8725 PUSH2 0x7C9B JUMP JUMPDEST JUMPDEST DUP3 DUP3 ADD SWAP1 POP SWAP3 SWAP2 POP POP JUMP JUMPDEST PUSH32 0x43616E6E6F74206578636565642073756D206F662062757920616E642073656C PUSH1 0x0 DUP3 ADD MSTORE PUSH32 0x6C20666565732E00000000000000000000000000000000000000000000000000 PUSH1 0x20 DUP3 ADD MSTORE POP JUMP JUMPDEST PUSH1 0x0 PUSH2 0x878D PUSH1 0x27 DUP4 PUSH2 0x7497 JUMP JUMPDEST SWAP2 POP PUSH2 0x8798 DUP3 PUSH2 0x8731 JUMP JUMPDEST PUSH1 0x40 DUP3 ADD SWAP1 POP SWAP2 SWAP1 POP JUMP JUMPDEST PUSH1 0x0 PUSH1 0x20 DUP3 ADD SWAP1 POP DUP2 DUP2 SUB PUSH1 0x0 DUP4 ADD MSTORE PUSH2 0x87BC DUP2 PUSH2 0x8780 JUMP JUMPDEST SWAP1 POP SWAP2 SWAP1 POP JUMP JUMPDEST PUSH1 0x0 PUSH1 0xC0 DUP3 ADD SWAP1 POP PUSH2 0x87D8 PUSH1 0x0 DUP4 ADD DUP10 PUSH2 0x7446 JUMP JUMPDEST PUSH2 0x87E5 PUSH1 0x20 DUP4 ADD DUP9 PUSH2 0x7446 JUMP JUMPDEST PUSH2 0x87F2 PUSH1 0x40 DUP4 ADD DUP8 PUSH2 0x7446 JUMP JUMPDEST PUSH2 0x87FF PUSH1 0x60 DUP4 ADD DUP7 PUSH2 0x7446 JUMP JUMPDEST PUSH2 0x880C PUSH1 0x80 DUP4 ADD DUP6 PUSH2 0x7446 JUMP JUMPDEST PUSH2 0x8819 PUSH1 0xA0 DUP4 ADD DUP5 PUSH2 0x7446 JUMP JUMPDEST SWAP8 SWAP7 POP POP POP POP POP POP POP JUMP JUMPDEST PUSH1 0x0 DUP2 MLOAD SWAP1 POP PUSH2 0x8833 DUP2 PUSH2 0x7181 JUMP JUMPDEST SWAP3 SWAP2 POP POP JUMP JUMPDEST PUSH1 0x0 PUSH1 0x20 DUP3 DUP5 SUB SLT ISZERO PUSH2 0x884F JUMPI PUSH2 0x884E PUSH2 0x7145 JUMP JUMPDEST JUMPDEST PUSH1 0x0 PUSH2 0x885D DUP5 DUP3 DUP6 ADD PUSH2 0x8824 JUMP JUMPDEST SWAP2 POP POP SWAP3 SWAP2 POP POP JUMP JUMPDEST PUSH1 0x0 PUSH1 0x40 DUP3 ADD SWAP1 POP PUSH2 0x887B PUSH1 0x0 DUP4 ADD DUP6 PUSH2 0x7221 JUMP JUMPDEST PUSH2 0x8888 PUSH1 0x20 DUP4 ADD DUP5 PUSH2 0x7221 JUMP JUMPDEST SWAP4 SWAP3 POP POP POP JUMP JUMPDEST PUSH32 0x5468726573686F6C642063616E6E6F742062652061626F766520616D6F756E74 PUSH1 0x0 DUP3 ADD MSTORE PUSH32 0x2E00000000000000000000000000000000000000000000000000000000000000 PUSH1 0x20 DUP3 ADD MSTORE POP JUMP JUMPDEST PUSH1 0x0 PUSH2 0x88EB PUSH1 0x21 DUP4 PUSH2 0x7497 JUMP JUMPDEST SWAP2 POP PUSH2 0x88F6 DUP3 PUSH2 0x888F JUMP JUMPDEST PUSH1 0x40 DUP3 ADD SWAP1 POP SWAP2 SWAP1 POP JUMP JUMPDEST PUSH1 0x0 PUSH1 0x20 DUP3 ADD SWAP1 POP DUP2 DUP2 SUB PUSH1 0x0 DUP4 ADD MSTORE PUSH2 0x891A DUP2 PUSH2 0x88DE JUMP JUMPDEST SWAP1 POP SWAP2 SWAP1 POP JUMP JUMPDEST PUSH32 0x43616E6E6F742062652061626F766520312E3525206F662063757272656E7420 PUSH1 0x0 DUP3 ADD MSTORE PUSH32 0x50492E0000000000000000000000000000000000000000000000000000000000 PUSH1 0x20 DUP3 ADD MSTORE POP JUMP JUMPDEST PUSH1 0x0 PUSH2 0x897D PUSH1 0x23 DUP4 PUSH2 0x7497 JUMP JUMPDEST SWAP2 POP PUSH2 0x8988 DUP3 PUSH2 0x8921 JUMP JUMPDEST PUSH1 0x40 DUP3 ADD SWAP1 POP SWAP2 SWAP1 POP JUMP JUMPDEST PUSH1 0x0 PUSH1 0x20 DUP3 ADD SWAP1 POP DUP2 DUP2 SUB PUSH1 0x0 DUP4 ADD MSTORE PUSH2 0x89AC DUP2 PUSH2 0x8970 JUMP JUMPDEST SWAP1 POP SWAP2 SWAP1 POP JUMP JUMPDEST PUSH32 0x43616E6E6F74206265206C6F776572207468616E20302E303030303125206F66 PUSH1 0x0 DUP3 ADD MSTORE PUSH32 0x20746F74616C20737570706C792E000000000000000000000000000000000000 PUSH1 0x20 DUP3 ADD MSTORE POP JUMP JUMPDEST PUSH1 0x0 PUSH2 0x8A0F PUSH1 0x2E DUP4 PUSH2 0x7497 JUMP JUMPDEST SWAP2 POP PUSH2 0x8A1A DUP3 PUSH2 0x89B3 JUMP JUMPDEST PUSH1 0x40 DUP3 ADD SWAP1 POP SWAP2 SWAP1 POP JUMP JUMPDEST PUSH1 0x0 PUSH1 0x20 DUP3 ADD SWAP1 POP DUP2 DUP2 SUB PUSH1 0x0 DUP4 ADD MSTORE PUSH2 0x8A3E DUP2 PUSH2 0x8A02 JUMP JUMPDEST SWAP1 POP SWAP2 SWAP1 POP JUMP JUMPDEST PUSH1 0x0 PUSH1 0x80 DUP3 ADD SWAP1 POP PUSH2 0x8A5A PUSH1 0x0 DUP4 ADD DUP8 PUSH2 0x71F7 JUMP JUMPDEST PUSH2 0x8A67 PUSH1 0x20 DUP4 ADD DUP7 PUSH2 0x71F7 JUMP JUMPDEST PUSH2 0x8A74 PUSH1 0x40 DUP4 ADD DUP6 PUSH2 0x71F7 JUMP JUMPDEST PUSH2 0x8A81 PUSH1 0x60 DUP4 ADD DUP5 PUSH2 0x71F7 JUMP JUMPDEST SWAP6 SWAP5 POP POP POP POP POP JUMP JUMPDEST PUSH32 0x45524332303A205A65726F204164647265737300000000000000000000000000 PUSH1 0x0 DUP3 ADD MSTORE POP JUMP JUMPDEST PUSH1 0x0 PUSH2 0x8AC0 PUSH1 0x13 DUP4 PUSH2 0x7497 JUMP JUMPDEST SWAP2 POP PUSH2 0x8ACB DUP3 PUSH2 0x8A8A JUMP JUMPDEST PUSH1 0x20 DUP3 ADD SWAP1 POP SWAP2 SWAP1 POP JUMP JUMPDEST PUSH1 0x0 PUSH1 0x20 DUP3 ADD SWAP1 POP DUP2 DUP2 SUB PUSH1 0x0 DUP4 ADD MSTORE PUSH2 0x8AEF DUP2 PUSH2 0x8AB3 JUMP JUMPDEST SWAP1 POP SWAP2 SWAP1 POP JUMP JUMPDEST PUSH32 0x45524332303A207472616E736665722066726F6D20746865207A65726F206164 PUSH1 0x0 DUP3 ADD MSTORE PUSH32 0x6472657373000000000000000000000000000000000000000000000000000000 PUSH1 0x20 DUP3 ADD MSTORE POP JUMP JUMPDEST PUSH1 0x0 PUSH2 0x8B52 PUSH1 0x25 DUP4 PUSH2 0x7497 JUMP JUMPDEST SWAP2 POP PUSH2 0x8B5D DUP3 PUSH2 0x8AF6 JUMP JUMPDEST PUSH1 0x40 DUP3 ADD SWAP1 POP SWAP2 SWAP1 POP JUMP JUMPDEST PUSH1 0x0 PUSH1 0x20 DUP3 ADD SWAP1 POP DUP2 DUP2 SUB PUSH1 0x0 DUP4 ADD MSTORE PUSH2 0x8B81 DUP2 PUSH2 0x8B45 JUMP JUMPDEST SWAP1 POP SWAP2 SWAP1 POP JUMP JUMPDEST PUSH32 0x45524332303A207472616E7366657220746F20746865207A65726F2061646472 PUSH1 0x0 DUP3 ADD MSTORE PUSH32 0x6573730000000000000000000000000000000000000000000000000000000000 PUSH1 0x20 DUP3 ADD MSTORE POP JUMP JUMPDEST PUSH1 0x0 PUSH2 0x8BE4 PUSH1 0x23 DUP4 PUSH2 0x7497 JUMP JUMPDEST SWAP2 POP PUSH2 0x8BEF DUP3 PUSH2 0x8B88 JUMP JUMPDEST PUSH1 0x40 DUP3 ADD SWAP1 POP SWAP2 SWAP1 POP JUMP JUMPDEST PUSH1 0x0 PUSH1 0x20 DUP3 ADD SWAP1 POP DUP2 DUP2 SUB PUSH1 0x0 DUP4 ADD MSTORE PUSH2 0x8C13 DUP2 PUSH2 0x8BD7 JUMP JUMPDEST SWAP1 POP SWAP2 SWAP1 POP JUMP JUMPDEST PUSH32 0x45524332303A207472616E736665722066726F6D20626C61636B6C6973746564 PUSH1 0x0 DUP3 ADD MSTORE PUSH32 0x2061646472657373000000000000000000000000000000000000000000000000 PUSH1 0x20 DUP3 ADD MSTORE POP JUMP JUMPDEST PUSH1 0x0 PUSH2 0x8C76 PUSH1 0x28 DUP4 PUSH2 0x7497 JUMP JUMPDEST SWAP2 POP PUSH2 0x8C81 DUP3 PUSH2 0x8C1A JUMP JUMPDEST PUSH1 0x40 DUP3 ADD SWAP1 POP SWAP2 SWAP1 POP JUMP JUMPDEST PUSH1 0x0 PUSH1 0x20 DUP3 ADD SWAP1 POP DUP2 DUP2 SUB PUSH1 0x0 DUP4 ADD MSTORE PUSH2 0x8CA5 DUP2 PUSH2 0x8C69 JUMP JUMPDEST SWAP1 POP SWAP2 SWAP1 POP JUMP JUMPDEST PUSH32 0x45524332303A207472616E7366657220746F20626C61636B6C69737465642061 PUSH1 0x0 DUP3 ADD MSTORE PUSH32 0x6464726573730000000000000000000000000000000000000000000000000000 PUSH1 0x20 DUP3 ADD MSTORE POP JUMP JUMPDEST PUSH1 0x0 PUSH2 0x8D08 PUSH1 0x26 DUP4 PUSH2 0x7497 JUMP JUMPDEST SWAP2 POP PUSH2 0x8D13 DUP3 PUSH2 0x8CAC JUMP JUMPDEST PUSH1 0x40 DUP3 ADD SWAP1 POP SWAP2 SWAP1 POP JUMP JUMPDEST PUSH1 0x0 PUSH1 0x20 DUP3 ADD SWAP1 POP DUP2 DUP2 SUB PUSH1 0x0 DUP4 ADD MSTORE PUSH2 0x8D37 DUP2 PUSH2 0x8CFB JUMP JUMPDEST SWAP1 POP SWAP2 SWAP1 POP JUMP JUMPDEST PUSH32 0x5472616E7366657220616D6F756E74206D757374206265206772656174657220 PUSH1 0x0 DUP3 ADD MSTORE PUSH32 0x7468616E207A65726F0000000000000000000000000000000000000000000000 PUSH1 0x20 DUP3 ADD MSTORE POP JUMP JUMPDEST PUSH1 0x0 PUSH2 0x8D9A PUSH1 0x29 DUP4 PUSH2 0x7497 JUMP JUMPDEST SWAP2 POP PUSH2 0x8DA5 DUP3 PUSH2 0x8D3E JUMP JUMPDEST PUSH1 0x40 DUP3 ADD SWAP1 POP SWAP2 SWAP1 POP JUMP JUMPDEST PUSH1 0x0 PUSH1 0x20 DUP3 ADD SWAP1 POP DUP2 DUP2 SUB PUSH1 0x0 DUP4 ADD MSTORE PUSH2 0x8DC9 DUP2 PUSH2 0x8D8D JUMP JUMPDEST SWAP1 POP SWAP2 SWAP1 POP JUMP JUMPDEST PUSH32 0x54726164696E67206E6F742079657420656E61626C6564210000000000000000 PUSH1 0x0 DUP3 ADD MSTORE POP JUMP JUMPDEST PUSH1 0x0 PUSH2 0x8E06 PUSH1 0x18 DUP4 PUSH2 0x7497 JUMP JUMPDEST SWAP2 POP PUSH2 0x8E11 DUP3 PUSH2 0x8DD0 JUMP JUMPDEST PUSH1 0x20 DUP3 ADD SWAP1 POP SWAP2 SWAP1 POP JUMP JUMPDEST PUSH1 0x0 PUSH1 0x20 DUP3 ADD SWAP1 POP DUP2 DUP2 SUB PUSH1 0x0 DUP4 ADD MSTORE PUSH2 0x8E35 DUP2 PUSH2 0x8DF9 JUMP JUMPDEST SWAP1 POP SWAP2 SWAP1 POP JUMP JUMPDEST PUSH32 0x5472616E7366657220616D6F756E74206578636565647320746865206D617854 PUSH1 0x0 DUP3 ADD MSTORE PUSH32 0x78416D6F756E742E000000000000000000000000000000000000000000000000 PUSH1 0x20 DUP3 ADD MSTORE POP JUMP JUMPDEST PUSH1 0x0 PUSH2 0x8E98 PUSH1 0x28 DUP4 PUSH2 0x7497 JUMP JUMPDEST SWAP2 POP PUSH2 0x8EA3 DUP3 PUSH2 0x8E3C JUMP JUMPDEST PUSH1 0x40 DUP3 ADD SWAP1 POP SWAP2 SWAP1 POP JUMP JUMPDEST PUSH1 0x0 PUSH1 0x20 DUP3 ADD SWAP1 POP DUP2 DUP2 SUB PUSH1 0x0 DUP4 ADD MSTORE PUSH2 0x8EC7 DUP2 PUSH2 0x8E8B JUMP JUMPDEST SWAP1 POP SWAP2 SWAP1 POP JUMP JUMPDEST PUSH32 0x5472616E7366657220616D6F756E74206578636565647320746865206D617857 PUSH1 0x0 DUP3 ADD MSTORE PUSH32 0x616C6C657453697A652E00000000000000000000000000000000000000000000 PUSH1 0x20 DUP3 ADD MSTORE POP JUMP JUMPDEST PUSH1 0x0 PUSH2 0x8F2A PUSH1 0x2A DUP4 PUSH2 0x7497 JUMP JUMPDEST SWAP2 POP PUSH2 0x8F35 DUP3 PUSH2 0x8ECE JUMP JUMPDEST PUSH1 0x40 DUP3 ADD SWAP1 POP SWAP2 SWAP1 POP JUMP JUMPDEST PUSH1 0x0 PUSH1 0x20 DUP3 ADD SWAP1 POP DUP2 DUP2 SUB PUSH1 0x0 DUP4 ADD MSTORE PUSH2 0x8F59 DUP2 PUSH2 0x8F1D JUMP JUMPDEST SWAP1 POP SWAP2 SWAP1 POP JUMP JUMPDEST PUSH1 0x0 PUSH2 0x8F6B DUP3 PUSH2 0x7733 JUMP JUMPDEST SWAP2 POP PUSH1 0xFF DUP3 SUB PUSH2 0x8F7E JUMPI PUSH2 0x8F7D PUSH2 0x7C9B JUMP JUMPDEST JUMPDEST PUSH1 0x1 DUP3 ADD SWAP1 POP SWAP2 SWAP1 POP JUMP JUMPDEST PUSH32 0x5072652D6C6971756964697479207472616E736665722070726F74656374696F PUSH1 0x0 DUP3 ADD MSTORE PUSH32 0x6E2E000000000000000000000000000000000000000000000000000000000000 PUSH1 0x20 DUP3 ADD MSTORE POP JUMP JUMPDEST PUSH1 0x0 PUSH2 0x8FE5 PUSH1 0x22 DUP4 PUSH2 0x7497 JUMP JUMPDEST SWAP2 POP PUSH2 0x8FF0 DUP3 PUSH2 0x8F89 JUMP JUMPDEST PUSH1 0x40 DUP3 ADD SWAP1 POP SWAP2 SWAP1 POP JUMP JUMPDEST PUSH1 0x0 PUSH1 0x20 DUP3 ADD SWAP1 POP DUP2 DUP2 SUB PUSH1 0x0 DUP4 ADD MSTORE PUSH2 0x9014 DUP2 PUSH2 0x8FD8 JUMP JUMPDEST SWAP1 POP SWAP2 SWAP1 POP JUMP JUMPDEST PUSH1 0x0 DUP2 SWAP1 POP SWAP2 SWAP1 POP JUMP JUMPDEST PUSH1 0x0 PUSH2 0x9040 PUSH2 0x903B PUSH2 0x9036 DUP5 PUSH2 0x901B JUMP JUMPDEST PUSH2 0x7536 JUMP JUMPDEST PUSH2 0x71ED JUMP JUMPDEST SWAP1 POP SWAP2 SWAP1 POP JUMP JUMPDEST PUSH2 0x9050 DUP2 PUSH2 0x9025 JUMP JUMPDEST DUP3 MSTORE POP POP JUMP JUMPDEST PUSH1 0x0 DUP2 MLOAD SWAP1 POP SWAP2 SWAP1 POP JUMP JUMPDEST PUSH1 0x0 DUP3 DUP3 MSTORE PUSH1 0x20 DUP3 ADD SWAP1 POP SWAP3 SWAP2 POP POP JUMP JUMPDEST PUSH1 0x0 DUP2 SWAP1 POP PUSH1 0x20 DUP3 ADD SWAP1 POP SWAP2 SWAP1 POP JUMP JUMPDEST PUSH2 0x908B DUP2 PUSH2 0x716F JUMP JUMPDEST DUP3 MSTORE POP POP JUMP JUMPDEST PUSH1 0x0 PUSH2 0x909D DUP4 DUP4 PUSH2 0x9082 JUMP JUMPDEST PUSH1 0x20 DUP4 ADD SWAP1 POP SWAP3 SWAP2 POP POP JUMP JUMPDEST PUSH1 0x0 PUSH1 0x20 DUP3 ADD SWAP1 POP SWAP2 SWAP1 POP JUMP JUMPDEST PUSH1 0x0 PUSH2 0x90C1 DUP3 PUSH2 0x9056 JUMP JUMPDEST PUSH2 0x90CB DUP2 DUP6 PUSH2 0x9061 JUMP JUMPDEST SWAP4 POP PUSH2 0x90D6 DUP4 PUSH2 0x9072 JUMP JUMPDEST DUP1 PUSH1 0x0 JUMPDEST DUP4 DUP2 LT ISZERO PUSH2 0x9107 JUMPI DUP2 MLOAD PUSH2 0x90EE DUP9 DUP3 PUSH2 0x9091 JUMP JUMPDEST SWAP8 POP PUSH2 0x90F9 DUP4 PUSH2 0x90A9 JUMP JUMPDEST SWAP3 POP POP PUSH1 0x1 DUP2 ADD SWAP1 POP PUSH2 0x90DA JUMP JUMPDEST POP DUP6 SWAP4 POP POP POP POP SWAP3 SWAP2 POP POP JUMP JUMPDEST PUSH1 0x0 PUSH1 0xA0 DUP3 ADD SWAP1 POP PUSH2 0x9129 PUSH1 0x0 DUP4 ADD DUP9 PUSH2 0x71F7 JUMP JUMPDEST PUSH2 0x9136 PUSH1 0x20 DUP4 ADD DUP8 PUSH2 0x9047 JUMP JUMPDEST DUP2 DUP2 SUB PUSH1 0x40 DUP4 ADD MSTORE PUSH2 0x9148 DUP2 DUP7 PUSH2 0x90B6 JUMP JUMPDEST SWAP1 POP PUSH2 0x9157 PUSH1 0x60 DUP4 ADD DUP6 PUSH2 0x7221 JUMP JUMPDEST PUSH2 0x9164 PUSH1 0x80 DUP4 ADD DUP5 PUSH2 0x71F7 JUMP JUMPDEST SWAP7 SWAP6 POP POP POP POP POP POP JUMP JUMPDEST PUSH1 0x0 PUSH1 0xC0 DUP3 ADD SWAP1 POP PUSH2 0x9183 PUSH1 0x0 DUP4 ADD DUP10 PUSH2 0x7221 JUMP JUMPDEST PUSH2 0x9190 PUSH1 0x20 DUP4 ADD DUP9 PUSH2 0x71F7 JUMP JUMPDEST PUSH2 0x919D PUSH1 0x40 DUP4 ADD DUP8 PUSH2 0x9047 JUMP JUMPDEST PUSH2 0x91AA PUSH1 0x60 DUP4 ADD DUP7 PUSH2 0x9047 JUMP JUMPDEST PUSH2 0x91B7 PUSH1 0x80 DUP4 ADD DUP6 PUSH2 0x7221 JUMP JUMPDEST PUSH2 0x91C4 PUSH1 0xA0 DUP4 ADD DUP5 PUSH2 0x71F7 JUMP JUMPDEST SWAP8 SWAP7 POP POP POP POP POP POP POP JUMP JUMPDEST PUSH1 0x0 DUP2 MLOAD SWAP1 POP PUSH2 0x91DE DUP2 PUSH2 0x75DA JUMP JUMPDEST SWAP3 SWAP2 POP POP JUMP JUMPDEST PUSH1 0x0 DUP1 PUSH1 0x0 PUSH1 0x60 DUP5 DUP7 SUB SLT ISZERO PUSH2 0x91FD JUMPI PUSH2 0x91FC PUSH2 0x7145 JUMP JUMPDEST JUMPDEST PUSH1 0x0 PUSH2 0x920B DUP7 DUP3 DUP8 ADD PUSH2 0x91CF JUMP JUMPDEST SWAP4 POP POP PUSH1 0x20 PUSH2 0x921C DUP7 DUP3 DUP8 ADD PUSH2 0x91CF JUMP JUMPDEST SWAP3 POP POP PUSH1 0x40 PUSH2 0x922D DUP7 DUP3 DUP8 ADD PUSH2 0x91CF JUMP JUMPDEST SWAP2 POP POP SWAP3 POP SWAP3 POP SWAP3 JUMP JUMPDEST PUSH1 0x0 PUSH2 0x9242 DUP3 PUSH2 0x7438 JUMP JUMPDEST SWAP2 POP PUSH2 0x924D DUP4 PUSH2 0x7438 JUMP JUMPDEST SWAP3 POP DUP3 DUP3 LT ISZERO PUSH2 0x9260 JUMPI PUSH2 0x925F PUSH2 0x7C9B JUMP JUMPDEST JUMPDEST DUP3 DUP3 SUB SWAP1 POP SWAP3 SWAP2 POP POP JUMP JUMPDEST PUSH1 0x0 DUP2 SWAP1 POP SWAP3 SWAP2 POP POP JUMP JUMPDEST POP JUMP JUMPDEST PUSH1 0x0 PUSH2 0x9286 PUSH1 0x0 DUP4 PUSH2 0x926B JUMP JUMPDEST SWAP2 POP PUSH2 0x9291 DUP3 PUSH2 0x9276 JUMP JUMPDEST PUSH1 0x0 DUP3 ADD SWAP1 POP SWAP2 SWAP1 POP JUMP JUMPDEST PUSH1 0x0 PUSH2 0x92A7 DUP3 PUSH2 0x9279 JUMP JUMPDEST SWAP2 POP DUP2 SWAP1 POP SWAP2 SWAP1 POP JUMP JUMPDEST PUSH32 0x4C697175696469747920616C726561647920616464656420616E64206D61726B PUSH1 0x0 DUP3 ADD MSTORE PUSH32 0x65642E0000000000000000000000000000000000000000000000000000000000 PUSH1 0x20 DUP3 ADD MSTORE POP JUMP JUMPDEST PUSH1 0x0 PUSH2 0x930D PUSH1 0x23 DUP4 PUSH2 0x7497 JUMP JUMPDEST SWAP2 POP PUSH2 0x9318 DUP3 PUSH2 0x92B1 JUMP JUMPDEST PUSH1 0x40 DUP3 ADD SWAP1 POP SWAP2 SWAP1 POP JUMP JUMPDEST PUSH1 0x0 PUSH1 0x20 DUP3 ADD SWAP1 POP DUP2 DUP2 SUB PUSH1 0x0 DUP4 ADD MSTORE PUSH2 0x933C DUP2 PUSH2 0x9300 JUMP JUMPDEST SWAP1 POP SWAP2 SWAP1 POP JUMP INVALID LOG2 PUSH5 0x6970667358 0x22 SLT KECCAK256 GAS 0xAA 0x21 0xBF 0xC8 DUP16 0xC 0xB0 BALANCE SDIV CALLDATACOPY 0xB5 REVERT 0xD4 0xBF SELFDESTRUCT 0xBD 0xB6 RETURN 0xCD DELEGATECALL LOG3 SIGNEXTEND CALL CALL 0x2E SHL PUSH19 0xDBC46C9864736F6C634300080E003300000000 "
		},
		"gasEstimates": {
			"creation": {
				"codeDepositCost": "7550600",
				"executionCost": "infinite",
				"totalCost": "infinite"
			},
			"external": {
				"DEAD()": "470",
				"_allowances(address,address)": "infinite",
				"_hasLiqBeenAdded()": "2676",
				"_isBlacklisted(address)": "2957",
				"_isExcludedFromFees(address)": "2956",
				"_isExcludedFromLimits(address)": "3000",
				"_isExcludedFromProtection(address)": "2956",
				"_isExcludedFromReflection(address)": "2912",
				"_liquidityHolders(address)": "2935",
				"_ratios()": "infinite",
				"_refBalance(address)": "2882",
				"_refExclusionList(uint256)": "5089",
				"_taxRates()": "infinite",
				"_taxWallets()": "infinite",
				"_tokenBalance(address)": "2947",
				"allowance(address,address)": "infinite",
				"approve(address,uint256)": "infinite",
				"approveContractContingency()": "29194",
				"balanceOf(address)": "infinite",
				"batchSender(address[],uint256[])": "infinite",
				"contractSwapEnabled()": "2631",
				"decimals()": "433",
				"dexRouter()": "infinite",
				"enableTrading()": "infinite",
				"excludePresaleAddress(address)": "infinite",
				"getCirculatingSupply()": "infinite",
				"getMaxTX()": "infinite",
				"getMaxWallet()": "infinite",
				"getOwner()": "2640",
				"getTokenAmountAtPriceImpact(uint256)": "infinite",
				"isBlacklisted(address)": "3015",
				"isExcludedFromFees(address)": "3016",
				"isExcludedFromLimits(address)": "2974",
				"isExcludedFromProtection(address)": "2974",
				"isExcludedFromReflection(address)": "2995",
				"lockTaxes()": "27498",
				"lpPair()": "2626",
				"lpPairs(address)": "2935",
				"maxBuyTaxes()": "442",
				"maxSellTaxes()": "484",
				"maxTransferTaxes()": "462",
				"name()": "infinite",
				"piContractSwapsEnabled()": "2539",
				"piSwapPercent()": "2498",
				"presaleAddresses(address)": "2958",
				"setBlacklistEnabled(address,bool)": "infinite",
				"setBlacklistEnabledMultiple(address[],bool)": "infinite",
				"setContractSwapEnabled(bool,bool)": "infinite",
				"setDexRouter(address)": "infinite",
				"setExcludedFromFees(address,bool)": "infinite",
				"setExcludedFromLimits(address,bool)": "infinite",
				"setExcludedFromProtection(address,bool)": "infinite",
				"setExcludedFromReflection(address,bool)": "infinite",
				"setLpPair(address,bool)": "infinite",
				"setMaxTxPercent(uint256,uint256)": "infinite",
				"setMaxWalletSize(uint256,uint256)": "infinite",
				"setPriceImpactSwapAmount(uint256)": "infinite",
				"setRatios(uint16,uint16,uint16,uint16,uint16,uint16)": "infinite",
				"setSwapSettings(uint256,uint256,uint256,uint256)": "infinite",
				"setTaxes(uint16,uint16,uint16)": "infinite",
				"setWallets(address,address,address,address)": "infinite",
				"swapAmount()": "2497",
				"swapThreshold()": "2543",
				"symbol()": "infinite",
				"taxesAreLocked()": "2606",
				"tokenFromReflection(uint256)": "infinite",
				"totalSupply()": "infinite",
				"tradingEnabled()": "2605",
				"transfer(address,uint256)": "infinite",
				"transferFrom(address,address,uint256)": "infinite",
				"transferOwner(address)": "infinite"
			},
			"internal": {
				"_approve(address,address,uint256)": "infinite",
				"_checkLiquidityAdd(address,address)": "infinite",
				"_getRate()": "infinite",
				"_hasLimits(address,address)": "11351",
				"_transfer(address,address,uint256)": "infinite",
				"contractSwap(uint256)": "infinite",
				"finalizeTransfer(address,address,uint256,bool,bool,bool)": "infinite",
				"takeTaxes(address,uint256,bool,bool,bool)": "infinite"
			}
		},
		"methodIdentifiers": {
			"DEAD()": "03fd2a45",
			"_allowances(address,address)": "024c2ddd",
			"_hasLiqBeenAdded()": "50a8e016",
			"_isBlacklisted(address)": "1cdd3be3",
			"_isExcludedFromFees(address)": "e0bf7fd1",
			"_isExcludedFromLimits(address)": "e550573d",
			"_isExcludedFromProtection(address)": "aef0ebeb",
			"_isExcludedFromReflection(address)": "ee5f4dd3",
			"_liquidityHolders(address)": "1c5ae3b8",
			"_ratios()": "cf847706",
			"_refBalance(address)": "18fc02d1",
			"_refExclusionList(uint256)": "f8c1844d",
			"_taxRates()": "069d955f",
			"_taxWallets()": "f94aa1b4",
			"_tokenBalance(address)": "e1aeb58f",
			"allowance(address,address)": "dd62ed3e",
			"approve(address,uint256)": "095ea7b3",
			"approveContractContingency()": "8a63bd9b",
			"balanceOf(address)": "70a08231",
			"batchSender(address[],uint256[])": "43c788bb",
			"contractSwapEnabled()": "fdb78c0e",
			"decimals()": "313ce567",
			"dexRouter()": "0758d924",
			"enableTrading()": "8a8c523c",
			"excludePresaleAddress(address)": "cbc87098",
			"getCirculatingSupply()": "2b112e49",
			"getMaxTX()": "6ebd0078",
			"getMaxWallet()": "0fa604e4",
			"getOwner()": "893d20e8",
			"getTokenAmountAtPriceImpact(uint256)": "4bbb93eb",
			"isBlacklisted(address)": "fe575a87",
			"isExcludedFromFees(address)": "4fbee193",
			"isExcludedFromLimits(address)": "5cce86cd",
			"isExcludedFromProtection(address)": "0dcbcf1c",
			"isExcludedFromReflection(address)": "7d459db3",
			"lockTaxes()": "78648edf",
			"lpPair()": "452ed4f1",
			"lpPairs(address)": "43cc8c2a",
			"maxBuyTaxes()": "2b28fc7a",
			"maxSellTaxes()": "b3d514fb",
			"maxTransferTaxes()": "b1b08f71",
			"name()": "06fdde03",
			"piContractSwapsEnabled()": "b7df8b36",
			"piSwapPercent()": "28577751",
			"presaleAddresses(address)": "66fca980",
			"setBlacklistEnabled(address,bool)": "eec2744e",
			"setBlacklistEnabledMultiple(address[],bool)": "05bbedb6",
			"setContractSwapEnabled(bool,bool)": "bfc2fc35",
			"setDexRouter(address)": "f72f863b",
			"setExcludedFromFees(address,bool)": "590ffdce",
			"setExcludedFromLimits(address,bool)": "36fddb04",
			"setExcludedFromProtection(address,bool)": "feadde9c",
			"setExcludedFromReflection(address,bool)": "9515ff2a",
			"setLpPair(address,bool)": "80c581d1",
			"setMaxTxPercent(uint256,uint256)": "3f3cf56c",
			"setMaxWalletSize(uint256,uint256)": "26003957",
			"setPriceImpactSwapAmount(uint256)": "4e718e48",
			"setRatios(uint16,uint16,uint16,uint16,uint16,uint16)": "d69153c9",
			"setSwapSettings(uint256,uint256,uint256,uint256)": "fb78680d",
			"setTaxes(uint16,uint16,uint16)": "32cde664",
			"setWallets(address,address,address,address)": "83672f3e",
			"swapAmount()": "2e8fa821",
			"swapThreshold()": "0445b667",
			"symbol()": "95d89b41",
			"taxesAreLocked()": "07dd79e0",
			"tokenFromReflection(uint256)": "2d838119",
			"totalSupply()": "18160ddd",
			"tradingEnabled()": "4ada218b",
			"transfer(address,uint256)": "a9059cbb",
			"transferFrom(address,address,uint256)": "23b872dd",
			"transferOwner(address)": "4fb2e45d"
		}
	},
	"abi": [
		{
			"inputs": [],
			"stateMutability": "payable",
			"type": "constructor"
		},
		{
			"anonymous": false,
			"inputs": [
				{
					"indexed": true,
					"internalType": "address",
					"name": "owner",
					"type": "address"
				},
				{
					"indexed": true,
					"internalType": "address",
					"name": "spender",
					"type": "address"
				},
				{
					"indexed": false,
					"internalType": "uint256",
					"name": "value",
					"type": "uint256"
				}
			],
			"name": "Approval",
			"type": "event"
		},
		{
			"anonymous": false,
			"inputs": [
				{
					"indexed": false,
					"internalType": "uint256",
					"name": "amountCurrency",
					"type": "uint256"
				},
				{
					"indexed": false,
					"internalType": "uint256",
					"name": "amountTokens",
					"type": "uint256"
				}
			],
			"name": "AutoLiquify",
			"type": "event"
		},
		{
			"anonymous": false,
			"inputs": [
				{
					"indexed": false,
					"internalType": "address",
					"name": "account",
					"type": "address"
				},
				{
					"indexed": false,
					"internalType": "bool",
					"name": "enabled",
					"type": "bool"
				}
			],
			"name": "BlacklistSet",
			"type": "event"
		},
		{
			"anonymous": false,
			"inputs": [
				{
					"indexed": false,
					"internalType": "bool",
					"name": "enabled",
					"type": "bool"
				}
			],
			"name": "ContractSwapEnabledUpdated",
			"type": "event"
		},
		{
			"anonymous": false,
			"inputs": [
				{
					"indexed": false,
					"internalType": "address",
					"name": "newRouter",
					"type": "address"
				}
			],
			"name": "DexRouterSet",
			"type": "event"
		},
		{
			"anonymous": false,
			"inputs": [
				{
					"indexed": false,
					"internalType": "address",
					"name": "account",
					"type": "address"
				},
				{
					"indexed": false,
					"internalType": "bool",
					"name": "enabled",
					"type": "bool"
				}
			],
			"name": "ExcludedFromFees",
			"type": "event"
		},
		{
			"anonymous": false,
			"inputs": [
				{
					"indexed": false,
					"internalType": "address",
					"name": "account",
					"type": "address"
				},
				{
					"indexed": false,
					"internalType": "bool",
					"name": "enabled",
					"type": "bool"
				}
			],
			"name": "ExcludedFromLimits",
			"type": "event"
		},
		{
			"anonymous": false,
			"inputs": [
				{
					"indexed": false,
					"internalType": "address",
					"name": "account",
					"type": "address"
				},
				{
					"indexed": false,
					"internalType": "bool",
					"name": "enabled",
					"type": "bool"
				}
			],
			"name": "ExcludedFromProtection",
			"type": "event"
		},
		{
			"anonymous": false,
			"inputs": [
				{
					"indexed": false,
					"internalType": "address",
					"name": "pair",
					"type": "address"
				},
				{
					"indexed": false,
					"internalType": "bool",
					"name": "enabled",
					"type": "bool"
				}
			],
			"name": "LpPairSet",
			"type": "event"
		},
		{
			"anonymous": false,
			"inputs": [
				{
					"indexed": false,
					"internalType": "uint256",
					"name": "percent",
					"type": "uint256"
				},
				{
					"indexed": false,
					"internalType": "uint256",
					"name": "divisor",
					"type": "uint256"
				}
			],
			"name": "MaxTxPercentSet",
			"type": "event"
		},
		{
			"anonymous": false,
			"inputs": [
				{
					"indexed": false,
					"internalType": "uint256",
					"name": "percent",
					"type": "uint256"
				},
				{
					"indexed": false,
					"internalType": "uint256",
					"name": "divisor",
					"type": "uint256"
				}
			],
			"name": "MaxWalletSizeSet",
			"type": "event"
		},
		{
			"anonymous": false,
			"inputs": [
				{
					"indexed": true,
					"internalType": "address",
					"name": "previousOwner",
					"type": "address"
				},
				{
					"indexed": true,
					"internalType": "address",
					"name": "newOwner",
					"type": "address"
				}
			],
			"name": "OwnershipTransferred",
			"type": "event"
		},
		{
			"anonymous": false,
			"inputs": [
				{
					"indexed": false,
					"internalType": "address",
					"name": "presale",
					"type": "address"
				}
			],
			"name": "PresaleAddressExcluded",
			"type": "event"
		},
		{
			"anonymous": false,
			"inputs": [
				{
					"indexed": false,
					"internalType": "uint256",
					"name": "priceImpactSwapPercent",
					"type": "uint256"
				}
			],
			"name": "PriceImpactSwapAmountSet",
			"type": "event"
		},
		{
			"anonymous": false,
			"inputs": [
				{
					"indexed": false,
					"internalType": "uint16",
					"name": "reflection",
					"type": "uint16"
				},
				{
					"indexed": false,
					"internalType": "uint16",
					"name": "liquidity",
					"type": "uint16"
				},
				{
					"indexed": false,
					"internalType": "uint16",
					"name": "charity",
					"type": "uint16"
				},
				{
					"indexed": false,
					"internalType": "uint16",
					"name": "development",
					"type": "uint16"
				},
				{
					"indexed": false,
					"internalType": "uint16",
					"name": "marketing",
					"type": "uint16"
				},
				{
					"indexed": false,
					"internalType": "uint16",
					"name": "buyback",
					"type": "uint16"
				}
			],
			"name": "RatiosSet",
			"type": "event"
		},
		{
			"anonymous": false,
			"inputs": [
				{
					"indexed": false,
					"internalType": "uint256",
					"name": "thresholdPercent",
					"type": "uint256"
				},
				{
					"indexed": false,
					"internalType": "uint256",
					"name": "thresholdDivisor",
					"type": "uint256"
				},
				{
					"indexed": false,
					"internalType": "uint256",
					"name": "amountPercent",
					"type": "uint256"
				},
				{
					"indexed": false,
					"internalType": "uint256",
					"name": "amountDivisor",
					"type": "uint256"
				}
			],
			"name": "SwapSettingsSet",
			"type": "event"
		},
		{
			"anonymous": false,
			"inputs": [],
			"name": "TaxesLocked",
			"type": "event"
		},
		{
			"anonymous": false,
			"inputs": [
				{
					"indexed": false,
					"internalType": "uint16",
					"name": "buyFee",
					"type": "uint16"
				},
				{
					"indexed": false,
					"internalType": "uint16",
					"name": "sellFee",
					"type": "uint16"
				},
				{
					"indexed": false,
					"internalType": "uint16",
					"name": "transferFee",
					"type": "uint16"
				}
			],
			"name": "TaxesSet",
			"type": "event"
		},
		{
			"anonymous": false,
			"inputs": [],
			"name": "TradingEnabled",
			"type": "event"
		},
		{
			"anonymous": false,
			"inputs": [
				{
					"indexed": true,
					"internalType": "address",
					"name": "from",
					"type": "address"
				},
				{
					"indexed": true,
					"internalType": "address",
					"name": "to",
					"type": "address"
				},
				{
					"indexed": false,
					"internalType": "uint256",
					"name": "value",
					"type": "uint256"
				}
			],
			"name": "Transfer",
			"type": "event"
		},
		{
			"anonymous": false,
			"inputs": [
				{
					"indexed": false,
					"internalType": "address",
					"name": "marketing",
					"type": "address"
				},
				{
					"indexed": false,
					"internalType": "address",
					"name": "charity",
					"type": "address"
				},
				{
					"indexed": false,
					"internalType": "address",
					"name": "development",
					"type": "address"
				},
				{
					"indexed": false,
					"internalType": "address",
					"name": "buyback",
					"type": "address"
				}
			],
			"name": "WalletsSet",
			"type": "event"
		},
		{
			"inputs": [],
			"name": "DEAD",
			"outputs": [
				{
					"internalType": "address",
					"name": "",
					"type": "address"
				}
			],
			"stateMutability": "view",
			"type": "function"
		},
		{
			"inputs": [
				{
					"internalType": "address",
					"name": "",
					"type": "address"
				},
				{
					"internalType": "address",
					"name": "",
					"type": "address"
				}
			],
			"name": "_allowances",
			"outputs": [
				{
					"internalType": "uint256",
					"name": "",
					"type": "uint256"
				}
			],
			"stateMutability": "view",
			"type": "function"
		},
		{
			"inputs": [],
			"name": "_hasLiqBeenAdded",
			"outputs": [
				{
					"internalType": "bool",
					"name": "",
					"type": "bool"
				}
			],
			"stateMutability": "view",
			"type": "function"
		},
		{
			"inputs": [
				{
					"internalType": "address",
					"name": "",
					"type": "address"
				}
			],
			"name": "_isBlacklisted",
			"outputs": [
				{
					"internalType": "bool",
					"name": "",
					"type": "bool"
				}
			],
			"stateMutability": "view",
			"type": "function"
		},
		{
			"inputs": [
				{
					"internalType": "address",
					"name": "",
					"type": "address"
				}
			],
			"name": "_isExcludedFromFees",
			"outputs": [
				{
					"internalType": "bool",
					"name": "",
					"type": "bool"
				}
			],
			"stateMutability": "view",
			"type": "function"
		},
		{
			"inputs": [
				{
					"internalType": "address",
					"name": "",
					"type": "address"
				}
			],
			"name": "_isExcludedFromLimits",
			"outputs": [
				{
					"internalType": "bool",
					"name": "",
					"type": "bool"
				}
			],
			"stateMutability": "view",
			"type": "function"
		},
		{
			"inputs": [
				{
					"internalType": "address",
					"name": "",
					"type": "address"
				}
			],
			"name": "_isExcludedFromProtection",
			"outputs": [
				{
					"internalType": "bool",
					"name": "",
					"type": "bool"
				}
			],
			"stateMutability": "view",
			"type": "function"
		},
		{
			"inputs": [
				{
					"internalType": "address",
					"name": "",
					"type": "address"
				}
			],
			"name": "_isExcludedFromReflection",
			"outputs": [
				{
					"internalType": "bool",
					"name": "",
					"type": "bool"
				}
			],
			"stateMutability": "view",
			"type": "function"
		},
		{
			"inputs": [
				{
					"internalType": "address",
					"name": "",
					"type": "address"
				}
			],
			"name": "_liquidityHolders",
			"outputs": [
				{
					"internalType": "bool",
					"name": "",
					"type": "bool"
				}
			],
			"stateMutability": "view",
			"type": "function"
		},
		{
			"inputs": [],
			"name": "_ratios",
			"outputs": [
				{
					"internalType": "uint16",
					"name": "reflection",
					"type": "uint16"
				},
				{
					"internalType": "uint16",
					"name": "liquidity",
					"type": "uint16"
				},
				{
					"internalType": "uint16",
					"name": "marketing",
					"type": "uint16"
				},
				{
					"internalType": "uint16",
					"name": "development",
					"type": "uint16"
				},
				{
					"internalType": "uint16",
					"name": "charity",
					"type": "uint16"
				},
				{
					"internalType": "uint16",
					"name": "buyback",
					"type": "uint16"
				},
				{
					"internalType": "uint16",
					"name": "totalSwap",
					"type": "uint16"
				}
			],
			"stateMutability": "view",
			"type": "function"
		},
		{
			"inputs": [
				{
					"internalType": "address",
					"name": "",
					"type": "address"
				}
			],
			"name": "_refBalance",
			"outputs": [
				{
					"internalType": "uint256",
					"name": "",
					"type": "uint256"
				}
			],
			"stateMutability": "view",
			"type": "function"
		},
		{
			"inputs": [
				{
					"internalType": "uint256",
					"name": "",
					"type": "uint256"
				}
			],
			"name": "_refExclusionList",
			"outputs": [
				{
					"internalType": "address",
					"name": "",
					"type": "address"
				}
			],
			"stateMutability": "view",
			"type": "function"
		},
		{
			"inputs": [],
			"name": "_taxRates",
			"outputs": [
				{
					"internalType": "uint16",
					"name": "buyFee",
					"type": "uint16"
				},
				{
					"internalType": "uint16",
					"name": "sellFee",
					"type": "uint16"
				},
				{
					"internalType": "uint16",
					"name": "transferFee",
					"type": "uint16"
				}
			],
			"stateMutability": "view",
			"type": "function"
		},
		{
			"inputs": [],
			"name": "_taxWallets",
			"outputs": [
				{
					"internalType": "address payable",
					"name": "marketing",
					"type": "address"
				},
				{
					"internalType": "address payable",
					"name": "development",
					"type": "address"
				},
				{
					"internalType": "address payable",
					"name": "charity",
					"type": "address"
				},
				{
					"internalType": "address payable",
					"name": "buyback",
					"type": "address"
				}
			],
			"stateMutability": "view",
			"type": "function"
		},
		{
			"inputs": [
				{
					"internalType": "address",
					"name": "",
					"type": "address"
				}
			],
			"name": "_tokenBalance",
			"outputs": [
				{
					"internalType": "uint256",
					"name": "",
					"type": "uint256"
				}
			],
			"stateMutability": "view",
			"type": "function"
		},
		{
			"inputs": [
				{
					"internalType": "address",
					"name": "holder",
					"type": "address"
				},
				{
					"internalType": "address",
					"name": "spender",
					"type": "address"
				}
			],
			"name": "allowance",
			"outputs": [
				{
					"internalType": "uint256",
					"name": "",
					"type": "uint256"
				}
			],
			"stateMutability": "view",
			"type": "function"
		},
		{
			"inputs": [
				{
					"internalType": "address",
					"name": "spender",
					"type": "address"
				},
				{
					"internalType": "uint256",
					"name": "amount",
					"type": "uint256"
				}
			],
			"name": "approve",
			"outputs": [
				{
					"internalType": "bool",
					"name": "",
					"type": "bool"
				}
			],
			"stateMutability": "nonpayable",
			"type": "function"
		},
		{
			"inputs": [],
			"name": "approveContractContingency",
			"outputs": [
				{
					"internalType": "bool",
					"name": "",
					"type": "bool"
				}
			],
			"stateMutability": "nonpayable",
			"type": "function"
		},
		{
			"inputs": [
				{
					"internalType": "address",
					"name": "account",
					"type": "address"
				}
			],
			"name": "balanceOf",
			"outputs": [
				{
					"internalType": "uint256",
					"name": "",
					"type": "uint256"
				}
			],
			"stateMutability": "view",
			"type": "function"
		},
		{
			"inputs": [
				{
					"internalType": "address[]",
					"name": "accounts",
					"type": "address[]"
				},
				{
					"internalType": "uint256[]",
					"name": "amounts",
					"type": "uint256[]"
				}
			],
			"name": "batchSender",
			"outputs": [],
			"stateMutability": "nonpayable",
			"type": "function"
		},
		{
			"inputs": [],
			"name": "contractSwapEnabled",
			"outputs": [
				{
					"internalType": "bool",
					"name": "",
					"type": "bool"
				}
			],
			"stateMutability": "view",
			"type": "function"
		},
		{
			"inputs": [],
			"name": "decimals",
			"outputs": [
				{
					"internalType": "uint8",
					"name": "",
					"type": "uint8"
				}
			],
			"stateMutability": "pure",
			"type": "function"
		},
		{
			"inputs": [],
			"name": "dexRouter",
			"outputs": [
				{
					"internalType": "contract IRouter02",
					"name": "",
					"type": "address"
				}
			],
			"stateMutability": "view",
			"type": "function"
		},
		{
			"inputs": [],
			"name": "enableTrading",
			"outputs": [],
			"stateMutability": "nonpayable",
			"type": "function"
		},
		{
			"inputs": [
				{
					"internalType": "address",
					"name": "presale",
					"type": "address"
				}
			],
			"name": "excludePresaleAddress",
			"outputs": [],
			"stateMutability": "nonpayable",
			"type": "function"
		},
		{
			"inputs": [],
			"name": "getCirculatingSupply",
			"outputs": [
				{
					"internalType": "uint256",
					"name": "",
					"type": "uint256"
				}
			],
			"stateMutability": "view",
			"type": "function"
		},
		{
			"inputs": [],
			"name": "getMaxTX",
			"outputs": [
				{
					"internalType": "uint256",
					"name": "",
					"type": "uint256"
				}
			],
			"stateMutability": "view",
			"type": "function"
		},
		{
			"inputs": [],
			"name": "getMaxWallet",
			"outputs": [
				{
					"internalType": "uint256",
					"name": "",
					"type": "uint256"
				}
			],
			"stateMutability": "view",
			"type": "function"
		},
		{
			"inputs": [],
			"name": "getOwner",
			"outputs": [
				{
					"internalType": "address",
					"name": "",
					"type": "address"
				}
			],
			"stateMutability": "view",
			"type": "function"
		},
		{
			"inputs": [
				{
					"internalType": "uint256",
					"name": "priceImpactInHundreds",
					"type": "uint256"
				}
			],
			"name": "getTokenAmountAtPriceImpact",
			"outputs": [
				{
					"internalType": "uint256",
					"name": "",
					"type": "uint256"
				}
			],
			"stateMutability": "view",
			"type": "function"
		},
		{
			"inputs": [
				{
					"internalType": "address",
					"name": "account",
					"type": "address"
				}
			],
			"name": "isBlacklisted",
			"outputs": [
				{
					"internalType": "bool",
					"name": "",
					"type": "bool"
				}
			],
			"stateMutability": "view",
			"type": "function"
		},
		{
			"inputs": [
				{
					"internalType": "address",
					"name": "account",
					"type": "address"
				}
			],
			"name": "isExcludedFromFees",
			"outputs": [
				{
					"internalType": "bool",
					"name": "",
					"type": "bool"
				}
			],
			"stateMutability": "view",
			"type": "function"
		},
		{
			"inputs": [
				{
					"internalType": "address",
					"name": "account",
					"type": "address"
				}
			],
			"name": "isExcludedFromLimits",
			"outputs": [
				{
					"internalType": "bool",
					"name": "",
					"type": "bool"
				}
			],
			"stateMutability": "view",
			"type": "function"
		},
		{
			"inputs": [
				{
					"internalType": "address",
					"name": "account",
					"type": "address"
				}
			],
			"name": "isExcludedFromProtection",
			"outputs": [
				{
					"internalType": "bool",
					"name": "",
					"type": "bool"
				}
			],
			"stateMutability": "view",
			"type": "function"
		},
		{
			"inputs": [
				{
					"internalType": "address",
					"name": "account",
					"type": "address"
				}
			],
			"name": "isExcludedFromReflection",
			"outputs": [
				{
					"internalType": "bool",
					"name": "",
					"type": "bool"
				}
			],
			"stateMutability": "view",
			"type": "function"
		},
		{
			"inputs": [],
			"name": "lockTaxes",
			"outputs": [],
			"stateMutability": "nonpayable",
			"type": "function"
		},
		{
			"inputs": [],
			"name": "lpPair",
			"outputs": [
				{
					"internalType": "address",
					"name": "",
					"type": "address"
				}
			],
			"stateMutability": "view",
			"type": "function"
		},
		{
			"inputs": [
				{
					"internalType": "address",
					"name": "",
					"type": "address"
				}
			],
			"name": "lpPairs",
			"outputs": [
				{
					"internalType": "bool",
					"name": "",
					"type": "bool"
				}
			],
			"stateMutability": "view",
			"type": "function"
		},
		{
			"inputs": [],
			"name": "maxBuyTaxes",
			"outputs": [
				{
					"internalType": "uint256",
					"name": "",
					"type": "uint256"
				}
			],
			"stateMutability": "view",
			"type": "function"
		},
		{
			"inputs": [],
			"name": "maxSellTaxes",
			"outputs": [
				{
					"internalType": "uint256",
					"name": "",
					"type": "uint256"
				}
			],
			"stateMutability": "view",
			"type": "function"
		},
		{
			"inputs": [],
			"name": "maxTransferTaxes",
			"outputs": [
				{
					"internalType": "uint256",
					"name": "",
					"type": "uint256"
				}
			],
			"stateMutability": "view",
			"type": "function"
		},
		{
			"inputs": [],
			"name": "name",
			"outputs": [
				{
					"internalType": "string",
					"name": "",
					"type": "string"
				}
			],
			"stateMutability": "pure",
			"type": "function"
		},
		{
			"inputs": [],
			"name": "piContractSwapsEnabled",
			"outputs": [
				{
					"internalType": "bool",
					"name": "",
					"type": "bool"
				}
			],
			"stateMutability": "view",
			"type": "function"
		},
		{
			"inputs": [],
			"name": "piSwapPercent",
			"outputs": [
				{
					"internalType": "uint256",
					"name": "",
					"type": "uint256"
				}
			],
			"stateMutability": "view",
			"type": "function"
		},
		{
			"inputs": [
				{
					"internalType": "address",
					"name": "",
					"type": "address"
				}
			],
			"name": "presaleAddresses",
			"outputs": [
				{
					"internalType": "bool",
					"name": "",
					"type": "bool"
				}
			],
			"stateMutability": "view",
			"type": "function"
		},
		{
			"inputs": [
				{
					"internalType": "address",
					"name": "account",
					"type": "address"
				},
				{
					"internalType": "bool",
					"name": "enabled",
					"type": "bool"
				}
			],
			"name": "setBlacklistEnabled",
			"outputs": [],
			"stateMutability": "nonpayable",
			"type": "function"
		},
		{
			"inputs": [
				{
					"internalType": "address[]",
					"name": "accounts",
					"type": "address[]"
				},
				{
					"internalType": "bool",
					"name": "enabled",
					"type": "bool"
				}
			],
			"name": "setBlacklistEnabledMultiple",
			"outputs": [],
			"stateMutability": "nonpayable",
			"type": "function"
		},
		{
			"inputs": [
				{
					"internalType": "bool",
					"name": "swapEnabled",
					"type": "bool"
				},
				{
					"internalType": "bool",
					"name": "priceImpactSwapEnabled",
					"type": "bool"
				}
			],
			"name": "setContractSwapEnabled",
			"outputs": [],
			"stateMutability": "nonpayable",
			"type": "function"
		},
		{
			"inputs": [
				{
					"internalType": "address",
					"name": "newRouter",
					"type": "address"
				}
			],
			"name": "setDexRouter",
			"outputs": [],
			"stateMutability": "nonpayable",
			"type": "function"
		},
		{
			"inputs": [
				{
					"internalType": "address",
					"name": "account",
					"type": "address"
				},
				{
					"internalType": "bool",
					"name": "enabled",
					"type": "bool"
				}
			],
			"name": "setExcludedFromFees",
			"outputs": [],
			"stateMutability": "nonpayable",
			"type": "function"
		},
		{
			"inputs": [
				{
					"internalType": "address",
					"name": "account",
					"type": "address"
				},
				{
					"internalType": "bool",
					"name": "enabled",
					"type": "bool"
				}
			],
			"name": "setExcludedFromLimits",
			"outputs": [],
			"stateMutability": "nonpayable",
			"type": "function"
		},
		{
			"inputs": [
				{
					"internalType": "address",
					"name": "account",
					"type": "address"
				},
				{
					"internalType": "bool",
					"name": "enabled",
					"type": "bool"
				}
			],
			"name": "setExcludedFromProtection",
			"outputs": [],
			"stateMutability": "nonpayable",
			"type": "function"
		},
		{
			"inputs": [
				{
					"internalType": "address",
					"name": "account",
					"type": "address"
				},
				{
					"internalType": "bool",
					"name": "enabled",
					"type": "bool"
				}
			],
			"name": "setExcludedFromReflection",
			"outputs": [],
			"stateMutability": "nonpayable",
			"type": "function"
		},
		{
			"inputs": [
				{
					"internalType": "address",
					"name": "pair",
					"type": "address"
				},
				{
					"internalType": "bool",
					"name": "enabled",
					"type": "bool"
				}
			],
			"name": "setLpPair",
			"outputs": [],
			"stateMutability": "nonpayable",
			"type": "function"
		},
		{
			"inputs": [
				{
					"internalType": "uint256",
					"name": "percent",
					"type": "uint256"
				},
				{
					"internalType": "uint256",
					"name": "divisor",
					"type": "uint256"
				}
			],
			"name": "setMaxTxPercent",
			"outputs": [],
			"stateMutability": "nonpayable",
			"type": "function"
		},
		{
			"inputs": [
				{
					"internalType": "uint256",
					"name": "percent",
					"type": "uint256"
				},
				{
					"internalType": "uint256",
					"name": "divisor",
					"type": "uint256"
				}
			],
			"name": "setMaxWalletSize",
			"outputs": [],
			"stateMutability": "nonpayable",
			"type": "function"
		},
		{
			"inputs": [
				{
					"internalType": "uint256",
					"name": "priceImpactSwapPercent",
					"type": "uint256"
				}
			],
			"name": "setPriceImpactSwapAmount",
			"outputs": [],
			"stateMutability": "nonpayable",
			"type": "function"
		},
		{
			"inputs": [
				{
					"internalType": "uint16",
					"name": "reflection",
					"type": "uint16"
				},
				{
					"internalType": "uint16",
					"name": "liquidity",
					"type": "uint16"
				},
				{
					"internalType": "uint16",
					"name": "charity",
					"type": "uint16"
				},
				{
					"internalType": "uint16",
					"name": "development",
					"type": "uint16"
				},
				{
					"internalType": "uint16",
					"name": "marketing",
					"type": "uint16"
				},
				{
					"internalType": "uint16",
					"name": "buyback",
					"type": "uint16"
				}
			],
			"name": "setRatios",
			"outputs": [],
			"stateMutability": "nonpayable",
			"type": "function"
		},
		{
			"inputs": [
				{
					"internalType": "uint256",
					"name": "thresholdPercent",
					"type": "uint256"
				},
				{
					"internalType": "uint256",
					"name": "thresholdDivisor",
					"type": "uint256"
				},
				{
					"internalType": "uint256",
					"name": "amountPercent",
					"type": "uint256"
				},
				{
					"internalType": "uint256",
					"name": "amountDivisor",
					"type": "uint256"
				}
			],
			"name": "setSwapSettings",
			"outputs": [],
			"stateMutability": "nonpayable",
			"type": "function"
		},
		{
			"inputs": [
				{
					"internalType": "uint16",
					"name": "buyFee",
					"type": "uint16"
				},
				{
					"internalType": "uint16",
					"name": "sellFee",
					"type": "uint16"
				},
				{
					"internalType": "uint16",
					"name": "transferFee",
					"type": "uint16"
				}
			],
			"name": "setTaxes",
			"outputs": [],
			"stateMutability": "nonpayable",
			"type": "function"
		},
		{
			"inputs": [
				{
					"internalType": "address payable",
					"name": "marketing",
					"type": "address"
				},
				{
					"internalType": "address payable",
					"name": "charity",
					"type": "address"
				},
				{
					"internalType": "address payable",
					"name": "development",
					"type": "address"
				},
				{
					"internalType": "address payable",
					"name": "buyback",
					"type": "address"
				}
			],
			"name": "setWallets",
			"outputs": [],
			"stateMutability": "nonpayable",
			"type": "function"
		},
		{
			"inputs": [],
			"name": "swapAmount",
			"outputs": [
				{
					"internalType": "uint256",
					"name": "",
					"type": "uint256"
				}
			],
			"stateMutability": "view",
			"type": "function"
		},
		{
			"inputs": [],
			"name": "swapThreshold",
			"outputs": [
				{
					"internalType": "uint256",
					"name": "",
					"type": "uint256"
				}
			],
			"stateMutability": "view",
			"type": "function"
		},
		{
			"inputs": [],
			"name": "symbol",
			"outputs": [
				{
					"internalType": "string",
					"name": "",
					"type": "string"
				}
			],
			"stateMutability": "pure",
			"type": "function"
		},
		{
			"inputs": [],
			"name": "taxesAreLocked",
			"outputs": [
				{
					"internalType": "bool",
					"name": "",
					"type": "bool"
				}
			],
			"stateMutability": "view",
			"type": "function"
		},
		{
			"inputs": [
				{
					"internalType": "uint256",
					"name": "rAmount",
					"type": "uint256"
				}
			],
			"name": "tokenFromReflection",
			"outputs": [
				{
					"internalType": "uint256",
					"name": "",
					"type": "uint256"
				}
			],
			"stateMutability": "view",
			"type": "function"
		},
		{
			"inputs": [],
			"name": "totalSupply",
			"outputs": [
				{
					"internalType": "uint256",
					"name": "",
					"type": "uint256"
				}
			],
			"stateMutability": "pure",
			"type": "function"
		},
		{
			"inputs": [],
			"name": "tradingEnabled",
			"outputs": [
				{
					"internalType": "bool",
					"name": "",
					"type": "bool"
				}
			],
			"stateMutability": "view",
			"type": "function"
		},
		{
			"inputs": [
				{
					"internalType": "address",
					"name": "recipient",
					"type": "address"
				},
				{
					"internalType": "uint256",
					"name": "amount",
					"type": "uint256"
				}
			],
			"name": "transfer",
			"outputs": [
				{
					"internalType": "bool",
					"name": "",
					"type": "bool"
				}
			],
			"stateMutability": "nonpayable",
			"type": "function"
		},
		{
			"inputs": [
				{
					"internalType": "address",
					"name": "sender",
					"type": "address"
				},
				{
					"internalType": "address",
					"name": "recipient",
					"type": "address"
				},
				{
					"internalType": "uint256",
					"name": "amount",
					"type": "uint256"
				}
			],
			"name": "transferFrom",
			"outputs": [
				{
					"internalType": "bool",
					"name": "",
					"type": "bool"
				}
			],
			"stateMutability": "nonpayable",
			"type": "function"
		},
		{
			"inputs": [
				{
					"internalType": "address",
					"name": "newOwner",
					"type": "address"
				}
			],
			"name": "transferOwner",
			"outputs": [],
			"stateMutability": "nonpayable",
			"type": "function"
		},
		{
			"stateMutability": "payable",
			"type": "receive"
		}
	]
}